:020000040800F2
:1000000088150020C1030008652900086729000839
:100010006B2900086F290008732900080000000000
:100020000000000000000000000000007729000828
:1000300079290008000000007B2900087D290008BC
:10004000DB030008DB030008DB030008DB03000818
:10005000DB030008DB030008DB030008DB03000808
:10006000DB030008DB030008DB030008DB030008F8
:10007000DB030008DB030008DB030008DB030008E8
:10008000DB030008DB030008DB030008DB030008D8
:10009000DB030008DB030008DB030008DB030008C8
:1000A000DB030008DB030008DB030008DB030008B8
:1000B0002F2A0008B72A0008292B0008DB030008B4
:1000C000DB030008DB030008DB030008DB03000898
:1000D000DB03000885290008DD290008DB03000890
:1000E000DB030008DB030008DB03000800F002F874
:1000F00000F067F80AA090E8000C82448344AAF15B
:100100000107DA4501D100F05CF8AFF2090EBAE858
:100110000F0013F0010F18BFFB1A43F0010318473B
:10012000D06D0000F06D00000A444FF0000C10F894
:10013000013B13F0070408BF10F8014B1D1108BF65
:1001400010F8015B641E05D010F8016B641E01F805
:10015000016BF9D113F0080F1EBF10F8014BAD1C55
:100160000C1B09D16D1E58BF01F801CBFAD505E073
:1001700014F8016B01F8016B6D1EF9D59142D6D3CD
:10018000704700000023002400250026103A28BFF5
:1001900078C1FBD8520728BF30C148BF0B607047F9
:1001A000662906F0E283002070471FB504F08AFC40
:1001B00004000020002105F0A1FBE0601FBD10B588
:1001C00010BD04F09FFD1146FFF7EFFF02F0CCFADF
:1001D00004F0BDFD03B4FFF7F2FF03BC02F094FD91
:1001E0000CB50020019000906C48006840F480300D
:1001F0006A49086000BF6948006800F40030009058
:100200000198401C0190009818B90198B0F5A06FB2
:10021000F1D16248006800F4003010B10120009074
:1002200001E0002000900098012843D15C4800685C
:1002300040F010005A4908600846006820F00300AA
:1002400008600846006840F00200086053484068B3
:10025000524948600846406848600846406840F493
:10026000806048600846406820F47C10486008467A
:10027000406840F4E81048600846006840F080702C
:10028000086000BF4548006800F000700028F9D001
:100290004248406820F003004049486008464068F2
:1002A00040F00200486000BF3C48406800F00C008D
:1002B0000828F9D10CBD10B5FFF792FF10BD10B59D
:1002C0003648006840F0010034490860084640683C
:1002D00034490840314948600846006832490840BE
:1002E0002E4908600846006820F48020086008460F
:1002F000406820F4FE0048604FF41F008860FFF75C
:10030000DAFF4FF000602949086010BD10B50021E8
:1003100000200022214B5B6803F00C0121B104296D
:1003200006D0082928D107E0214B224C236027E082
:100330001F4B204C236023E0184B5B6803F47010C4
:10034000164B5B6803F48032022303EB904022B922
:10035000194B4343174C23600DE0104B5B6803F4CB
:10036000003323B1144B4343124C236003E0104B82
:100370004343104C236003E00D4B0E4C236000BF41
:1003800000BF064B5B68C3F303130C4CE15C094BE5
:100390001B68CB40074C236010BD000000100240DA
:1003A000002002400000FFF8FFFFF6FE08ED00E02D
:1003B00000127A000000002000093D000400002027
:1003C0000948804709480047FEE7FEE7FEE7FEE7E9
:1003D000FEE7FEE7FEE7FEE7FEE7FEE70448054925
:1003E000054A064B70470000BF020008ED000008F8
:1003F000880F002088150020881100208811002017
:1004000031490143314A1160704770B50021002322
:100410000F22C47804B32D4C246804F4E064C4F5BE
:10042000E064210AC1F10403CA40447804FA03F1EC
:100430008478144021430901254C0678A15504789D
:1004400004F01F050124AC4005786D11AD0005F1E5
:10045000E025C5F8004109E0047804F01F050124F7
:10046000AC401C4D0678761145F8264070BD1A4AFE
:100470000A400243154B1B1F1A60704739B1134ADB
:10048000121D12680243114B1B1D1A6006E00F4A31
:10049000121D126882430D4B1B1D1A607047042801
:1004A00008D14FF0E021096941F004014FF0E0224A
:1004B000116107E04FF0E021096921F004014FF0DC
:1004C000E0221161704700000000FA050CED00E029
:1004D00000E400E080E100E080FFFF1F10B5012094
:1004E00000F0CCFD002000F0C9FD10BD2A490860D5
:1004F00070472949091F08607047274984310860FF
:10050000704701460020254A10884FF67F42104070
:100510000843224A10807047014600201F4A108875
:100520004FF68072104008431C4A1080704708B58F
:1005300000220092194A2C3A0092009A024400923A
:10054000009A116008BD08B50146002000901348CC
:100550002C3800900098084400900098008808BD4E
:100560000D489C300068C0B270470C4808300088C5
:1005700040F0010009490831088070470648A03062
:100580000068C0B2704705480830008840F002009B
:10059000024908310880704704860D422C6C0040E7
:1005A00001684FF6FE721140016000210160416058
:1005B0008160C1608D49884208D18C4908394968F9
:1005C00041F00F01894A083A51608AE087491431A5
:1005D000884208D185490839496841F0F001834AC9
:1005E000083A51607DE081492831884208D17F492D
:1005F0000839496841F470617C4A083A516070E0FA
:100600007A493C31884208D178490839496841F42F
:100610007041764A083A516063E07449503188422B
:1006200008D172490839496841F470216F4A083A83
:10063000516056E06D496431884208D16B490839F0
:10064000496841F47001694A083A516049E06749D4
:100650007831884208D165490839496841F07061AC
:10066000624A083A51603CE06149884206D1011F64
:10067000096841F00F01021F116032E05C4914313A
:10068000884208D15A49091F096841F0F001584AC7
:10069000121F116025E056492831884208D154497B
:1006A000091F096841F47061514A121F116018E076
:1006B0004F493C31884208D14D49091F096841F42E
:1006C00070414B4A121F11600BE04949503188427A
:1006D00007D14749091F096841F47021444A121F94
:1006E0001160704710B50022026847F6F0739A4314
:1006F0000C6A8B6823430C6923434C6923438C6940
:100700002343CC6923434C6A23438C6A23431A4313
:100710000260CB6843600B6883604B68C36010BDA8
:100720000021016041608160C160016141618161BE
:10073000C161016241628162704721B1026842F089
:100740000102026004E002684FF6FE731A40026084
:1007500070471AB103680B43036002E003688B43E0
:1007600003607047416070470146486880B2704737
:1007700001460020002201F080531BB11C4B083BB6
:100780001A6802E0194B083B1A6802EA01030BB130
:10079000012000E00020704700F0805119B1144999
:1007A000091F086002E01149083948607047014696
:1007B0000020002201F080531BB10D4B083B1A684A
:1007C00002E00A4B083B1A6802EA01030BB1012060
:1007D00000E00020704700F0805119B10449091F62
:1007E000086002E00149083948607047080002408B
:1007F00008040240002044490860091D0860091DE2
:100800000860091D086041483F491431086070477D
:1008100000213D498279002A3AD00A4612680368CD
:100820009A430B461A600A1D126803689A430B1D0F
:100830001A60027911440A6803681A430A60324A4E
:100840000832126803689A432F4B08331A601A1D46
:10085000126803689A432C4B0C331A604279102AB1
:100860000ED11A1F126803681A43274B08331A6007
:100870001A1D126803681A43234B0C331A600DE0EB
:100880002149427911440A6803681A430A6005E065
:10089000027911440A6803689A430A60704700218C
:1008A000016001710C21417100218171704716496D
:1008B000103109680143144A103211607047014633
:1008C0000020114A143212680A400AB1012000E0E7
:1008D000002070470C491431086070470146002021
:1008E0000022094B1B6803EA0102074B14331B6803
:1008F0000B4013B10AB1012000E00020704702490B
:10090000143108607047000000040140FFFF0F0031
:1009100010B50446CC48844208D10121042000F0DF
:1009200093FB0021042000F08FFB46E0C74884427F
:1009300008D10121082000F087FB0021082000F0E9
:1009400083FB3AE0C248844208D10121102000F024
:100950007BFB0021102000F077FB2EE0BD48844295
:1009600008D10121202000F06FFB0021202000F0A1
:100970006BFB22E0B848844208D10121402000F0FE
:1009800063FB0021402000F05FFB16E0B348844287
:1009900008D10121802000F057FB0021802000F0C9
:1009A00053FB0AE0AE48844207D10121801500F0D4
:1009B0004BFB0021A01500F047FB10BD10B5012135
:1009C000084600F041FB0021012000F03DFB10BD76
:1009D0002DE9F041024600250026002000230024D6
:1009E000002791F803C00CF00F0591F803C00CF03C
:1009F000100CBCF1000F03D091F802C04CEA0505C1
:100A000091F800C0BCF1000F31D0146800202BE039
:100A10004FF0010C0CFA00F3B1F800C00CEA030629
:100A20009E4220D183004FF00F0C0CFA03F7BC4319
:100A300005FA03FC4CEA040491F803C0BCF1280F4A
:100A400006D14FF0010C0CFA00FCC2F814C00AE009
:100A500091F803C0BCF1480F05D14FF0010C0CFA1E
:100A600000FCC2F810C0401C0828D1D31460B1F8B3
:100A700000C0BCF1FF0F34DD546800202EE000F10F
:100A8000080C4FF0010808FA0CF3B1F800C00CEAAA
:100A900003069E4221D183004FF00F0C0CFA03F79E
:100AA000BC4305FA03FC4CEA040491F803C0BCF112
:100AB000280F05D100F1080C08FA0CF8C2F81480D0
:100AC00091F803C0BCF1480F07D100F1080C4FF0BA
:100AD000010808FA0CF8C2F81080401C0828CED390
:100AE0005460BDE8F0814FF6FF71018002218170F2
:100AF0000421C17070470246002093680B400BB17F
:100B0000012000E0002070470146886880B27047ED
:100B100002460020D3680B400BB1012000E000200A
:100B200070470146C86880B27047016170474161F3
:100B300070470AB1016100E041617047C1607047D0
:100B40004FF480320A4382618161826182698269E5
:100B5000704702460020434B18684FF680731840D8
:100B600040EA021008433F4B186070473E49C86195
:100B70007047F0B50A46002300240021002500F04C
:100B80000046B6F1004F02D1364EF16901E0354E14
:100B90007168C0F3034583B200F44016B6F5401FF8
:100BA00008D121F070612F4E766826F070662D4FC7
:100BB0007E6012E000F48016B6F5801F06D1032691
:100BC00006FA05F4A14341F0706106E0460D3601D6
:100BD00003FA06F6B14341F0706122B1460D3601C9
:100BE00003FA06F6314300F00046B6F1004F02D199
:100BF0001C4EF16101E01B4E7160F0BD30B500226A
:100C00008B071C0F0F2303FA04F2164B08338C10CA
:100C100053F824309343134C08348D1044F8253096
:100C200023468C1053F824308C07240F00FA04F468
:100C300023430C4C08348D1044F8253030BD0A494C
:100C4000DC3108607047000000080140000C0140E2
:100C5000001001400014014000180140001C014038
:100C600000200140000001400000204210B5012199
:100C7000080700F0F6F900214FF0805000F0F1F97C
:100C800010BD2A490862704728490861704701462B
:100C90000020274A106820F0E000084310607047E9
:100CA0002249A0310860704710B502460020204B51
:100CB000186820F00300104318601E4B1B6843F0B7
:100CC00004031C4C2360012901D130BF00E020BF88
:100CD000184B1B6823F00403164C236010BD144806
:100CE000006840F00400124908600846006840F0BF
:100CF000020008600F48006840F004000D490860D9
:100D000000BF00BF30BF704701460020084A52684C
:100D10000A400AB1012000E0002070470449096838
:100D200041EA8001024A11607047000000000E4253
:100D30000070004010ED00E0DF48006840F0010066
:100D4000DD49086008464068DC490840DA494860E7
:100D500008460068DA490840D74908600846006834
:100D600020F4802008600846406820F4FE004860B7
:100D70004FF41F0088607047CF49096821F4803123
:100D8000CD4A11601146096821F480211160B0F547
:100D9000803F03D0B0F5802F0ED106E0C649096828
:100DA00041F48031C44A116007E0C349096841F445
:100DB000A021C14A116000E000BF00BF704710B51C
:100DC00001460022002300204A11012A02D1BA4C18
:100DD000236806E0022A02D1B74C236A01E0B64C30
:100DE000636A01F01F02012494401C400CB10120F1
:100DF00000E0002010BD38B5002000900024002540
:100E000000BF3120FFF7DBFF05460098401C009033
:100E10000098B0F5A06F01D0002DF2D03120FFF77F
:100E2000CEFF08B1012400E00024204638BD014671
:100E30000020A14A106820F0F80040EAC1001060CC
:100E40007047A04908607047024600209A4B5868D6
:100E500020F47C1042EA01031843974B5860704716
:100E600098490866704701460020934A506820F070
:100E700003000843506070478F48406800F00C0042
:100E80007047014600208C4A506820F0F00008436B
:100E90005060704701460020874A506820F4E060A7
:100EA00008435060704701460020834A506820F490
:100EB000605040EAC1005060704729B17E4A527AC2
:100EC00002437D4B5A7204E07B4A527A82437A4B4A
:100ED0005A7270477B49D83108607047014600203C
:100EE000754A506820F44040084350607047002124
:100EF000714A20321170704A82F82010012802D005
:100F000004280AD104E001216B4A2032117005E067
:100F10000521694A2032117000E000BF00BF704710
:100F20006949086070476449096A0143624A11626D
:100F30007047654944390860704730B50021002288
:100F4000002400235C4D6D6805F00C0121B10429DB
:100F500005D0082923D105E05C4D056022E05B4DFA
:100F600005601FE0544D6D6805F47012524D6D68B8
:100F700005F48034022505EB92421CB9544D5543CB
:100F800005600BE04C4D6D6805F400351DB1504D0A
:100F90005543056002E04D4D5543056002E04B4D61
:100FA000056000BF00BF444D6D6805F0F001090900
:100FB000484D6B5C0568DD4045603F4D6D6805F44C
:100FC000E061090A434D6B5C4568DD4085603A4D40
:100FD0006D6805F46051C90A3E4D6B5C4568DD40A3
:100FE000C560354D6D6805F44041890B3A4D6B5C29
:100FF000C568B5FBF3F5056130BD29B12E4A5269CC
:1010000002432D4B5A6104E02B4A526982432A4B1A
:101010005A61704729B1284A92690243264B9A6166
:1010200004E0254A92698243234B9A61704729B1B3
:10103000214AD2690243204BDA6104E01E4AD26998
:1010400082431D4BDA61704729B11B4AD2680243C3
:10105000194BDA6004E0184AD2688243164BDA6012
:10106000704729B1144A12690243134B1A6104E014
:10107000114A12698243104B1A6170471249403974
:10108000086070470F49C86470470B49C8717047C2
:101090000948406A40F0807007494862704701463D
:1010A0000020054A92680A400AB1012000E00020B1
:1010B0007047014988727047001002400000FFF835
:1010C000FFFFF6FE000042428004424200127A0016
:1010D00000093D00140000202400002010B5044643
:1010E000FE48844208D10121C014FFF7ADFF002162
:1010F000E014FFF7A9FFC4E0B4F1804F08D101214B
:101100000846FFF7AEFF00210120FFF7AAFFB8E075
:10111000F348844208D101210220FFF7A2FF0021F9
:101120000220FFF79EFFACE0EE48844208D1012187
:101130000420FFF796FF00210420FFF792FFA0E0B4
:10114000E948844208D101210820FFF78AFF0021E5
:101150000820FFF786FF94E0E448844208D101218B
:101160001020FFF77EFF00211020FFF77AFF88E0B4
:10117000DF48844208D101212020FFF772FF0021BF
:101180002020FFF76EFF7CE0DA48844208D101217D
:101190004014FFF759FF00216014FFF755FF70E07E
:1011A000D548844209D10121C804FFF74DFF002131
:1011B0004FF40020FFF748FF63E0D048844209D194
:1011C00001210805FFF740FF00214FF48010FFF7D1
:1011D0003BFF56E0CA48844209D101214805FFF788
:1011E00033FF00214FF40010FFF72EFF49E0C54800
:1011F000844208D101214020FFF733FF0021402025
:10120000FFF72FFF3DE0C048844208D10121802034
:10121000FFF727FF00218020FFF723FF31E0BB48C5
:10122000844208D101218015FFF71BFF0021A01582
:10123000FFF717FF25E0B648844209D101210804D1
:10124000FFF702FF00214FF48030FFF7FDFE18E0AA
:10125000B048844209D101214804FFF7F5FE00217E
:101260004FF40030FFF7F0FE0BE0AB48844208D1AA
:1012700001218804FFF7E8FE00214FF48020FFF7EA
:10128000E3FE10BD00220288944B98420ED0994B89
:1012900098420BD0B0F1804F08D0914B984205D0C6
:1012A000904B984202D0904B984204D14FF68F73E6
:1012B0001A404B881A438D4B984207D08C4B98426A
:1012C00004D04FF6FF431A40CB881A4302808B8824
:1012D00083850B880385814B98420BD0854B9842C0
:1012E00008D08B4B984205D08A4B984202D08A4B4B
:1012F000984201D10B7A038601238382704770B52F
:10130000002400220023058C4FF6FE76354005842C
:10131000028C8388048B4FF68F752C40B51E2C40B1
:101320000D882C43751E2A400D892A434D882A4377
:101330006A4DA8420BD06F4DA84208D0744DA84208
:1013400005D0744DA84202D0734DA84213D14FF678
:10135000F7752A404D892A434FF6FB752A408D8840
:101360002A434FF6FF652B404FF6FF552B408D89E2
:101370002B43CD892B4383800483CD8885860284CB
:1013800070BD70B5002400220023058C4FF6EF7667
:1013900035400584028C8388048B48F6FF752C4009
:1013A0004FF6FF452C400D884FF6FF7606EA0525DF
:1013B0002C434FF6DF752A400D8906EA05152A43AE
:1013C0004D8806EA05152A43444DA84202D0494DEE
:1013D000A8421DD14FF67F752A404D894FF6FF7602
:1013E00006EA05152A434FF6BF752A408D8806EA9E
:1013F00005152A434FF6FF352B404FF2FF752B4062
:101400008D8906EA85052B43CD8906EA85052B43A0
:1014100083800483CD880587028470BD70B5002465
:1014200000220023058C4FF6FF6635400584028CB0
:101430008388848B4FF68F752C404FF6FC752C40BB
:101440000D882C434FF6FF552A400D894FF6FF7645
:1014500006EA05252A434D8806EA05252A431F4D3D
:10146000A84202D0234DA8421DD14FF2FF752A4059
:101470004D894FF6FF7606EA05252A434FF6FF35DC
:101480002A408D8806EA05252A434EF6FF752B4033
:101490004DF6FF752B408D8906EA05152B43CD8946
:1014A00006EA05152B4383808483CD8885870284D3
:1014B00070BD70B5002200230024058C4EF6FF7627
:1014C00035400584038C8488828B48F6FF752A405A
:1014D0004FF6FF452A400D8820E00000002C014017
:1014E0000004004000080040000C004000100040D4
:1014F0000014004000340140004C01400050014005
:101500000054014000180040001C00400020004032
:101510000040014000440140004801404FF6FF7682
:1015200006EA05252A434DF6FF752B400D8906EA8C
:1015300005352B434D8806EA05352B43FA4DA84265
:1015400002D0FA4DA84208D14BF6FF752C408D8988
:101550004FF6FF7606EA85152C4384808283CD887A
:10156000A0F84050038470BD828B4FF2FF331A40C5
:101570008283828B4FF6FF7303EA01231A4382832F
:101580007047F0B50C461546002200210026078C56
:101590004EF6FF7C07EA0C070784828B018C4FF61E
:1015A000FF7707EA043640F6FF473A404FF6FF77E9
:1015B00007EA05273A434FF6FF7707EA03373A432E
:1015C000D94FB8420ED0D94FB8420BD0B0F1804FAE
:1015D00008D0D74FB84205D0D64FB84202D0D64F28
:1015E000B84206D14DF6FF77394046F4805739436B
:1015F00005E047F6FF57394044F48057394382836A
:101600000184F0BD828B4FF6F3731A408283828B84
:101610000A4382837047F0B50C461546002200212C
:101620000026078C4FF6FF6C07EA0C070784828BB5
:10163000018C4FF6FF7707EA04264FF60C773A4005
:101640004FF6FF7707EA03172F433A43B64FB842E6
:101650000ED0B64FB8420BD0B0F1804F08D0B44F87
:10166000B84205D0B34FB84202D0B34FB84206D10A
:101670004FF6FF57394046F48077394305E04FF283
:10168000FF57394044F48077394382830184F0BDA9
:10169000028B4FF2FF331A400283028B4FF6FF7327
:1016A00003EA01231A4302837047F0B50C4615463E
:1016B000002200210026078C4FF6EF7C07EA0C077A
:1016C0000784028B018C4FF6FF7707EA041640F679
:1016D000FF473A404FF6FF7707EA03373A434FF6A2
:1016E000FF7707EA05273A438F4FB8420ED08F4F56
:1016F000B8420BD0B0F1804F08D08D4FB84205D022
:101700008C4FB84202D08C4FB84206D14FF6DF77EB
:10171000394046F01007394305E04FF65F7739400E
:1017200044F01007394302830184F0BD028B4FF669
:10173000F3731A400283028B0A4302837047F0B5A9
:101740000C46154600220021068C4FF6FE773E40DF
:101750000684028B018C4FF60C7632407E1C06EA22
:1017600003162E433243704EB0420ED06F4EB0423D
:101770000BD0B0F1804F08D06D4EB04205D06D4E09
:10178000B04202D06C4EB04206D14FF6FD763140E9
:1017900044F00106314305E04FF6F576314044F060
:1017A0000106314302830184F0BD70B505460C4645
:1017B0005D4885420ED05D4885420BD0B5F1804F23
:1017C00008D05B48854205D05A48854202D05A4825
:1017D000854200D100E000BF208850B92389A2884B
:1017E00061882846FFF7ABFFE1882846FFF79EFF98
:1017F00025E0208804280AD12389A2886188284608
:10180000FFF753FFE1882846FFF742FF17E02088E3
:1018100008280AD12389A28861882846FFF7FBFEA1
:10182000E1882846FFF7EEFE09E02389A288618857
:101830002846FFF7A6FEE1882846FFF795FE70BD13
:101840002DE9F04105460C4600260127608808B9BD
:10185000022600E00026A088012801D1022700E02E
:1018600001272088A0B92389A28861882846FFF72C
:1018700066FFE1882846FFF759FF23893A4631463B
:101880002846FFF712FFE1882846FFF701FF13E023
:101890002389A28861882846FFF707FFE188284648
:1018A000FFF7F6FE23893A4631462846FFF747FF01
:1018B000E1882846FFF73AFFBDE8F0810A884B88A7
:1018C0001A438B881A43CB881A430B891A434B89D6
:1018D0001A438B891A43A0F8442070474FF6FF71D2
:1018E000818000210180C180418001727047002108
:1018F000018041808180C180018141818181C181DC
:101900007047002101804180012181800021C18038
:10191000018170470021018041808180C180018167
:101920004181818170470000002C0140003401405A
:101930000004004000080040000C004021B1028873
:1019400042F00102028004E002884FF6FE731A4062
:101950000280704731B1B0F8442042F40042A0F850
:10196000442005E0B0F84420C2F30E02A0F8442061
:1019700070471AB183890B43838102E083898B43CB
:10198000838170478182704741EA0203A0F84830A2
:1019900070471AB183890B43838102E083898B43AB
:1019A0008381704701894FF6F872114001817047B9
:1019B0000A46002101894FF68F73194011430181B6
:1019C000704730B504460D4629462046FFF7F0FF24
:1019D000208940F00700208130BD2DE9F041044608
:1019E0000D4616461F46602D06D13B460122314664
:1019F0002046FFF75AFE05E03B46012231462046CD
:101A0000FFF79DFE29462046FFF7D2FF208940F0D0
:101A100007002081BDE8F08130B50C460021018926
:101A2000C9B24FF6FF7505EA03251543254329433F
:101A3000018130BD2DE9F04105460E461746984616
:101A4000002443463A4631462846FFF7E5FF2C89F5
:101A50004FF6F870044044F007044FF68F700440CE
:101A600044F070042C81BDE8F081F0B504460D46C9
:101A700016461F463B46324629462046FFF7CCFF16
:101A8000208940F480402081F0BD0185828270472A
:101A90000A46002101884FF68F73194011430180D7
:101AA0007047F0B50C4615461E4600210022002363
:101AB0000189028B038C4FF6F877394021434FF6AA
:101AC000FC473A4040F201173A434FF6DD773B407E
:101AD0004FF6FF7707EA06172F433B430181028346
:101AE0000384F0BD0A460021018B4FF68F73194025
:101AF0001143018370470A460021018B48F6FF73AA
:101B000019404FF6FF7303EA02231943018370471C
:101B10000A460021818B4FF68F7319401143818350
:101B200070470A460021818B48F6FF7319404FF633
:101B3000FF7303EA022319438183704721B10288AE
:101B400042F08002028004E002884FF67F731A4060
:101B50000280704721B1828842F00402828004E052
:101B600082884FF6FB731A408280704721B18288C9
:101B700042F00802828004E082884FF6F7731A4030
:101B80008280704721B1828842F00102828004E0A5
:101B900082884FF6FE731A40828070470A46002101
:101BA000018B4FF6F77319401143018370470A46C2
:101BB0000021018B4FF2FF7319404FF6FF7303EAC8
:101BC00002231943018370470A460021818B4FF697
:101BD000F77319401143818370470A460021818BB6
:101BE0004FF2FF7319404FF6FF7303EA02231943C4
:101BF000818370470A460021018B4FF6FB73194021
:101C00001143018370470A460021018B4FF6FF33D1
:101C100019404FF6FF7303EA02231943018370470B
:101C20000A460021818B4FF6FB73194011438183D3
:101C300070470A460021818B4FF6FF3319404FF65B
:101C4000FF7303EA02231943818370470A46002188
:101C5000018B4FF67F7319401143018370470A4689
:101C60000021018BC1F30E014FF6FF7303EA02233B
:101C70001943018370470A460021818B4FF67F7319
:101C800019401143818370470A460021818BC1F3BB
:101C90000E014FF6FF7303EA022319438183704755
:101CA0000A460021018C4FF6FD731940114301844F
:101CB00070470A460021018C4FF6F7731940114313
:101CC000018470470A460021018C4FF6DF731940EA
:101CD0004FF6FF7303EA02131943018470470A4663
:101CE0000021018C4FF67F7319404FF6FF7303EA12
:101CF00002131943018470470A460021018C4FF6F4
:101D0000FF5319404FF6FF7303EA0223194301847E
:101D100070470A460021018C4FF2FF7319404FF6BD
:101D2000FF7303EA02231943018470470A46002126
:101D3000018C4DF6FF7319404FF6FF7303EA02332F
:101D400019430184704730B5002301248C40A3B2AD
:101D5000048C9C430484048C02FA01F5ADB22C433C
:101D6000048430BD30B5002304248C40A3B2048C1D
:101D70009C430484048C02FA01F5ADB22C43048424
:101D800030BD70B5034600200024184618300125E8
:101D90008D40ACB21D8CA5431D8409B1082909D121
:101DA00000EB6100056825F07005056005681543C6
:101DB00005600EE00D1FC5F34E052844056825F4A7
:101DC000E045056005684FF6FF7606EA02263543D2
:101DD000056070BD21B1028842F00202028004E079
:101DE00002884FF6FD731A400280704721B10288C5
:101DF00042F00402028004E002884FF6FB731A40AE
:101E00000280704721B1828842F08002828004E023
:101E100082884FF67F731A408280704702884FF69F
:101E2000F7731A40028002880A4302807047828852
:101E30004FF68F731A40828082880A4382807047EF
:101E400002894FF6F8731A40028102890A4302811F
:101E5000704702894FF67F731A40028102890A4354
:101E60000281704781847047818570478186704701
:101E70000187704781877047A0F84010704702883B
:101E80004FF6FF431A40028002880A4302807047DF
:101E90000146888E70470146088F70470146888F3B
:101EA00070470146B1F8400070470146888C704782
:101EB0000146088D704702460020138A0B400BB183
:101EC000012000E000207047CA430282704730B50D
:101ED0000246002000230024158A05EA01039589A3
:101EE00005EA010413B10CB1012000E0002030BD6F
:101EF000CA4302827047000010B50446FB48844282
:101F000009D101218803FFF79FF800214FF4804099
:101F1000FFF79AF832E0F648844209D101214804DB
:101F2000FFF79FF800214FF40030FFF79AF825E003
:101F3000F048844209D101218804FFF792F800217A
:101F40004FF48020FFF78DF818E0EB48844209D168
:101F50000121C804FFF785F800214FF40020FFF7A6
:101F600080F80BE0E548844208D101210805FFF71D
:101F700078F800214FF48010FFF773F810BD2DE9B9
:101F8000F04786B005460E460024A24600BFA14693
:101F90000027B08900B100BF2F462C8A4CF6FF7095
:101FA0000440F08804432C82AC894EF6F3100440C0
:101FB000B08831890843718908430443AC81AC8AF5
:101FC0004FF6FF400440B0890443AC8201A8FEF7FD
:101FD000B4FFC648874202D1DDF810A001E0DDF869
:101FE0000CA0A88900F4004040B10AEBCA0000EB45
:101FF0000A1031684900B0FBF1F807E00AEBCA00AB
:1020000000EB0A1031688900B0FBF1F86420B8FBDE
:10201000F0F004012009642101FB1089A88900F473
:10202000004040B1322000EBC900B0FBF1F000F0FD
:102030000700044308E0322000EB09106421B0FBE4
:10204000F1F000F00F0004432C8106B0BDE8F087EA
:102050004FF41651016000218180C18001810C2163
:10206000418100218181704710B502460020108A0D
:102070004FF2FF0318400B884C8823438C8823437E
:10208000CC8823431843108210BD00210180418079
:102090008180C180704721B1828942F400528281DF
:1020A00004E082894DF6FF731A4082817047F0B5D3
:1020B0000346002400260025002040F66A17B94296
:1020C00000D100BF1846C1F3421401F01F060127DA
:1020D00007FA06F5012C01D10C3004E0022C01D1E5
:1020E000103000E014301AB107682F43076002E097
:1020F0000768AF430760F0BD1AB1838A0B43838240
:1021000002E0838A8B4383827047028A4FF6F07322
:102110001A400282028A0A430282704782894FF281
:10212000FF731A40828182890A438281704721B1FC
:10213000828942F00202828104E082894FF6FD73B7
:102140001A4082817047028A4FF6DF731A4002827A
:10215000028A0A430282704721B1028A42F4804215
:10216000028204E0028A4BF6FF731A400282704733
:10217000C1F308028280704701468888C0F30800D6
:102180007047818941F0010181817047028BD2B291
:102190000283028B42EA012202837047028B02F41F
:1021A0007F420283028B0A430283704721B1828AF5
:1021B00042F02002828204E0828A4FF6DF731A40E6
:1021C0008282704721B1828A42F01002828204E04A
:1021D000828A4FF6EF731A408282704721B1828A59
:1021E00042F00802828204E0828A4FF6F7731A40B6
:1021F0008282704721B1828942F40042828103E0E9
:102200008289C2F30E028281704721B1828A42F430
:102210000062828204E0828A4FF2FF731A40828257
:102220007047828A4FF6FB731A408282828A0A4381
:102230008282704721B1828A42F00202828204E0E7
:10224000828A4FF6FD731A40828270470246002050
:10225000B1F5007F00D100BF13880B400BB1012006
:1022600000E00020704701F40072B2F5007F00D159
:1022700000BFCA430280704770B5024600240023A5
:102280000025002040F66A16B14200D100BFC1F31C
:10229000421501F01F03012606FA03F3012D02D1B6
:1022A0009689334006E0022D02D1168A334001E0C0
:1022B000968A33400C12012606FA04F4168834403C
:1022C00013B10CB1012000E0002070BD10B5002258
:1022D000002340F66A14A14200D100BF0A12012473
:1022E0009440A3B2DC43048010BD000000380140DC
:1022F0000044004000480040004C004000500040B6
:1023000030B50146B1F1807F01D3012030BD21F00D
:102310007F40401E4FF0E022506150170F220028EE
:1023200007DA13071D0E234B00F00F04241F1D5561
:1023300003E013071C0E204B1C5400BF00204FF07D
:10234000E0229061072010610020DFE770B50446AD
:102350001A4800684FF47A71B0FBF1F52846FFF790
:10236000CFFF08B100BFFEE71548046000BF144866
:1023700000680028FBD170BD70B504460F480068A6
:102380001049B0FBF1F52846FFF7BAFF08B100BFCE
:10239000FEE70B48046000BF094800680028FBD135
:1023A00070BD0748006820B105480068401E044918
:1023B0000860704718ED00E000E400E00000002035
:1023C0002800002040420F001FB5B848FFF794FDD9
:1023D0004FF4E13000900C20ADF80A000020ADF879
:1023E0000400ADF80600ADF80800ADF80C00694631
:1023F000AE48FFF7C4FD0121AC48FFF74CFE0122B7
:1024000040F22551A948FFF752FE4021A748FFF7A7
:102410002AFFA748FFF770FD4FF47A3000900C2098
:10242000ADF80A000020ADF80400ADF80600ADF8E4
:102430000800ADF80C0069469D48FFF7A0FD01219A
:102440009B48FFF728FE012240F225519848FFF7EC
:102450002EFE40219648FFF706FF1FBD0EB595489A
:10246000FEF73CFE0020ADF802004FF47A70ADF8A4
:1024700004004720ADF800000020ADF806006946D2
:102480008C48FEF7FFFE01218A48FFF71DFD002161
:102490008848FFF753FB012211468648FFF769FA87
:1024A00000218448FFF74AFA0EBD08B5FEF7A2F9ED
:1024B0001E208DF8000001208DF8030000208DF80B
:1024C000010002208DF802006846FDF79EFF2520DE
:1024D0008DF8000001208DF8030000208DF8010028
:1024E0008DF802006846FDF790FF08BD08B5012190
:1024F0007148FEF73EFB7148FEF70AFA7048FEF796
:1025000007FA4FF46040ADF8000002208DF8020099
:1025100010208DF8030069466A48FEF759FA012039
:10252000FEF7AFFB0020FEF7E2FC0020FDF7E1FF25
:102530000020FDF7E2FF4FF6FF70ADF80000042029
:102540008DF8030002208DF8020069465B48FEF713
:102550003FFA4FF6FF70ADF8000004208DF803003D
:1025600002208DF8020069465548FEF731FA4FF413
:102570000070ADF8000018208DF8030069464F4840
:10258000FEF726FA4FF48060ADF8000004208DF8C5
:10259000030069464948FEF71BFA0420ADF8000025
:1025A00010208DF8030002208DF802006946434890
:1025B000FEF70EFA04214148FEF7B9FA8420ADF87F
:1025C000000010208DF8030002208DF802006946FB
:1025D0003B48FEF7FDF908BD10B5012144F20D009E
:1025E000FEF718FD01213848FEF721FD10BD10B59A
:1025F000FFF7F2FFFFF77AFFFFF757FFFFF72EFF16
:10260000FFF7E2FE10BD0EB54FF08040FEF766FD0D
:102610000020ADF802004FF47A70ADF804000720F6
:10262000ADF800000020ADF8060069464FF080408C
:10263000FEF728FE01218807FFF746FC00214FF036
:102640008040FFF77BFA012211469007FFF791F9CE
:1026500000214FF08040FFF771F90EBD0EB51B4809
:10266000FEF73CFD1020ADF802004FF47A70ADF893
:1026700004001720ADF800000020ADF80600694600
:102680001248FEF7FFFD01211048FFF71DFC002155
:102690000E48FFF753FA012211460C48FFF769F97B
:1026A00000210A48FFF74AF90EBD0000003801403A
:1026B00000440040000800400002300000080140D3
:1026C000000C014000100140040000020004004022
:1026D00070B5002584480168844802780078401C61
:1026E000824B1870824840F822101846007814284F
:1026F00002D1002019460870002408E07C4850F8F8
:102700002410284603F042FE0546601CC4B2142C77
:10271000F4DB7849284603F0A7FE70BD70B50025AC
:1027200075480168754802780078401C734B187032
:10273000734840F8221018460078142802D100206F
:1027400019460870002408E06D4850F82410284607
:1027500003F01CFE0546601CC4B2142CF4DB654972
:10276000284603F081FE70BD86B0FFF740FF1420BD
:10277000FFF702FE002063490860634908700121E9
:102780006248FFF7DBF801205F49087001F0D2FAD8
:1027900001F012FD012001F0CEFB01F033FD10200D
:1027A00001F0C9FB01F06AFB594908709BE001F098
:1027B00003FD082001F0BFFB564801F043FD5648D9
:1027C00000685649097890FBF1FA504603F021FB66
:1027D00021F0004180460022514B03F081FB064668
:1027E0000022504B03F08EF9044603F09DF8424955
:1027F000086001F007FD202001F09DFB454801F035
:1028000021FD4449086803F095FD8046464A474B40
:1028100003F066FB0646464A464B03F0B7F804460B
:1028200003F082F8304908603348006800F07EFA0F
:10283000414908600846006800F010FE3F49086002
:10284000084601682848006803F0A0FD044601F02E
:10285000FAF93B4908600846006803F06BFD04463E
:102860000D463548006803F065FD06460F462248D0
:10287000006803F05FFD804689461B48006803F04E
:1028800059FD824652460B462E48CDE90089CDE9D6
:102890000267CDE9044501F015FEFFF73FFF8046D2
:1028A00003F048FD0646284A284B03F019FB04466E
:1028B00003F03AF826490860FFF70AFF804603F064
:1028C00039FD06460022234B03F00AFB044603F0C1
:1028D0002BF821490860184800682049086018480A
:1028E00000681F49086062E71008002018010020F6
:1028F000640E00200000A041080100201901002002
:10290000B40E00205C0000201808002000080040E1
:1029100000080020040F00200408002015080020F3
:1029200000409F40000060412F6EA301BC05F03FB6
:102930003DE0CB8E9E6C643F0C0100201001002016
:1029400014010020AC6E0008D63A71395E01F03FE8
:10295000D800002000408F40DC000020E000002074
:10296000E4000020704700BFFEE700BFFEE700BFA5
:10297000FEE700BFFEE770477047704710B5FFF7EE
:1029800010FD10BD2DE9F041002500260027002490
:1029900040F225517748FFF76FFCE8B140F225512E
:1029A0007448FFF793FC7348001D0088C4B20020F0
:1029B0007149A1F886010846B0F8841100F58070CD
:1029C00044546D48B0F88401401C6B49A1F884015F
:1029D00001218807FEF7B2FFBDE8F08170B5002540
:1029E0000026002440F225516448FFF745FCE8B179
:1029F00040F225516148FFF769FC6048001D0088DE
:102A0000C4B200205E49A1F886010846B0F88411DE
:102A100000F5807044545A48B0F88401401C58496D
:102A2000A1F8840101215748FEF788FF70BD10B559
:102A300001218807FFF74BFA00283BD001218807C6
:102A4000FFF756FA4C48B0F88601401C4A49A1F8F5
:102A500086010846B0F8860114282BDB00214FF0D0
:102A60008040FEF76BFF00204349A1F8860101205A
:102A700081F881010020A1F884014349087011E028
:102A8000424841490978415C80383F4A1278815474
:102A9000002180303C4A127881543B480078401C29
:102AA00039490870384800788028E9DB012032492C
:102AB00081F8800110BD10B501213248FFF707FAF7
:102AC00070B301212F48FFF713FA2D48B0F88601A3
:102AD000401C2B49A1F886010846B0F8860102285F
:102AE0001EDB00212748FEF729FF00202449A1F81A
:102AF0008601012081F881010020A1F884010024D1
:102B000008E02348015D80380155002180300155DF
:102B1000601CC4B2802CF4DB0120194981F88001CB
:102B20001D2000F01DF810BD10B501211948FFF758
:102B3000CEF988B101211748FFF7DAF901201649CB
:102B4000087016480068401C144908601448007852
:102B5000012801D101F013FC1E2000F001F810BD86
:102B600000F01F02012191400E4A430942F8231050
:102B700070470000003801401C080020004400405D
:102B8000A409002000040040290100201C090020A5
:102B9000A40A002000080040540000205C0000202F
:102BA0001808002080E200E010B504465B4890F869
:102BB000820101280FD10020584981F882010021AB
:102BC0005748FDF7BAFD21465548FDF7CBFD0121D9
:102BD0005348FDF7B2FD10BD70B504460D462946B9
:102BE0002046FFF7C5FA00BF40212046FFF72EFB25
:102BF0000128F9D140212046FFF735FB70BD2DE9B2
:102C0000F04107460D461646002400BF05E0295D49
:102C10003846FFF7E1FF601CC4B2B442F7DBBDE801
:102C2000F08170B506460D462C4604B970BD04E02F
:102C300021783046FFF7D0FF641C20780028F7D1B8
:102C400000BFF3E710B5044621463648FFF7C4FF3E
:102C500010BD70B50446002504E0605DFFF7F2FF8B
:102C6000681CC5B2605D0028F7D170BD002100BFAF
:102C700001E0481C81B242F210708142F9DB7047DA
:102C800010B5044600BF20212046FFF7DFFA0028D8
:102C9000F9D020212046FFF7E6FA2046FFF76CFA2C
:102CA00010BD00BF1F49098801F080010029F9D03B
:102CB000C0F308011B4A121D1180704700BF19485C
:102CC000008800F020000028F9D01648001D008878
:102CD000C0F30800704710B503460C461846FFF7CE
:102CE000E0FF10BD10B50446FFF7E8FF0346FFF70D
:102CF000D8FF10BD00B503461846FFF7D2FF00BD50
:102D000001464FF0FF30704700BFFEE710B50446A4
:102D100021460548FFF760FF10BD00001C08002099
:102D20004400024000380140004400402DE9F04FCB
:102D300087B08346FF20069032480168584603F06A
:102D40006DFC03D2002007B0BDE8F08F2D48D0F80D
:102D50004813584603F062FD01D22B48F3E70025E3
:102D6000D226692425E0274850F82410584603F05D
:102D700055FC06D22646701900EBD071C1F347040A
:102D800017E0204850F82410584603F047FD06D2BB
:102D90002546701900EBD071C1F3470409E004EB3C
:102DA0008400A0F1C808404603F020FC07463846DE
:102DB000C9E7701B0128D6D104EB8400A0F1C80834
:102DC000104850F8259050F826A0404603F00EFC1D
:102DD00049460590504603F053FD49460390584636
:102DE00003F04EFD0949019003F04CFC0290039959
:102DF00003F03AFB0490059903F0C8FA07463846F9
:102E0000A1E70000606A000800FF7F470000A040C3
:102E10002DE9F041804600240025FE49404603F09C
:102E2000FDFB08D3404603F085FA06460022FA4B24
:102E300003F054F902D2F948BDE8F081F549404663
:102E400003F0ECFC1ED8404603F074FA0646F44A40
:102E5000F44B03F009F815D2F348056A08240EE094
:102E60002946404603F00EFC0646601EEE4A52F824
:102E70002010304603F08AFA0546601EC4B2002CCA
:102E8000EEDC3EE0404603F055FA0646E44AE54BE8
:102E900003F024F91FD8404603F04CFA06460022FE
:102EA000E24B02F0E1FF16D2DF48456B04240FE04D
:102EB0002946404603F0E6FB0646601EDA4A243205
:102EC00052F82010304603F061FA0546601EC4B285
:102ED000002CEDDC15E0D448856D04240FE0294674
:102EE000404603F0CFFB0646601ECF4A483252F8F8
:102EF0002010304603F04AFA0546601EC4B2002C8A
:102F0000EDDC284698E72DE9F041804600240025B5
:102F1000C049404603F082FB08D3404603F00AFA5A
:102F200006460022BC4B03F0D9F802D2BB48BDE8EC
:102F3000F081B849404603F071FC1ED8404603F0CA
:102F4000F9F90646B64AB74B02F08EFF15D2B848DB
:102F5000456A09240EE02946404603F093FB0646E5
:102F6000601EB34A52F82010304603F00FFA0546AF
:102F7000601EC4B2002CEEDC3EE0404603F0DAF9FD
:102F80000646A74AA74B03F0A9F81FD8404603F00E
:102F9000D1F906460022A54B02F066FF16D2A448DE
:102FA000C56B05240FE02946404603F06BFB06463F
:102FB000601E9F4A283252F82010304603F0E6F98E
:102FC0000546601EC4B2002CEDDC15E09848056E85
:102FD00004240FE02946404603F054FB0646601ED9
:102FE000934A503252F82010304603F0CFF905468C
:102FF000601EC4B2002CEDDC284698E72DE9F041B4
:103000008046002400250021404603F007FB08D33A
:10301000404603F08FF906460022864B03F05EF827
:1030200002D27E48BDE8F0818349404603F0F6FABB
:1030300001D2002539E08049404603F0EFFB1ED85D
:10304000404603F077F906467C4A7D4B02F00CFFC0
:1030500015D27C48856906240EE02946404603F0D7
:1030600011FB0646601E774A52F82010304603F0E6
:103070008DF90546601EC4B2002CEEDC15E07148E7
:10308000456C08240FE02946404603F0FBFA06464B
:10309000601E6C4A243252F82010304603F076F954
:1030A0000546601EC4B2002CEDDC2846BAE72DE9C7
:1030B000F14F90B00024A1466349109803F0AEFA96
:1030C00008D3109803F036F9054600225F4B03F051
:1030D00005F803D2514811B0BDE8F08F00211098D7
:1030E00003F09CFA59D25A48D0F828900A240EE0EE
:1030F0004946109803F0C6FA0546601E544A52F835
:103100002010284603F042F98146601EC4B2002C0C
:10311000EEDC109803F00EF905464E4A4E4B03F0D4
:103120001FF8CDE90201109803F004F90546494A59
:10313000494B03F015F8074688464549C86D03F02A
:10314000F9F882463A46434602F0CAFECDE900014C
:10315000DDE9022302F0C4FECDE9040102F08CFA9D
:10316000CDE908013A49886D03F0E4F8CDE906019C
:10317000DDE9082302F0B4FECDE90C01484603F076
:10318000D9F8CDE90A01DDE90C2302F0FFFBCDE916
:103190000E0102F0C9FB81467EE02D48D0F8509028
:1031A00009240FE04946109803F06CFA0546601EAA
:1031B000274A2C3252F82010284603F0E7F88146BF
:1031C000601EC4B2002CEDDC109803F0B3F8054685
:1031D000204A214B02F0C4FFCDE90201109803F010
:1031E000A9F807461B4A1C4B02F0BAFF05460E46DB
:1031F0001749C86D03F09EF882462A46334602F00E
:103200006FFECDE90001DDE9022302F069FECDE9A0
:10321000040123E0000048C200809B400000C8C2B7
:103220001F85EB51B8A090404401002000029A4055
:10323000B001002000709C400000C84252B81E85BA
:10324000EBB4834028020020000087C3006895404B
:1032500070020020F5B9DA8AFDBD5F4002F00CFA79
:10326000CDE90801FD49886D03F064F8CDE9060158
:10327000DDE9082302F034FECDE90C01484603F0F5
:1032800059F8CDE90A01DDE90C2302F07FFBCDE915
:103290000E0102F049FB814648461CE72DE9F0414A
:1032A000804600240025EE49404603F0B7F908D3D4
:1032B000404603F03FF806460022EA4B02F00EFFBC
:1032C00002D2E948BDE8F0810021404603F0A6F9AA
:1032D00015D2E648056A08240EE02946404603F068
:1032E000D1F90646601EE14A52F82010304603F03C
:1032F0004DF80546601EC4B2002CEEDC15E0DB483C
:10330000456D0A240FE02946404603F0BBF9064606
:10331000601ED64A2C3252F82010304603F036F8A0
:103320000546601EC4B2002CEDDC2846CAE72DE934
:10333000F041804600240025C949404603F06EF95B
:1033400008D3404602F0F6FF06460022C84B02F0C2
:10335000C5FE02D2C448BDE8F0810021404603F01A
:103360005DF915D2C348456B0D240EE02946404651
:1033700003F088F90646601EBE4A52F82010304617
:1033800003F004F80546601EC4B2002CEEDC15E024
:10339000B848056E0A240FE02946404603F072F94A
:1033A0000646601EB34A383252F82010304602F00A
:1033B000EDFF0546601EC4B2002CEDDC2846CAE7CE
:1033C0002DE9F041804600240025AB49404603F03A
:1033D00025F908D3404602F0ADFF06460022A74B70
:1033E00002F07CFE02D2A048BDE8F081A24940462E
:1033F00003F014FA1AD8A249404603F00FF915D287
:10340000A048056A08240EE02946404603F03AF930
:103410000646601E9B4A52F82010304602F0B6FF66
:103420000546601EC4B2002CEEDC15E09548856BA5
:1034300005240FE02946404603F024F90646601EA5
:10344000904A243252F82010304602F09FFF054681
:10345000601EC4B2002CEDDC2846C5E72DE9F04122
:103460008046002400257E49404603F0D7F808D363
:10347000404602F05FFF06460022834B02F02EFE1C
:1034800002D27948BDE8F0810021404603F0C6F839
:1034900015D27E48856B0E240EE02946404603F087
:1034A000F1F80646601E794A52F82010304602F0C4
:1034B0006DFF0546601EC4B2002CEEDC15E07348BB
:1034C000C56D08240FE02946404603F0DBF80646A8
:1034D000601E6E4A3C3252F82010304602F056FF11
:1034E0000546601EC4B2002CEDDC2846CAE72DE973
:1034F000F041804600240025404602F01BFF0646AE
:10350000634A644B02F0EAFD1ED8404602F012FF07
:103510000646614A614B02F0A7FC15D26048456A35
:1035200009240EE02946404603F0ACF80646601E2A
:103530005B4A52F82010304602F028FF0546601E14
:10354000C4B2002CEEDC6AE0404602F0F3FE064610
:10355000514A524B02F0C2FD20D8404602F0EAFE2A
:1035600006464FF066324F4B02F07EFC16D24C48B6
:10357000C56C09240FE02946404603F083F806464F
:10358000601E474A283252F82010304602F0FEFEF4
:103590000546601EC4B2002CEDDC40E0404602F05F
:1035A000C9FE06464FF066323E4B02F097FD1FD82B
:1035B000404602F0BFFE06463B4A3C4B02F054FC3C
:1035C00016D23748456E05240FE02946404603F0E1
:1035D00059F80646601E324A503252F820103046E2
:1035E00002F0D4FE0546601EC4B2002CEDDC16E0ED
:1035F0002B48D0F8885004240FE02946404603F0B9
:1036000041F80646601E264A783252F820103046AD
:1036100002F0BCFE0546601EC4B2002CEDDC28465C
:10362000BDE8F0812DE9F0418046002400254046A8
:1036300002F080FE06461E4A1E4B02F04FFD53D894
:10364000404602F077FE06461B4A1C4B02F00CFC7B
:103650004AD21B48856A0A2443E000007002002019
:10366000000087C3005094400000C8C2F40200204C
:1036700000408F404C030020000052C300C0924025
:1036800000003E44BC0300200000794004040020F8
:103690005C8FC2F5285CCFBF96438B6CE7FBFD3F88
:1036A0007C04002066E62740F0A7C64B37893140EE
:1036B000B81E85EB51B8CEBFF853E3A59BC4FE3FBF
:1036C0001C0500202946404602F0DCFF0646601E2D
:1036D000FE4A52F82010304602F058FE0546601EA1
:1036E000C4B2002CEEDC68E0404602F023FE064641
:1036F000F74AF84B02F0F2FC1FD8404602F01AFEDF
:103700000646F54AF54B02F0AFFB16D2EF48056DC1
:1037100009240FE02946404602F0B4FF0646601E29
:10372000EA4A2C3252F82010304602F02FFE0546AD
:10373000601EC4B2002CEDDC3FE0404602F0FAFD12
:103740000646E74AE74B02F0C9FC1FD8404602F0A4
:10375000F1FD0646E44AE54B02F086FB16D2DB4853
:10376000C56E05240FE02946404602F08BFF064651
:10377000601ED64A583252F82010304602F006FE3B
:103780000546601EC4B2002CEDDC16E0CF48D0F830
:10379000945004240FE02946404602F073FF064689
:1037A000601ECA4A843252F82010304602F0EEFD04
:1037B0000546601EC4B2002CEDDC2846BDE8F08151
:1037C0002DE9F041804600240025404602F0B2FD7C
:1037D0000646C74AC74B02F081FC1ED8404602F09D
:1037E000A9FD0646C44AC54B02F03EFB15D2C448AB
:1037F000056A08240EE02946404602F043FF0646CB
:10380000601EBF4A52F82010304602F0BFFD054648
:10381000601EC4B2002CEEDC15E0B948456C0824EB
:103820000FE02946404602F02DFF0646601EB44ACE
:10383000243252F82010304602F0A8FD0546601EE2
:10384000C4B2002CEDDC2846BDE8F0812DE9F04142
:10385000804600240025404602F06CFD0646A94A39
:10386000A94B02F03BFC1AD80021404602F0D6FEDC
:1038700015D2A648056A08240EE02946404602F003
:1038800001FF0646601EA14A52F82010304602F0A1
:103890007DFD0546601EC4B2002CEEDC4DE000212B
:1038A000404602F0BBFF1FD8404602F043FD0646EB
:1038B000974A984B02F0D8FA16D29448C56C09245E
:1038C0000FE02946404602F0DDFE0646601E8F4AA4
:1038D000283252F82010304602F058FD0546601E8E
:1038E000C4B2002CEDDC28E0404602F023FD064681
:1038F000874A884B02F0F2FB1FD8404602F01AFDBF
:1039000006464FF03332844B02F0AEFA15D87F48AA
:10391000856E06240FE02946404602F0B3FE0646B7
:10392000601E7A4A503252F82010304602F02EFDC6
:103930000546601EC4B2002CEDDC2846BDE8F081CF
:103940002DE9F041804600240025404602F0F2FCBB
:103950000646724A724B02F0C1FB1AD8002140465B
:1039600002F05CFE15D26F48456A09240EE0294634
:10397000404602F087FE0646601E6A4A52F8201052
:10398000304602F003FD0546601EC4B2002CEEDC9A
:103990004CE00021404602F041FF1FD8404602F0B3
:1039A000C9FC0646604A614B02F05EFA16D25D48D9
:1039B000456C07240FE02946404602F063FE0646A8
:1039C000601E584A283252F82010304602F0DEFCC1
:1039D0000546601EC4B2002CEDDC27E0404602F034
:1039E000A9FC0646504A514B02F078FB1ED84046CF
:1039F00002F0A0FC06464E4A4E4B02F035FA15D8AE
:103A00004848456E05240FE02946404602F03AFE3C
:103A10000646601E434A503252F82010304602F0EB
:103A2000B5FC0546601EC4B2002CEDDC2846BDE89E
:103A3000F0812DE9F041804600240025404602F047
:103A400079FC06463C4A3D4B02F048FB1AD800215F
:103A5000404602F0E3FD15D23948056A08240EE01D
:103A60002946404602F00EFE0646601E344A52F8D1
:103A70002010304602F08AFC0546601EC4B2002CBD
:103A8000EEDC64E00021404602F0C8FE5FD840460C
:103A900002F050FC06462B4A2B4B02F0E5F956D8B3
:103AA0002748C56C09240FE02946404602F0EAFD8C
:103AB0000646601E224A283252F82010304602F094
:103AC00065FC0546601EC4B2002C3FE01C050020CA
:103AD000F853E3A59BC4FE3FDBF97E6ABC742A4021
:103AE00046B6F3FDD4B8264077BE9F1A2FBD3340AB
:103AF0004C37894160E5A03FD9CEF753E3A5FF3F9E
:103B0000CC050020B6F3FDD478E919C014060020D6
:103B1000BE9F1A2FDDA4344033734B40F6285C8FD0
:103B2000C27511C08C060020B0726891ED9C3440C3
:103B30004E62105839C44740713D0AD7A3B023C024
:103B400004070020FED478E926195340ACDC28464F
:103B5000BDE8F0812DE9F041804600240025404673
:103B600002F0E8FB0646604A604B02F0B7FA1AD84A
:103B70000021404602F052FD15D25D48056A082436
:103B80000EE02946404602F07DFD0646601E584A7A
:103B900052F82010304602F0F9FB0546601EC4B210
:103BA000002CEEDC4CE00021404602F037FE1FD82E
:103BB000404602F0BFFB06464E4A4F4B02F054F916
:103BC00016D24B48056C07240FE02946404602F008
:103BD00059FD0646601E464A243252F820103046EF
:103BE00002F0D4FB0546601EC4B2002CEDDC27E0D9
:103BF000404602F09FFB06463E4A3F4B02F06EFAFB
:103C00001ED8404602F096FB06463C4A3C4B02F06A
:103C10002BF915D83648C56D05240FE029464046D6
:103C200002F030FD0646601E314A483252F820103C
:103C3000304602F0ABFB0546601EC4B2002CEDDC42
:103C40002846BDE8F0812DE9F0418046002400259A
:103C5000404602F06FFB06462A4A2B4B02F03EFA22
:103C60001AD80021404602F0D9FC15D22748C56970
:103C700007240EE02946404602F004FD0646601E79
:103C8000224A52F82010304602F080FB0546601EA2
:103C9000C4B2002CEEDC23E00021404602F0BEFD61
:103CA0001ED8404602F046FB0646194A194B02F060
:103CB000DBF815D81548856B06240FE029464046E9
:103CC00002F0E0FC0646601E104A203252F8201036
:103CD000304602F05BFB0546601EC4B2002CEDDCF2
:103CE0002846BDE8F0810000F6285C8FC23520C070
:103CF000540700201283C0CAA175454079E92631D6
:103D000008645140DF4F8D976E1219C0C007002024
:103D10006F1283C0CAE13440002106E0022100BFD7
:103D20000A1EA1F1010399B2FAD1021EA0F101000D
:103D3000F4D1704708B53820ADF8000010208DF898
:103D4000030001208DF802006946F848FCF740FEA8
:103D50004020ADF8000048208DF8030001208DF8C8
:103D600002006946F148FCF733FE08BD70B5044611
:103D70000026254600BF17E01021EC48FCF7D7FECF
:103D800005F0800020B12021E848FCF7CEFE03E0DA
:103D90002021E648FCF7CBFE1021E448FCF7C5FEE5
:103DA0006806050E701CC6B2082EE5DB70BD70B546
:103DB0000025002400BF10E064001021DB48FCF760
:103DC000B6FE4021D948FCF796FE00B1641C1021D4
:103DD000D648FCF7AAFE681CC5B2182DECDB2046BD
:103DE00070BD70B50025002400BF12E06006040E0F
:103DF0001021CE48FCF79BFE4021CC48FCF77BFE0F
:103E000008B1601CC4B21021C848FCF78EFE681CC3
:103E1000C5B2082DEADB204670BD70B505460E46DA
:103E20000821C248FCF783FE45F04000FFF79EFFE3
:103E3000012E04D0022E06D0032E18D10BE0FFF77E
:103E4000D0FF044613E0FFF7CCFF04462402FFF73F
:103E5000C8FF04430BE0FFF7C4FF04462404FFF748
:103E6000C0FF04432402FFF7BCFF044300BF00BFB0
:103E70000821AE48FCF759FE204670BD10B500245D
:103E800001210520FFF7C9FF84B2204610BD10B5FF
:103E900000240821A548FCF74AFE2021A348FCF78E
:103EA00044FE00BF0FE01021A048FCF740FE0A20AE
:103EB000FFF732FF10219D48FCF737FE0A20FFF77D
:103EC0002BFF601CC4B2412CEDDB08219748FCF7A6
:103ED0002CFE10BD70B506460D46144608219348C9
:103EE000FCF725FE3046FFF741FF012D04D0022DDF
:103EF00006D0032D18D10BE0E0B2FFF737FF13E037
:103F0000C4F30720FFF732FFE0B2FFF72FFF0BE00B
:103F1000C4F30740FFF72AFFC4F30720FFF726FF8B
:103F2000E0B2FFF723FF00BF00BF08217F48FCF786
:103F3000FCFD384670BD70B505467D480570102DF6
:103F400018D008DC012D0DD0022D0DD0042D0DD080
:103F5000082D17D10CE0202D0ED0402D0ED0802D35
:103F600010D10DE000240DE001240BE0022409E053
:103F7000032407E0042405E0052403E0062401E00F
:103F8000072400BF00BF02211920FFF746FF4FF6AC
:103F9000F87100EA010604F0070040EA0602022177
:103FA0001920FFF797FF70BD10B50446FFF76FFFAC
:103FB0004FF4FA70FFF7B0FE4FF470720221012047
:103FC000FFF788FF48F2010202210920FFF782FF74
:103FD0004FF4076202211920FFF77CFF5548047057
:103FE0000A2C42D2DFE804F041050B12181F262DDF
:103FF000343B514A03212120FFF76CFF35E04E4A44
:10400000B83A03212120FFF765FF2EE04B4A032138
:104010002120FFF75FFF28E0484A323A03212120A0
:10402000FFF758FF21E0454A4E3A03212120FFF7D0
:1040300051FF1AE0414A593A03212120FFF74AFF74
:1040400013E03E4A5F3A03212120FFF743FF0CE0D3
:104050003A4A623A03212120FFF73CFF05E0384A43
:1040600003212120FFF736FF00BF00BF10BD10B5B0
:104070000446FFF70CFF4FF4FA70FFF74DFE4FF4C4
:10408000F86202210120FFF725FF48F20102022118
:104090000920FFF71FFF48F2430202210A20FFF721
:1040A00019FF48F2850202210B20FFF713FF48F2A7
:1040B000C70202210C20FFF70DFF4FF40762022117
:1040C0001920FFF707FF1B4804780A2C4DD2DFE8C0
:1040D00004F04C050B12181F26393F45164A0321E0
:1040E0002120FFF7F7FE40E0144A6432032121202B
:1040F000FFF7F0FE39E0114A03212120FFF7EAFE25
:1041000033E00E4A323A03212120FFF7E3FE2CE090
:104110000A4A4E3A03212120FFF7DCFE25E0074A38
:10412000593A03212120FFF7D5FE1EE0000C014083
:1041300015080020170800208001100064001000FE
:1041400001005000D24A03212120FFF7C3FE0CE0FA
:10415000D04A03212120FFF7BDFE06E0CD4A521EC2
:1041600003212120FFF7B6FE00BF00BF10BD10B530
:10417000FFF78DFE4FF4FA70FFF7CEFD4FF460723B
:1041800002210120FFF7A6FE42F254420321084615
:10419000FFF7A0FE48F2010202210920FFF79AFE74
:1041A0004FF4066202211920FFF794FEBA4A032158
:1041B0002120FFF78FFE10BD10B5FFF768FE4FF40A
:1041C000FA70FFF7A9FD4FF4607202210120FFF79A
:1041D00081FE40F2057203210846FFF77BFE48F29C
:1041E000010202210920FFF775FE4FF41E62022131
:1041F0001920FFF76FFE4FF47C0203212120FFF707
:1042000069FE10BD10B5FFF742FE4FF4FA70FFF7DC
:1042100083FD4FF4607202210120FFF75BFE48F23C
:10422000850202210920FFF755FE4FF407620221A3
:104230001920FFF74FFE4FF47C0203212120FFF7E6
:1042400049FE10BD2DE9F04F87B083460821934801
:10425000FCF76DFC00BF40219048FCF74CFC0028A7
:10426000F9D14220FFF782FDFFF7A1FD8246082128
:104270008A48FCF75AFCBAF5000F04DAAAF50000E8
:104280008749086003E0CAF3160085490860504674
:1042900002F0ACF906908348007801F0D1FD0446A5
:1042A0000D46069802F046F8064600227E4B01F0C5
:1042B00057FF804600227D4B01F012FE00227A4B10
:1042C000CDE9000101F01EFC22462B46CDE902019A
:1042D00001F018FCCDE9040101F026FBCBF8000049
:1042E00008216E48FCF723FC00BF40216B48FCF717
:1042F00002FC0028F9D14220FFF738FDFFF757FDF7
:10430000824608216548FCF710FC504602F06EF921
:1043100006906448007801F093FD8046894606982F
:1043200002F008F8044600225F4B01F019FF00225A
:104330005E4BCDE9000101F0D3FD064600225A4B49
:1043400001F0E0FB42464B46CDE9020101F0DAFB09
:10435000CDE9040101F0E8FACBF8000007B0BDE8B0
:10436000F08F10B504215248FCF7D2FBC0F10100D8
:10437000C4B2224604214E48FCF7DBFB10BD10B549
:104380004C4800780A287CD2DFE800F07B05132037
:104390002D3A4754616E48480088B0F5FA7F07DB34
:1043A000002045490880012044490870FFF7D9FFE3
:1043B00067E041480088C82807DB00203E490880A4
:1043C00001203E490870FFF7CCFF5AE03A480088C8
:1043D000642807DB0020384908800120374908702D
:1043E000FFF7BFFF4DE034480088322807DB00208C
:1043F00031490880012031490870FFF7B2FF40E0E1
:104400002D480088142807DB00202B490880012054
:104410002A490870FFF7A5FF33E0274800880A28DB
:1044200007DB002024490880012024490870FFF799
:1044300098FF26E020480088052807DB00201E4959
:10444000088001201D490870FFF78BFF19E01A480A
:104450000088022807DB002017490880012017493F
:104460000870FFF77EFF0CE013480088012807DB87
:10447000002011490880012010490870FFF771FFE2
:1044800000BF00BF0C480088401C0B49088010BDCD
:10449000050010000200500080011000000C0140D7
:1044A0000408002015080020000060410088A34097
:1044B00000080140170800201A08002016080020F4
:1044C000704700000FB4044910B503AA029800F029
:1044D000E7FA10BC5DF814FB3801002070B5044603
:1044E00085690068C10601D5302600E02026C00796
:1044F00007D070BDD4E9012130469047206A401CA6
:1045000020626D1EF6D570BD70B5044685690078D1
:10451000C00707D170BDD4E9012120209047206A4F
:10452000401C20626D1EF6D570BD00002DE9F05FC5
:10453000894604464FF0000ADFF824B1FB44C0F876
:1045400020A02046E168884700287DD0252806D095
:10455000D4E901219047206A401C2062F1E7002540
:104560005F462046E16888472028064607DB312E53
:1045700005D2B81910F8200C08B10543F1E7A807D7
:1045800001D525F00405C4F81CA00027C4F818A024
:104590002A2E09D0304601F067F838B304EB8708BB
:1045A000303EC8F8186019E059F8041B204604EBA7
:1045B00087029161E1688847012F064618D1E069BA
:1045C000002820DA25F020051DE0D8F8180000EBBF
:1045D000800006EB40003038C8F818002046E1683B
:1045E0008847064601F040F80028EED1012F0AD096
:1045F0002E2E08D12046E16888477F1C0646022FF0
:1046000045F02005C4DBA069002803DA404245F0EC
:104610000105A061E80701D025F01005A6B1A6F1BB
:104620004100192802D8203645F400654A46314633
:10463000204625604D46FBF7B3FD60B1012807D049
:10464000ED1D25F0070000E007E000F1080978E71C
:1046500005F1040975E730467AE7206ABDE8F09F66
:104660006C28000070477047704710B500F02EFAB4
:10467000006810BD10B5044600F028FA046010BDB3
:1046800070472DE9FF4F0C461E464FF0FF378BB0A9
:10469000D2E90001DDF860800A908A46C1F30A552C
:1046A00005B93D46002108464FF00000BAF1000F61
:1046B00000F4400005DA00EB80004FF4400101EA0D
:1046C00050004FEA9059B9F1010F00DDB9460A9840
:1046D00050EA4A000ED044F61050A5F2FF3545438B
:1046E0002F14B8F1000F1ED07542291E1EDDC9F12E
:1046F00000021CE0B8F1010F4FF0000001D03021A2
:1047000003E0F24305E02154401CB042FBDB30469D
:104710000022002121540B99C1F80880C1E9002032
:104720000FB0BDE8F08FBD1B6D1CDEE74A4600DA16
:10473000694206A800F06CFA06AB93E8070003ABE9
:1047400083E8070050460A9900F04AFB8DE807000D
:10475000A0F500501F3800900398002D0ADD42F2AA
:104760001F014A460844002303A90390684600F04D
:10477000B3FD09E0A0F500504A461F38002303A905
:104780000390684600F0BDFD8DE807000004000CB2
:1047900003D04FF0FF30410800E01046B8F1000FA1
:1047A00003D00022009215461EE0751E05D400F0CD
:1047B00091F9303262556D1EF9D5B3460122084396
:1047C00002D000227F1C04E02078302801D1002292
:1047D0007F1E002A099784D01DE0112D07DA00F012
:1047E00079F9303262556D1C50EA0102F5D1084367
:1047F00002D00098C8B10EE00021681E05E0235CDD
:10480000625C63542254401E491C8142F7DBAB4674
:10481000A81B401E0990002004F80B000B98099A71
:10482000C0F80880C0E9002B7AE711264FF0000895
:1048300057E72DE9F04F88460446D21D22F00701C4
:1048400091B0D1E90001CDE90A0100F091FE0246E4
:104850000B98C00F01D02D2007E02068810701D5FB
:104860002B2002E0202101EAC000032A099001D098
:10487000072A05DB03464146204600F089F90BE193
:104880002078800601D5E06900E00620B8F1650FC8
:10489000814606D0B8F1660F18D0B8F1670F70D115
:1048A00031E00020B9F1110F009001DB112301E08C
:1048B00009F101030AAA01A90CA8FFF7E2FEDDE94C
:1048C0000C70002609F10105834647E001204B46A4
:1048D00000904FF000470AAA01A90CA8FFF7D1FEEB
:1048E000DDE90DB00C995D46002610B909F1010013
:1048F0000D18B9EB050003D4C0F1FF3609F101052D
:10490000A5EB09002BE0B9F1010F01DA4FF0010925
:104910000020B9F1110F0090484601DD112300E09D
:1049200003460AAA01A90CA8FFF7ABFEDDE90C704B
:104930004D4600268346207800070AD4AB4500DAAE
:104940005D4601A8012D04DD411911F8011C302933
:1049500007D04F4502DA17F1040F04DA012082462E
:104960000FE06D1EEEE7002F02DCED1B3E4403E07E
:10497000781CA84200DD7D1CB81B00F1010A4FF035
:1049800000472078000703D4AA4501DB4FF0FF3A27
:104990000021B7F1004F0DF143088DF8431024D0EA
:1049A00002202B23002F01DA7F422D230A21021E31
:1049B000A0F1010000DC5FB197FBF1FC97FBF1F285
:1049C00001FB1C7C17460CF1300C08F801CDEEE71A
:1049D000A8F1010003702188090501D5452100E0F7
:1049E0006521A0F1010800F8011C09980FA9A1EBAD
:1049F0000807FF1D00B10120411901EBEA70A16910
:104A00003844081A401EA0612078C00602D420460F
:104A1000FFF764FD099828B1D4E901219047206A85
:104A2000401C20622078C00622D52046FFF756FDA4
:104A30001EE0002E04DBB34502DD01A8805D00E02E
:104A40003020D4E901219047206A401C2062761C66
:104A5000AAF101005FEA000A0AD100F033F8C06849
:104A60000168405CD4E901219047206A401C206223
:104A7000281EA5F10105DCDC07E0D4E9012118F8C6
:104A8000010B9047206A401C2062381EA7F10107E5
:104A9000F3DC2046FFF738FD032011B041E60000AB
:104AA000074B70B50D467B4400F05FF8044628467E
:104AB00000F020F910B14FF0FF3070BD204670BDFE
:104AC0002DE2FFFF00487047440F00200048704768
:104AD000240F002030B5B0F10A024FEA900E71F1B8
:104AE00000034EEA817EB0EB0E0061EB91014FEACC
:104AF000101E4EEA017E10EB0E0041EB11114FEA41
:104B0000102E4EEA016E10EB0E0041EB11214FEA20
:104B1000104E4EEA014E10EB0E0041EB11414018D1
:104B200041F100014FEAD00040EA41704FEAD10163
:104B300010EB80054FEA810444EA907444EB0104D1
:104B40006D1944EB0404521BA3414FF0000348BF0E
:104B50000A3200D530BD401C41F1000130BD0000DB
:104B600001694A1C02610878704700B58FB0CDE931
:104B700001310021059105497944CDE90310114621
:104B80006846FFF7D3FC0FB000BD0000E5FFFFFF54
:104B90002DE9F0411F46044603260168072A01F467
:104BA000006004DB08B116A505E016A503E008B116
:104BB00015A500E015A521F010002060A069C01E19
:104BC000A0610FB1401EA0612046FFF787FC4FB1E6
:104BD000D4E9012138469047206A401C2062C01C5D
:104BE000206206E0206AFAE7D4E9012115F8010BFA
:104BF0009047761EF8D22046FFF786FCBDE8F0818C
:104C00004E414E006E616E00494E4600696E660070
:104C10002DE9F047814616468AB0354878440DC8DC
:104C20008DE80D0032487844801C03AC0DC884E840
:104C30000D0041F69B300844372190FBF1F290FBC8
:104C4000F1F5A5F1800501FB12041B3C02D564427D
:104C5000012000E00020DFF898A080460027FA44F9
:104C6000AAF1BE0A0EE0E0070AD03246684607EB1A
:104C7000470101230AEB810100F043FB8DE80700A7
:104C800064107F1C002CEED1194F7F44AE3F19E019
:104C9000E80715D007EB04100DF1180A90E80E0094
:104CA0008AE80E00C068F04201D198190890324697
:104CB000012306A903A800F024FB03AB83E8070047
:104CC0006D10641C002DE3D14FF00103324669469C
:104CD000B8F1000F03A802D000F0FEFA01E000F0E6
:104CE00010FBC9E90001C9F808200AB0BDE8F08747
:104CF00074220000007B00F080007047004870477D
:104D0000240F00207546FFF7F9FFAE4605006946FF
:104D1000534620F00700854618B020B5FBF75EFB30
:104D2000BDE820404FF000064FF000074FF00008AC
:104D30004FF0000B21F00701AC46ACE8C009ACE82D
:104D4000C009ACE8C009ACE8C0098D46704710B591
:104D50000446AFF300802046BDE81040FBF73ABAA6
:104D60004FF0013C50F8042B51F8043B9A4221D1FA
:104D7000A2EB0C03934313EACC1317D150F8042B86
:104D800051F8043B9A4215D1A2EB0C03934313EA6A
:104D9000CC130BD150F8042B51F8043B9A4209D1A3
:104DA000A2EB0C03934313EACC13DBD04FF00000CB
:104DB000704700BFD01A01BAB1FA81F101F01801B1
:104DC00022FA01F0CB40C1F12001DBB2C0B2C01A1F
:104DD0002CFA01F3D11A914311EAC311E6D17047BD
:104DE0005FEA400C08BF91F0000F4FEA8C234FEAB6
:104DF000C12243EA51514FEA1C5018BF00F5F04060
:104E00004FEA300018BF41F000415FEA6C5C00F0EF
:104E10002980BCF1FF3F08BF40F080407047130C71
:104E200006BF12044FF0100C4FF0000C130E04BF1D
:104E300012020CF1080C130F04BF12010CF1040C48
:104E4000930F04BF92000CF1020CD30F04BF520069
:104E50000CF1010C11464FF00002A0F11F00A0EB75
:104E60000C00704711F0004F08BF704731F000414F
:104E70003FF4D5AF0B0C06BF09044FF0100C4FF0F8
:104E8000000C0B0E04BF09020CF1080C0B0F04BF41
:104E900009010CF1040C8B0F04BF89000CF1020C0A
:104EA000CB0F04BF49000CF1010CCCF12003A0EBA7
:104EB0000C0022FA03F302FA0CF241EA030100F1BA
:104EC0000100704720F07F4C80EA030023F07F4709
:104ED000ACEB070303F57C5300F0004003F1FF0344
:104EE0002DE980494FEA154B09B44FEA144325EAEE
:104EF0000B4E24EA03480FF2042606EB1327490859
:104F00003E785FEA320203FB0667C7F5000707FB3E
:104F100006F64FEA54374FEAD64606F1020607FB7B
:104F2000066CCCF1005C4FEA1C472CEA074C07FBEF
:104F300006F40CFB06F504EB15464FEA961634BF53
:104F400000204FF000404FEAD13706FB07FC4FEA44
:104F50001C4C0CFB0BF7D21B03FB0CF761EB07019E
:104F60000CFB0EF7B0EB074072EB17420CFB08F797
:104F700034BFA2EB0742B2EB074261EB17414FEAA5
:104F80000C444FEA910706FB07FC4FEA1C4C0CFB54
:104F90000BF7B0EBC74072EB573203FB0CF734BF93
:104FA000A2EBC742B2EBC74261EB57310CFB0EF7E5
:104FB000B0EBC70072EB57720CFB08F734BFA2EBE3
:104FC000C702B2EBC70261EB5771039F4FEA8161E1
:104FD00041EA921104EBCC044FEAD1374FEA8262E6
:104FE00006FB07FC42EA90124FEA80604FEA1C4C35
:104FF0000CFB0BF7D21B03FB0CF761EB07010CFB5F
:105000000EF7B0EB074072EB17420CFB08F734BF0A
:10501000A2EB0742B2EB074261EB17414FEA8C5516
:105020004FEA910704EB9C2406FB07FC4FEA1C4C5B
:105030000CFB0BF7B0EBC74072EB573203FB0CF7DE
:1050400034BFA2EBC742B2EBC74261EB57310CFB56
:105050000EF7B0EBC70072EB57720CFB08F734BFCA
:10506000A2EBC702B2EBC70261EB577115EB4C25FF
:105070004FEA816141EA92114FEA82624FEAD137E9
:1050800042EA901206FB07FC44F100044FEA8060FC
:105090004FEA1C4C0CFB0BF7D21B03FB0CF761EB2C
:1050A00007010CFB0EF7B0EB074072EB17420CFB4D
:1050B00008F734BFA2EB0742B2EB074261EB17419E
:1050C00015EB1C154FEA813141EA92414FEA8232D9
:1050D00042EA90424FEA80304FEA0C7644F10004F5
:1050E00048EA03434EEA0B484FF0000EB2EB080CBF
:1050F00071EB030724BF624639464EEB0E0E4FF0AC
:10510000000B0018524149414BEB0B0BB2EB080C62
:1051100071EB03077BF1000B24BF624639464EEB6F
:105120000E0E4FF0000B0018524149414BEB0B0B98
:10513000B2EB080C71EB03077BF1000B24BF624656
:1051400039464EEB0E0E51EA020718BF46F0010633
:1051500016EB0E7655F1000254F1000103D5BDE8BF
:105160008901BDE80088BDE88901BDE80048B6199D
:10517000524141EB0101A3F10103704780807F7E22
:105180007D7C7B7A797877767675747372717170BD
:105190006F6E6E6D6C6C6B6A6A696868676666656F
:1051A0006464636362616160605F5F5E5E5D5D5CFD
:1051B0005C5B5B5A5A59595858575756565555556E
:1051C0005454535352525251515050504F4F4F4ECE
:1051D0004E4D4D4D4C4C4C4B4B4B4A4A4A4949491C
:1051E000484848474747474646464545454444445E
:1051F000444343434342424242414141002B9C4687
:1052000030D477002BD01CB54FEA370703B44FF0EA
:1052100010004FF01001BAF1000F06D0BCF1000FE2
:10522000DCBF40F0080040F008014FF000000FBC68
:10523000BDE810400BF1010BBBF1010F08BF5FEAA5
:10524000170722BF12F1010211F101014FF00041D5
:1052500043F1000300F0004043EA00007047F9D337
:105260005708D0E746EA064613F1400F4FEA1646C4
:105270001FDD13F1200FDFBF16430A460021203344
:105280005B42BED0C3F1200746EA064602FA07F7A2
:105290004FEA164646EA0706C3F1200722FA03F250
:1052A00001FA07F721FA03F14FF0000342EA07027F
:1052B000A7E746EA020646EA06464FEA164646EAE7
:1052C0000106BCBF46EA0646360C4FF000034FF01D
:1052D00000024FF0000194E72DE9804C9A46934676
:1052E00070B491E8380007C831EA400C48BF34EA8E
:1052F000430C03D5FFF7E6FDFFF780FFF0BCBDE8E8
:10530000008C2DE9804C9A46934670B491E83800A1
:1053100007C810F0804F08BF13F0804F03D100F092
:1053200005F8FFF76BFFF0BCBDE8008C20F07F476D
:1053300080EA030023F07F4C07EB0C03A3F57C53BA
:1053400000F00040A3F1FE0392F0000F00F0B380E4
:1053500095F0000F00F077802DE901494FEA1140E8
:105360004FEA144621EA004800FB06FC24EA0647FF
:1053700008FB06F607FB08F800FB07F718EB0648E2
:105380004CEB164C4FEA124B18EB07484FEA154608
:105390004CEB174022EA0B4E0BFB06FC25EA0647B6
:1053A0000EFB06F607FB0EFE0BFB07F71EEB064E89
:1053B0004CEB164C4FF000061EEB074E4CEB174B18
:1053C00018EB0B0840F1000018EB0E0B58EB00082F
:1053D00040F100008F1A4FF000013CBFC943661B2B
:1053E00014BFB5EB040C00213CBFC943F61B4FEAC8
:1053F00017444EEA8E0E27EA04454FEA1C4704FB89
:1054000007622CEA074C05FB07F70CFB05F604FBCB
:105410000CFC16EB074642EB174216EB0C4642EB30
:105420001C421BEB060658EB0202414146EA9E066F
:1054300001D5BDE80189B619524141EB0101A3F143
:105440000103BDE801894FEA14454FEA114724EAF8
:10545000054621EA074C05FB07F406FB07F70CFBA2
:1054600006F105FB0CFC11EB074144EB17444FEA36
:10547000124711EB0C4144EB1C4422EA074C05FB9C
:1054800007F206FB07F70CFB06F605FB0CFC16EB18
:10549000074642EB174216EB0C4642EB1C456A18D6
:1054A00054F1000148BF7047B619524141EB010168
:1054B000A3F10103704795F0000F37D04FEA114276
:1054C0004FEA144721EA024624EA074C02FB07F19F
:1054D00006FB07F70CFB06F402FB0CFC14EB07447D
:1054E00041EB17414FEA154714EB0C4441EB1C41CB
:1054F00025EA074C02FB07F506FB07F70CFB06F64F
:1055000002FB0CFC16EB074645EB174516EB0C4669
:1055100045EB1C42121951F1000148BF7047B61902
:10552000524141EB0101A3F1010370474FEA1445D9
:105530004FEA114724EA054621EA074C05FB07F12B
:1055400006FB07F70CFB06F24FF0000605FB0CFC10
:1055500012EB074241EB174112EB0C4251EB1C419D
:1055600048BF7047921841EB0101A3F10103704756
:10557000490050EAC12018BF04204A0D18BF40F06E
:10558000010040F2FF72B2EB515F08BF40F0020031
:10559000012808BF052070472DE9F0414F1E00EBA0
:1055A000C7010446D1E9000115461E4637F0060240
:1055B0000DD02A46334600F093FC7F1E04EBC70350
:1055C000D3E9002300F0E2F937F00602F1D1022F0F
:1055D00025D0042F13D0062F18BFBDE8F0812A462E
:1055E000334600F07DFCD4E90A2300F0CFF92A46C7
:1055F000334600F075FCD4E9082300F0C7F92A46C9
:10560000334600F06DFCD4E9062300F0BFF92A46CA
:10561000334600F065FCD4E9042300F0B7F92A46CC
:10562000334600F05DFCD4E9022300F0AFF92A46CE
:10563000334600F055FCD4E90023BDE8F04100F00A
:10564000A5B9012201F0C5B940F2013200204FF0A6
:10565000E04101F0BEB90000024A0020110701F04C
:10566000B8B9000001FDFFFF30380A2801D201203F
:1056700070470020704700002DE9F04D894BCE0F98
:1056800021F0004784B005460C469F4230D386483F
:10569000874211D3C7F31300284305D004B028462E
:1056A000BDE8F04DFFF7CDBF002E1ABF0020014628
:1056B000284604B0BDE8F08D7C4A284600F00EFD77
:1056C00007D20220FEF7D6FF04B0BDE8F04DFFF789
:1056D000BBBF774A774B2846214600F0C5FB07D26F
:1056E0000220FEF7C7FF04B0BDE8F04DFFF7B4BFDE
:1056F0007148B84248D27148874215D27048784400
:1057000000EBC6002146D0E90023284600F028FD22
:10571000CDE900016B48784400EBC600D0E900AB4E
:10572000C6F10100861B26E0674A684B28462146E1
:1057300000F0D6FB664A7A4402EBC603D3E90023A5
:1057400000F024F900F036FB064600F062FB074645
:105750008846604A604B00F0C3FB2A46234600F0AF
:10576000F3FCCDE900015D4A5D4B3846414600F04F
:10577000B7FB82468B46DDE9000152465B4600F0EE
:10578000EFFC05460C4618E05648874214D2564AAC
:10579000564B2846214600F0F9F8554E0022334674
:1057A00000F09CFC08D204B0334628462146BDE8F0
:1057B000F04D002200F0EAB800262A4623461046A3
:1057C000194600F08DFB804602464A480F460B46BC
:1057D00005217844FFF7E0FE42463B4600F080FB9F
:1057E0002A46234600F0B0FC07468846E6B3024648
:1057F0000B4600204FF0804100F0B2FCCDE90201E1
:105800003A4643462846214600F06AFBDDE902237A
:1058100000F078F952465B4600F096FCDDE9002383
:1058200000F09EFC0022324B00F08EFC6FF47F7281
:105830009642A2BF01EB065104B0BDE8F08D4FF0D7
:105840007A5202EB065211442B4A01F0C2F8044688
:105850000D46FFF78DFE042808BFFFF7FDFE20462A
:1058600004B02946BDE8F08DFFE700224FF08043E9
:1058700000F076FC82460E463A46434628462146CC
:1058800000F02EFB5246334600F03CF92A462346F0
:1058900000F066FC04B00022BDE8F04D144B00F0AF
:1058A00053BC0000422E86400000F07FEF39FAFE24
:1058B00051302DD5104987C0422ED63FB2A2F03FBD
:1058C000CE160000C6160000FE822B654715F73F76
:1058D000861600000000E0FE422EE63F763C793559
:1058E000EF39EA3D0000303E9C7500883CE4377E8D
:1058F0000000F03F1A16000018FCFFFF10B5002949
:105900000AD00878002807D005487844FFF728FA1D
:10591000002801D0002010BD0248784410BD0000CE
:1059200006160000FE15000021F00042A2F16052B0
:10593000B2F5801F01F0004328BFD2F17F6C0BD974
:105940005FEA001C43EAC20242EB507018BF704786
:1059500028BF20F001007047B2F5801FBCBF184679
:1059600070474FEA410C1CF5001F02D2084600F0B8
:1059700050BF70B500F05EFB00000089FFF7F6BF76
:105980004FF00040A0F580007047000010B591EA8C
:10599000030F48BF83F0004300F1EA83841A71EBE0
:1059A000030C05D2121943EB0C03001B61EB0C0135
:1059B000DFF824E14FEA1154A4EB135C1EEA430F15
:1059C00018BF9EEA445F73D023EA0E03DCF1200E79
:1059D00021EA045143F4801332D322FA0CFE10EB77
:1059E0000E0023FA0CFE41EB0E01CCF1200E03FA5F
:1059F0000EFE10EB0E0051F10001B1F5801FCCF14D
:105A0000200E32D201EB045112FA0EF2BDE8104022
:105A100058BF7047401C38BF5FEA420218BF70474A
:105A2000002814BF20F0010041F100014FEA4103BA
:105A300013F5001F38BF7047A1F1C04100F048BB0B
:105A4000012A43EB0302ACF1200CDCF11F0E32BF44
:105A50004FF0000E23FA0CF310EB030041EB04515E
:105A6000B4EB115FD0D0A1EB045101F580114908CE
:105A70005FEA300001EB04510ED350F1000038BF53
:105A800012FA0EFE08D1BDE81040C9E7401C38BF2D
:105A90005FEA4202CAD1C3E7BDE810404FEA4103C2
:105AA00013F5001F38BF7047A1F1C04100F010BBD3
:105AB0009EEA445F08D011EA5E0FBDE8104004BFC3
:105AC00001F0004100207047BDE8104070B500F0C3
:105AD000B1FA00BF64FBBE3E0000E0FF02494FF098
