:020000040800F2
:1000000000200020557B00086D5100086F5100084A
:1000100000000000000000000000000000000000E0
:100020000000000000000000000000007151000806
:100030000000000000000000735100087551000826
:10004000A57B000800000000A57B0008A57B000838
:10005000A57B0008A57B0008A57B0008A57B000800
:10006000000000001152000821520008315200081F
:10007000A57B0008A57B0008A57B00080000000008
:10008000A57B0008A57B000800000000A57B0008F8
:10009000A57B0008A57B0008A57B0008A57B0008C0
:1000A000A57B0008A57B0008A57B0008415200083D
:1000B0005152000800000000000000000000000095
:1000C00010B5064C2378002B07D1054B002B02D02E
:1000D000044800E000BF0123237010BDEC000020A5
:1000E00000000000D88D0008044B10B5002B03D091
:1000F0000349044800E000BF10BDC04600000000F6
:10010000F0000020D88D000803B471464908400073
:100110004900095E49008E4403BC70470022430831
:100120008B4274D303098B425FD3030A8B4244D3BF
:10013000030B8B4228D3030C8B420DD3FF22090201
:1001400012BA030C8B4202D31212090265D0030BC0
:100150008B4219D300E0090AC30B8B4201D3CB03B6
:10016000C01A5241830B8B4201D38B03C01A5241F8
:10017000430B8B4201D34B03C01A5241030B8B42FA
:1001800001D30B03C01A5241C30A8B4201D3CB02E5
:10019000C01A5241830A8B4201D38B02C01A5241CA
:1001A000430A8B4201D34B02C01A5241030A8B42CD
:1001B00001D30B02C01A5241CDD2C3098B4201D3E5
:1001C000CB01C01A524183098B4201D38B01C01A63
:1001D000524143098B4201D34B01C01A52410309DA
:1001E0008B4201D30B01C01A5241C3088B4201D389
:1001F000CB00C01A524183088B4201D38B00C01A36
:10020000524143088B4201D34B00C01A5241411A5C
:1002100000D20146524110467047FFE701B5002069
:1002200000F006F802BDC0460029F7D076E7704717
:100230007047C046F0B5C64643025B0A4E02450011
:100240004F00DA00C40F9C46700A904600B52D0E90
:100250003F0EC90FB6098C424BD0EA1B002A36DD8F
:10026000002F61D0FF2D00D1ADE08023DB041E43C1
:100270001B2A00DCD3E001204346181A430100D4B6
:100280008CE080018709380001F0F8F805388740D4
:10029000854200DCB6E02D1AB3483840430704D04D
:1002A0000F230340042B00D00430430100D478E036
:1002B0006A1CFE2D65D08001430A9C46D2B263467B
:1002C000D0051843E407204380BCB846F0BD002A9F
:1002D00035D07A1B002D00D0AFE04346002B00D173
:1002E000A7E0531E012A00D12FE1FF2A69D01A008E
:1002F000AAE0E91B002970DD002F37D0FF2D62D066
:100300008023DB041E431B2900DCB0E001204044B5
:10031000430143D50135FF2D33D00123934A0340D8
:10032000400810401843B9E7002E00D183E0511E69
:10033000012A00D1D8E0FF2A45D00A0098E7FE271D
:100340006A1C174200D086E0002D00D0B7E043467B
:10035000002B00D1F3E00022002EB0D0981B430107
:1003600000D4FAE043460C00F01A97E7002E00D1C3
:10037000C8E04A1E012900D1AEE0FF2923D01100B8
:10038000C1E70023FF229C4699E7FE216A1C114227
:1003900077D0FF2AF5D0150046447008430700D0F7
:1003A0007EE7C308FF2D0ED05B025B0A9C46EAB2D3
:1003B00085E7002E07D08022D203134203D01042DB
:1003C00001D10C000300002BDBD08020C0031843B8
:1003D0004002430A9C46FF2271E70029D5D07A1BD0
:1003E000002D60D14346002B24D0531E012A73D028
:1003F000FF2AE7D01A001B2A00DC85E001203D001F
:10040000801985E720233A00451B38000135EA4072
:100410005D1BA840431E9841002510433EE7202362
:1004200030009B1A31009840D140431E9841084348
:1004300022E70C0003001500B4E7FF2FC1D0802392
:100440004046DB04184380461B2A51DD01200C0086
:100450003D00301A12E743469F1B7B012BD4002F2F
:1004600000D010E70023002400229C4627E7202329
:1004700032003000CA40591A8840431E9841104348
:1004800045E7002D4AD14346002B63D00022002EC1
:1004900000D114E730004044430100D47EE7324BE2
:1004A000013518407AE7FF2F8CD080234146DB04CA
:1004B000194388469FE743460C00F71AE3E6424695
:1004C000002A00D075E7002E00D07AE78023DB03F6
:1004D00000249C46FF22F2E63000404401254301FF
:1004E00000D45BE7022518E743460125981BC5E6C3
:1004F000202344464046D4409A1A9040431E9841D7
:100500002043A4E70D004DE7202341464046D1405B
:100510009A1A9040431E9841084370E74246002AC9
:1005200000D14FE7002E00D14DE78022D2031342C5
:1005300000D148E7104200D045E7030043E7002E12
:1005400090D00C0084460022B9E643460C00F01A15
:10055000013593E684460022B1E6002800D01DE76D
:10056000002300249C46AAE6FFFFFFFBFFFFFF7D60
:10057000F0B54F464646D6464502C0B547000C1C6E
:100580006D0A3F0EC60F002F00D170E0FF2F00D183
:1005900075E0EB008025ED041D43002399469A4643
:1005A0007F3F6002430A984663001B0EE40F002B56
:1005B0004ED0FF2B46D04246D0008022D2040243C8
:1005C000904600227F3B3100FF1A4B466140C9B282
:1005D00013430F2B00D9B5E06E489B00C3589F46CC
:1005E000002398462600454692465346022B00D1EA
:1005F00089E0032B00D19EE0012B18D03B007F3314
:10060000002B69DD6A0704D00F222A40042A00D09B
:1006100004352A0103D5604B1D403B008033FE2B7F
:1006200000DD70E0AD016D0AD8B202E00E000020DE
:100630000025C0052843F6073043E0BCBA46B14662
:10064000A846F0BD4346002B3FD10222FF3F03E006
:100650004346002B2DD1012231004B466140C9B2E7
:1006600013430F2B34D84D489B00C3589F46002D91
:1006700013D104239946033B00279A4691E7002DA6
:1006800005D108239946063BFF279A4689E70C23A4
:100690009946093BFF279A4683E7280000F0EEFEC3
:1006A0007627431F9D4000237F4299469A463F1A72
:1006B00077E7404600F0E2FE4246431F9A40762329
:1006C0005B4290461B1A00227DE7FF2303227AE754
:1006D0000E00FF200025ACE70120C01A1B28A6DC75
:1006E0009E372A00BD40C2406B1E9D4115436B07DB
:1006F00004D00F232B40042B00D004356B0144D5CC
:100700000120002595E7FF20002592E7802500269F
:10071000FF20ED038DE7002398468020C0030542AB
:1007200009D04346034206D1454605436D022600E3
:10073000FF206D0A7DE78020C00305436D02FF2086
:100740006D0A76E742466B015001834219D21B22A3
:100750000025013F01261C006D005B00002C01DB21
:10076000984201D81B1A3543013A002AF3D15A1E88
:1007700093411D433B007F330E00002B00DD41E71A
:10078000AAE71A2201251B1AE4E7AD0100206D0A31
:100790004FE7C046F08D0008FFFFFFF7308E0008DE
:1007A000F0B54F464646D64644024500C0B5640AF9
:1007B0000F1C2D0EC60F002D00D18DE0FF2D00D196
:1007C00092E00023802099469A46E400C004044346
:1007D0007F3D7802430A98467B001B0EFF0F002BDB
:1007E00000D170E0FF2B00D186E04246D00080228D
:1007F0007F3BED180023D204024390469C46310013
:100800004B467940681C0F2B1CD8764A9B00D35866
:100810009F4639004446E2465346022B0FD0032B35
:1008200000D1D7E0012B37D100200024C0052043A0
:10083000C9070843E0BCBA46B146A846F0BDFF2050
:100840000024F3E7260C2404220C44462404240C40
:10085000434627001B0C574374435A435E43121907
:100860003B0C9B189C4203D980225202944666445A
:100870003F041A043F0CD2199401671EBC411B0CA3
:10088000920E9B1914439B011C431B0100D49BE057
:10089000012362081C40144302007F32002A64DDF9
:1008A000630704D00F232340042B00D0043423011A
:1008B00003D502004C4B80321C40FE2ABFDCA40151
:1008C000640AD0B2B2E74346002B3DD14A46013319
:1008D0001A4391469C4692E7002C29D1042399465D
:1008E000033B00259A4674E7002C1BD10823994648
:1008F000063BFF259A466CE74346FF35002B0BD19C
:1009000002234A461A4391469C4678E753463100F3
:10091000022B00D083E792E703234A461A4391460D
:100920009C466CE70C239946093BFF259A4650E705
:10093000200000F0A3FD7625431F9C4000236D425C
:1009400099469A462D1A44E7404600F097FD4246E4
:10095000431F9A4000232D1A90469C46763D4EE751
:1009600080240021FF20E40360E701239B1A1B2B56
:1009700000DD59E722009E30DA4084401300621EF9
:1009800094411C43630704D00F232340042B00D061
:10099000043463011AD50120002447E78020C003F6
:1009A000044209D04346034206D14446044364024C
:1009B0003900FF20640A39E78020C0030443640241
:1009C0003100FF20640A31E7280065E7A401002018
:1009D000640A2BE78020C00304436402FF20640AFA
:1009E00024E7C046708E0008FFFFFFF7F8B5CE463B
:1009F000474643025B0A4E02DA009446720A914669
:100A000045004A0080B52D0E1F00C40F120EC90FFD
:100A1000B609FF2A5BD0012041408C4239D0A81A88
:100A200000285ADD002A6AD0FF2D00D1D9E08022AB
:100A3000D20416431B2800DCE9E001206346181AA3
:100A4000430100D4B4E080018709380000F016FDAE
:100A500005388740854200DCCCE02D1AB548384087
:100A6000430704D00F230340042B00D0043043017C
:100A700000D4A0E06A1CFE2D00D18DE08001470A61
:100A8000D2B2D0053843E4072043C0BCB946B046D3
:100A9000F8BDA81A8046002845DD002A70D0FF2D39
:100AA00000D19EE08023DB041E4343461B2B00DC69
:100AB000D2E00120604443017AD50135FF2D6BD08F
:100AC00001239D4A0340400810401843C8E7002E08
:100AD00020D08C4223D02800FF38002839D0571B63
:100AE000002D00D09DE06346002B00D1DBE07B1E93
:100AF000012F00D10DE1FF2F71D01F0098E0002ED3
:100B000000D1A7E0421E012800D1E6E0FF2868D00E
:100B100010008FE701204140A14200D07FE7FF2075
:100B200040428046A8444046002838D0511B002D42
:100B300000D1AEE0FF2A00D1DFE080236046DB0475
:100B4000184384461B2900DCD9E0012015008019D8
:100B5000B1E7FE206A1C104271D1002D00D0A6E042
:100B60006346002B00D1D9E00022002E00D188E797
:100B7000981B430100D4E1E063460C00F01A6FE7D4
:100B8000002E00D1B7E00200013A012800D19CE01C
:100B9000FF2826D0904688E7FF22002771E7FE2035
:100BA0006A1C104264D0FF2AF6D015006644700813
:100BB000430700D056E7C308FF2D12D05B025F0A3F
:100BC000EAB25EE76246002A00D196E0002E08D025
:100BD0008022D203134204D04846104201D10C00B7
:100BE0004B46002BD8D08027FF031F437F02FF22F4
:100BF0007F0A46E720233A00451B38000135EA40CA
:100C00005D1BA840431E98410025104328E7202380
:100C10001B1A32009E40C2403000431E98411043D0
:100C20000CE7FF2ADBD080236046DB0418438446B0
:100C30001B2F56DD01200C001500301A00E763461B
:100C40009F1B7B013DD4002F00D0FEE60024002234
:100C5000002716E70500AFE7320043464146DA4079
:100C600020235B1A9E403000431E9841104321E729
:100C7000002DA7D16346002B59D00022002E00D1B1
:100C8000FFE630006044430192D52A4B01351840FD
:100C90008EE76346002B47D04B1E012915D0FF2954
:100CA0002BD019004EE70C004B463D0084E762460E
:100CB000002A8BD1002E92D180270024FF22FF032F
:100CC000DFE663460C00F71ABFE6300060440125FA
:100CD000430100D46CE70225F2E663460125981B28
:100CE000AEE6202364466046FC40DF1BB840431E4E
:100CF000984120439FE705005EE74B4671E72023BC
:100D000065466046CD40591A8840431E98412843A5
:100D10001CE763460C000125F01A91E6002E95D0E1
:100D20000C004F460022ACE64B460D0044E74F4610
:100D30000022A6E6FFFFFFFBFFFFFF7D002800D09B
:100D400036E7002400279CE641024200C30F490A0F
:100D50000020120E7E2A03DD9D2A02DD094A981822
:100D60007047802000040143952A07DC9620821AF0
:100D7000D1404842002BF3D10800F1E7963A914068
:100D8000F7E7C046FFFFFF7FF8B5002813D0C31771
:100D9000C6185E40C40F300000F070FB9E230500B3
:100DA0001B1A962B0FDC082801DD083DAE407602A9
:100DB000760AD8B202E0002400200026C0053043A5
:100DC000E4072043F8BD992B0CDD05223100121AEF
:100DD000D1400A00010030001B318840411E88418B
:100DE00002431600052D12DC31000D4F3940720709
:100DF00009D00F203040042805D004314A0102D523
:100E00009F2339405B1B89014E0AD8B2D6E76A1F7F
:100E100096403100024F39407207F4D0E9E7C046EE
:100E2000FFFFFFFB70B5051E0ED000F027FB9E23D1
:100E300004001B1A962B0CDC082801DD083CA54099
:100E40006D026D0AD8B201E000200025C0052843DC
:100E500070BD992B09DD020029001B3291404A1E0A
:100E600091410522121AD5400D43052C12DC2900B0
:100E70000C4E31406A0709D00F202840042805D0C5
:100E800004314A0102D59F2331401B1B89014D0AC1
:100E9000D8B2DBE7621F95402900024E31406A0755
:100EA000F4D0E9E7FFFFFFFBF0B557464E46454655
:100EB000DE46E0B598460C034B000600924687B02C
:100EC000240B5B0DCF0F002B00D15CE1D94A93427C
:100ED00000D175E1420FE400144380221204144350
:100EE000D54AC500944663440093002399469B4627
:100EF000434642461E03D20F5B0050469046360BD7
:100F00005B0D00D120E1CB4A934200D162E1CA4996
:100F1000420F8C4600996344F6008C4616438022AB
:100F20009C44120463461643C200002000930099BB
:100F3000434601318C4649467B4001930F2926D810
:100F4000BE4B890059588F46434601933400150023
:100F500083465B46022B16D0032B00D103E2012B04
:100F600000D0CDE0002200240025019B1205224381
:100F7000DB071A432800110007B0F0BCBB46B2469D
:100F8000A946A046F0BD00240025AA4AEDE7280C9A
:100F90002D042D0C2B00110C1204120C53439846F7
:100FA00013002F00434399464F434F44BB464746E7
:100FB0000B003F0CBA464343DA440293D14504D9AF
:100FC00080277F02B9464B44029353461B0C9B4635
:100FD00053461F0443461B041B0C98463B004344E6
:100FE0000493330C3604360C984633004343994639
:100FF000434643432F009A46434677435D43380CAC
:101000004D444519A94503D980235B029946CA443A
:101010003F04280C3F0C2D04ED19270C2404240C4C
:101020000300200050437A4391463A00534405930D
:10103000030C9A464A43614349445144AB448945B1
:1010400003D980235B0299464A4400040B0C000C30
:101050000904091820009946434670435C437E43C7
:101060005F43030C9846A41944444A440397A6429C
:1010700004D980235B029846474403972304029EC9
:101080009A46059B5E449846AE42AD4176188E4224
:1010900089410004000C504440446D424719B84651
:1010A000934649428946C344D94498428041A84561
:1010B000AD4193459241894589416D424042284363
:1010C000240C524249420A43039B00198018C71856
:1010D0004B46DC0D049B75021D436A1E95414B4631
:1010E000F60D7F0235435A023C431543FB0100D401
:1010F0001CE101216A080D401543E207154364080D
:101100004F496144002900DCB0E06B0709D00F2291
:101110002A40042A05D02A1DAA42AD416D42641915
:101120001500E30104D58021464AC90014406144FA
:10113000454A914200DD26E76207ED086402490551
:101140001543240B4A0D10E75246324300D17FE08D
:10115000002E00D1DCE0300000F090F902000B3AE4
:101160001D2301009B1A52460839DA408E4016436F
:1011700052468A40009B3549181A03008C46634446
:1011800000200093D3E6250005434AD0002C00D16F
:10119000B0E0200000F072F9010002000B391D23BD
:1011A00010005B1A3100350008388440D940854072
:1011B0000C432648831A0093002399469B4697E6E2
:1011C0000500254326D108220093022300249146DE
:1011D0009B468DE65246009B324310D115490026AE
:1011E0008C466344494600930223194389460220F2
:1011F0009DE65B460197022B00D0ADE6C3E60D4AA3
:101200000320944663444A46009303231A439146BD
:1012100052468CE60C2200930323050091469B4620
:1012200066E60423994600230093013300249B467D
:101230005EE6C046FF07000001FCFFFFB08E00081D
:10124000FF030000FFFFFFFEFE0700000DFCFFFF95
:1012500049460123194389460026012067E60023F9
:1012600080240025434A019324037EE60120401A8E
:10127000382800DD76E61F285BDD1F22230052425E
:10128000511ACB401900202803D03B4A62449440B5
:1012900025436A1E95412A000A4307210D000024B8
:1012A000154011425BD00F2100241140042953D076
:1012B000111D914292415242A4180A0023024BD5BB
:1012C00001220024002550E680231B031C4209D084
:1012D0001E4207D133431C0343461500240B254A05
:1012E000019342E68022120314432403214A240B73
:1012F00001973AE600F0C2F80100020015312032F1
:101300001C2900DC4BE7340008380025844050E7F6
:1013100000F0B4F803001A00153220301C2A00DC5B
:101320001EE75646083B00229E4023E7009B9C4652
:10133000E6E61249220061442E008D408A40C640F4
:10134000691E8D4132432A43C4405307B6D00F2152
:1013500011400429ACD1B1E765076402240BD2081F
:101360001543002201E68022120314432403014A9C
:10137000240BFAE5FF0700003E0400001E040000F5
:101380000A0030B5134C530009030500090B002077
:101390005B0DD20FA34204DD0F48834202DD0F4BE9
:1013A000D01830BD8020400301430D48C01A1F28CB
:1013B00008DD0C48C31AD9400B005842002AF0D16E
:1013C0001800EEE7084CC540A446634499400B0062
:1013D0002B43F2E7FE0300001D040000FFFFFF7F28
:1013E0003304000013040000EDFBFFFF70B5430061
:1013F0004602C40FFE201B0E591C750A08420CD071
:10140000E022920094466D07360B63441B0533437C
:10141000E40723432800190070BD002B14D1002DD0
:101420001BD0280000F02AF80A281CDC0B232E0011
:101430001B1ADE40030015339D400E4A3603121A74
:101440005205360B530DE1E7002D09D08022360BF3
:101450001203094B6D071643D8E700230026D5E792
:101460000026054BD2E703000B3B9D402E000025D4
:10147000E3E7C04689030000FF0700001C210123A9
:101480001B04984201D3000C10391B0A984201D367
:10149000000A08391B09984201D30009043902A245
:1014A000105C40187047C0460403020201010101AC
:1014B0000000000000000000F0B5DE4657464E4632
:1014C0004546E0B58BB01422002105A806F099FB33
:1014D0004B4B596980200003014359615A6902400E
:1014E0000192019A59698020C003014359615A69E8
:1014F00002400292029A5969802080020143596198
:101500005A6902400392039A5A698021C9020A4328
:101510005A615B690B400493049BE0242402394B1D
:101520009B4600222100180005F0D7FB364B9A4657
:101530009027FF0500221900380005F0CEFB334B41
:101540009946334E00221900300005F0C6FB314B9E
:1015500098460022C021180005F0BFFB0594012524
:10156000069500240794089405A9584605F0E8FA62
:101570005346059306950794089405A9380005F08D
:10158000DFFA022305930694079405A9300005F0BD
:10159000D7FA4B46059306950794089405A93000A1
:1015A00005F0CEFA80231B01059388235B03069385
:1015B000079405A9300005F0C3FAF0231B02059338
:1015C0000694079505A9300005F0BAFAE0235B01FF
:1015D00005930694079405A9380005F0B1FAC023D5
:1015E000059306950795089405A9404605F0A8FAC5
:1015F0000BB0F0BCBB46B246A946A046F0BDC04603
:101600000010024000080048028300003C04000073
:10161000000400480014004800B583B0114A516925
:10162000012319435161526913400193019B002228
:101630000021092005F080FC092005F0ADFC002206
:1016400000210A2005F078FC0A2005F0A5FC002204
:1016500000210B2005F070FC0B2005F09DFC03B071
:1016600000BDC0460010024030B585B00C220021FC
:1016700001A806F0C6FA184C184B236000236360DB
:10168000A360E3600125256104226261237663760D
:10169000A576E376C222FF32E26123622433E55469
:1016A000A562200003F0DEFF0523019380235B0188
:1016B0000293039501A9200004F078F90623019311
:1016C00001A9200004F072F90723019301A9200069
:1016D00004F06CF905B030BDC803002000240140BF
:1016E00010B50D4C0D4B23600D4B63600023A360C0
:1016F0000122E26023616361A361E3612362200050
:1017000004F0BEFF0021200005F0C4F900212000F4
:1017100005F0ECF910BDC046D40400200054004090
:10172000D28C800010B50948094B036096239B01B9
:10173000436000238360C36003610C2242618361C4
:10174000C3610362436206F045F910BD280500201D
:101750000038014010B50948094B036096239B01EE
:10176000436000238360C36003610C224261836194
:10177000C3610362436206F02DF910BDB00500207D
:101780000044004030B5FF24FF2508E003786340A3
:101790000749CC5C6C400749CD5C110001304A1E02
:1017A00092B20029F2D12802204380B230BDC04657
:1017B000F08E0008F08F000810B5404C404B1B68BD
:1017C0002360404B1B6863603F4B1B68A3603F4B2B
:1017D0001B68E3603E4B1B6823613E4B1B686361E3
:1017E0003D4B1B68A3613D4B1B68E3613C4B1B6891
:1017F00023623C4B1B6863623B4B1B68A3623B4B01
:101800001B68E3623A4B1B6823633A4B1B686363B4
:10181000394B1B68A363394B1B68E363384B1B6868
:101820002364384B1B686364374B1B68A364374BD6
:101830001B68E364364B1B682365364B1B68636586
:10184000354B1868FFF780FA83001B185B00A3650F
:10185000324B1868FFF778FA83001B185B00E365CA
:101860002F4B1868FFF770FA83001B185B00236684
:101870002C4B1868FFF768FA83001B185B0063663F
:10188000294B1868FFF760FA83001B185B00A366FA
:10189000264B1868FFF758FA83001B185B00E366B5
:1018A000002307E0224AD15C044AD218703211703A
:1018B00001339BB2102BF5D910BDC0463C06002069
:1018C000080000200C00002010000020FC12002066
:1018D000001300200413002084120020881200202E
:1018E000A4120020A8120020AC1200201400002036
:1018F000180000201C0000202000002034000020E0
:101900003800002078000020A012002024000020D1
:10191000C0120020B41200206000002064000020EB
:1019200068000020280000202C000020300000204B
:10193000D412002070B5AD4C236810221A6220002A
:1019400005F092FB23680F221A62636F1B685A68C6
:10195000FA235B009B1A9BB2A54A1380A54A117813
:10196000A54A126891421BD0A24B1B78FA2B00D1DA
:10197000A3E0A04B1B78FA2B00D1CDE09D4B1B7848
:10198000FA2B00D1F7E0FA2252009A49974806F064
:10199000AFF8902000220221C00505F09EF970BD2D
:1019A000944949780329DFD1924989780029DBD10C
:1019B0009049C9780029D7D18E4909790029D3D116
:1019C0008C4949790529CFD1082BCDD18B4B1A7081
:1019D00003225A7007329A70894B1868894B1C6829
:1019E000A0425CDD0123884A11688C4201DA0222A0
:1019F0001343864A1268944253DA04242343844CE6
:101A00002478002C50D008242343814C6478002C87
:101A10004DD0102423437E4CA478002C4AD020249F
:101A20002343764C1D0AE57023718300C3185B00C5
:101A3000233318B200126071A3718B00CB185B00C6
:101A4000233319B20912E17123729300D3185B009A
:101A500023331AB212126272A3726E4B1B681A0AF7
:101A6000E27223730D212000FFF78CFE6073000AE1
:101A7000A073902001220221C00505F02EF9664DC9
:101A8000280003F005FF64230F222100574805F0CA
:101A9000C0FE624A6249280003F0A6FE64E7002304
:101AA000A1E70424A343AAE70824A343ADE7102435
:101AB000A343B0E72024A343B3E74E4B5B78042B4A
:101AC00000D056E74B4B9B78D12B00D051E7494BC8
:101AD0005B79FB2B00D04CE7454B1B88062B00D0D5
:101AE00047E7444DEA784A4B1A734B4C200003F009
:101AF000CFFE902001220221C00505F0EEF8494BEF
:101B00001A8864232900394805F083FE434A444972
:101B1000200003F069FE2CE7364B5B78042B00D0E5
:101B20002CE7344B9B78D22B00D027E7314B5B79E5
:101B3000FB2B00D022E72E4B1B88062B00D01DE785
:101B40002C4DEA78324BDA73334C200003F0A0FEC0
:101B5000902001220221C00505F0BFF8314B1A8800
:101B600064232900214805F054FE2C4A2C4920000A
:101B700003F03AFE02E71F4B5B78042B00D002E72C
:101B80001C4B9B78F12B00D0FDE61A4B5B79FB2BAD
:101B900000D0F8E6164B1B88062B00D0F3E6174C56
:101BA000F4332370F63B6370ED33A370FFF704FE4C
:101BB000E01C81221C4906F01BF88423FB22E2541E
:101BC000154D280003F064FE902001220221C0057B
:101BD00005F083F8642385222100044805F019FEEE
:101BE0000E4A0F49280003F0FFFDCCE6B0050020A7
:101BF000FC02002008010020240000200003002037
:101C0000080000201C0000200C0000201000002014
:101C1000D412002084120020C8030020DC0500003C
:101C2000C0060020380600203C06002030B595B0E4
:101C30003022002108A805F0E4FF10241022002122
:101C400004A805F0DEFF10220021684605F0D9FF48
:101C50001A230893193B0B930D930C940E940F9336
:101C600002251095E02252031292139308A803F064
:101C700037FF072304930595002506950795012155
:101C800004A804F0A5F92123009302950394684663
:101C900004F04EFA15B030BD10B504F0FFFAFFF7AE
:101CA000C5FFFFF709FCFFF7B7FCFFF7DDFCFFF707
:101CB00017FDFFF737FDFFF74DFD03F031F900F099
:101CC00056F8224A2249234803F08EFD8021224CF7
:101CD00000228901200005F000F880210022C901BE
:101CE000200004F0FAFF1D4C00221021200004F017
:101CF000F4FF00222021200004F0EFFF0022082141
:101D0000200004F0EAFF80219024E405002209026B
:101D1000200004F0E2FF00F0EDF800220221200094
:101D200004F0DBFFFA220E4C52000E49200005F0B1
:101D3000DFFE2268136810210B431360012270310B
:101D4000094804F0CAFF03F0CBF9FCE7DC0500000A
:101D5000C0060020C8030020000800480004004816
:101D6000B00500200801002000140048704710B59D
:101D700080219024E40501224900200004F0ADFFF9
:101D8000802101228900200004F0A7FF10BD70B55A
:101D900080219024E40501224900200004F09DFFE9
:101DA0008025AD0001222900200004F096FF0022CA
:101DB0002900200004F091FF70BD70B580267600E8
:101DC0009024E40500223100200004F086FF8025E5
:101DD000AD0000222900200004F07FFF0122310025
:101DE000200004F07AFF01222900200004F075FF92
:101DF00070BD70B50500002410E080219020002205
:101E00008900C00504F069FF6D088021902001223F
:101E10004900C00504F061FF0134E4B2072C10D87A
:101E20008021902000224900C00504F056FFEB07F6
:101E3000E3D58021902001228900C00504F04DFFE8
:101E4000E2E770BD70B5FFF7A2FF4420FFF7D1FFB6
:101E5000FFF7B3FFFFF79BFFC020FFF7CAFF234C3C
:101E60002378234DE85CFFF7C4FFFFF7A6FFFFF7D9
:101E70008EFFC120FFF7BDFF6378E85CFFF7B9FF75
:101E8000FFF79BFFFFF783FFC220FFF7B2FFA378A6
:101E9000E85CFFF7AEFFFFF790FFFFF778FFC32086
:101EA000FFF7A7FFE378E85CFFF7A3FFFFF785FFE5
:101EB000FFF76DFFC420FFF79CFF2379E85CFFF775
:101EC00098FFFFF77AFFFFF762FFC520FFF791FF4A
:101ED0006079FFF78EFFFFF770FFFFF758FF8B2049
:101EE000FFF787FFFFF769FF70BDC0460C130020A6
:101EF0003C00002010B5794C04222100002003F0A2
:101F00009FF82368182B02D9744B00221A60744C76
:101F100004222100382003F093F823683C2B02D9D7
:101F20006F4B00221A606F4C04222100042003F042
:101F300087F82368FA22920094466344FA22D2007A
:101F4000934202D9674B00221A60674C0422210099
:101F5000082003F075F82368FA229200944663443F
:101F6000FA22D200934202D95F4B00221A605F4CE2
:101F7000042221000C2003F063F82368FA22920067
:101F800094466344FA22D200934202D9574B00226E
:101F90001A60042256493C2003F052F804225549A5
:101FA000482003F04DF804225349402003F048F83C
:101FB000042252494C2003F043F8042250494420A3
:101FC00003F03EF804224F49502003F039F84E4CFC
:101FD00004222100102003F033F82268FA23DB00EA
:101FE0009A4203D9484BFA2292001A60474C0422C5
:101FF0002100142003F024F82268FA23DB009A421F
:1020000003D9424BC82292001A60414C042221009D
:10201000182003F015F82268FA23DB009A4202D94F
:102020003B4B3C4A1A603C4C042221001C2003F02C
:1020300007F82268FA23DB009A4202D9364B374A66
:102040001A60374C04222100202002F0F9FF236897
:10205000053B5F2B02D9324B04221A60314C04221B
:102060002100242002F0ECFF2368053B5F2B02D9FE
:102070002C4B04221A602C4C04222100282002F050
:10208000DFFF2368053B5F2B02D9274B04221A6030
:10209000264C042221002C2002F0D2FF2368FE2BC4
:1020A00002D9224B01221A60214C04222100302047
:1020B00002F0C6FF2368022B02D91D4B00221A60D2
:1020C0001C4C04222100342002F0BAFF2368042BA8
:1020D00002D9184B03221A6010BDC046841200209A
:1020E00088120020A4120020A8120020AC120020A8
:1020F0006000002028000020640000202C00002048
:10210000680000203000002014000020180000208B
:102110001C0000201405000020000020DC05000049
:102120003400002038000020780000202400002027
:10213000C0120020B412002070B506680D68B542C8
:1021400013DC34001068A04200DD0400B54200DB5F
:102150003500A84200DB2800241A312C07DC186067
:10216000049B1860059B186070BD2C00EAE71E6098
:102170000B6804990B601368059A1360F4E700007C
:1021800070B586B0002303930493059300241CE0EC
:1021900003A9A00053009B181B195B00914D5B5BCA
:1021A0004558AC46634443500132FA235B009A42DF
:1021B000EED303ADA60019007059FDF7AFFF630021
:1021C000894AD052002373510134022C05D8A30050
:1021D00003AA002199500022E7E7844A13680133DB
:1021E0001360FA229200934200D8E0E07F4B002275
:1021F0001A607F4B1B78002B6BD17E4B1A68FA2339
:102200005B009A4257D37B4BFA2252001A607A4BFA
:102210001C78002C18D1794B9868FEF703FE784B98
:102220001968FEF7BDFA774B1968FEF7DFFB051C4E
:10223000754B1868FEF7A8FD011C281CFDF7FAFF76
:10224000FEF782FD714B1860002C18D16B4B18689B
:10225000FEF7E8FD6E4B1968FEF7A2FA6D4B1968A0
:10226000FEF7C4FB051C6C4B1868FEF78DFD011CC6
:10227000281CFDF7DFFFFEF767FD684B1860002C98
:102280002FD15E4B5868FEF7CDFD654B1968FEF700
:1022900087FA644B1968FEF7A9FB041C624B1868A7
:1022A000FEF772FD011C201CFDF7C4FFFEF74CFD7C
:1022B0005E4B186015E0514B9A68520853490A600A
:1022C0001A68520855490A605B685B08574A1360F0
:1022D00007E0574B1B684D4A1360504A1360534A3E
:1022E0001360464B00221A605A609A60474B1B6885
:1022F0001E333C2B02D8454B00221A60434B1B680F
:10230000233BFF3B282B03D8404B9C2252001A60F2
:102310003E4B1B68474A94466344322B02D83B4BE2
:10232000454A1A603D4B1B681E333C2B03D83B4B80
:10233000012252421A60394B1B68233BFF3B282B7A
:1023400003D8364B3822FF321A60344B1B68394AA7
:1023500094466344322B02D8304B374A1A60334BD1
:102360001B681E333C2B02D8304B02221A602F4BC5
:102370001B68233BFF3B282B03D82C4B3622FF3214
:102380001A602A4B1B682B4A94466344322B02D8AE
:10239000264B2A4A1A602A4B01932A4B00932A4B58
:1023A000224A1E491948FFF7C7FE06B070BD134BFD
:1023B0001A680D4B1B889A4201D2104A13600F4BCA
:1023C0005A68094B5B889A4201D20C4A53600B4B06
:1023D0009A68054B9B889A4200D387E7074A936027
:1023E00084E7C046C006002078120020B812002002
:1023F000B0120020BC12002000000020E8120020D3
:102400006000002028000020A41200200800002006
:10241000640000202C000020A81200200C000020E6
:102420006800002030000020AC12002010000020C6
:10243000A012002044F8FFFFD2070000D1070000DF
:1024400074000020700000206C000020F0B583B004
:1024500006000F0014005F4BC5185F4B9D4200D96A
:10246000B0E0002A48D0012C4CD0022C50D0032CD4
:1024700054D0042C58D001AB1B782D2B5AD0202BD4
:102480005CD0303B554A537001AB5B782D2B59D053
:10249000202B5BD0303B514A937001AB9B782D2BA6
:1024A00058D0202B5AD0303B4C4AD37001ABDB784C
:1024B0002D2B57D0202B59D0303B484A1371002C7C
:1024C00007D1092E05DC3300093302DB434B12220E
:1024D000DA70042C4ED0012F55D0022F5AD0032F82
:1024E0005FD0012F66D0022F72D1633670DA3B4A7B
:1024F0009378123393706BE00200394901A805F01C
:1025000005FCB0E73200374901A805F0FFFBACE756
:102510003200354901A805F0F9FBA8E7320033493C
:1025200001A805F0F3FBA4E73200314901A805F04A
:10253000EDFBA0E7294B1D225A70A5E7274B10227F
:102540005A70A1E7254B1D229A70A6E7234B102253
:102550009A70A2E7214B1D22DA70A7E71F4B1022C9
:10256000DA70A3E71D4B1D221A71A8E71B4B10223E
:102570001A71A4E7092EAEDC33000933ABDB174B2D
:102580001222DA70A7E7092EA7DD144AD378123396
:10259000D370A2E7632EA2DD104A937812339370B2
:1025A0009DE7FA239B009E429BDB0C4A5378123333
:1025B000537096E73300093395DA084AD37812331B
:1025C000D37090E7054B09225A709A70DA701A712D
:1025D00003B0F0BDE7030000F72A00000C13002051
:1025E000F0900008F4900008FC90000804910008A6
:1025F0000C91000870B5614B1A68FA23DB009A420F
:102600001BD35E4BFA22D2001A605D4B1B685D4AF9
:102610001268934201DD5B4A13605B4B1B685B4AA7
:102620001268934201DD594A1360594B1B68594A9D
:102630001268934201DD574A1360514B1A68564B9A
:102640001B689A4207DC504909688B4203DB5049FA
:1026500009688B4202DA514B01211970504B1B68FB
:102660009A420ADA484909688B4206DD48490968F6
:102670008B4202DD494B00211970484B1B7B012B1B
:1026800042D0022B44D0022B02D9444B00211973B3
:10269000424B1B7B002B14D1424B19680B015B1A78
:1026A0009B004148006883420BD2404C24681B19B0
:1026B000984206D2002904D0002C02D0374B0121C9
:1026C0001970384B19680B015B1A9B003749096870
:1026D0005B18354909688B4202D2334B00211960DF
:1026E00013002D33FF3332498B4215D9314B9A42B7
:1026F00002DA2A4B0121597196231B019A420EDD01
:10270000264B02225A710AE0244901200870B8E7DA
:10271000224900200870B6E7204B00225A711A4B5C
:102720001B6819002D31FF31214A91420DD9214AF0
:10273000934202DA194A01219171962212019342C1
:1027400006DD164B02229A7102E0144B00229A71A8
:102750000F4B1B6819002D31FF31154A91422BD9BF
:10276000144A934202DA0D4A0121D17196221201D4
:10277000934224DD094B0222DA7120E098120020F6
:1027800008000020FC1200200C0000200013002094
:10279000100000200413002014000020D412002098
:1027A0001800002084120020F81200208812002057
:1027B0008C0A0000D4FEFFFFB64B0022DA718021A4
:1027C0009020C900C00504F081FA012800D1BFE0C3
:1027D000B04B00221A72802190200901C00504F03C
:1027E00075FA012800D1B7E0AA4B00225A72AA4B11
:1027F0001A6813002D33FF33A8498B420CD8A8491F
:1028000009682D31FF31A548814205D8A5490968DD
:102810002D31FF31814203D99E49012048708873D0
:102820009E498B420ED89E4B1B682D33FF338B4243
:1028300008D89C4B1B682D33FF338B4202D8954B35
:1028400000215970984B1B689A4207DC944909682B
:102850008B4203DB934909688B4209DA8D49497839
:10286000012902D08B49012088708A490120887390
:102870008E4909685B1A9A420ADA894909688B42CB
:1028800006DD884909688B4202DD824B0021997080
:10289000874B1B689A4207DC814909688B4203DB3E
:1028A000804909688B4209DA7A494978012902D0BE
:1028B00078490120C8707749012088737D490968EB
:1028C0005B1A9A420ADA764A1268934206DD754A22
:1028D0001268934202DD6F4B0022DA708021902053
:1028E0004901C00504F0F2F9002839D1694B0122F1
:1028F0001A719A73684B1A686B4B1B689A420EDA0E
:10290000674909688B420ADD66480068834206DD34
:10291000694B9A4203DB994201DB984224DA5D4B12
:102920001B7B012B2CD00024022B2BD0634B1B785C
:10293000022B00D1EAE029D8002B35D0012B3ED163
:102940005F4B1B68642B3AD95C4B02221A7036E04D
:10295000504B01221A723EE74E4B01225A7246E753
:102960004C4B00221A71C5E7802190204901C00517
:1029700004F0ACF90128D2D1464B00229A73CEE77D
:102980001C00D1E701231C43E4B2CFE7032B16D18F
:102990004B4B1A68FA23DB009A4210D90023474AAE
:1029A0001370474A13600AE03A4B1B78002B00D1A2
:1029B00090E0012B00D19BE0414B00221A60354B87
:1029C0005B78012B00D1C3E0324B5B78012B06D042
:1029D0003C4B1B78002B00D1CFE010239C432D4BA8
:1029E0009B78012B00D1CFE02A4B9B78012B06D09E
:1029F000344B1B78002B00D1D9E004239C43254B9A
:102A0000DB78012B00D1D8E0224BDB78012B06D0FC
:102A10002C4B1B78002B00D1E2E008239C431D4B7C
:102A20001B79012B00D1E1E01A4B1B79012B04D05B
:102A3000244B1B78002B00D1E8E0164B5B79012B6F
:102A400000D1E9E0134B5B79012B04D01D4B1B78BF
:102A5000002B00D1F4E00F4B9B7B012B00D1F7E062
:102A6000002B03D00B4BDB7B012B02D1164B00223A
:102A70001A60084B1B7C012B00D1F3E0012B01D025
:102A800020239C43114B5C71114B1B680A2B00D90E
:102A9000FAE070BDD4120020080000208C0A00006B
:102AA0000C000020100000201C0000203800002036
:102AB0002000002078000020D5FEFFFF000000204D
:102AC00090120020B0120020381300200C130020B8
:102AD0000813002002239C43644B1B78012B03D076
:102AE000624B00221A7067E7614B01221A70F7E708
:102AF00002231C43E4B25D4B1B78002B02D15C4BDC
:102B000001221A70594B01221A7055E7594B1B7854
:102B1000012B0BD0574B1B78012B03D0564B1B7846
:102B2000002B0ED0524B03221A7048E7524B1B78F1
:102B3000002BEFD1802101228901504804F0CDF80B
:102B4000E8E78021002289014C4804F0C6F8E9E753
:102B5000494B1B78002B09D180210122C90147482C
:102B600004F0BBF810231C43E4B22DE780210022BF
:102B7000C901424804F0B1F8F4E780210022C901FC
:102B80003E4804F0AAF828E73B4B1B78002B08D1FD
:102B9000012210213A4804F0A0F804231C43E4B2B7
:102BA00022E700221021364804F097F8F5E70022CA
:102BB0001021334804F091F81FE72F4B1B78002BAE
:102BC00008D1012220212E4804F087F808231C4355
:102BD000E4B219E700222021294804F07EF8F5E745
:102BE00000222021264804F078F816E7224B1B78B3
:102BF000002B05D101220821214804F06EF813E7CB
:102C0000002208211E4804F068F80DE70022082180
:102C10001B4804F062F810E7174B1B78002B07D114
:102C20008021902001220902C00504F056F809E72E
:102C30008021902000220902C00504F04EF801E72F
:102C40008021902000220902C00504F046F802E726
:102C5000084AD27B002A00D002E70A4AFA2149003A
:102C60001160FDE620221443E4B207E78C12002035
:102C700000000020D4120020B012002000080048FC
:102C80000004004838130020CC4B00221A60802139
:102C90008901CB4804F01AF8002814D1C94A1378E6
:102CA000013313700023C84A1370C84A1370C84A0E
:102CB0001370C8490A6801320A60C74A1360C74ADC
:102CC0001360C74A136080214901BD4803F0FEFF2D
:102CD000002814D10023BB4A1370BB490A78013283
:102CE0000A70BA4A1370BA4A1370BA4A1360BA49E2
:102CF0000A6801320A60B94A1360B94A1360802138
:102D00000902AF4803F0E2FF002814D10023AD4AC6
:102D10001370AD4A1370AD490A7801320A70AC4A9B
:102D20001370AC4A1360AC4A1360AC490A680132B4
:102D30000A60AB4A13608021C901A14803F0C6FFB5
:102D4000002814D100239F4A13709F4A13709F4A92
:102D500013709F490A7801320A709E4A13609E4A96
:102D600013609E4A13609E4A136801331360954BAB
:102D70001B78042B69D8944B1B78042B73D8934B86
:102D80001B78042B7DD8924B1B78042B00D987E04D
:102D9000802189018A4803F099FF002806D18D4BD4
:102DA0001B68632B02D98F4B01221A6080214901D5
:102DB000834803F08BFF002806D1874B1B68632BE9
:102DC00002D9884B02221A60802109027C4803F054
:102DD0007DFF002806D1814B1B68632B02D9814BF4
:102DE00003221A608021C901754803F06FFF002893
:102DF00006D17B4B1B68632B02D97A4B04221A60E5
:102E0000802189016E4803F061FF012857D080219D
:102E100049016B4803F05AFF012854D08021090270
:102E2000674803F053FF012851D08021C90164484D
:102E300003F04CFF01284ED06B4B9B79282B00D917
:102E4000C2E29B00694AD3589F46802189015C48B1
:102E500003F03CFF01288ED1624B01221A60594BCE
:102E600000221A7087E780214901554803F02EFFA0
:102E7000012884D15B4B02221A60534B00221A7046
:102E80007DE7802109024E4803F020FF012800D091
:102E900079E7544B03221A604C4B00221A7072E7F8
:102EA0008021C901464803F011FF012800D06FE7D7
:102EB0004C4B04221A60464B00221A7068E7454BBF
:102EC00000221A60A3E7444B00221A60A6E7434B96
:102ED00000221A60A9E7424B00221A60ACE7444B7B
:102EE00000221A70404B0A321A70424A13680133AA
:102EF0001360414B1B68414A93422BDA3A4B4A32EA
:102F0000FF325A70002199702031D9701A71354BF7
:102F10001B68012B32D0042B3DD0042B74D0314BD5
:102F20001B68022B00D188E0032B00D194E0344BC6
:102F30001B7C002B00D09EE02E4B1A6896235B0072
:102F40009A4200D2A4E02B4B00221A60264B013299
:102F50009A7139E296221201934208DD224B1D221A
:102F60005A70002199701F31D9701A71CFE7254B23
:102F7000186800220121FFF769FAC8E7154A1268AC
:102F8000272AC8D9184B03229A710023154A1360C7
:102F9000104A136018E2124A1268272ABDD9114B51
:102FA00000221A60164B1B7C002B03D1144B0132FC
:102FB0001A7409E2124B00221A7405E20813002069
:102FC000000400487E1200207F12002080120020A2
:102FD00081120020C4120020C8120020CC12002050
:102FE000D0120020941200200C130020149100082D
:102FF000B01200202C13002008000020D4FEFFFF98
:10300000D41200206C0000208021C901C84803F0C0
:103010005DFE012800D082E70023C64A9371C64AAC
:103020001360C64BDB7B002B03D1C44B0122DA7348
:10303000CAE1C24B0022DA73C6E1BF4B00221A601C
:10304000BE4B1B7B002B03D1BC4B01321A73BBE17F
:10305000BA4B00221A73B7E1B74B00221A60B74B84
:103060001B7B002B03D1B54B02321A73ACE1B34B7F
:1030700000221A73A8E1B24B1A68B24B1B689A423D
:1030800006DDB14B00221A60AA4B01329A719BE116
:10309000A94B00221A6097E1A64B0B221A70AA4A8C
:1030A000136801331360A64B1B68A84A934228DAC1
:1030B000A04B4A32FF325A70002199702031D970EA
:1030C0001A719D4B1B68012B2FD0042B3AD0042B77
:1030D0004BD0994B1B68022B5FD0032B6CD0974BC6
:1030E0001B7C002B77D1984B1A6896235B009A4281
:1030F00000D269E1944B00221A608E4B02329A7121
:1031000062E196221201934208DD8A4B1D225A7019
:10311000002199701F31D9701A71D2E78C4B186851
:1031200000220121FFF792F9CBE78A4A12683B2A75
:10313000CBD9804B03229A7100237F4A1360854AC2
:10314000136041E1844A1268272AC0D97A4B0022D1
:103150001A607A4B1B7C002B03D1784B01321A7416
:1031600032E1764B00221A742EE18021C9017048A9
:1031700003F0ACFD0128ACD100236E4A93716E4A76
:1031800013606E4BDB7B002B03D16C4B0122DA7397
:103190001AE16A4B0022DA7316E1674B00221A60CB
:1031A000664B1B7B002B03D1644B01321A730BE17E
:1031B000624B00221A7307E15F4B00221A605F4BDB
:1031C0001B7B002B03D15D4B02321A73FCE05B4B7F
:1031D00000221A73F8E0614B1A68594B1B689A4237
:1031E00000DCF1E0584B00221A60524B02329A7117
:1031F000EAE0504B0C221A70534A136801331360F3
:10320000564B1B68514A934228DA4A4B4A32FF32E6
:103210005A70002199702031D9701A71464B1B6881
:10322000012B2FD0042B3AD0042B4BD0424B1B68E0
:10323000022B5FD0032B6CD0404B1B7C002B00D0AB
:1032400090E0414B1A6896235B009A4200D2BBE0A3
:1032500000233D4A1360374A9371B5E0962212016C
:10326000934208DD334B1D225A70002199701F31A3
:10327000D9701A71D2E73A4B186800220121FFF782
:10328000E5F8CBE7334A12683B2ACBD9294B032216
:103290009A710023284A13602E4A136094E02E4A44
:1032A0001268272AC0D9244B00221A60234B1B7CAA
:1032B000002B03D1214B01321A7485E01F4B0022F1
:1032C0001A7481E08021C901194803F0FFFC01282C
:1032D000ACD10023174A9371174A1360174BDB7B5D
:1032E000002B03D1154B0122DA736DE0134B002242
:1032F000DA7369E0104B00221A60104B1B7B002B25
:1033000003D10E4B01321A735EE00C4B00221A738C
:103310005AE0094B00221A60084B1B7B002B03D19B
:10332000064B02321A734FE0044B00221A734BE033
:10333000000400480C13002094120020D412002036
:103340000C000020080000202C130020D4FEFFFFFA
:1033500070000020C4120020D012002010000020B5
:1033600074000020C64B1A68C64B1B689A422BDDBE
:103370000023C54A1360C54A937125E0C44B00225F
:103380001A70C24B1C321A70C24B18681A3A0021CC
:10339000FFF75CF8C04B1B68272B05D8BF4A0021FC
:1033A00011600133BC4A1360BC4B1B68012B0FD06A
:1033B000BA4B1B68042B48D0B84B1B68022B4AD071
:1033C000B64B1B68032B51D0FEF73CFDFFF761FBAA
:1033D000B14B1B68272BEBD9AF4B00221A60AD4BCA
:1033E0001B68012B11D0022B13D0032B15D0042BFB
:1033F00017D0052B19D0062B1BD0082B1DD0092B5D
:103400001FD0A64B00221A60D2E7A04A0421917176
:10341000E9E79E4A07219171E7E79C4A28219171CB
:10342000E5E79A4A10219171E3E7984A18219171D2
:10343000E1E7964A1A219171DFE7944A1E219171C2
:10344000DDE7924B24229A71DBE700238F4A9371C8
:10345000924A1360B0E78F4B1B68082B02DC0133E4
:103460008C4A13608D4B00221A60A9E7894B1B68B8
:10347000012B02DD013B874A1360884B00221A6052
:10348000A2E7824B0A221A70854B1868002201219C
:10349000FEF7DCFF814B1B68012B0FD07F4B1B68B5
:1034A000042B12D07D4B1B68022B14D07B4B1B6866
:1034B000032B89D1794B00221A6085E7734B0522D3
:1034C0009A71764B00221A60E8E700236F4A9371E5
:1034D000724A1360E6E7714B00221A60E6E76B4B15
:1034E0000B221A706F4B186800220121FEF7AEFF05
:1034F0006A4B1B68012B10D0684B1B68042B13D040
:10350000664B1B68022B15D0644B1B68032B00D045
:103510005AE7624B00221A6056E75C4B06229A710A
:103520005E4B00221A60E7E70023584A93715B4A1A
:103530001360E5E7594B00221A60E5E7534B0C2274
:103540001A70594B186800220121FEF77FFF534B78
:103550001B68012B10D0514B1B68042B13D04F4B11
:103560001B68022B15D04D4B1B68032B00D02BE79B
:103570004A4B00221A6027E7444B03229A71474BBB
:1035800000221A60E7E70023404A9371434A136020
:10359000E5E7424B00221A60E5E73C4B1C221A701B
:1035A00001325A700F2199700239D9701A713B4B50
:1035B0001B68012B10D0394B1B68042B13D0374BE1
:1035C0001B68022B15D0354B1B68032B00D0FBE684
:1035D000324B00221A60F7E62C4B153A9A712F4BAA
:1035E00000221A60E7E70023284A93712B4A1360F0
:1035F000E5E72A4B00221A60E5E7244B1F221A70E8
:103600002A4B18681D3A0021FEF720FF234B1B6848
:10361000012B17D0214B1B68042B1FD01F4B1B689D
:10362000022B21D01D4B1B68032B00D0CCE61F4B77
:103630001B68002B02D0013B1C4A1360174B002271
:103640001A60C1E6114B09229A71144B00221A60CC
:1036500004321649002001F0A3FCDBE700230B4AEB
:1036600093710E4A1360D9E7104B1B68172B02D8D1
:1036700001330E4A1360094B00221A60D2E7C0469C
:1036800008000020100000202C1300200C13002044
:10369000B0120020040000209C1200209412002090
:1036A000FC120020001300200413002084120020CC
:1036B000D04B1E221A70D04B18681C3A0021FEF71E
:1036C000C5FECE4B1B68012B17D0CC4B1B68042BBF
:1036D0001FD0CA4B1B68022B21D0C84B1B68032B81
:1036E00000D071E6C44B1B68002B02D0013BC24ADC
:1036F0001360C24B00221A6066E6BE4B03229A7129
:10370000BE4B00221A600432BB49382001F048FC4D
:10371000DBE70023B74A9371B84A1360D9E7B64B89
:103720001B683B2B02D80133B34A1360B34B002212
:103730001A60D2E7B24B01221A700022B14B1A6014
:10374000AC4B0A2119705A709A70DA701A71AB4B2F
:103750001B68012B10D0A94B1B68042B19D0A74B59
:103760001B68022B1BD0A54B1B68032B00D02BE63C
:10377000A24B00221A6027E69E4B0B329A719F4B98
:1037800000221A60A04B9888FDF74CFB9F4B1860F5
:10379000E1E70023974A9371984A1360DFE7974B5C
:1037A00000221A60DFE7934B0B221A7000225A7036
:1037B0009A70DA701A71914B1B68012B10D08F4BE5
:1037C0001B68042B19D08D4B1B68022B1BD08B4B15
:1037D0001B68032B00D0F7E5884B00221A60F3E545
:1037E000844B0C329A71854B00221A60864B1888E4
:1037F000FDF718FB864B1860E1E700237D4A9371C3
:103800007E4A1360DFE77D4B00221A60DFE7794BC9
:103810000C221A7000225A709A70DA701A71774B63
:103820001B68012B10D0754B1B68042B19D0734BF0
:103830001B68022B1BD0714B1B68032B00D0C3E508
:103840006E4B00221A60BFE56A4B0D329A716B4BCA
:1038500000221A606C4B5888FDF7E4FA6D4B186033
:10386000E1E70023634A9371644A1360DFE7634B27
:1038700000221A60DFE75F4B0A221A7000225A709A
:1038800002219970DA701A715C4B1B68012B10D001
:103890005A4B1B68042B34D0584B1B68022B36D074
:1038A000564B1B68032B00D08EE5544B00221A6048
:1038B0008AE5504B0E329A71504B00221A60524BDF
:1038C0009888FDF7AFFA544B1860504B1C68211CC8
:1038D000FDF78CF8011C5148FCF74AFE011C504DC5
:1038E0002860201CFCF75CFF4E4C2060042229005D
:1038F0003C2001F055FB04222100482001F050FB40
:10390000C6E700233B4A93713C4A1360C4E73B4B34
:1039100000221A60C4E7374B0B221A7000225A703B
:1039200002219970DA701A71344B1B68012B10D088
:10393000324B1B68042B34D0304B1B68022B36D023
:103940002E4B1B68032B00D03EE52C4B00221A6047
:103950003AE5284B0F329A71284B00221A602A4B05
:103960001888FDF75FFA304B1860294B1C68211C42
:10397000FDF73CF8011C2948FCF7FAFD011C2B4D12
:103980002860201CFCF70CFF294C20600422290031
:10399000402001F005FB042221004C2001F000FB37
:1039A000C6E70023134A9371144A1360C4E7134B0C
:1039B00000221A60C4E70F4B0C221A7000225A70C2
:1039C00002219970DA701A710C4B1B68012B31D0EF
:1039D0000A4B1B68042B59D0084B1B68022B5BD089
:1039E000064B1B68032B00D0EEE4044B00221A6048
:1039F000EAE4C0460C130020881200209412002034
:103A0000B0120020A0120020781200201413002011
:103A10001C13002024130020181300200000FA4477
:103A200060000020280000202013002064000020F7
:103A30002C000020C14B03329A710024C04B1C6043
:103A4000C04B5888FDF7EEF9BF4B1860BF4B1D689F
:103A5000291CFCF7CBFF011CBD48FCF789FD011CAC
:103A6000BC4E3060281CFCF79BFEBB4D2860042236
:103A70003100442001F094FA04222900502001F082
:103A80008FFAB64B1C70B64B1C60A1E70023AB4A03
:103A90009371AB4A13609FE7A94B00221A609FE71E
:103AA000A64B1E221A70013A5A700A2199700939E0
:103AB000D9701A71A24B1B68012B10D0A04B1B6848
:103AC000042B13D09E4B1B68022B15D09C4B1B68FC
:103AD000032B00D078E49A4B00221A6074E4974BD1
:103AE0000C3A9A71964B00221A60E7E70023934A3A
:103AF0009371934A1360E5E7914B00221A60E5E762
:103B00008E4B1E221A70974B186800220121FEF777
:103B10009DFC8B4B1B68012B20D0894B1B68042B11
:103B200028D0874B1B68022B2AD0854B1B68032BA0
:103B30003AD0834B1B68022B48D0032B00D043E4C0
:103B4000894B1B68272B00D83EE4864B1B68002B53
:103B500000DC39E4013B834A136035E4774B1222E1
:103B60009A71774B00221A6004327E49102001F0CE
:103B700017FAD2E70023714A9371714A1360D0E7B4
:103B800080214901794803F0A1F80128CDD1754B76
:103B90001B68FA22D200934202DA0133714A1360A1
:103BA000674B00221A60C0E7802109026F4803F0CA
:103BB0008DF80128BDD16B4B1B68002B02DD013B4A
:103BC000684A13605E4B00221A60B2E7684A1268C6
:103BD000272AB2D9634A1268FA21C9008A42ACDAAC
:103BE000013260490A60A8E7544B1E221A70013A5C
:103BF0005A700A2199700839D9701A71504B1B6894
:103C0000012B12D04E4B1B68042B15D04C4B1B685C
:103C1000022B17D04A4B1B68032B01D0FFF7D4FBB4
:103C2000474B00221A60FFF7CFFB444B0A3A9A71C8
:103C3000434B00221A60E5E70023404A9371404A53
:103C40001360E3E73E4B00221A60E3E73B4B1E2282
:103C50001A70484B186800220121FEF7F7FB384B19
:103C60001B68012B24D0364B1B68042B2CD0344B03
:103C70001B68022B2ED0324B1B68032B3ED0304BDF
:103C80001B68022B4CD0032B01D0FFF79DFB364B5A
:103C90001B68272B01D8FFF797FB364B1B68002BBF
:103CA00001DCFFF791FB013B324A1360FFF78CFB0D
:103CB000224B14229A71224B00221A6004322D49A1
:103CC000142001F06DF9CEE700231C4A93711C4AC1
:103CD0001360CCE780214901244802F0F7FF012856
:103CE000C9D1244B1B68FA22D200934202DA013375
:103CF000204A1360124B00221A60BCE7802109029F
:103D00001A4802F0E3FF0128B9D11A4B1B68002BB7
:103D100002DD013B174A1360094B00221A60AEE72F
:103D2000134A1268272AAED9124A1268FA21C9002A
:103D30008A42A8DA01320F490A60A4E70C13002076
:103D40009412002078120020281300202413002051
:103D50000000FA446800002030000020B01200206B
:103D6000A012002014000020CC1200200004004803
:103D7000C812002018000020C24B1E221A70013AFF
:103D80005A700A2199700739D9701A71BE4B1B6895
:103D9000012B12D0BC4B1B68042B15D0BA4B1B68EF
:103DA000022B17D0B84B1B68032B01D0FFF70CFB7D
:103DB000B54B00221A60FFF707FBB24B083A9A7125
:103DC000B14B00221A60E5E70023AE4A9371AE4A78
:103DD0001360E3E7AC4B00221A60E3E7A94B1E2215
:103DE0001A70AA4B186800220121FEF72FFBA64B80
:103DF0001B68012B24D0A44B1B68042B2CD0A24B96
:103E00001B68022B2ED0A04B1B68032B3ED09E4B71
:103E10001B68022B4CD0032B01D0FFF7D5FA9C4B2B
:103E20001B68272B01D8FFF7CFFA984B1B68002B94
:103E300001DCFFF7C9FA013B944A1360FFF7C4FAAB
:103E4000904B16229A71904B00221A6004328F49CF
:103E5000182001F0A5F8CEE700238A4A93718A4A18
:103E60001360CCE7802149018A4802F02FFF012826
:103E7000C9D1864B1B68FA22D200934202DA013381
:103E8000824A1360804B00221A60BCE7802109023D
:103E9000804802F01BFF0128B9D17C4B1B68002B26
:103EA00002DD013B794A1360774B00221A60AEE7CE
:103EB000794A1268272AAED9744A1268FA21C900D1
:103EC0008A42A8DA013271490A60A4E76D4B1E22CA
:103ED0001A70013A5A700A2199700639D9701A710C
:103EE000694B1B68012B12D0674B1B68042B15D044
:103EF000654B1B68022B17D0634B1B68032B01D04B
:103F0000FFF762FA604B00221A60FFF75DFA5D4B23
:103F1000063A9A715C4B00221A60E5E70023594A81
:103F20009371594A1360E3E7574B00221A60E3E7A5
:103F3000544B1E221A70594B186800220121FEF7BB
:103F400085FA514B1B68012B24D04F4B1B68042B67
:103F50002CD04D4B1B68022B2ED04B4B1B68032BD8
:103F60003ED0494B1B68022B4CD0032B01D0FFF7EE
:103F70002BFA474B1B68272B01D8FFF725FA474B35
:103F80001B68002B01DCFFF71FFA013B434A13605B
:103F9000FFF71AFA3B4B03229A713B4B00221A603F
:103FA00004323E491C2000F0FBFFCEE70023354AD7
:103FB0009371354A1360CCE780214901354802F0FE
:103FC00085FE0128C9D1354B1B68FA22D2009342E5
:103FD00002DA0133314A13602B4B00221A60BCE72E
:103FE000802109022B4802F071FE0128B9D12B4B28
:103FF0001B68002B02DD013B284A1360224B002284
:104000001A60AEE7244A1268272AAED9234A1268FA
:10401000FA21C9008A42A8DA013220490A60A4E7DD
:10402000184B1E221A70013A5A700C2199701331E4
:10403000D9701A71144B1B68012B12D0124B1B68DC
:10404000042B15D0104B1B68022B17D00E4B1B688E
:10405000032B01D0FFF7B8F90B4B00221A60FFF7D2
:10406000B3F9084B043A9A71074B00221A60E5E74E
:104070000023044A9371044A1360E3E7024B0022D1
:104080001A60E3E70C130020941200201C000020AB
:10409000CC12002000040048C8120020200000209C
:1040A000C94B01221A70C94B1D321A70C84B1868CF
:1040B00000220121FEF7CAF9C64B1B68012B28D04C
:1040C000C44B1B68042B2DD0C24B1B68022B31D074
:1040D000C04B1B68032B40D0BE4B1B68022B4ED03D
:1040E000032B59D0022B63D0032B01D0FFF76CF9BF
:1040F000B94B1B684F2B01D8FFF766F9B44B1B680F
:104100000A2B01DCFFF760F90A3BB14A1360FFF7A5
:104110005BF9AE4B03229A710023AE4A1360AA4AA0
:104120001370CDE70023A94A9371AA4A1360A64AE7
:104130001370C9E780214901A84802F0C7FD012892
:10414000C6D1A34B1B68A64A934202DC0133A04AA6
:104150001360A04B00221A60BAE7802109029F4831
:1041600002F0B4FD0128B7D1994B1B68002B02DD8A
:10417000013B974A1360974B00221A60ACE7994ABB
:104180001268272AACD9924A126895498A42A7DC5C
:1041900001328F490A60A3E78F4A1268272AA1D902
:1041A0008B4A1268002A9DDD013A89490A6099E725
:1041B0008C4A12684F2A97D9854A12688A498A42DE
:1041C00092DC0A3282490A608EE7804B1E221A7006
:1041D000013A5A700D219970D9701A717D4B1B6884
:1041E000012B12D07B4B1B68042B15D0794B1B681D
:1041F000022B17D0774B1B68032B01D0FFF7E4F895
:10420000744B00221A60FFF7DFF8704B023A9A7184
:10421000704B00221A60E5E700236C4A93716D4AE7
:104220001360E3E76B4B00221A60E3E7674B1E2243
:104230001A706E4B18681B3A0021FEF707F9654BA0
:104240001B68012B28D0634B1B68042B30D0614BBB
:104250001B68022B32D05F4B1B68032B40D05D4B99
:104260001B68022B4ED0032B58D0022B62D0032B9D
:1042700001D0FFF7A9F8584B1B684F2B01D8FFF767
:10428000A3F85A4B1B680B2B01D8FFF79DF80A3B8C
:10429000564A1360FFF798F84C4B1C229A714D4B0D
:1042A00000221A60043251492C2000F079FECAE73E
:1042B0000023464A9371474A1360C8E780214901A9
:1042C000464802F003FD0128C5D1484B1B68EF2B7F
:1042D00002D80133454A13603E4B00221A60BAE708
:1042E000802109023D4802F0F1FC0128B7D13F4B83
:1042F0001B68012B02D9013B3C4A1360354B00225D
:104300001A60ACE7374A1268272AACD9374A1268D4
:10431000EF2AA8D8013235490A60A4E72E4A12686C
:10432000272AA2D9314A1268012A9ED9013A2F4977
:104330000A609AE72B4A12684F2A98D92B4A1268CA
:10434000E52A94D80A3229490A6090E71F4B1E22B9
:104350001A70274B18681C3A0021FEF777F81D4B9E
:104360001B68012B24D01B4B1B68042B42D0194B1C
:104370001B68022B44D0174B1B68032B53D0154BE3
:104380001B68022B61D0032B01D0FFF71DF8124BE5
:104390001B68272B01D8FFF717F8154B1B68002B5C
:1043A00001D1FFF711F8013B114A1360FFF70CF838
:1043B000064B1D229A71074B00221A6004320C49E9
:1043C000302000F0EDFDCEE7B01200200C130020ED
:1043D000A012002094120020CC12002000040048FB
:1043E000C3090000C8120020B90900002400002001
:1043F000C01200200023C14A9371C14A1360B6E77E
:1044000080214901BF4802F061FC0128B3D1BE4BB5
:104410001B68012B03D9BA4B00221A60ABE70133AA
:10442000B94A1360F7E780210902B64802F04EFC52
:104430000128A4D1B44B1B68002B02D0013BB24A27
:104440001360AF4B00221A6099E7B04A1268272A1E
:1044500099D9AD4A1268012A95D80132AA490A6051
:1044600091E7A64B1E221A70A94B18681D3A00212D
:10447000FDF7ECFFA24B1B68012B24D0A04B1B685F
:10448000042B2CD09E4B1B68022B2ED09C4B1B6800
:10449000032B3CD09A4B1B68022B4AD0032B01D034
:1044A000FEF792FF9B4B1B68272B01D8FEF78CFF72
:1044B000974B1B68002B01D1FEF786FF013B944A06
:1044C0001360FEF781FF8D4B03229A718C4B002203
:1044D0001A6004328E49342000F062FDCEE70023DA
:1044E000864A9371864A1360CCE78021490185484A
:1044F00002F0ECFB0128C9D1854B1B68032B02D8C5
:104500000133834A13607E4B00221A60BEE780218C
:1045100009027C4802F0DAFB0128BBD17C4B1B6806
:10452000002B02D0013B7A4A1360754B00221A60BF
:10453000B0E7764A1268272AB0D9754A1268032A6A
:10454000ACD8013272490A60A8E76C4B1E221A707F
:10455000013A5A700F2199701031D9701A71684B55
:104560001B68012B12D0664B1B68042B15D0644BC3
:104570001B68022B17D0624B1B68032B01D0FEF780
:1045800023FF5F4B00221A60FEF71EFF5B4B0232D7
:104590009A715B4B00221A60E5E70023574A93713A
:1045A000574A1360E3E7564B00221A60E3E7534B88
:1045B0001E221A70584B186800220121FDF746FF91
:1045C0004F4B1B68012B24D04D4B1B68042B2CD068
:1045D0004B4B1B68022B2ED0494B1B68032B3CD046
:1045E000474B1B68022B4AD0032B01D0FEF7ECFE91
:1045F000484B1B68272B01D8FEF7E6FE464B1B688D
:10460000052B01DCFEF7E0FE013B434A1360FEF799
:10461000DBFE3A4B20229A71394B00221A60043299
:104620003D49202000F00CFDCEE70023334A937172
:10463000334A1360CCE780214901324802F046FB3F
:104640000128C9D1344B1B68632B02DC0133324A89
:1046500013602B4B00221A60BEE780210902294813
:1046600002F034FB0128BBD12B4B1B68052B02DD6C
:10467000013B294A1360224B00221A60B0E7234A0B
:104680001268272AB0D9244A1268632AACDC0132A6
:1046900021490A60A8E7194B1E221A70013A5A7084
:1046A0000F2199700C39D9701A71154B1B68012BA9
:1046B00012D0134B1B68042B15D0114B1B68022B17
:1046C00017D00F4B1B68032B01D0FEF77DFE0C4B60
:1046D00000221A60FEF778FE084B04329A71084BEC
:1046E00000221A60E5E70023044A9371044A13602C
:1046F000E3E7034B00221A60E3E7C0460C130020F7
:104700009412002000040048C0120020C8120020AB
:10471000B4120020CC12002034000020C84B1E220E
:104720001A70C84B186800220121FDF78FFEC64B96
:104730001B68012B24D0C44B1B68042B2CD0C24B0C
:104740001B68022B2ED0C04B1B68032B3CD0BE4BEA
:104750001B68022B4AD0032B01D0FEF735FEBB4B62
:104760001B68272B01D8FEF72FFEB64B1B68052BC5
:1047700001DCFEF729FE013BB24A1360FEF724FE7E
:10478000AF4B22229A71B04B00221A600432AD491D
:10479000242000F055FCCEE70023A94A9371AA4AD1
:1047A0001360CCE780214901A94802F08FFA012863
:1047B000C9D1A44B1B68632B02DC0133A14A1360EF
:1047C000A14B00221A60BEE780210902A04802F036
:1047D0007DFA0128BBD19B4B1B68052B02DD013BF9
:1047E000984A1360984B00221A60B0E7994A126801
:1047F000272AB0D9934A1268632AACDC0132914966
:104800000A60A8E78E4B1E221A70013A5A700F21D7
:1048100099700B39D9701A718B4B1B68012B12D010
:10482000894B1B68042B15D0874B1B68022B17D0B4
:10483000854B1B68032B01D0FEF7C6FD824B00227F
:104840001A60FEF7C1FD7E4B06329A717E4B002244
:104850001A60E5E700237A4A93717B4A1360E3E725
:10486000794B00221A60E3E7754B1E221A707A4BCF
:10487000186800220121FDF7E9FD734B1B68012B2D
:1048800024D0714B1B68042B2CD06F4B1B68022B60
:104890002ED06D4B1B68032B3CD06B4B1B68022B3F
:1048A0004AD0032B01D0FEF78FFD684B1B68272BE6
:1048B00001D8FEF789FD684B1B68052B01DCFEF76C
:1048C00083FD013B644A1360FEF77EFD5C4B0322CF
:1048D0009A715D4B00221A6004325F49282000F073
:1048E000AFFBCEE70023564A9371574A1360CCE7DB
:1048F00080214901564802F0E9F90128C9D1564BF7
:104900001B68632B02DC0133534A13604E4B0022B9
:104910001A60BEE7802109024D4802F0D7F901284C
:10492000BBD14D4B1B68052B02DD013B4A4A13608E
:10493000454B00221A60B0E7464A1268272AB0D9D0
:10494000454A1268632AACDC013243490A60A8E791
:104950003B4B1C221A7001325A700C2199700131A4
:10496000D9701A71384B1B68012B12D0364B1B685B
:10497000042B15D0344B1B68022B17D0324B1B680D
:10498000032B01D0FEF720FD2F4B00221A60FEF70B
:104990001BFD2B4B08329A712B4B00221A60E5E766
:1049A0000023274A9371284A1360E3E7264B00222D
:1049B0001A60E3E7224B0A221A70284B1868063A5D
:1049C0000121FDF743FD204B1B68012B25D01E4B19
:1049D0001B68042B2DD01C4B1B68022B42D01A4B9A
:1049E0001B68032B51D0184B1B68022B60D0032B84
:1049F00001D0FEF7E9FC154B1B68272B01D8FEF709
:104A0000E3FC164B1B68164A934201DAFEF7DCFC06
:104A1000013B124A1360FEF7D7FC094B26229A711C
:104A2000094B00221A6004320C49042000F0B8FA45
:104A3000CDE70023024A9371034A1360CBE7C046D7
:104A40000C1300203800002094120020CC1200200B
:104A500000040048C812002078000020A4120020A2
:104A60001AFCFFFF80214901BD4802F02FF90128FF
:104A7000B5D1BC4B1B68BC4A934202DC0133B94A36
:104A80001360BA4B00221A60A9E780210902B448DA
:104A900002F01CF90128A6D1B24B1B68B44A93421C
:104AA00002DB013BAF4A1360B04B00221A609AE769
:104AB000B04A1268272A9AD9AA4A1268AA498A4291
:104AC00095DC0132A7490A6091E7AB4B0B221A70C3
:104AD000AA4B1868073A0121FDF7B8FCA34B1B68E5
:104AE000012B25D0A14B1B68042B2DD09F4B1B689D
:104AF000022B2FD09D4B1B68032B3ED09B4B1B687A
:104B0000022B4DD0032B01D0FEF75EFC9C4B1B68A3
:104B1000272B01D8FEF758FC984B1B68944A934208
:104B200001DAFEF751FC013B944A1360FEF74CFC9E
:104B3000914B27229A718D4B00221A6004328F49C3
:104B4000082000F02DFACDE700238B4A9371874AA5
:104B50001360CBE780214901814802F0B7F80128B2
:104B6000C8D1864B1B68804A934202DC0133834ADA
:104B700013607E4B00221A60BCE78021090278484E
:104B800002F0A4F80128B9D17C4B1B68784A934203
:104B900002DB013B794A1360744B00221A60ADE7D7
:104BA000744A1268272AADD9744A12686E498A423B
:104BB000A8DC013271490A60A4E76F4B0C221A701D
:104BC000704B1868083A0121FDF740FC674B1B68E1
:104BD000012B25D0654B1B68042B2DD0634B1B6824
:104BE000022B2FD0614B1B68032B3ED05F4B1B6801
:104BF000022B4DD0032B01D0FEF7E6FB604B1B6868
:104C0000272B01D8FEF7E0FB5E4B1B68584A934206
:104C100001DAFEF7D9FB013B5A4A1360FEF7D4FBD9
:104C2000554B03229A71514B00221A6004325549A8
:104C30000C2000F0B5F9CDE700234F4A93714B4AA1
:104C40001360CBE780214901454802F03FF8012875
:104C5000C8D14C4B1B68444A934202DC0133494A99
:104C60001360424B00221A60BCE7802109023C48D5
:104C700002F02CF80128B9D1424B1B683C4A934200
:104C800002DB013B3F4A1360384B00221A60ADE75C
:104C9000384A1268272AADD93A4A126832498A42FC
:104CA000A8DC013237490A60A4E7374B00221A70AA
:104CB000314B1D321A70354B18681B3A0021FDF735
:104CC000C5FB334B1B68272B05D8284A00211160F0
:104CD00001332F4A1360254B1B68012B19D0234B3E
:104CE0001B68042B2BD0214B1B68022B2DD01F4B94
:104CF0001B68032B01D0FEF767FB244B1B68012BBD
:104D000002DD013B214A1360184B00221A60FEF7B6
:104D10005BFB1F4B1B68272BE1D91D4B00221A6040
:104D20001A4B1B68122B06D0134B03229A710F4BA0
:104D300000221A60D3E7104B0A329A71F7E700237A
:104D40000D4A9371094A1360CDE7104B1B68122B73
:104D500002DC01330D4A1360044B00221A60C6E7DF
:104D600000040048A4120020E60300009412002072
:104D70001AFCFFFFC81200200C130020A81200200C
:104D8000CC120020AC120020B01200200400002041
:104D90009C12002000B587B01422002101A802F067
:104DA00030FF402301933D3B049301A9024801F0E9
:104DB000C7FE07B000BDC0460014004800B587B06C
:104DC0001422002101A802F01CFF402301933E3B66
:104DD00002930133049301A9024801F0B1FE07B028
:104DE00000BDC0460014004810B5FFF7E7FF064CB1
:104DF00000224021200001F070FF0122402120000C
:104E000001F06BFF10BDC0460014004810B5FFF75D
:104E1000C1FF00244021104801F058FF002804D1B0
:104E2000C72C02D80134A4B2F4E7C72C0FD8002451
:104E300001E00134A4B24021074801F047FF0028F7
:104E400001D0EF2CF5D9EF2C03D8002010BD0120A4
:104E5000FCE70120FAE7C0460014004810B5FFF750
:104E6000ADFF0B4C00224021200001F036FF012253
:104E70004021200001F031FFFFF78CFF402120008E
:104E800001F024FF002801D1013010BD0020FCE713
:104E90000014004870B50024012507E0FFF7DEFF8D
:104EA000C00164080443E4B20135EDB2082DF5D920
:104EB000200070BD70B50500FFF780FF01240CE0F5
:104EC000104E00224021300001F007FF0122402156
:104ED000300001F002FF0134E4B2082C10D80123A5
:104EE0002B406D08002BEBD0064E002240213000F5
:104EF00001F0F3FE01224021300001F0EEFEEAE76E
:104F000070BDC0460014004810B5FFF76DFFFFF7F5
:104F10007DFFCC20FFF7CEFF4420FFF7CBFF10BD75
:104F200010B501224021044801F0D7FEFFF75CFFD5
:104F3000FFF76CFF10BDC0460014004870B5FFF7C6
:104F4000E3FFFFF751FFFFF761FFCC20FFF7B2FF50
:104F5000BE20FFF7AFFFFFF79DFF05000400FFF73E
:104F600099FF0300072817D9C043C3B2EC43E4B24A
:104F700000251802201800B2FBF706FFFCF736FAEE
:104F80000022064BFBF790FFFCF7FAF900B2002D68
:104F900001D1404200B270BD0125EAE70000E43FC4
:104FA000F0B5C64600B584B004000F0015008218A5
:104FB00080231B019A423FDA43420F221E00164013
:104FC000134200D11026B3B2AB4220D9EEB21EE09C
:104FD000A023B2B29046FF22224099B2202302932E
:104FE0004346019300970123144801F0AFFB0028CA
:104FF00019D14444A4B24346ED1AADB2BF192E1CD8
:10500000102D00D91026F6B2052001F069F9002D07
:105010000DD0230ADCD0E10949B20E2319406E3BC2
:105020000B43DBB2D5E7052001F05AF9EFE700208A
:1050300004B080BCB846F0BD0120F9E7D4040020DC
:10504000F0B5C64600B584B004000F001500821804
:1050500080231B019A423CDA43420F221E00164075
:10506000134200D11026B3B2AB421DD9EEB21BE001
:10507000A123B2B29046FF22224099B21423029398
:105080004346019300970123134801F02FFC0028A9
:1050900016D14444A4B24346ED1AADB2BF192E1C3A
:1050A000102D00D91026F6B2002D0DD0230ADFD026
:1050B000E10949B20E2319406D3B0B43DBB2D8E73F
:1050C000064802F019FEEFE7002004B080BCB846A5
:1050D000F0BD0120F9E7C046D4040020B8910008D3
:1050E00010B580211C4C8901200001F0EFFD8021CA
:1050F0004901200001F0EAFD80210902200001F0B1
:10510000E5FD8021C901200001F0E0FD134B1B6883
:10511000002B0CD1114B1B68002B0ED0FDF76AFA47
:105120000F4B1A68FA235B009A420CD810BD01227B
:1051300080210C4801F0D1FDECE7002280210948D4
:1051400001F0CBFDEAE7064B00221A60FFF7F6FEFE
:10515000054B1880EAE7C0460004004838130020D9
:105160003413002000140048301300207047FEE77D
:105170007047704710B501F0A1F81A4A136801335F
:105180001360194A136801331360184A1368013316
:105190001360174A136801331360164B1B78013BE9
:1051A000DBB2022B03D8144A136801331360134A8D
:1051B000136801331360124A136801331360114AF4
:1051C000934206D90E4B00221A600F4A136801332E
:1051D00013600E4B1B68002B02D0013B0B4A13607F
:1051E00010BDC0463413002008130020F412002024
:1051F000981200200000002090120020BC12002015
:105200003C13002060EA0000F81200203813002050
:1052100010B5024801F038FE10BDC0460804002059
:1052200010B5024801F030FE10BDC0464C0400200D
:1052300010B5024801F028FE10BDC04690040020C1
:1052400010B5024801F0B4FF10BDC046280500208B
:1052500010B5034801F0ACFFFCF76CFB10BDC04675
:10526000B005002082B00A4B99690122114399616F
:1052700099690A400092009ADA69802149050A4337
:10528000DA61DB690B400193019B02B07047C046B5
:105290000010024010B588B004001422002103A8B9
:1052A00002F0AFFC1E4B22689A4201D008B010BD3C
:1052B0001C4B996980208000014399619A690240E2
:1052C0000192019A5A69802189020A435A615B69F5
:1052D0000B400293029BE0230393DD3B0493713860
:1052E000FF3803A9C00501F02BFC0F480F4B0360EA
:1052F0000023436083608022C2608032026180228A
:10530000D200426120228261C36101F013FD0028B6
:1053100003D1054B23635C62C8E7FCF727FDF8E780
:105320000024014000100240080400200800024050
:1053300010B588B004001422002103A802F061FC1B
:105340002268134B9A4201D008B010BD114C62691B
:105350008021C9020A43626163690B400193019B8A
:10536000C0239B00039312230493113B0593032254
:105370000692079303A9084801F0E2FBE269802145
:1053800089030A43E261E3690B400293029BDBE776
:1053900000540040001002400004004810B58AB0DC
:1053A00004001422002105A802F02BFC2368404AC7
:1053B000934204D03F4A93423DD00AB010BD3E4BC9
:1053C00099698020C001014399619A690240019264
:1053D000019A5A698021C9020A435A615B690B40EC
:1053E0000293029BC0230593BE3B069301330893AF
:1053F00005A9324801F0A4FB3148324B0360002379
:10540000436083608022C260036143618361C36142
:1054100001F090FC00280BD1294B63675C620022ED
:1054200000211B2001F088FD1B2001F0B5FDC4E721
:10543000FCF79CFCF0E7204BD969802292021143D3
:10544000D961D9691140039103995969114359618F
:105450005B691A400492049B0C2305930A3B069354
:1054600001330893023B0993902005A9C00501F080
:1054700067FB1548154B036000234360836080225F
:10548000C260036143618361C36101F053FC002882
:105490000BD10D4B63675C62002200211C2001F0E0
:1054A0004BFD1C2001F078FD87E7FCF75FFCF0E77F
:1054B0000038014000440040001002400004004851
:1054C0004C040020300002409004002058000240AC
:1054D00070B5040003689A68520725D59A68520788
:1054E00006D59A68920703D49A6810210A439A60F5
:1054F00000F0F0FE050023689B685B0712D500F002
:10550000E9FE401B0228F6D923689B685B07F2D5A9
:10551000A36B10221343A363E36B0F3A1343E363BC
:10552000012002E0002000E0002070BD70B5040002
:105530000268916803230B40012B01D0002070BD4D
:105540001368DB0702D4D3681B0431D591680523A7
:105550000B40012B09D0A36B10221343A363E36B11
:105560000F3A1343E3630120E9E7936802210B43F9
:105570009360236803221A6000F0ACFE05002368E4
:105580009B68DB0712D500F0A5FE401B0228F6D968
:1055900023689B68DB07F2D5A36B10221343A36338
:1055A000E36B0F3A1343E3630120C8E70020C6E72B
:1055B0000020C4E730B583B00400002301930368E2
:1055C000996803220A40012A14D09968224A11429C
:1055D00018D19A6801210A439A60204B1868204923
:1055E000FAF79CFD0190019B002B15D0019B013B1C
:1055F0000193F8E71A68D2072BD4DA681204E4D5CD
:10560000002024E0A36B10221343A363E36B0F3A43
:105610001343E36301201AE000F05CFE05002368F9
:105620001B68DB0712D400F055FE401B0228F6D998
:1056300023681B68DB07F2D4A36B10221343A36318
:10564000E36B0F3A1343E363012000E0002003B053
:1056500030BD0020FBE7C04617000080840000201A
:1056600040420F0070B5041E00D1B4E0836B002BE4
:1056700000D180E0A36BDB0600D5A6E0226891682C
:10568000042005000D40084200D09EE0A16B534B62
:1056900019400633FF331943A163916801330B406E
:1056A000012B6ED0D36818218B43A1680B43D360C4
:1056B000226813699B009B0861680B431361226891
:1056C000D36847490B40D360237E9B03627ED2039D
:1056D0001343A17E4A031343A26A012A58D08022B1
:1056E00052011343E26813432269022A52D02B432A
:1056F0002422A25C52001343E27E012A4CD0E269CC
:10570000C221FF318A4202D0216A0A431343216831
:10571000CA681A43CA60E26A802149058A420DD0EC
:10572000012A0BD0022A09D0032A07D0042A05D067
:10573000052A03D0062A01D0072A0AD12068416928
:1057400007229143416120684169E56A2A400A4382
:1057500042612268D26823490A409A422BD0A36B47
:1057600012229343023A1343A363E36B0F3A1343AA
:10577000E36301202EE0C36334228354FFF78AFDE4
:1057800078E71368DB079AD4D3681B0497D489E7BA
:105790002A00A6E70425AAE7002903D180225202A5
:1057A0001343ACE7A26B20210A43A263E26B1F39CB
:1057B0000A43E263A3E70023E363A36B032293435B
:1057C000023A1343A363002004E0A36B10221343A7
:1057D000A363012070BD0120FCE7C046FDFEFFFF72
:1057E0001902FEFFE7FF3F83F8B504000D00160025
:1057F00003689B685B073ED43423C35C012B3CD019
:1058000034230122C254437E012B04D0FFF7D2FE81
:10581000071E2ED100E00027A36B194A1A408023EF
:105820005B001343A3630023E3633422A354236B7D
:10583000144A9A62236B144ADA62236B134A1A637E
:1058400023681C221A602268536810210B4353609E
:105850002268D3680F390B43D3602168403133008D
:105860002A00206B01F08EFA2268936804210B4312
:1058700093603800F8BD0227FBE70227F9E7C0462E
:10588000FEF0FFFF155900088759000893590008DA
:1058900070B504003423C35C012B36D034230122BD
:1058A000C254FFF715FE051E1DD12268D3680121E1
:1058B0008B43D360206B2123C35C022B18D022685A
:1058C000536810218B435360002D1AD12000FFF73D
:1058D0002DFE0500002D06D1A36B0D4A13400432A6
:1058E000FF321343A36334230022E254280070BD27
:1058F00001F083FA051EE2D0A36B40221343A36399
:10590000DDE72000FFF712FEE4E70225EEE7C046E0
:10591000FEFEFFFF10B5436A9A6B502111422BD156
:10592000996B802292000A439A631A68D068C0215A
:105930000901084213D1997E002910D11168090785
:105940000DD5916849070ED451680C2081435160F0
:105950009A6B0B490A400431FF310A439A631800DD
:10596000FCF70EFC10BD9A6B20210A439A63DA6B98
:105970001F390A43DA63F2E71B6B1B6B9847F1E7A9
:10598000FEFEFFFF704710B5406AFFF7FBFF10BD3A
:10599000704710B5406A836B402213438363C36B27
:1059A0003C3A1343C363FFF7F3FF10BD30B583B038
:1059B0000400002301933433C35C012B00D181E048
:1059C00034230122C25403689A68520770D43E4AB5
:1059D0004868904253D09A6A01200D68A84002435B
:1059E0009A62E36A8022520593421ED0012B1CD09A
:1059F000022B1AD0032B18D0042B16D0052B14D051
:105A0000062B12D0072B10D02268506907230340C1
:105A10008868984209D050690723984350612068EC
:105A200042698D682B40134343610B681A00103A9A
:105A3000012A01D9002040E0244A1268102B09D025
:105A40008023DB031343214A13600B68102B04D01F
:105A5000002032E080231B04F4E71D4B18681D4929
:105A6000FAF75CFB83001B185B00019302E0019BCB
:105A7000013B0193019B002BF9D100201DE09A6AA4
:105A800001200D68A84082439A620B681A00103A00
:105A9000012A01D9002010E00C4A1268102B05D011
:105AA0000D4B1340094A1360002006E00B4BF8E74A
:105AB000836B202213438363012034230022E254AA
:105AC00003B030BD0220FBE70110000008270140B1
:105AD0008400002040420F00FFFFBFFFFFFF7FFF59
