:020000040800F2
:1000000000200020A57A0008C9500008CB50000845
:1000100000000000000000000000000000000000E0
:10002000000000000000000000000000CD500008AB
:100030000000000000000000CF500008D150000870
:10004000F57A000800000000F57A0008F57A00084B
:10005000F57A0008F57A0008F57A0008F57A0008C4
:100060000000000061510008715100088151000832
:10007000F57A0008F57A0008F57A0008000000001B
:10008000F57A0008F57A000800000000F57A00080B
:10009000F57A0008F57A0008F57A0008F57A000884
:1000A000F57A0008F57A0008F57A00089151000801
:1000B000A151000800000000000000000000000046
:1000C00010B5064C2378002B07D1054B002B02D02E
:1000D000044800E000BF0123237010BDE0000020B1
:1000E00000000000288D0008044B10B5002B03D041
:1000F0000349044800E000BF10BDC04600000000F6
:10010000E4000020288D000803B47146490840002F
:100110004900095E49008E4403BC70470022430831
:100120008B4274D303098B425FD3030A8B4244D3BF
:10013000030B8B4228D3030C8B420DD3FF22090201
:1001400012BA030C8B4202D31212090265D0030BC0
:100150008B4219D300E0090AC30B8B4201D3CB03B6
:10016000C01A5241830B8B4201D38B03C01A5241F8
:10017000430B8B4201D34B03C01A5241030B8B42FA
:1001800001D30B03C01A5241C30A8B4201D3CB02E5
:10019000C01A5241830A8B4201D38B02C01A5241CA
:1001A000430A8B4201D34B02C01A5241030A8B42CD
:1001B00001D30B02C01A5241CDD2C3098B4201D3E5
:1001C000CB01C01A524183098B4201D38B01C01A63
:1001D000524143098B4201D34B01C01A52410309DA
:1001E0008B4201D30B01C01A5241C3088B4201D389
:1001F000CB00C01A524183088B4201D38B00C01A36
:10020000524143088B4201D34B00C01A5241411A5C
:1002100000D20146524110467047FFE701B5002069
:1002200000F006F802BDC0460029F7D076E7704717
:100230007047C046F0B5C64643025B0A4E02450011
:100240004F00DA00C40F9C46700A904600B52D0E90
:100250003F0EC90FB6098C424BD0EA1B002A36DD8F
:10026000002F61D0FF2D00D1ADE08023DB041E43C1
:100270001B2A00DCD3E001204346181A430100D4B6
:100280008CE080018709380001F0F8F805388740D4
:10029000854200DCB6E02D1AB3483840430704D04D
:1002A0000F230340042B00D00430430100D478E036
:1002B0006A1CFE2D65D08001430A9C46D2B263467B
:1002C000D0051843E407204380BCB846F0BD002A9F
:1002D00035D07A1B002D00D0AFE04346002B00D173
:1002E000A7E0531E012A00D12FE1FF2A69D01A008E
:1002F000AAE0E91B002970DD002F37D0FF2D62D066
:100300008023DB041E431B2900DCB0E001204044B5
:10031000430143D50135FF2D33D00123934A0340D8
:10032000400810401843B9E7002E00D183E0511E69
:10033000012A00D1D8E0FF2A45D00A0098E7FE271D
:100340006A1C174200D086E0002D00D0B7E043467B
:10035000002B00D1F3E00022002EB0D0981B430107
:1003600000D4FAE043460C00F01A97E7002E00D1C3
:10037000C8E04A1E012900D1AEE0FF2923D01100B8
:10038000C1E70023FF229C4699E7FE216A1C114227
:1003900077D0FF2AF5D0150046447008430700D0F7
:1003A0007EE7C308FF2D0ED05B025B0A9C46EAB2D3
:1003B00085E7002E07D08022D203134203D01042DB
:1003C00001D10C000300002BDBD08020C0031843B8
:1003D0004002430A9C46FF2271E70029D5D07A1BD0
:1003E000002D60D14346002B24D0531E012A73D028
:1003F000FF2AE7D01A001B2A00DC85E001203D001F
:10040000801985E720233A00451B38000135EA4072
:100410005D1BA840431E9841002510433EE7202362
:1004200030009B1A31009840D140431E9841084348
:1004300022E70C0003001500B4E7FF2FC1D0802392
:100440004046DB04184380461B2A51DD01200C0086
:100450003D00301A12E743469F1B7B012BD4002F2F
:1004600000D010E70023002400229C4627E7202329
:1004700032003000CA40591A8840431E9841104348
:1004800045E7002D4AD14346002B63D00022002EC1
:1004900000D114E730004044430100D47EE7324BE2
:1004A000013518407AE7FF2F8CD080234146DB04CA
:1004B000194388469FE743460C00F71AE3E6424695
:1004C000002A00D075E7002E00D07AE78023DB03F6
:1004D00000249C46FF22F2E63000404401254301FF
:1004E00000D45BE7022518E743460125981BC5E6C3
:1004F000202344464046D4409A1A9040431E9841D7
:100500002043A4E70D004DE7202341464046D1405B
:100510009A1A9040431E9841084370E74246002AC9
:1005200000D14FE7002E00D14DE78022D2031342C5
:1005300000D148E7104200D045E7030043E7002E12
:1005400090D00C0084460022B9E643460C00F01A15
:10055000013593E684460022B1E6002800D01DE76D
:10056000002300249C46AAE6FFFFFFFBFFFFFF7D60
:10057000F0B54F464646D6464502C0B547000C1C6E
:100580006D0A3F0EC60F002F00D170E0FF2F00D183
:1005900075E0EB008025ED041D43002399469A4643
:1005A0007F3F6002430A984663001B0EE40F002B56
:1005B0004ED0FF2B46D04246D0008022D2040243C8
:1005C000904600227F3B3100FF1A4B466140C9B282
:1005D00013430F2B00D9B5E06E489B00C3589F46CC
:1005E000002398462600454692465346022B00D1EA
:1005F00089E0032B00D19EE0012B18D03B007F3314
:10060000002B69DD6A0704D00F222A40042A00D09B
:1006100004352A0103D5604B1D403B008033FE2B7F
:1006200000DD70E0AD016D0AD8B202E00E000020DE
:100630000025C0052843F6073043E0BCBA46B14662
:10064000A846F0BD4346002B3FD10222FF3F03E006
:100650004346002B2DD1012231004B466140C9B2E7
:1006600013430F2B34D84D489B00C3589F46002D91
:1006700013D104239946033B00279A4691E7002DA6
:1006800005D108239946063BFF279A4689E70C23A4
:100690009946093BFF279A4683E7280000F0EEFEC3
:1006A0007627431F9D4000237F4299469A463F1A72
:1006B00077E7404600F0E2FE4246431F9A40762329
:1006C0005B4290461B1A00227DE7FF2303227AE754
:1006D0000E00FF200025ACE70120C01A1B28A6DC75
:1006E0009E372A00BD40C2406B1E9D4115436B07DB
:1006F00004D00F232B40042B00D004356B0144D5CC
:100700000120002595E7FF20002592E7802500269F
:10071000FF20ED038DE7002398468020C0030542AB
:1007200009D04346034206D1454605436D022600E3
:10073000FF206D0A7DE78020C00305436D02FF2086
:100740006D0A76E742466B015001834219D21B22A3
:100750000025013F01261C006D005B00002C01DB21
:10076000984201D81B1A3543013A002AF3D15A1E88
:1007700093411D433B007F330E00002B00DD41E71A
:10078000AAE71A2201251B1AE4E7AD0100206D0A31
:100790004FE7C046408D0008FFFFFFF7808D00083F
:1007A000F0B54F464646D64644024500C0B5640AF9
:1007B0000F1C2D0EC60F002D00D18DE0FF2D00D196
:1007C00092E00023802099469A46E400C004044346
:1007D0007F3D7802430A98467B001B0EFF0F002BDB
:1007E00000D170E0FF2B00D186E04246D00080228D
:1007F0007F3BED180023D204024390469C46310013
:100800004B467940681C0F2B1CD8764A9B00D35866
:100810009F4639004446E2465346022B0FD0032B35
:1008200000D1D7E0012B37D100200024C0052043A0
:10083000C9070843E0BCBA46B146A846F0BDFF2050
:100840000024F3E7260C2404220C44462404240C40
:10085000434627001B0C574374435A435E43121907
:100860003B0C9B189C4203D980225202944666445A
:100870003F041A043F0CD2199401671EBC411B0CA3
:10088000920E9B1914439B011C431B0100D49BE057
:10089000012362081C40144302007F32002A64DDF9
:1008A000630704D00F232340042B00D0043423011A
:1008B00003D502004C4B80321C40FE2ABFDCA40151
:1008C000640AD0B2B2E74346002B3DD14A46013319
:1008D0001A4391469C4692E7002C29D1042399465D
:1008E000033B00259A4674E7002C1BD10823994648
:1008F000063BFF259A466CE74346FF35002B0BD19C
:1009000002234A461A4391469C4678E753463100F3
:10091000022B00D083E792E703234A461A4391460D
:100920009C466CE70C239946093BFF259A4650E705
:10093000200000F0A3FD7625431F9C4000236D425C
:1009400099469A462D1A44E7404600F097FD4246E4
:10095000431F9A4000232D1A90469C46763D4EE751
:1009600080240021FF20E40360E701239B1A1B2B56
:1009700000DD59E722009E30DA4084401300621EF9
:1009800094411C43630704D00F232340042B00D061
:10099000043463011AD50120002447E78020C003F6
:1009A000044209D04346034206D14446044364024C
:1009B0003900FF20640A39E78020C0030443640241
:1009C0003100FF20640A31E7280065E7A401002018
:1009D000640A2BE78020C00304436402FF20640AFA
:1009E00024E7C046C08D0008FFFFFFF7F8B5CE46EC
:1009F000474643025B0A4E02DA009446720A914669
:100A000045004A0080B52D0E1F00C40F120EC90FFD
:100A1000B609FF2A5BD0012041408C4239D0A81A88
:100A200000285ADD002A6AD0FF2D00D1D9E08022AB
:100A3000D20416431B2800DCE9E001206346181AA3
:100A4000430100D4B4E080018709380000F016FDAE
:100A500005388740854200DCCCE02D1AB548384087
:100A6000430704D00F230340042B00D0043043017C
:100A700000D4A0E06A1CFE2D00D18DE08001470A61
:100A8000D2B2D0053843E4072043C0BCB946B046D3
:100A9000F8BDA81A8046002845DD002A70D0FF2D39
:100AA00000D19EE08023DB041E4343461B2B00DC69
:100AB000D2E00120604443017AD50135FF2D6BD08F
:100AC00001239D4A0340400810401843C8E7002E08
:100AD00020D08C4223D02800FF38002839D0571B63
:100AE000002D00D09DE06346002B00D1DBE07B1E93
:100AF000012F00D10DE1FF2F71D01F0098E0002ED3
:100B000000D1A7E0421E012800D1E6E0FF2868D00E
:100B100010008FE701204140A14200D07FE7FF2075
:100B200040428046A8444046002838D0511B002D42
:100B300000D1AEE0FF2A00D1DFE080236046DB0475
:100B4000184384461B2900DCD9E0012015008019D8
:100B5000B1E7FE206A1C104271D1002D00D0A6E042
:100B60006346002B00D1D9E00022002E00D188E797
:100B7000981B430100D4E1E063460C00F01A6FE7D4
:100B8000002E00D1B7E00200013A012800D19CE01C
:100B9000FF2826D0904688E7FF22002771E7FE2035
:100BA0006A1C104264D0FF2AF6D015006644700813
:100BB000430700D056E7C308FF2D12D05B025F0A3F
:100BC000EAB25EE76246002A00D196E0002E08D025
:100BD0008022D203134204D04846104201D10C00B7
:100BE0004B46002BD8D08027FF031F437F02FF22F4
:100BF0007F0A46E720233A00451B38000135EA40CA
:100C00005D1BA840431E98410025104328E7202380
:100C10001B1A32009E40C2403000431E98411043D0
:100C20000CE7FF2ADBD080236046DB0418438446B0
:100C30001B2F56DD01200C001500301A00E763461B
:100C40009F1B7B013DD4002F00D0FEE60024002234
:100C5000002716E70500AFE7320043464146DA4079
:100C600020235B1A9E403000431E9841104321E729
:100C7000002DA7D16346002B59D00022002E00D1B1
:100C8000FFE630006044430192D52A4B01351840FD
:100C90008EE76346002B47D04B1E012915D0FF2954
:100CA0002BD019004EE70C004B463D0084E762460E
:100CB000002A8BD1002E92D180270024FF22FF032F
:100CC000DFE663460C00F71ABFE6300060440125FA
:100CD000430100D46CE70225F2E663460125981B28
:100CE000AEE6202364466046FC40DF1BB840431E4E
:100CF000984120439FE705005EE74B4671E72023BC
:100D000065466046CD40591A8840431E98412843A5
:100D10001CE763460C000125F01A91E6002E95D0E1
:100D20000C004F460022ACE64B460D0044E74F4610
:100D30000022A6E6FFFFFFFBFFFFFF7D002800D09B
:100D400036E7002400279CE641024200C30F490A0F
:100D50000020120E7E2A03DD9D2A02DD094A981822
:100D60007047802000040143952A07DC9620821AF0
:100D7000D1404842002BF3D10800F1E7963A914068
:100D8000F7E7C046FFFFFF7FF8B5002813D0C31771
:100D9000C6185E40C40F300000F070FB9E230500B3
:100DA0001B1A962B0FDC082801DD083DAE407602A9
:100DB000760AD8B202E0002400200026C0053043A5
:100DC000E4072043F8BD992B0CDD05223100121AEF
:100DD000D1400A00010030001B318840411E88418B
:100DE00002431600052D12DC31000D4F3940720709
:100DF00009D00F203040042805D004314A0102D523
:100E00009F2339405B1B89014E0AD8B2D6E76A1F7F
:100E100096403100024F39407207F4D0E9E7C046EE
:100E2000FFFFFFFB70B5051E0ED000F027FB9E23D1
:100E300004001B1A962B0CDC082801DD083CA54099
:100E40006D026D0AD8B201E000200025C0052843DC
:100E500070BD992B09DD020029001B3291404A1E0A
:100E600091410522121AD5400D43052C12DC2900B0
:100E70000C4E31406A0709D00F202840042805D0C5
:100E800004314A0102D59F2331401B1B89014D0AC1
:100E9000D8B2DBE7621F95402900024E31406A0755
:100EA000F4D0E9E7FFFFFFFBF0B557464E46454655
:100EB000DE46E0B598460C034B000600924687B02C
:100EC000240B5B0DCF0F002B00D15CE1D94A93427C
:100ED00000D175E1420FE400144380221204144350
:100EE000D54AC500944663440093002399469B4627
:100EF000434642461E03D20F5B0050469046360BD7
:100F00005B0D00D120E1CB4A934200D162E1CA4996
:100F1000420F8C4600996344F6008C4616438022AB
:100F20009C44120463461643C200002000930099BB
:100F3000434601318C4649467B4001930F2926D810
:100F4000BE4B890059588F46434601933400150023
:100F500083465B46022B16D0032B00D103E2012B04
:100F600000D0CDE0002200240025019B1205224381
:100F7000DB071A432800110007B0F0BCBB46B2469D
:100F8000A946A046F0BD00240025AA4AEDE7280C9A
:100F90002D042D0C2B00110C1204120C53439846F7
:100FA00013002F00434399464F434F44BB464746E7
:100FB0000B003F0CBA464343DA440293D14504D9AF
:100FC00080277F02B9464B44029353461B0C9B4635
:100FD00053461F0443461B041B0C98463B004344E6
:100FE0000493330C3604360C984633004343994639
:100FF000434643432F009A46434677435D43380CAC
:101000004D444519A94503D980235B029946CA443A
:101010003F04280C3F0C2D04ED19270C2404240C4C
:101020000300200050437A4391463A00534405930D
:10103000030C9A464A43614349445144AB448945B1
:1010400003D980235B0299464A4400040B0C000C30
:101050000904091820009946434670435C437E43C7
:101060005F43030C9846A41944444A440397A6429C
:1010700004D980235B029846474403972304029EC9
:101080009A46059B5E449846AE42AD4176188E4224
:1010900089410004000C504440446D424719B84651
:1010A000934649428946C344D94498428041A84561
:1010B000AD4193459241894589416D424042284363
:1010C000240C524249420A43039B00198018C71856
:1010D0004B46DC0D049B75021D436A1E95414B4631
:1010E000F60D7F0235435A023C431543FB0100D401
:1010F0001CE101216A080D401543E207154364080D
:101100004F496144002900DCB0E06B0709D00F2291
:101110002A40042A05D02A1DAA42AD416D42641915
:101120001500E30104D58021464AC90014406144FA
:10113000454A914200DD26E76207ED086402490551
:101140001543240B4A0D10E75246324300D17FE08D
:10115000002E00D1DCE0300000F090F902000B3AE4
:101160001D2301009B1A52460839DA408E4016436F
:1011700052468A40009B3549181A03008C46634446
:1011800000200093D3E6250005434AD0002C00D16F
:10119000B0E0200000F072F9010002000B391D23BD
:1011A00010005B1A3100350008388440D940854072
:1011B0000C432648831A0093002399469B4697E6E2
:1011C0000500254326D108220093022300249146DE
:1011D0009B468DE65246009B324310D115490026AE
:1011E0008C466344494600930223194389460220F2
:1011F0009DE65B460197022B00D0ADE6C3E60D4AA3
:101200000320944663444A46009303231A439146BD
:1012100052468CE60C2200930323050091469B4620
:1012200066E60423994600230093013300249B467D
:101230005EE6C046FF07000001FCFFFF008E0008CD
:10124000FF030000FFFFFFFEFE0700000DFCFFFF95
:1012500049460123194389460026012067E60023F9
:1012600080240025434A019324037EE60120401A8E
:10127000382800DD76E61F285BDD1F22230052425E
:10128000511ACB401900202803D03B4A62449440B5
:1012900025436A1E95412A000A4307210D000024B8
:1012A000154011425BD00F2100241140042953D076
:1012B000111D914292415242A4180A0023024BD5BB
:1012C00001220024002550E680231B031C4209D084
:1012D0001E4207D133431C0343461500240B254A05
:1012E000019342E68022120314432403214A240B73
:1012F00001973AE600F0C2F80100020015312032F1
:101300001C2900DC4BE7340008380025844050E7F6
:1013100000F0B4F803001A00153220301C2A00DC5B
:101320001EE75646083B00229E4023E7009B9C4652
:10133000E6E61249220061442E008D408A40C640F4
:10134000691E8D4132432A43C4405307B6D00F2152
:1013500011400429ACD1B1E765076402240BD2081F
:101360001543002201E68022120314432403014A9C
:10137000240BFAE5FF0700003E0400001E040000F5
:101380000A0030B5134C530009030500090B002077
:101390005B0DD20FA34204DD0F48834202DD0F4BE9
:1013A000D01830BD8020400301430D48C01A1F28CB
:1013B00008DD0C48C31AD9400B005842002AF0D16E
:1013C0001800EEE7084CC540A446634499400B0062
:1013D0002B43F2E7FE0300001D040000FFFFFF7F28
:1013E0003304000013040000EDFBFFFF70B5430061
:1013F0004602C40FFE201B0E591C750A08420CD071
:10140000E022920094466D07360B63441B0533437C
:10141000E40723432800190070BD002B14D1002DD0
:101420001BD0280000F02AF80A281CDC0B232E0011
:101430001B1ADE40030015339D400E4A3603121A74
:101440005205360B530DE1E7002D09D08022360BF3
:101450001203094B6D071643D8E700230026D5E792
:101460000026054BD2E703000B3B9D402E000025D4
:10147000E3E7C04689030000FF0700001C210123A9
:101480001B04984201D3000C10391B0A984201D367
:10149000000A08391B09984201D30009043902A245
:1014A000105C40187047C0460403020201010101AC
:1014B0000000000000000000F0B5DE4657464E4632
:1014C0004546E0B58BB01422002105A806F041FB8B
:1014D0004B4B596980200003014359615A6902400E
:1014E0000192019A59698020C003014359615A69E8
:1014F00002400292029A5969802080020143596198
:101500005A6902400392039A5A698021C9020A4328
:101510005A615B690B400493049BE0242402394B1D
:101520009B4600222100180005F07FFB364B9A46AF
:101530009027FF0500221900380005F076FB334B99
:101540009946334E00221900300005F06EFB314BF6
:1015500098460022C021180005F067FB059401257C
:10156000069500240794089405A9584605F090FABA
:101570005346059306950794089405A9380005F08D
:1015800087FA022305930694079405A9300005F015
:101590007FFA4B46059306950794089405A93000F9
:1015A00005F076FA80231B01059388235B030693DD
:1015B000079405A9300005F06BFAF0231B02059390
:1015C0000694079505A9300005F062FAE0235B0157
:1015D00005930694079405A9380005F059FAC0232D
:1015E000059306950795089405A9404605F050FA1D
:1015F0000BB0F0BCBB46B246A946A046F0BDC04603
:101600000010024000080048028300003C04000073
:10161000000400480014004800B583B0114A516925
:10162000012319435161526913400193019B002228
:101630000021092005F028FC092005F055FC0022B6
:1016400000210A2005F020FC0A2005F04DFC0022B4
:1016500000210B2005F018FC0B2005F045FC03B021
:1016600000BDC0460010024030B585B00C220021FC
:1016700001A806F06EFA184C184B23600023636033
:10168000A360E3600125256104226261237663760D
:10169000A576E376C222FF32E26123622433E55469
:1016A000A562200003F086FF0523019380235B01E0
:1016B0000293039501A9200004F020F90623019369
:1016C00001A9200004F01AF90723019301A92000C1
:1016D00004F014F905B030BDBC0300200024014023
:1016E00010B50D4C0D4B23600D4B63600023A360C0
:1016F0000122E26023616361A361E3612362200050
:1017000004F066FF0021200005F06CF900212000A4
:1017100005F094F910BDC046C804002000540040F4
:10172000D28C800010B50948094B036096239B01B9
:10173000436000238360C36003610C2242618361C4
:10174000C3610362436206F0EDF810BD1C05002082
:101750000038014010B50948094B036096239B01EE
:10176000436000238360C36003610C224261836194
:10177000C3610362436206F0D5F810BDA4050020E2
:101780000044004030B5FF24FF2508E003786340A3
:101790000749CC5C6C400749CD5C110001304A1E02
:1017A00092B20029F2D12802204380B230BDC04657
:1017B000408E0008408F000810B5404C404B1B681D
:1017C0002360404B1B6863603F4B1B68A3603F4B2B
:1017D0001B68E3603E4B1B6823613E4B1B686361E3
:1017E0003D4B1B68A3613D4B1B68E3613C4B1B6891
:1017F00023623C4B1B6863623B4B1B68A3623B4B01
:101800001B68E3623A4B1B6823633A4B1B686363B4
:10181000394B1B68A363394B1B68E363384B1B6868
:101820002364384B1B686364374B1B68A364374BD6
:101830001B68E364364B1B682365364B1B68636586
:10184000354B1868FFF780FA83001B185B00A3650F
:10185000324B1868FFF778FA83001B185B00E365CA
:101860002F4B1868FFF770FA83001B185B00236684
:101870002C4B1868FFF768FA83001B185B0063663F
:10188000294B1868FFF760FA83001B185B00A366FA
:10189000264B1868FFF758FA83001B185B00E366B5
:1018A000002307E0224AD15C044AD218703211703A
:1018B00001339BB2102BF5D910BDC0463006002075
:1018C000080000200C00002010000020EC12002076
:1018D000F0120020F4120020781200207C12002068
:1018E000981200209C120020A0120020140000205A
:1018F000180000201C0000202000002034000020E0
:10190000380000206C0000209412002024000020E9
:10191000B0120020A8120020600000206400002007
:1019200068000020280000202C000020300000204B
:10193000C412002070B5AD4C236810221A6220003A
:1019400005F03AFB23680F221A62636F1B685A681E
:10195000FA235B009B1A9BB2A54A1380A54A117813
:10196000A54A126891421BD0A24B1B78FA2B00D1DA
:10197000A3E0A04B1B78FA2B00D1CDE09D4B1B7848
:10198000FA2B00D1F7E0FA2252009A49974806F064
:1019900057F8902000220221C00505F046F970BDDD
:1019A000944949780329DFD1924989780029DBD10C
:1019B0009049C9780029D7D18E4909790029D3D116
:1019C0008C4949790529CFD1082BCDD18B4B1A7081
:1019D00003225A7007329A70894B1868894B1C6829
:1019E000A0425CDD0123884A11688C4201DA0222A0
:1019F0001343864A1268944253DA04242343844CE6
:101A00002478002C50D008242343814C6478002C87
:101A10004DD0102423437E4CA478002C4AD020249F
:101A20002343764C1D0AE57023718300C3185B00C5
:101A3000233318B200126071A3718B00CB185B00C6
:101A4000233319B20912E17123729300D3185B009A
:101A500023331AB212126272A3726E4B1B681A0AF7
:101A6000E27223730D212000FFF78CFE6073000AE1
:101A7000A073902001220221C00505F0D6F8664D22
:101A8000280003F0ADFE64230F222100574805F023
:101A900068FE624A6249280003F04EFE64E70023B4
:101AA000A1E70424A343AAE70824A343ADE7102435
:101AB000A343B0E72024A343B3E74E4B5B78042B4A
:101AC00000D056E74B4B9B78D12B00D051E7494BC8
:101AD0005B79FB2B00D04CE7454B1B88062B00D0D5
:101AE00047E7444DEA784A4B1A734B4C200003F009
:101AF00077FE902001220221C00505F096F8494B9F
:101B00001A8864232900394805F02BFE434A4449CA
:101B1000200003F011FE2CE7364B5B78042B00D03D
:101B20002CE7344B9B78D22B00D027E7314B5B79E5
:101B3000FB2B00D022E72E4B1B88062B00D01DE785
:101B40002C4DEA78324BDA73334C200003F048FE18
:101B5000902001220221C00505F067F8314B1A8858
:101B600064232900214805F0FCFD2C4A2C49200063
:101B700003F0E2FD02E71F4B5B78042B00D002E785
:101B80001C4B9B78F12B00D0FDE61A4B5B79FB2BAD
:101B900000D0F8E6164B1B88062B00D0F3E6174C56
:101BA000F4332370F63B6370ED33A370FFF704FE4C
:101BB000E01C81221C4905F0C3FF8423FB22E25470
:101BC000154D280003F00CFE902001220221C005D3
:101BD00005F02BF8642385222100044805F0C1FD9F
:101BE0000E4A0F49280003F0A7FDCCE6A40500200B
:101BF000F0020020FC00002024000020F40200205D
:101C0000080000201C0000200C0000201000002014
:101C1000C412002078120020BC030020DC05000064
:101C2000B40600202C0600203006002030B595B008
:101C30003022002108A805F08CFF1024102200217A
:101C400004A805F086FF10220021684605F081FFF8
:101C50001A230893193B0B930D930C940E940F9336
:101C600002251095E02252031292139308A803F064
:101C7000DFFE0723049305950025069507950121AE
:101C800004A804F04DF921230093029503946846BB
:101C900004F0F6F915B030BD10B504F0A7FAFFF75F
:101CA000C5FFFFF709FCFFF7B7FCFFF7DDFCFFF707
:101CB00017FDFFF737FDFFF74DFD03F0DFF800F0EC
:101CC00056F8224A2249234803F036FD8021224C4F
:101CD00000228901200004F0A8FF80210022C90110
:101CE000200004F0A2FF1D4C00221021200004F06F
:101CF0009CFF00222021200004F097FF00220821F1
:101D0000200004F092FF80219024E40500220902C3
:101D1000200004F08AFF00F0EDF8002202212000EC
:101D200004F083FFFA220E4C52000E49200005F009
:101D300087FE2268136810210B4313600122703163
:101D4000094804F072FF03F079F9FCE7DC050000B4
:101D5000B4060020BC03002000080048000400482E
:101D6000A4050020FC00002000140048704710B5B6
:101D700080219024E40501224900200004F055FF51
:101D8000802101228900200004F04FFF10BD70B5B2
:101D900080219024E40501224900200004F045FF41
:101DA0008025AD0001222900200004F03EFF002222
:101DB0002900200004F039FF70BD70B58026760040
:101DC0009024E40500223100200004F02EFF80253D
:101DD000AD0000222900200004F027FF012231007D
:101DE000200004F022FF01222900200004F01DFF42
:101DF00070BD70B50500002410E080219020002205
:101E00008900C00504F011FF6D0880219020012297
:101E10004900C00504F009FF0134E4B2072C10D8D2
:101E20008021902000224900C00504F0FEFEEB074F
:101E3000E3D58021902001228900C00504F0F5FE41
:101E4000E2E770BD70B5FFF7A2FF4420FFF7D1FFB6
:101E5000FFF7B3FFFFF79BFFC020FFF7CAFF234C3C
:101E60002378234DE85CFFF7C4FFFFF7A6FFFFF7D9
:101E70008EFFC120FFF7BDFF6378E85CFFF7B9FF75
:101E8000FFF79BFFFFF783FFC220FFF7B2FFA378A6
:101E9000E85CFFF7AEFFFFF790FFFFF778FFC32086
:101EA000FFF7A7FFE378E85CFFF7A3FFFFF785FFE5
:101EB000FFF76DFFC420FFF79CFF2379E85CFFF775
:101EC00098FFFFF77AFFFFF762FFC520FFF791FF4A
:101ED0006079FFF78EFFFFF770FFFFF758FF8B2049
:101EE000FFF787FFFFF769FF70BDC046FC120020B7
:101EF0003C00002010B5794C04222100002003F0A2
:101F00004DF82368182B02D9744B00221A60744CC8
:101F100004222100382003F041F823683C2B02D929
:101F20006F4B00221A606F4C04222100042003F042
:101F300035F82368FA22920094466344FA22D200CC
:101F4000934202D9674B00221A60674C0422210099
:101F5000082003F023F82368FA2292009446634491
:101F6000FA22D200934202D95F4B00221A605F4CE2
:101F7000042221000C2003F011F82368FA229200B9
:101F800094466344FA22D200934202D9574B00226E
:101F90001A60042256493C2003F000F804225549F7
:101FA000482002F0FBFF04225349402002F0F6FFD4
:101FB000042252494C2002F0F1FF042250494420EF
:101FC00002F0ECFF04224F49502002F0E7FF4E4C94
:101FD00004222100102002F0E1FF2268FA23DB0036
:101FE0009A4203D9484BFA2292001A60474C0422C5
:101FF0002100142002F0D2FF2268FA23DB009A426B
:1020000003D9424BC82292001A60414C042221009D
:10201000182002F0C3FF2268FA23DB009A4202D99B
:102020003B4B3C4A1A603C4C042221001C2002F02D
:10203000B5FF2268FA23DB009A4202D9364B374AB1
:102040001A60374C04222100202002F0A7FF2368E9
:10205000053B5F2B02D9324B04221A60314C04221B
:102060002100242002F09AFF2368053B5F2B02D950
:102070002C4B04221A602C4C04222100282002F050
:102080008DFF2368053B5F2B02D9274B04221A6082
:10209000264C042221002C2002F080FF2368FE2B16
:1020A00002D9224B01221A60214C04222100302047
:1020B00002F074FF2368022B02D91D4B00221A6024
:1020C0001C4C04222100342002F068FF2368042BFA
:1020D00002D9184B03221A6010BDC04678120020A6
:1020E0007C120020981200209C120020A0120020D8
:1020F0006000002028000020640000202C00002048
:10210000680000203000002014000020180000208B
:102110001C0000201405000020000020DC05000049
:1021200034000020380000206C0000202400002033
:10213000B0120020A812002070B584B000230193D3
:102140000293039300241CE001A9A00053009B18F4
:102150001B195B00804D5B5B4558AC4663444350A4
:102160000132FA235B009A42EED301ADA6001900BA
:102170007059FDF7D3FF6300784AD05200237351A2
:102180000134022C05D8A30001AA00219950002295
:10219000E7E7734A136801331360724A934200D829
:1021A000C0E06F4B00221A606F4B1B78002B53D19D
:1021B0006E4B1C78002C18D16D4B9868FEF732FEE0
:1021C0006C4B1968FEF7ECFA6B4B1968FEF70EFCC6
:1021D000051C6A4B1868FEF7D7FD011C281CFEF78A
:1021E00029F8FEF7B1FD664B1860002C18D1604B42
:1021F0001868FEF717FE634B1968FEF7D1FA624BB9
:102200001968FEF7F3FB051C604B1868FEF7BCFD70
:10221000011C281CFEF70EF8FEF796FD5C4B1860BB
:10222000002C21D1524B5868FEF7FCFD594B196820
:10223000FEF7B6FA584B1968FEF7D8FB041C574B4B
:102240001868FEF7A1FD011C201CFDF7F3FFFEF747
:102250007BFD534B186007E0524B1B68484A1360E4
:102260004B4A13604E4A1360414B00221A605A6079
:102270009A60434B1B681E333C2B02D8404B002214
:102280001A603F4B1B68233BFF3B282B03D83C4B7A
:102290009B2252001A603A4B1B68434A944663449F
:1022A000322B03D8364BFA22D2001A60384B1B6807
:1022B0001E333C2B02D8364B00221A60344B1B686D
:1022C000233BFF3B282B03D8314B9B2252001A6043
:1022D0002F4B1B68344A94466344322B03D82C4B53
:1022E000FA22D2001A602E4B1B681E333C2B02D8F8
:1022F0002B4B00221A602A4B1B68233BFF3B282BE9
:1023000003D8274B9B2252001A60254B1B68264A94
:1023100094466344322B03D8214BFA22D2001A6030
:1023200004B070BD124B1A680C4B1B889A4201D244
:102330000F4A13600E4B5A68084B5B889A4201D2D1
:102340000B4A53600A4B9A68044B9B889A4200D30D
:102350008FE7074A93608CE7B40600206C120020D8
:10236000AC120020B80B0000A412002000000020D6
:10237000D8120020600000202800002098120020C1
:1023800008000020640000202C0000209C12002087
:102390000C0000206800002030000020A012002067
:1023A000100000209412002044F8FFFFF0B583B025
:1023B00006000F0014005F4BC5185F4B9D4200D90B
:1023C000B0E0002A48D0012C4CD0022C50D0032C75
:1023D00054D0042C58D001AB1B782D2B5AD0202B75
:1023E0005CD0303B554A537001AB5B782D2B59D0F4
:1023F000202B5BD0303B514A937001AB9B782D2B47
:1024000058D0202B5AD0303B4C4AD37001ABDB78EC
:102410002D2B57D0202B59D0303B484A1371002C1C
:1024200007D1092E05DC3300093302DB434B1222AE
:10243000DA70042C4ED0012F55D0022F5AD0032F22
:102440005FD0012F66D0022F72D1633670DA3B4A1B
:102450009378123393706BE00200394901A805F0BC
:10246000FDFBB0E73200374901A805F0F7FBACE708
:102470003200354901A805F0F1FBA8E732003349E5
:1024800001A805F0EBFBA4E73200314901A805F0F3
:10249000E5FBA0E7294B1D225A70A5E7274B102228
:1024A0005A70A1E7254B1D229A70A6E7234B1022F4
:1024B0009A70A2E7214B1D22DA70A7E71F4B10226A
:1024C000DA70A3E71D4B1D221A71A8E71B4B1022DF
:1024D0001A71A4E7092EAEDC33000933ABDB174BCE
:1024E0001222DA70A7E7092EA7DD144AD378123337
:1024F000D370A2E7632EA2DD104A93781233937053
:102500009DE7FA239B009E429BDB0C4A53781233D3
:10251000537096E73300093395DA084AD3781233BB
:10252000D37090E7054B09225A709A70DA701A71CD
:1025300003B0F0BDE7030000F72A0000FC12002002
:1025400040900008449000084C9000085490000807
:102550005C90000870B5614B1A68FA23DB009A4260
:102560001BD35E4BFA22D2001A605D4B1B685D4A9A
:102570001268934201DD5B4A13605B4B1B685B4A48
:102580001268934201DD594A1360594B1B68594A3E
:102590001268934201DD574A1360514B1A68564B3B
:1025A0001B689A4207DC504909688B4203DB50499B
:1025B00009688B4202DA514B01211970504B1B689C
:1025C0009A420ADA484909688B4206DD4849096897
:1025D0008B4202DD494B00211970484B1B7B012BBC
:1025E00042D0022B44D0022B02D9444B0021197354
:1025F000424B1B7B002B14D1424B19680B015B1A19
:102600009B004148006883420BD2404C24681B1950
:10261000984206D2002904D0002C02D0374B012169
:102620001970384B19680B015B1A9B003749096810
:102630005B18354909688B4202D2334B002119607F
:1026400013002D33FF3332498B4215D9314B9A4257
:1026500002DA2A4B0121597196231B019A420EDDA1
:10266000264B02225A710AE0244901200870B8E77B
:10267000224900200870B6E7204B00225A711A4BFD
:102680001B6819002D31FF31214A91420DD9214A91
:10269000934202DA194A0121917196221201934262
:1026A00006DD164B02229A7102E0144B00229A7149
:1026B0000F4B1B6819002D31FF31154A91422BD960
:1026C000144A934202DA0D4A0121D1719622120175
:1026D000934224DD094B0222DA7120E08C120020A3
:1026E00008000020EC1200200C000020F012002056
:1026F00010000020F412002014000020C41200205A
:102700001800002078120020E81200207C1200201F
:102710008C0A0000D4FEFFFFB74B0022DA71802143
:102720009020C900C00504F079FA012800D1B3E077
:10273000B14B00221A72802190200901C00504F0DB
:102740006DFA012800D1ABE0AB4B00225A72AB4BC3
:102750001A6813002D33FF33A9498B420CD8A949BD
:1027600009682D31FF31A648814205D8A64909687C
:102770002D31FF31814203D99F4901204870887370
:102780009F498B420ED89F4B1B682D33FF338B42E2
:1027900008D89D4B1B682D33FF338B4202D8964BD4
:1027A00000215970994B1B689A4207DC95490968CA
:1027B0008B4203DB944909688B4203DA8E4901207E
:1027C00088708873924909685B1A9A420ADA8D49BF
:1027D00009688B4206DD8C4909688B4202DD864B15
:1027E000002199708B4B1B689A4207DC8549096868
:1027F0008B4203DB844909688B4203DA7E4901205E
:10280000C8708873844909685B1A9A420ADA7D4A5B
:102810001268934206DD7C4A1268934202DD764BD1
:102820000022DA70802190204901C00504F0F6F9F9
:10283000002839D1704B01221A719A736F4B1A68B4
:10284000724B1B689A420EDA6E4909688B420ADDA8
:102850006D480068834206DD704B9A4203DB994263
:1028600001DB984224DA644B1B7B012B2CD0002423
:10287000022B2BD06A4B1B78022B00D1ECE029D81D
:10288000002B35D0012B3ED1664B1B68642B3AD907
:10289000634B02221A7036E0574B01221A724AE744
:1028A000554B01225A7252E7534B00221A71C5E769
:1028B000802190204901C00504F0B0F90128D2D14F
:1028C0004D4B00229A73CEE71C00D1E701231C4335
:1028D000E4B2CFE7032B16D1524B1A68FA23DB0080
:1028E0009A4210D900234E4A13704E4A13600AE0F0
:1028F000414B1B78002B00D170E0012B00D19DE0F3
:10290000484B00221A603C4B5B78012B00D1C5E09C
:10291000394B5B78012B06D0434B1B78002B00D141
:10292000D1E010239C43344B9B78012B00D1D1E0A4
:10293000314B9B78012B06D03B4B1B78002B00D1F1
:10294000DBE004239C432C4BDB78012B00D1DAE045
:10295000294BDB78012B06D0334B1B78002B00D1A1
:10296000E4E008239C43244B1B79012B00D1E3E0D6
:10297000214B1B79012B04D02B4B1B78002B00D152
:10298000EAE01D4B5B79012B00D1EBE01A4B5B7940
:10299000012B04D0244B1B78002B00D1F6E0164B02
:1029A0009B7B012B00D1F9E0002B03D0124BDB7B8A
:1029B000012B02D11D4B00221A600F4B1B7C012BF7
:1029C00000D1F5E0012B01D020239C43184B5C7112
:1029D000184B1B680A2B00D9EEE070BD02239C4304
:1029E000154B1B78012B03D0134B00221A7087E77D
:1029F0000B4B01221A70F7E7C412002008000020D8
:102A00008C0A00000C000020100000201C00002098
:102A100038000020200000206C000020D5FEFFFFC1
:102A20000000002084120020A4120020281300209F
:102A3000FC120020F81200208012002002231C4308
:102A4000E4B2D04B1B78002B02D1CF4B01221A707D
:102A5000CC4B01221A7053E7CC4B1B78012B0BD0C7
:102A6000CA4B1B78012B03D0C94B1B78002B0ED00F
:102A7000C54B03221A7046E7C54B1B78002BEFD1DC
:102A8000802101228901C34804F0CFF8E8E78021C2
:102A900000228901BF4804F0C8F8E9E7BC4B1B7865
:102AA000002B09D180210122C901BA4804F0BDF8E8
:102AB00010231C43E4B22BE780210022C901B54852
:102AC00004F0B3F8F4E780210022C901B14804F012
:102AD000ACF826E7AE4B1B78002B08D10122102161
:102AE000AD4804F0A2F804231C43E4B220E700221E
:102AF0001021A94804F099F8F5E700221021A64812
:102B000004F093F81DE7A24B1B78002B08D101229B
:102B10002021A14804F089F808231C43E4B217E7F8
:102B2000002220219C4804F080F8F5E700222021B3
:102B3000994804F07AF814E7954B1B78002B05D1DF
:102B400001220821944804F070F811E700220821BE
:102B5000914804F06AF80BE7002208218E4804F03F
:102B600064F80EE78A4B1B78002B07D18021902058
:102B700001220902C00504F058F807E780219020DF
:102B800000220902C00504F050F8FFE680219020E1
:102B900000220902C00504F048F800E77B4AD27B16
:102BA000002A00D000E77D4AFA2149001160FBE6C7
:102BB00020221443E4B205E7794B00221A608021F9
:102BC0008901754804F02AF8002814D1754A137851
:102BD000013313700023744A1370744A1370744ADB
:102BE000137074490A6801320A60734A1360734AA9
:102BF0001360734A136080214901674804F00EF89E
:102C0000002814D10023674A137067490A780132FB
:102C10000A70664A1370664A1370664A1360664902
:102C20000A6801320A60654A1360654A13608021B0
:102C30000902594803F0F2FF002814D10023594A31
:102C40001370594A137059490A7801320A70584A68
:102C50001370584A1360584A136058490A68013281
:102C60000A60574A13608021C9014B4803F0D6FF20
:102C7000002814D100234B4A13704B4A13704B4A5F
:102C800013704B490A7801320A704A4A13604A4A63
:102C900013604A4A13604A4A136801331360414B78
:102CA0001B78042B00D993E03F4B1B78042B00D9F1
:102CB0009DE03E4B1B78042B00D9A7E03C4B1B78D2
:102CC000042B00D9B1E080218901334803F0A6FF2D
:102CD000002806D1374B1B68632B02D9394B0122E0
:102CE0001A60802149012C4803F098FF002806D182
:102CF000314B1B68632B02D9324B02221A608021B0
:102D00000902254803F08AFF002806D12B4B1B68D7
:102D1000632B02D92B4B03221A608021C9011E4864
:102D200003F07CFF002806D1254B1B68632B02D9DA
:102D3000244B04221A6080218901174803F06EFF9A
:102D4000012800D180E080214901134803F066FF8B
:102D5000012800D17CE0802109020F4803F05EFFCA
:102D6000012879D08021C9010B4803F057FF0128C1
:102D700076D0154B9B79282B00D9BEE29B00134AD5
:102D8000D3589F468012002000000020C41200206B
:102D9000A412002000080048000400482813002066
:102DA000F81200207212002073120020741200200A
:102DB00075120020B4120020B8120020BC120020AE
:102DC000C012002088120020FC120020649000082D
:102DD00080218901CA4803F021FF012800D063E760
:102DE000C84B01221A60C84B00221A705CE7802190
:102DF0004901C34803F012FF012800D059E7C14B35
:102E000002221A60C14B00221A7052E78021090287
:102E1000BB4803F003FF012800D04FE7B94B032262
:102E20001A60BB4B00221A7048E78021C901B448E0
:102E300003F0F4FE012800D045E7B24B04221A60EB
:102E4000B44B00221A703EE7B34B00221A607AE7B7
:102E5000B24B00221A607EE7B14B00221A6081E774
:102E6000B04B00221A6084E7AF4B00221A70AF4BC0
:102E70000A321A70AE4A136801331360AD4B1868FA
:102E8000AD4B984226DAA94B1D225A700021997049
:102E90002031D9701A719B4B1B68012B2CD0042B4D
:102EA00037D0042B48D0974B1B68022B5CD0032BE8
:102EB00069D0A24B1B7C002B74D19D4B1A689623C2
:102EC0005B009A427BD39A4B00221A60974B0132E7
:102ED0009A7112E296231B01984208DD934B1D2242
:102EE0005A70002199701F31D9701A71D3E70022EE
:102EF0000121FFF75BFACEE7874A1268272ACED96D
:102F00008A4B03229A7100237E4A1360824A13601F
:102F1000F3E1844A1268272AC3D97A4B00221A6047
:102F2000864B1B7C002B03D1844B01321A74E4E1E5
:102F3000824B00221A74E0E18021C901704803F03D
:102F40006DFE0128AFD10023784A93716D4A13605A
:102F50007A4BDB7B002B03D1784B0122DA73CCE177
:102F6000764B0022DA73C8E1664B00221A60734B7D
:102F70001B7B002B03D1714B01321A73BDE16F4BE8
:102F800000221A73B9E15F4B00221A606B4B1B7B66
:102F9000002B03D1694B02321A73AEE1674B00225A
:102FA0001A73AAE1664B1A68624B1B689A4206DDE7
:102FB0005F4B00221A605D4B01329A719DE1514BCB
:102FC00000221A6099E1594B0B221A70584A136873
:102FD000013313605A4B1868574B984228DA534B09
:102FE0001D225A70002199702031D9701A71454BF9
:102FF0001B68012B2ED0042B39D0042B4AD0414B17
:103000001B68022B5ED0032B6BD04C4B1B7C002B20
:1030100000D097E0464B1A6896235B009A4200D294
:103020006BE1434B00221A60404B02329A7164E11B
:1030300096231B01984208DD3C4B1D225A7000214B
:1030400099701F31D9701A71D1E700220121FFF761
:10305000ADF9CCE7304A12683B2ACCD9334B032276
:103060009A710023274A13602B4A136045E12D4AC9
:103070001268272AC1D9234B00221A602F4B1B7CD0
:10308000002B03D12D4B01321A7436E12B4B002259
:103090001A7432E18021C901194803F0BFFD0128EB
:1030A000ADD10023214A9371164A1360234BDB7B79
:1030B000002B03D1214B0122DA731EE11F4B0022AA
:1030C000DA731AE10F4B00221A601C4B1B7B002B9A
:1030D00003D11A4B01321A730FE1184B00221A73F5
:1030E0000BE1084B00221A60144B1B7B002B03D111
:1030F000124B02321A7300E1104B00221A73FCE0EB
:103100000004004888120020721200207312002070
:103110007412002075120020B4120020B812002092
:10312000BC120020C0120020A4120020FC120020BB
:103130001C13002008000020D4FEFFFFC412002052
:103140000C000020C54B1A68C54B1B689A4200DC76
:10315000D3E0C44B00221A60C34B02329A71CCE018
:10316000C14B0C221A70BF4A136801331360BB4B6A
:103170001868BE4B984226DABB4B1D225A700021BC
:1031800099702031D9701A71B94B1B68012B2CD062
:10319000042B37D0042B48D0B54B1B68022B5CD0D6
:1031A000032B69D0B34B1B7C002B74D1AD4B1A6839
:1031B00096235B009A4200D29FE00023A94A136045
:1031C000A94A937199E096231B01984208DDA64B0A
:1031D0001D225A70002199701F31D9701A71D3E7DE
:1031E00000220121FFF7E2F8CEE7A34A12683B2A4A
:1031F000CED99D4B03229A7100239D4A13609E4AAB
:1032000013607AE09D4A1268272AC3D9984B00229E
:103210001A60984B1B7C002B03D1964B01321A7419
:103220006BE0944B00221A7467E08021C901944836
:1032300003F0F4FC0128AFD100238B4A93718C4A30
:1032400013608C4BDB7B002B03D18A4B0122DA739A
:1032500053E0884B0022DA734FE0854B00221A605E
:10326000844B1B7B002B03D1824B01321A7344E049
:10327000804B00221A7340E07D4B00221A607D4B88
:103280001B7B002B03D17B4B02321A7335E0794B49
:1032900000221A7331E07B4B1A68704B1B689A420C
:1032A0002BDD00236F4A13606F4A937125E0764B44
:1032B00000221A706C4B1C321A70744B18681A3A40
:1032C0000021FFF773F8724B1B68272B05D8684A5B
:1032D0000021116001336E4A1360654B1B68012B9E
:1032E0000FD0634B1B68042B48D0614B1B68022B2B
:1032F0004AD05F4B1B68032B51D0FEF7A3FDFFF7AD
:103300006CFB634B1B68272BEBD9614B00221A60C7
:103310005E4B1B68012B11D0022B13D0032B15D051
:10332000042B17D0052B19D0062B1BD0082B1DD032
:10333000092B1FD04E4B00221A60D2E74A4A0421C3
:103340009171E9E7484A07219171E7E7464A282148
:103350009171E5E7444A10219171E3E7424A18214F
:103360009171E1E7404A1A219171DFE73E4A1E213F
:103370009171DDE73C4B24229A71DBE700233A4A46
:1033800093713B4A1360B0E7404B1B68082B02DC8B
:1033900001333E4A1360364B00221A60A9E73B4BCB
:1033A0001B68012B02DD013B384A1360304B0022C1
:1033B0001A60A2E72C4B0A221A70364B18680022BA
:1033C0000121FEF7F3FF2A4B1B68012B0FD0284B7E
:1033D0001B68042B12D0264B1B68022B14D0244BE5
:1033E0001B68032B89D1224B00221A6085E71E4BF4
:1033F00005229A711E4B00221A60E8E700231A4A40
:1034000093711B4A1360E6E7194B00221A60E6E746
:10341000154B0B221A70204B186800220121FEF771
:10342000C5FF134B1B68012B10D0114B1B68042BDD
:1034300034D00F4B1B68022B36D00D4B1B68032B6F
:1034400000D05AE70A4B00221A6056E7064B0622C4
:103450009A71074B00221A60E7E7C046100000206F
:103460000C0000201C130020FC120020D4FEFFFFE3
:1034700088120020C4120020B4120020C0120020C4
:103480000004004808000020A412002004000020CE
:1034900090120020EC120020F01200200023C64AF7
:1034A0009371C64A1360C4E7C44B00221A60C4E794
:1034B000C14B0C221A70C24B186800220121FEF782
:1034C00075FFBE4B1B68012B10D0BC4B1B68042B37
:1034D00013D0BA4B1B68022B15D0B84B1B68032BBB
:1034E00000D00AE7B54B00221A6006E7B24B032270
:1034F0009A71B24B00221A60E7E70023AE4A93713B
:10350000AE4A1360E5E7AD4B00221A60E5E7AA4B2F
:103510001C221A7001325A700F2199700239D97029
:103520001A71A64B1B68012B10D0A44B1B68042BEF
:1035300013D0A24B1B68022B15D0A04B1B68032B8A
:1035400000D0DAE69D4B00221A60D6E69A4B153A77
:103550009A719A4B00221A60E7E70023964A93710A
:10356000964A1360E5E7954B00221A60E5E7924B17
:103570001F221A70934B18681D3A0021FEF716FFA0
:103580008E4B1B68012B17D08C4B1B68042B1FD054
:103590008A4B1B68022B21D0884B1B68032B00D061
:1035A000ABE6884B1B68002B02D0013B854A1360B9
:1035B000824B00221A60A0E67F4B09229A717F4B52
:1035C00000221A6004327F49002001F097FCDBE7FB
:1035D0000023794A9371794A1360D9E7794B1B68C4
:1035E000172B02D80133774A1360744B00221A60FC
:1035F000D2E7714B1E221A70734B18681C3A0021D7
:10360000FEF7D4FE6D4B1B68012B17D06B4B1B686C
:10361000042B1FD0694B1B68022B21D0674B1B6802
:10362000032B00D069E6684B1B68002B02D0013BDE
:10363000654A1360614B00221A605EE65E4B03220E
:103640009A715E4B00221A6004325F49382001F003
:1036500055FCDBE70023584A9371584A1360D9E7B9
:10366000594B1B683B2B02D80133574A1360534B0D
:1036700000221A60D2E7554B01221A700022544BE7
:103680001A604D4B0A2119705A709A70DA701A71CB
:103690004A4B1B68012B10D0484B1B68042B19D0D8
:1036A000464B1B68022B1BD0444B1B68032B00D0DE
:1036B00023E6424B00221A601FE63F4B0B329A7101
:1036C0003E4B00221A60434B9888FDF7ABFB424B00
:1036D0001860E1E70023384A9371384A1360DFE746
:1036E000364B00221A60DFE7334B0B221A700022A0
:1036F0005A709A70DA701A71304B1B68012B10D017
:103700002E4B1B68042B19D02C4B1B68022B1BD093
:103710002A4B1B68032B00D0EFE5284B00221A60D0
:10372000EBE5254B0C329A71244B00221A60294B91
:103730001888FDF777FB294B1860E1E700231E4A44
:1037400093711E4A1360DFE71C4B00221A60DFE70B
:10375000194B0C221A7000225A709A70DA701A7182
:10376000164B1B68012B10D0144B1B68042B19D06F
:10377000124B1B68022B1BD0104B1B68032B00D075
:10378000BBE50E4B00221A60B7E50B4B0D329A7168
:103790000A4B00221A600F4B5888FDF743FB104B71
:1037A0001860E1E70023044A9371044A1360DFE7DD
:1037B000024B00221A60DFE7FC1200208812002072
:1037C000F4120020781200207C120020A4120020A5
:1037D000941200206C120020041300200C1300200F
:1037E00014130020CB4B0A221A7000225A700221B7
:1037F0009970DA701A71C84B1B68012B10D0C64B38
:103800001B68042B34D0C44B1B68022B36D0C24B30
:103810001B68032B00D070E5BF4B00221A606CE5DB
:10382000BC4B0E329A71BC4B00221A60BB4B98887D
:10383000FDF7F8FABA4B1860BA4B1C68211CFDF76B
:10384000D5F8011CB848FCF793FE011CB74D286061
:10385000201CFCF7A5FFB64C2060042229003C2068
:1038600001F04CFB04222100482001F047FBC6E791
:103870000023A84A9371A84A1360C4E7A64B00220C
:103880001A60C4E7A34B0B221A7000225A7002215F
:103890009970DA701A71A04B1B68012B10D09E4BE7
:1038A0001B68042B34D09C4B1B68022B36D09A4BE0
:1038B0001B68032B00D020E5974B00221A601CE503
:1038C000944B0F329A71944B00221A60934B1888D4
:1038D000FDF7A8FA974B1860974B1C68211CFDF761
:1038E00085F8011C9048FCF743FE011C934D2860AD
:1038F000201CFCF755FF924C206004222900402038
:1039000001F0FCFA042221004C2001F0F7FAC6E78E
:103910000023804A9371804A1360C4E77E4B0022E3
:103920001A60C4E77B4B0C221A7000225A700221E5
:103930009970DA701A71784B1B68012B10D0764B96
:103940001B68042B38D0744B1B68022B3AD0724B87
:103950001B68032B00D0D0E46F4B00221A60CCE42C
:103960006C4B03329A7100246B4B1C606B4B588874
:10397000FDF758FA734B1860734B1D68291CFDF74F
:1039800035F8011C6848FCF7F3FD011C6F4E3060F0
:10399000281CFCF705FF6E4D2860042231004420EE
:1039A00001F0ACFA04222900502001F0A7FA694B7B
:1039B0001C70694B1C60C2E70023564A9371564A3B
:1039C0001360C0E7544B00221A60C0E7514B1E221F
:1039D0001A70013A5A700A2199700939D9701A710E
:1039E0004D4B1B68012B10D04B4B1B68042B13D085
:1039F000494B1B68022B15D0474B1B68032B00D08B
:103A00007BE4454B00221A6077E4424B0C3A9A71F2
:103A1000414B00221A60E7E700233E4A93713E4A79
:103A20001360E5E73C4B00221A60E5E7394B1E22A4
:103A30001A704A4B186800220121FEF7B7FC364B7A
:103A40001B68012B20D0344B1B68042B28D0324B31
:103A50001B68022B2AD0304B1B68032B3AD02E4B0D
:103A60001B68022B48D0032B00D046E43C4B1B685C
:103A7000272B00D841E4394B1B68002B00DC3CE4C9
:103A8000013B364A136038E4224B12229A71224BD2
:103A900000221A6004323149102001F02FFAD2E7D7
:103AA00000231C4A93711C4A1360D0E7802149010E
:103AB0002C4803F0B3F80128CDD1284B1B68FA221B
:103AC000D200934202DA0133244A1360124B0022DF
:103AD0001A60C0E780210902224803F09FF80128FC
:103AE000BDD11E4B1B68002B02DD013B1B4A13603E
:103AF000094B00221A60B2E71B4A1268272AB2D982
:103B0000164A1268FA21C9008A42ACDA0132134916
:103B10000A60A8E7FC120020881200206C12002026
:103B200008130020041300200000FA446000002065
:103B300028000020101300200C1300206400002037
:103B40002C0000201813002014130020680000200F
:103B500030000020A4120020941200201400002045
:103B6000BC12002000040048B8120020C24B1E22E4
:103B70001A70013A5A700A2199700839D9701A716D
:103B8000BE4B1B68012B12D0BC4B1B68042B15D0FD
:103B9000BA4B1B68022B17D0B84B1B68032B01D004
:103BA000FFF7ABFBB54B00221A60FFF7A6FBB24B49
:103BB0000A3A9A71B14B00221A60E5E70023AE4A37
:103BC0009371AE4A1360E3E7AC4B00221A60E3E75F
:103BD000A94B1E221A70AA4B186800220121FEF779
:103BE000E5FBA64B1B68012B24D0A44B1B68042BC0
:103BF0002CD0A24B1B68022B2ED0A04B1B68032B92
:103C00003ED09E4B1B68022B4CD0032B01D0FFF7FC
:103C100074FB9C4B1B68272B01D8FFF76EFB984B5E
:103C20001B68002B01DCFFF768FB013B944A136023
:103C3000FFF763FB904B14229A71904B00221A609D
:103C400004328F49142001F059F9CEE700238A4A43
:103C500093718A4A1360CCE7802149018A4802F0B7
:103C6000DDFF0128C9D1864B1B68FA22D20093429E
:103C700002DA0133824A1360804B00221A60BCE7EB
:103C800080210902804802F0C9FF0128B9D17C4B8C
:103C90001B68002B02DD013B794A1360774B002241
:103CA0001A60AEE7794A1268272AAED9744A1268B8
:103CB000FA21C9008A42A8DA013271490A60A4E7F0
:103CC0006D4B1E221A70013A5A700A2199700739F9
:103CD000D9701A71694B1B68012B12D0674B1B6896
:103CE000042B15D0654B1B68022B17D0634B1B6848
:103CF000032B01D0FFF701FB604B00221A60FFF796
:103D0000FCFA5D4B083A9A715C4B00221A60E5E7B9
:103D10000023594A9371594A1360E3E7574B002235
:103D20001A60E3E7544B1E221A70594B18680022A0
:103D30000121FEF73BFB514B1B68012B24D04F4B5D
:103D40001B68042B2CD04D4B1B68022B2ED04B4BE9
:103D50001B68032B3ED0494B1B68022B4CD0032B16
:103D600001D0FFF7CAFA474B1B68272B01D8FFF792
:103D7000C4FA474B1B68002B01DCFFF7BEFA013B7E
:103D8000434A1360FFF7B9FA3B4B16229A713B4B3B
:103D900000221A6004323E49182001F0AFF8CEE745
:103DA0000023354A9371354A1360CCE780214901DD
:103DB000354802F033FF0128C9D1354B1B68FA2280
:103DC000D200934202DA0133314A13602B4B0022B6
:103DD0001A60BCE7802109022B4802F01FFF01286E
:103DE000B9D12B4B1B68002B02DD013B284A136025
:103DF000224B00221A60AEE7244A1268272AAED965
:103E0000234A1268FA21C9008A42A8DA01322049FD
:103E10000A60A4E7184B1E221A70013A5A700A2150
:103E200099700639D9701A71144B1B68012B12D086
:103E3000124B1B68042B15D0104B1B68022B17D09C
:103E40000E4B1B68032B01D0FFF757FA0B4B0022D8
:103E50001A60FFF752FA084B063A9A71074B002294
:103E60001A60E5E70023044A9371044A1360E3E70C
:103E7000024B00221A60E3E7FC12002088120020A7
:103E800018000020BC12002000040048B8120020D6
:103E90001C000020B74B1E221A70B74B1868002276
:103EA0000121FEF783FAB54B1B68012B24D0B34BDD
:103EB0001B68042B2CD0B14B1B68022B2ED0AF4BB0
:103EC0001B68032B3ED0AD4B1B68022B4CD0032B41
:103ED00001D0FFF712FAAA4B1B68272B01D8FFF776
:103EE0000CFAA54B1B68002B01DCFFF706FA013B1F
:103EF000A14A1360FFF701FA9E4B03229A719F4B70
:103F000000221A6004329C491C2000F0F7FFCEE723
:103F10000023984A9371994A1360CCE780214901A4
:103F2000984802F07BFE0128C9D1934B1B68FA2206
:103F3000D200934202DA01338F4A13608F4B002282
:103F40001A60BCE7802109028E4802F067FE012852
:103F5000B9D1894B1B68002B02DD013B864A1360F7
:103F6000864B00221A60AEE7874A1268272AAED92C
:103F7000814A1268FA21C9008A42A8DA01327E49D0
:103F80000A60A4E77B4B1E221A70013A5A700C217A
:103F900099701331D9701A71784B1B68012B12D0AC
:103FA000764B1B68042B15D0744B1B68022B17D063
:103FB000724B1B68032B01D0FFF79FF96F4B002258
:103FC0001A60FFF79AF96B4B043A9A716B4B002217
:103FD0001A60E5E70023674A9371684A1360E3E7D4
:103FE000664B00221A60E3E7684B01221A70614BAE
:103FF0001D321A70664B186800220121FEF7D6F9AF
:104000005E4B1B68012B28D05C4B1B68042B2DD00A
:104010005A4B1B68022B31D0584B1B68032B40D0E6
:10402000564B1B68022B4ED0032B59D0022B63D06A
:10403000032B01D0FFF761F9514B1B684F2B01D8BF
:10404000FFF75BF9524B1B680A2B01DCFFF755F9B0
:104050000A3B4F4A1360FFF750F9464B03229A710F
:104060000023464A1360494A1370CDE70023414AB2
:104070009371424A1360454A1370C9E78021490190
:10408000404802F0CBFD0128C6D1414B1B68414A94
:10409000934202DC01333E4A1360384B00221A601F
:1040A000BAE780210902374802F0B8FD0128B7D1EC
:1040B000374B1B68002B02DD013B354A13602F4B49
:1040C00000221A60ACE7304A1268272AACD9304A7D
:1040D000126830498A42A7DC01322D490A60A3E701
:1040E000274A1268272AA1D9294A1268002A9DDD89
:1040F000013A27490A6099E7234A12684F2A97D95B
:10410000234A126824498A4292DC0A3220490A6012
:104110008EE7184B1E221A70013A5A700D219970C1
:10412000D9701A71154B1B68012B12D0134B1B68E9
:10413000042B15D0114B1B68022B17D00F4B1B689B
:10414000032B01D0FFF7D9F80C4B00221A60FFF7C0
:10415000D4F8084B023A9A71084B00221A60E5E73E
:104160000023044A9371054A1360E3E7034B0022DE
:104170001A60E3E7FC1200202000002088120020D3
:10418000BC12002000040048B8120020A412002035
:1041900094120020C3090000B9090000BC4B1E2284
:1041A0001A70BC4B18681B3A0021FEF7FFF8BA4B97
:1041B0001B68012B28D0B84B1B68042B30D0B64BA2
:1041C0001B68022B32D0B44B1B68032B40D0B24B80
:1041D0001B68022B4ED0032B58D0022B62D0032B2E
:1041E00001D0FFF78AF8AD4B1B684F2B01D8FFF7C2
:1041F00084F8A84B1B680B2B01D8FFF77EF80A3B0D
:10420000A44A1360FFF779F8A14B1C229A71A24BC4
:1042100000221A6004329F492C2000F06FFECAE78A
:1042200000239B4A93719C4A1360C8E7802149018F
:104230009B4802F0F3FC0128C5D1964B1B68EF2B7D
:1042400002D80133934A1360934B00221A60BAE7F5
:1042500080210902924802F0E1FC0128B7D18D4B80
:104260001B68012B02D9013B8A4A13608A4B00224A
:104270001A60ACE78B4A1268272AACD9854A1268C3
:10428000EF2AA8D8013283490A60A4E7834A12685A
:10429000272AA2D97F4A1268012A9ED9013A7D496C
:1042A0000A609AE77F4A12684F2A98D9794A1268B9
:1042B000E52A94D80A3277490A6090E7744B1E22A7
:1042C0001A70794B18681C3A0021FEF76FF8724B90
:1042D0001B68012B24D0704B1B68042B2CD06E4B19
:1042E0001B68022B2ED06C4B1B68032B3DD06A4BF6
:1042F0001B68022B4BD0032B01D0FEF7FEFF674B50
:104300001B68272B01D8FEF7F8FF674B1B68002BB3
:1043100001D1FEF7F2FF013B634A1360FEF7EDFFA8
:104320005B4B1D229A715C4B00221A6004325E497D
:10433000302000F0E3FDCEE70023554A9371564A42
:104340001360CCE780214901554802F067FC012841
:10435000C9D1554B1B68012B03D94F4B00221A6062
:10436000C1E70133504A1360F7E7802109024C4846
:1043700002F054FC0128BAD14B4B1B68002B02D031
:10438000013B494A1360444B00221A60AFE7454A9B
:104390001268272AAFD9444A1268012AABD80132E1
:1043A00041490A60A7E73A4B1E221A703F4B186832
:1043B0001D3A0021FDF7FAFF374B1B68012B24D073
:1043C000354B1B68042B2CD0334B1B68022B2ED093
:1043D000314B1B68032B3CD02F4B1B68022B4AD060
:1043E000032B01D0FEF789FF2C4B1B68272B01D82C
:1043F000FEF783FF2D4B1B68002B01D1FEF77DFFDD
:10440000013B2A4A1360FEF778FF214B03229A7181
:10441000214B00221A6004322449342000F06EFD42
:10442000CEE700231A4A93711B4A1360CCE7802120
:1044300049011B4802F0F2FB0128C9D11B4B1B6844
:10444000032B02D80133194A1360134B00221A6060
:10445000BEE780210902124802F0E0FB0128BBD12F
:10446000124B1B68002B02D0013B104A13600A4B11
:1044700000221A60B0E70B4A1268272AB0D90B4A0B
:104480001268032AACD8013208490A60A8E7C0467E
:10449000FC1200202400002088120020BC12002002
:1044A00000040048B8120020B0120020A81200201A
:1044B000BE4B1E221A70013A5A700F2199701031AA
:1044C000D9701A71BA4B1B68012B12D0B84B1B68FC
:1044D000042B15D0B64B1B68022B17D0B44B1B68AE
:1044E000032B01D0FEF709FFB14B00221A60FEF743
:1044F00004FFAE4B02329A71AD4B00221A60E5E721
:104500000023AA4A9371AA4A1360E3E7A84B00224A
:104510001A60E3E7A54B1E221A70A64B186800220A
:104520000121FDF743FFA24B1B68012B24D0A04BB8
:104530001B68042B2CD09E4B1B68022B2ED09C4B4F
:104540001B68032B3CD09A4B1B68022B4AD0032BD1
:1045500001D0FEF7D2FE984B1B68272B01D8FEF73F
:10456000CCFE944B1B68052B01DCFEF7C6FE013B1D
:10457000904A1360FEF7C1FE8C4B20229A718C4B3F
:1045800000221A6004328B49202000F007FDCEE79C
:104590000023864A9371864A1360CCE78021490143
:1045A000864802F03BFB0128C9D1824B1B68632B74
:1045B00002DC01337F4A13607D4B00221A60BEE7A4
:1045C000802109027D4802F029FB0128BBD1794BEB
:1045D0001B68052B02DD013B764A1360744B0022F9
:1045E0001A60B0E7764A1268272AB0D9714A126871
:1045F000632AACDC01326F490A60A8E76B4B1E22CC
:104600001A70013A5A700F2199700C39D9701A71C9
:10461000674B1B68012B12D0654B1B68042B15D010
:10462000634B1B68022B17D0614B1B68032B01D017
:10463000FEF763FE5E4B00221A60FEF75EFE5B4BE8
:1046400004329A715A4B00221A60E5E70023574A58
:104650009371574A1360E3E7554B00221A60E3E772
:10466000524B1E221A70574B186800220121FDF789
:104670009DFE4F4B1B68012B24D04D4B1B68042B18
:104680002CD04B4B1B68022B2ED0494B1B68032BA5
:104690003CD0474B1B68022B4AD0032B01D0FEF7BE
:1046A0002CFE454B1B68272B01D8FEF726FE454BF9
:1046B0001B68052B01DCFEF720FE013B414A13601D
:1046C000FEF71BFE394B22229A71394B00221A60E9
:1046D00004323C49242000F061FCCEE70023334A39
:1046E0009371334A1360CCE780214901334802F0CB
:1046F00095FA0128C9D1334B1B68632B02DC0133C7
:10470000304A13602A4B00221A60BEE7802109025A
:104710002A4802F083FA0128BBD12A4B1B68052BDB
:1047200002DD013B274A1360214B00221A60B0E7EB
:10473000234A1268272AB0D9224A1268632AACDCBD
:10474000013220490A60A8E7184B1E221A70013A6C
:104750005A700F2199700B39D9701A71144B1B685C
:10476000012B12D0124B1B68042B15D0104B1B6869
:10477000022B17D00E4B1B68032B01D0FEF7BDFD9B
:104780000B4B00221A60FEF7B8FD084B06329A71F7
:10479000074B00221A60E5E70023044A9371044A9C
:1047A0001360E3E7024B00221A60E3E7FC120020EB
:1047B0008812002034000020BC12002000040048B1
:1047C000B812002038000020CA4B1E221A70CA4BB3
:1047D000186800220121FDF7E9FDC84B1B68012B79
:1047E00024D0C64B1B68042B2CD0C44B1B68022B57
:1047F0002ED0C24B1B68032B3CD0C04B1B68022B36
:104800004AD0032B01D0FEF778FDBD4B1B68272B48
:1048100001D8FEF772FDB84B1B68052B01DCFEF7D3
:104820006CFD013BB44A1360FEF767FDB14B0322F8
:104830009A71B24B00221A600432AF49282000F06E
:10484000ADFBCEE70023AB4A9371AC4A1360CCE7D3
:1048500080214901AB4802F0E1F90128C9D1A64BFA
:104860001B68632B02DC0133A34A1360A34B0022B5
:104870001A60BEE780210902A24802F0CFF90128A0
:10488000BBD19D4B1B68052B02DD013B9A4A13608F
:104890009A4B00221A60B0E79B4A1268272AB0D9C7
:1048A000954A1268632AACDC013293490A60A8E792
:1048B000904B1C221A7001325A700C2199700131F0
:1048C000D9701A718D4B1B68012B12D08B4B1B6852
:1048D000042B15D0894B1B68022B17D0874B1B6804
:1048E000032B01D0FEF709FD844B00221A60FEF76E
:1048F00004FD804B08329A71804B00221A60E5E774
:1049000000237C4A93717D4A1360E3E77B4B0022CE
:104910001A60E3E7774B0A221A707C4B1868063A54
:104920000121FDF743FD754B1B68012B25D0734B0F
:104930001B68042B2DD0714B1B68022B2FD06F4BA3
:104940001B68032B3ED06D4B1B68022B4DD0032BF5
:1049500001D0FEF7D2FC6A4B1B68272B01D8FEF76B
:10496000CCFC6A4B1B686A4A934201DAFEF7C5FC2D
:10497000013B664A1360FEF7C0FC5E4B26229A712B
:104980005E4B00221A6004326049042000F0B6FA3F
:10499000CDE70023574A9371584A1360CBE7802133
:1049A0004901584802F03AF90128C8D1574B1B6811
:1049B000584A934202DC0133544A13604F4B0022A1
:1049C0001A60BCE7802109024E4802F027F901284D
:1049D000B9D14E4B1B684E4A934202DB013B4B4A16
:1049E0001360464B00221A60ADE7474A1268272A37
:1049F000ADD9464A126847498A42A8DC0132434988
:104A00000A60A4E73B4B0B221A70434B1868073A25
:104A10000121FDF7CBFC394B1B68012B25D0374B0F
:104A20001B68042B2DD0354B1B68022B2FD0334B2A
:104A30001B68032B3ED0314B1B68022B4DD0032B40
:104A400001D0FEF75AFC2E4B1B68272B01D8FEF72E
:104A500054FC314B1B682E4A934201DAFEF74DFCA1
:104A6000013B2D4A1360FEF748FC224B27229A7126
:104A7000224B00221A6004322749082000F03EFA37
:104A8000CDE700231B4A93711C4A1360CBE78021BA
:104A900049011C4802F0C2F80128C8D11E4B1B680E
:104AA0001C4A934202DC01331B4A1360134B002261
:104AB0001A60BCE780210902124802F0AFF8012811
:104AC000B9D1154B1B68124A934202DB013B124AD3
:104AD00013600A4B00221A60ADE70B4A1268272ABE
:104AE000ADD90D4A12680B498A42A8DC01320A4945
:104AF0000A60A4E7FC1200206C000020881200204D
:104B0000BC12002000040048B812002098120020B7
:104B10001AFCFFFFE60300009C120020694B0C22E8
:104B20001A70694B1868083A0121FDF73FFC674B82
:104B30001B68012B25D0654B1B68042B2DD0634BC4
:104B40001B68022B2FD0614B1B68032B3ED05F4BA1
:104B50001B68022B4DD0032B01D0FEF7CEFB5C4B24
:104B60001B68272B01D8FEF7C8FB574B1B68594A17
:104B7000934201DAFEF7C1FB013B534A1360FEF793
:104B8000BCFB504B03229A71504B00221A60043236
:104B90004D490C2000F0B2F9CDE70023494A93714A
:104BA0004A4A1360CBE7802149014B4802F036F8AE
:104BB0000128C8D1444B1B68484A934202DC0133A8
:104BC000414A1360414B00221A60BCE78021090270
:104BD000414802F023F80128B9D13B4B1B683D4AFC
:104BE000934202DB013B384A1360384B00221A60C3
:104BF000ADE73B4A1268272AADD9334A12683749D4
:104C00008A42A8DC013230490A60A4E7354B002211
:104C10001A702C4B1D321A70334B18681B3A002146
:104C2000FDF7C4FB314B1B68272B05D8274A002111
:104C3000116001332D4A1360244B1B68012B19D0DE
:104C4000224B1B68042B2BD0204B1B68022B2DD032
:104C50001E4B1B68032B01D0FEF74FFB224B1B683A
:104C6000012B02DD013B204A1360184B00221A6021
:104C7000FEF743FB1D4B1B68272BE1D91B4B002282
:104C80001A60194B1B68122B06D00E4B03229A7127
:104C90000E4B00221A60D3E70A4B0A329A71F7E7EB
:104CA0000023084A9371094A1360CDE70E4B1B6835
:104CB000122B02DC01330C4A1360044B00221A60F1
:104CC000C6E7C046FC120020A01200208812002077
:104CD000BC1200201AFCFFFF00040048E60300009D
:104CE000B8120020A412002004000020901200201E
:104CF00000B587B01422002101A802F02AFF40234A
:104D000001933D3B049301A9024801F0C1FE07B0A5
:104D100000BDC0460014004800B587B01422002131
:104D200001A802F016FF402301933E3B029301339A
:104D3000049301A9024801F0ABFE07B000BDC046D4
:104D40000014004810B5FFF7E7FF064C0022402191
:104D5000200001F06AFF01224021200001F065FFE0
:104D600010BDC0460014004810B5FFF7C1FF002475
:104D70004021104801F052FF002804D1C72C02D86E
:104D80000134A4B2F4E7C72C0FD8002401E00134A9
:104D9000A4B24021074801F041FF002801D0EF2CC8
:104DA000F5D9EF2C03D8002010BD0120FCE701202D
:104DB000FAE7C0460014004810B5FFF7ADFF0B4CF2
:104DC00000224021200001F030FF0122402120007C
:104DD00001F02BFFFFF78CFF4021200001F01EFFA8
:104DE000002801D1013010BD0020FCE7001400486C
:104DF00070B50024012507E0FFF7DEFFC00164085D
:104E00000443E4B20135EDB2082DF5D9200070BDA0
:104E100070B50500FFF780FF01240CE0104E002262
:104E20004021300001F001FF01224021300001F05B
:104E3000FCFE0134E4B2082C10D801232B406D088D
:104E4000002BEBD0064E00224021300001F0EDFE99
:104E500001224021300001F0E8FEEAE770BDC046C3
:104E60000014004810B5FFF76DFFFFF77DFFCC2061
:104E7000FFF7CEFF4420FFF7CBFF10BD10B5012296
:104E80004021044801F0D1FEFFF75CFFFFF76CFF03
:104E900010BDC0460014004870B5FFF7E3FFFFF7F0
:104EA00051FFFFF761FFCC20FFF7B2FFBE20FFF7F5
:104EB000AFFFFFF79DFF05000400FFF799FF030018
:104EC000072817D9C043C3B2EC43E4B20025180247
:104ED000201800B2FBF758FFFCF788FA0022064BB7
:104EE000FBF7E2FFFCF74CFA00B2002D01D1404283
:104EF00000B270BD0125EAE70000E43FF0B5C64608
:104F000000B584B004000F001500821880231B0137
:104F10009A423FDA43420F221E001640134200D14C
:104F20001026B3B2AB4220D9EEB21EE0A023B2B23B
:104F30009046FF22224099B22023029343460193D8
:104F400000970123144801F0A9FB002819D144441B
:104F5000A4B24346ED1AADB2BF192E1C102D00D9D4
:104F60001026F6B2052001F063F9002D0DD0230ABA
:104F7000DCD0E10949B20E2319406E3B0B43DBB292
:104F8000D5E7052001F054F9EFE7002004B080BC1C
:104F9000B846F0BD0120F9E7C8040020F0B5C646C8
:104FA00000B584B004000F001500821880231B0197
:104FB0009A423CDA43420F221E001640134200D1AF
:104FC0001026B3B2AB421DD9EEB21BE0A123B2B2A0
:104FD0009046FF22224099B2142302934346019344
:104FE00000970123134801F029FC002816D14444FE
:104FF000A4B24346ED1AADB2BF192E1C102D00D934
:105000001026F6B2002D0DD0230ADFD0E10949B2F7
:105010000E2319406D3B0B43DBB2D8E7064802F084
:1050200013FEEFE7002004B080BCB846F0BD0120BD
:10503000F9E7C046C80400200891000810B5802197
:105040001C4C8901200001F0E9FD8021490120006C
:1050500001F0E4FD80210902200001F0DFFD802144
:10506000C901200001F0DAFD134B1B68002B0CD1A5
:10507000114B1B68002B0ED0FDF76CFA0F4B1A6812
:10508000FA235B009A420CD810BD012280210C4803
:1050900001F0CBFDECE700228021094801F0C5FDBD
:1050A000EAE7064B00221A60FFF7F6FE054B188070
:1050B000EAE7C0460004004828130020241300201B
:1050C00000140048201300207047FEE77047704727
:1050D00010B501F09BF8184A136801331360174AA2
:1050E000136801331360164A136801331360154ABD
:1050F000136801331360144B1B78013BDBB2022BA6
:1051000003D8124A136801331360114A136801333C
:105110001360104A934206D90D4B00221A600E4AC2
:105120001368013313600D4B1B68002B02D0013B49
:105130000A4A136010BDC04624130020F812002054
:10514000E41200208C1200200000002084120020B5
:105150002C13002060EA0000E81200202813002031
:1051600010B5024801F038FE10BDC046FC03002017
:1051700010B5024801F030FE10BDC04640040020CA
:1051800010B5024801F028FE10BDC046840400207E
:1051900010B5024801F0B4FF10BDC0461C05002048
:1051A00010B5034801F0ACFFFCF7C4FB10BDC046CE
:1051B000A405002082B00A4B99690122114399612C
:1051C00099690A400092009ADA69802149050A43E8
:1051D000DA61DB690B400193019B02B07047C04666
:1051E0000010024010B588B004001422002103A86A
:1051F00002F0AFFC1E4B22689A4201D008B010BDED
:105200001C4B996980208000014399619A69024092
:105210000192019A5A69802189020A435A615B69A5
:105220000B400293029BE0230393DD3B0493713810
:10523000FF3803A9C00501F02BFC0F480F4B03609A
:105240000023436083608022C2608032026180223A
:10525000D200426120228261C36101F013FD002867
:1052600003D1054B23635C62C8E7FCF77FFDF8E7D9
:105270000024014000100240FC030020080002400E
:1052800010B588B004001422002103A802F061FCCC
:105290002268134B9A4201D008B010BD114C6269CC
:1052A0008021C9020A43626163690B400193019B3B
:1052B000C0239B00039312230493113B0593032205
:1052C0000692079303A9084801F0E2FBE2698021F6
:1052D00089030A43E261E3690B400293029BDBE727
:1052E00000540040001002400004004810B58AB08D
:1052F00004001422002105A802F02BFC2368404A78
:10530000934204D03F4A93423DD00AB010BD3E4B79
:1053100099698020C001014399619A690240019214
:10532000019A5A698021C9020A435A615B690B409C
:105330000293029BC0230593BE3B0693013308935F
:1053400005A9324801F0A4FB3148324B0360002329
:10535000436083608022C260036143618361C361F3
:1053600001F090FC00280BD1294B63675C6200229E
:1053700000211B2001F088FD1B2001F0B5FDC4E7D2
:10538000FCF7F4FCF0E7204BD9698022920211432C
:10539000D961D96911400391039959691143596140
:1053A0005B691A400492049B0C2305930A3B069305
:1053B00001330893023B0993902005A9C00501F031
:1053C00067FB1548154B0360002343608360802210
:1053D000C260036143618361C36101F053FC002833
:1053E0000BD10D4B63675C62002200211C2001F091
:1053F0004BFD1C2001F078FD87E7FCF7B7FCF0E7D8
:105400000038014000440040001002400004004801
:105410004004002030000240840400205800024074
:1054200070B5040003689A68520725D59A68520738
:1054300006D59A68920703D49A6810210A439A60A5
:1054400000F0F0FE050023689B685B0712D500F0B2
:10545000E9FE401B0228F6D923689B685B07F2D55A
:10546000A36B10221343A363E36B0F3A1343E3636D
:10547000012002E0002000E0002070BD70B50400B3
:105480000268916803230B40012B01D0002070BDFE
:105490001368DB0702D4D3681B0431D59168052358
:1054A0000B40012B09D0A36B10221343A363E36BC2
:1054B0000F3A1343E3630120E9E7936802210B43AA
:1054C0009360236803221A6000F0ACFE0500236895
:1054D0009B68DB0712D500F0A5FE401B0228F6D919
:1054E00023689B68DB07F2D5A36B10221343A363E9
:1054F000E36B0F3A1343E3630120C8E70020C6E7DC
:105500000020C4E730B583B0040000230193036892
:10551000996803220A40012A14D09968224A11424C
:1055200018D19A6801210A439A60204B18682049D3
:10553000FAF7F4FD0190019B002B15D0019B013B74
:105540000193F8E71A68D2072BD4DA681204E4D57D
:10555000002024E0A36B10221343A363E36B0F3AF4
:105560001343E36301201AE000F05CFE05002368AA
:105570001B68DB0712D400F055FE401B0228F6D949
:1055800023681B68DB07F2D4A36B10221343A363C9
:10559000E36B0F3A1343E363012000E0002003B004
:1055A00030BD0020FBE7C0461700008078000020D7
:1055B00040420F0070B5041E00D1B4E0836B002B95
:1055C00000D180E0A36BDB0600D5A6E022689168DD
:1055D000042005000D40084200D09EE0A16B534B13
:1055E00019400633FF331943A163916801330B401F
:1055F000012B6ED0D36818218B43A1680B43D36075
:10560000226813699B009B0861680B431361226841
:10561000D36847490B40D360237E9B03627ED2034D
:105620001343A17E4A031343A26A012A58D0802261
:1056300052011343E26813432269022A52D02B43DA
:105640002422A25C52001343E27E012A4CD0E2697C
:10565000C221FF318A4202D0216A0A4313432168E2
:10566000CA681A43CA60E26A802149058A420DD09D
:10567000012A0BD0022A09D0032A07D0042A05D018
:10568000052A03D0062A01D0072A0AD120684169D9
:1056900007229143416120684169E56A2A400A4333
:1056A00042612268D26823490A409A422BD0A36BF8
:1056B00012229343023A1343A363E36B0F3A13435B
:1056C000E36301202EE0C36334228354FFF78AFD95
:1056D00078E71368DB079AD4D3681B0497D489E76B
:1056E0002A00A6E70425AAE7002903D18022520256
:1056F0001343ACE7A26B20210A43A263E26B1F397C
:105700000A43E263A3E70023E363A36B032293430B
:10571000023A1343A363002004E0A36B1022134357
:10572000A363012070BD0120FCE7C046FDFEFFFF22
:105730001902FEFFE7FF3F83F8B504000D001600D5
:1057400003689B685B073ED43423C35C012B3CD0C9
:1057500034230122C254437E012B04D0FFF7D2FE32
:10576000071E2ED100E00027A36B194A1A408023A0
:105770005B001343A3630023E3633422A354236B2E
:10578000144A9A62236B144ADA62236B134A1A632F
:1057900023681C221A602268536810210B4353604F
:1057A0002268D3680F390B43D3602168403133003E
:1057B0002A00206B01F08EFA2268936804210B43C3
:1057C00093603800F8BD0227FBE70227F9E7C046DF
:1057D000FEF0FFFF65580008D7580008E35800089E
:1057E00070B504003423C35C012B36D0342301226E
:1057F000C254FFF715FE051E1DD12268D368012192
:105800008B43D360206B2123C35C022B18D022680A
:10581000536810218B435360002D1AD12000FFF7ED
:105820002DFE0500002D06D1A36B0D4A1340043256
:10583000FF321343A36334230022E254280070BDD7
:1058400001F083FA051EE2D0A36B40221343A36349
:10585000DDE72000FFF712FEE4E70225EEE7C04691
:10586000FEFEFFFF10B5436A9A6B502111422BD107
:10587000996B802292000A439A631A68D068C0210B
:105880000901084213D1997E002910D11168090736
:105890000DD5916849070ED451680C2081435160A1
:1058A0009A6B0B490A400431FF310A439A6318008E
:1058B000FCF742FC10BD9A6B20210A439A63DA6B15
:1058C0001F390A43DA63F2E71B6B1B6B9847F1E75A
:1058D000FEFEFFFF704710B5406AFFF7FBFF10BDEB
:1058E000704710B5406A836B402213438363C36BD8
:1058F0003C3A1343C363FFF7F3FF10BD30B583B0E9
:105900000400002301933433C35C012B00D181E0F8
:1059100034230122C25403689A68520770D43E4A65
:105920004868904253D09A6A01200D68A84002430B
:105930009A62E36A8022520593421ED0012B1CD04A
:10594000022B1AD0032B18D0042B16D0052B14D001
:10595000062B12D0072B10D0226850690723034072
:105960008868984209D0506907239843506120689D
:1059700042698D682B40134343610B681A00103A4B
:10598000012A01D9002040E0244A1268102B09D0D6
:105990008023DB031343214A13600B68102B04D0D0
:1059A000002032E080231B04F4E71D4B18681D49DA
:1059B000FAF7B4FB83001B185B00019302E0019B24
:1059C000013B0193019B002BF9D100201DE09A6A55
:1059D00001200D68A84082439A620B681A00103AB1
:1059E000012A01D9002010E00C4A1268102B05D0C2
:1059F0000D4B1340094A1360002006E00B4BF8E7FB
:105A0000836B202213438363012034230022E2545A
:105A100003B030BD0220FBE7011000000827014061
:105A20007800002040420F00FFFFBFFFFFFF7FFF15
:105A300070B582B0041E00D12EE20368DB0726D5C4
:105A4000AE4B5A680C231340042B18D0AB4B5A684A
:105A50000C231340082B0ED06368012B3CD0002B85
:105A600051D1A64B1A68A6490A401A601A68A5497E
:105A70000A401A6036E0A14B5B68DB03ECD59F4B14
:105A80001B689B0303D56368002B00D107E22368E2
:105A90009B0772D5994B5B680C221A425DD0974BDD
:105AA0005A680C231340082B53D0E368002B00D115
:105AB00085E0924A136801210B43136000F0B2FBAA
:105AC00005008E4B1B689B0770D400F0ABFB401B9E
:105AD0000228F6D90320E0E1884A116880235B029E
