:020000040800F2
:1000000000500020C93C0008311400083D140008CD
:1000100043140008491400084F14000800000000B1
:10002000000000000000000000000000551400085F
:1000300061140008000000006D1400087914000825
:10004000113D0008113D0008113D0008113D000858
:10005000113D0008113D0008113D0008113D000848
:10006000113D0008113D0008113D0008113D000838
:10007000113D000841150008113D00085515000804
:1000800069150008113D0008113D0008113D0008E8
:10009000113D0008113D0008113D0008113D000808
:1000A000113D0008113D0008113D0008113D0008F8
:1000B000113D0008113D0008113D0008113D0008E8
:1000C000113D0008113D0008113D0008113D0008D8
:1000D000113D00087D15000895150008AD150008B4
:1000E000113D0008113D0008113D0008000000000E
:1000F0000000000000000000000000000000000000
:0C01000000000000000000005FF808F1A3
:10010C0010B5054C237833B9044B13B10448AFF345
:10011C0000800123237010BDF800002000000000B7
:10012C00A846000808B5034B1BB103490348AFF3BD
:10013C00008008BD00000000FC000020A84600085C
:10014C00034613F8012B002AFBD1181A013870470B
:10015C0080B500AF01F03AFD00F00FF800F02CF97B
:10016C0000F0FCF800F07CF800F0A4F800F0CCF8FB
:10017C0000F048F800F0AEFEFCE780B590B000AFA0
:10018C0007F1180328220021184603F0EFFD3B1D50
:10019C0000221A605A609A60DA601A610123BB610E
:1001AC004FF48033FB6100233B620123BB620223CB
:1001BC007B634FF48033BB634FF4E013FB6307F1B5
:1001CC001803184601F064FD0346002B01D000F023
:1001DC006DF90F237B600223BB600023FB604FF49F
:1001EC0080633B6100237B613B1D0221184601F0BB
:1001FC00D1FF0346002B01D000F058F900BF403767
:10020C00BD4680BD80B500AF124B134A1A60114B2E
:10021C00124A5A600F4B00229A600E4B0022DA6091
:10022C000C4B4FF480421A610A4B00225A61094B65
:10023C0000229A61074B0022DA61064B00221A62F7
:10024C00044801F07FFB0346002B01D000F02EF98F
:10025C0000BF80BD1401002000540040A0860100A6
:10026C0080B500AF114B124A1A60104B4FF4E132BB
:10027C005A600E4B00229A600C4B0022DA600B4B3A
:10028C0000221A61094B0C225A61084B00229A6118
:10029C00064B0022DA61054802F073FE0346002B80
:1002AC0001D000F003F900BF80BD00BF6801002041
:1002BC000038014080B500AF114B124A1A60104B48
:1002CC004FF4E1325A600E4B00229A600C4B002224
:1002DC00DA600B4B00221A61094B0C225A61084B55
:1002EC0000229A61064B0022DA61054802F049FEB1
:1002FC000346002B01D000F0D9F800BF80BD00BF31
:10030C00AC0100200044004080B500AF114B124AF4
:10031C001A60104B4FF4E1325A600E4B00229A6077
:10032C000C4B0022DA600B4B00221A61094B0C2299
:10033C005A61084B00229A61064B0022DA6105488B
:10034C0002F01FFE0346002B01D000F0AFF800BFF7
:10035C0080BD00BFF00100200048004080B582B095
:10036C0000AF144B5B69134A43F001035361114B0B
:10037C005B6903F001037B607B68002200210D2088
:10038C0002F0C9FD0D2002F0E2FD002200210F2039
:10039C0002F0C1FD0F2002F0DAFD00220021102036
:1003AC0002F0B9FD102002F0D2FD00BF0837BD46A7
:1003BC0080BD00BF0010024080B588B000AF07F1CF
:1003CC00100300221A605A609A60DA60344B9B6901
:1003DC00334A43F010039361314B9B6903F01003D4
:1003EC00FB60FB682E4B9B692D4A43F02003936105
:1003FC002B4B9B6903F02003BB60BB68284B9B69AC
:10040C00274A43F004039361254B9B6903F00403D3
:10041C007B607B68224B9B69214A43F00803936104
:10042C001F4B9B6903F008033B603B6800220221D1
:10043C001C4802F0E2F9012241F202011A4802F0D2
:10044C00DCF94FF400533B6100237B610123BB615A
:10045C0007F110031946134802F034F802233B61EC
:10046C0001237B610023BB610223FB6107F11003B5
:10047C0019460C4802F026F841F202033B610123B5
:10048C007B610023BB610223FB6107F1100319465A
:10049C00054802F017F800BF2037BD4680BD00BFED
:1004AC000010024000100140000C014080B400AF6D
:1004BC0000BFBD4680BC704780B485B000AF78608B
:1004CC000023FB6002E0FB680133FB60FA687B6889
:1004DC009A42F8D300BF00BF1437BD4680BC7047AA
:1004EC0080B582B000AF786006E07B68013B7B6032
:1004FC0040F2E630FFF7E0FF7B68002BF5D100BF40
:10050C0000BF0837BD4680BD80B483B000AF002368
:10051C007B6007E0094A7B68134400221A707B68F1
:10052C0001337B607B68C72BF4DD054B00221A601E
:10053C0000BF0C37BD4680BC704700BF8403002051
:10054C005004002080B487B000AFF860B960134647
:10055C00FB710023FB750EE0FB685A1CFA601A78DD
:10056C00BB68591CB9601B789A4201D0002307E084
:10057C00FB7D0133FB75FA7DFB799A42ECD30123A9
:10058C0018461C37BD4680BC704780B586B000AF9E
:10059C00F8607A601A460B46FB721346BB72002356
:1005AC00FB750023FB750FE0FB7DFA681344BA7AE8
:1005BC0079681846FFF7C6FF0346012B01D10123CA
:1005CC0009E0FB7D0133FB75FA7ABB7AD21AFB7D0D
:1005DC009A42E9DA002318461837BD4680BD80B42C
:1005EC0087B000AFF8600B467A60FB720023FB7596
:1005FC000023BB7500237B7500237B752CE0FB6807
:10060C001B781B09FB75FB681B7803F00F03BB758C
:10061C00FB680133FB60FB7D092B03D9FB7D373372
:10062C00FB7502E0FB7D3033FB75BB7D092B03D9D9
:10063C00BB7D3733BB7502E0BB7D3033BB757B684C
:10064C005A1C7A60FA7D1A707B685A1C7A60BA7DE3
:10065C001A707B7D01337B757A7DFB7A9A42CED3FF
:10066C0000BF00BF1C37BD4680BC704780B582B050
:10067C0000AF0346FB7101220221144802F0BDF8C1
:10068C0001220221124802F0B8F8FB79002B0ED09F
:10069C00002202210E4802F0B0F84FF4FA70FFF776
:1006AC001FFF00220221094802F0A7F809E00122ED
:1006BC000221064802F0A1F801220221044802F0AE
:1006CC009CF800BF0837BD4680BD00BF000C014040
:1006DC000010014080B500AF154B1B68154A136024
:1006EC00154B1B68134A5360144B1B68114A9360DB
:1006FC00104B1B685A080F4B5B689B081A440D4B38
:10070C009B68DB0813440E4A13600D4B41F2B15247
:10071C001A600B4B1B681A460A490B4803F02EFB58
:10072C00094800F043FD064B1B68184680BD00BF0E
:10073C00E8F7FF1F00030020ECF7FF1FF0F7FF1F87
:10074C000C030020304800085006002080B582B011
:10075C0000AF0023BB800023FB71794B1B68002B7F
:10076C0000F0BC80774B784A1A60774B46221A60AF
:10077C00FFF7B0FF0346744A5360744B1B685A1C56
:10078C0072490A60704A9360714B1B781A466E4B23
:10079C00DA606F4B5B781A466B4B1A616C4B9B782B
:1007AC001A46694B5A616A4BDB781A46664B9A615A
:1007BC00684B1A78644B1A77664B5A78624B5A77A7
:1007CC00644B9A78604B9A77624BDA785E4BDA77A7
:1007DC005D4B1B7F012B02D1FB790133FB715A4B13
:1007EC005B7F012B02D1FB790133FB71564B9B7F55
:1007FC00012B02D1FB790133FB71534BDB7F012BB6
:10080C0002D1FB790133FB714F4AFB7982F820301E
:10081C00514B1A784C4B83F82120504B1A784A4B89
:10082C0083F822204E4B1B78002B18D1454B1B68AC
:10083C0023330A224B49184603F08AFA414B1B68B2
:10084C002D330A224849184603F082FA3D4B1B68A7
:10085C0037330B224549184603F07AFA02E0404B35
:10086C0000221A70374B1B682D334149184603F090
:10087C0085FA344B1B6837333E49184603F07EFA31
:10088C00314B0022A3F842204FF0FF32A3F8442052
:10089C000023BB80BB88384A13443849184603F000
:1008AC006DFABB880F33BB80BB88334A13441A469E
:1008BC0046212548FFF793FEBB888C33BB80BB8851
:1008CC002D4A13442E49184603F058FA4FF4487336
:1008DC009E2229492B4802F0A1FB2CE02A4B08222E
:1008EC001A60FFF7F7FE0346274A53600023BB80CC
:1008FC00BB88214A13442149184603F03FFABB88B0
:10090C000F33BB80BB881C4A13441A4608211E486F
:10091C00FFF765FEBB881033BB80BB88164A1344B7
:10092C001749184603F02AFA4FF448732222124949
:10093C00144802F073FB00BF0837BD4680BD00BFF2
:10094C0034050020B40400206C040020680600204C
:10095C002C0500203C0500203F06002068040020E8
:10096C00100300203C480008484800085448000880
:10097C00604800086C4800084005002078480008D2
:10098C008C480008AC010020B804002080B582B06F
:10099C0000AF0023FB80794B1B78012B1DD1784BCA
:1009AC001B68322B19D9754B00221A70744B00221C
:1009BC001A60744B1B68744A1360734B1B68734A40
:1009CC000021D1546F4B00221A60714B01221A7016
:1009DC0064227049704802F0B3FB704B1B78052BF6
:1009EC0004D86F4B4FF448721A6019E06D4B1B78AA
:1009FC00002B03D16A4B4FF448721A606A4B1B7878
:100A0C00012B0DD1694B1B78012B09D1674B0022AF
:100A1C001A70654B00221A70614B4FF448721A60C1
:100A2C00634B1B881A465E4B1B689A4240F212823B
:100A3C005F4B00221A805F4B1B68322B17D9574B28
:100A4C0000221A705B4B00221A605B4B00221A705A
:100A5C005A4B00221A605A4B00221A700120FFF7E1
:100A6C0005FE584B00221A70574800F09FFB544B60
:100A7C001B780A2B12D9494B1B780C2B0ED0474BE9
:100A8C0000221A704E4B00221A704A4B00221A6038
:100A9C004C4B00221A704C4800F088FB474B1B68EB
:100AAC00032B0FD93D4B1B780C2B0BD13B4B062248
:100ABC001A70434B00221A70404B00221A603E4BB6
:100ACC0000221A70354B1B780C2B00F2B581304B81
:100ADC001B78002B40F08480304B1B780B2B02D101
:100AEC00FFF734FE10E02D4B1B781A46374B53F8AA
:100AFC002230184600F0E8FB284B1B781A46334B83
:100B0C0053F82230324A1360244B1B780C2B04D13F
:100B1C002A4B1B680133294A1360264B1B6801338F
:100B2C00244A13601D4B1B781A463B46294918462C
:100B3C0003F024F93B46184600F038FB174B1B78A2
:100B4C000B2B03D1244800F031FB08E0134B1B782E
:100B5C001A461E4B53F82230184600F027FB0F4B59
:100B6C001B78062B02D11D4800F020FB144B1B7880
:100B7C000133DAB2124B1A706CE100BF580400203A
:100B8C00540400204C040020500400208403002056
:100B9C00590400201C030020AC0100205A04002042
:100BAC0000000020650600203305002064060020AC
:100BBC001803002060040020680400206404002056
:100BCC005C0400204006002094480008040000202B
:100BDC0048060020A448000840050020AC48000846
:100BEC009E4B00221A709E4B00221A609D4B1B7864
:100BFC001A463B469C49184603F0C0F83B4618463B
:100C0C0000F0D4FA994800F0D1FA964B1B78022BDD
:100C1C000ED1974B1B6C1946944803F0CFF8034642
:100C2C00002B05D0934800F0C1FA934B00221A70A8
:100C3C008C4B1B780C2B0CD18F4B01221A708F4BC9
:100C4C001B78002B02D08E4B01221A708D4800F0BD
:100C5C00ADFA844B1B781A46854B53F82230194653
:100C6C00824803F0ABF80346002B38D17D4B1B7840
:100C7C00022B06D184497D4803F0A0F80346002BD3
:100C8C002DD1784B1B78022B06D18049774803F085
:100C9C0095F80346002B22D1724B1B78022B06D100
:100CAC007B49724803F08AF80346002B17D16D4B31
:100CBC001B780B2B06D177496C4803F07FF8034661
:100CCC00002B0CD1674B1B780B2B40F0A880724982
:100CDC00664803F073F80346002B00F0A080614BCC
:100CEC001B780C2B40F0848005236C4A14216C4833
:100CFC00FFF74BFC0346002B08D000224FF4805129
:100D0C00684801F07AFD684B01221A700523674A86
:100D1C0014216348FFF739FC0346002B05D0012250
:100D2C004FF480515F4801F068FD0023FB800CE01C
:100D3C00FB884E4AD35C382B04D8FB884B4AD35CD7
:100D4C00302B08D8FB880133FB80FA88584B1B6882
:100D5C009A42EDD300E000BF554B1B68122B47D9CC
:100D6C00FB880933414AD35C012B0BD1514B002238
:100D7C001A70504B00225A704E4B00229A704D4BF9
:100D8C000022DA70FB880A33384AD35C002B02D17C
:100D9C00494B00221A70FB880A33344AD35C012B6E
:100DAC0002D1454B01221A70FB880B332F4AD35CBE
:100DBC00012B02D1414B00221A70FB880C332B4AB9
:100DCC00D35C012B02D13D4B00225A70FB880D33B2
:100DDC00264AD35C012B02D1384B00229A70FB8837
:100DEC000E33224AD35C012B02D1344B0022DA7031
:100DFC00334B01221A701B4B1B780B2B05D1314B3B
:100E0C0001221A70304B00221A60164B1B780133EA
:100E1C00DAB2144B1A702D4B00221A7009E0114BE8
:100E2C001B780B2B05D1274B00221A700D4B062279
:100E3C001A70FFF769FB0DE0224B1B78002B03D0D7
:100E4C00084B0B221A7002E0064B06221A70204B3C
:100E5C0000221A7000BF0837BD4680BD590400201F
:100E6C00600400205A040020A448000884030020D9
:100E7C0044000020B848000840060020320500203D
:100E8C0064060020C8480008D4480008D848000868
:100E9C00DC480008E0480008E8480008EC48000876
:100EAC0098030020000C014011030020F4480008B6
:100EBC00500400203C0500203F0600202C0500209B
:100ECC00100300205B040020640400205C0400205C
:100EDC004106002080B582B000AF7C4B1B78002B04
:100EEC0026D17A4B01221A700120FFF7BFFB00F0CC
:100EFC0021F900F071F900F0FDF9754800F056F990
:100F0C00744B00221A70734B00225A70714B0022E2
:100F1C009A70704B0022DA706F4B00221A706E4B75
:100F2C0000225A706C4B00229A706B4B0022DA70C4
:100F3C00FFF72CFD694B1B78012B10D14FF400519E
:100F4C00674801F043FC0346002B08D1654B012296
:100F5C001A70654B00221A705F4B01221A704FF405
:100F6C0000515F4801F032FC03461A465B4B1A7085
:100F7C005C4B1B78012B50D15C4B0A221A70594BDD
:100F8C0000221A705A4B1B78012B10D1594B1B782D
:100F9C00002B0CD1574B01221A70574B0B221A7095
:100FAC00564B1B689BB201339AB2554B1A804E4B71
:100FBC001B78012B03D1534800F0F8F816E04A4B8C
:100FCC001B78022B03D1504800F0F0F80EE0464B92
:100FDC001B78032B03D14D4800F0E8F806E0424B98
:100FEC001B78042B02D14A4800F0E0F8494B1B78DF
:100FFC00002B12D1474B01221A70474B01221A7059
:10100C00464B01221A703D4B4FF448721A60002275
:10101C004FF48051424801F0F0FB424B1B6842F206
:10102C00107293421DD901224FF480513C4801F0BB
:10103C00E4FB3D4800F0BAF8364B00221A702D4BF9
:10104C0000221A70374B00221A60234B00221A70B0
:10105C00214B00225A70204B00229A701E4B00220A
:10106C00DA70324B1B8841F26F72934229D92F4BA5
:10107C0000221A8000237B600DE0164A7B68134423
:10108C001B780133D9B2134A7B6813440A461A7091
:10109C007B6801337B607B68032BEEDD134B1B7885
:1010AC00013BDAB2114B1A70104B1B78002B08D194
:1010BC001F4800F07BF801224FF48051184801F0D2
:1010CC009CFB00BF0837BD4680BD00BF6C060020EE
:1010DC00FC4800082C0500203C0500204C06002094
:1010EC00001001403105002038050020300500209B
:1010FC0040060020410600205A0400200000002079
:10110C001803002008490008144900082049000869
:10111C002C4900083205002033050020650600200C
:10112C00000C014034050020384900083A05002025
:10113C004049000880B500AF64220749074801F018
:10114C00FFFF064B1B68DA68044B1B6842F0100269
:10115C00DA6000BF80BD00BF70060020680100206F
:10116C0080B582B000AF0F4B1B681B6803F01003F7
:10117C00102B12D100237B600A4B1B681B687B6011
:10118C00084B1B685B687B607B68064802F008F8BC
:10119C0064220549034801F0D3FF00BF0837BD4660
:1011AC0080BD00BF680100207006002080B584B0AF
:1011BC0000AF78607868FEF7C3FF0346FB81FA89BD
:1011CC0064237968034801F029FF00BF1037BD463E
:1011DC0080BD00BF6801002080B500AF64220749C4
:1011EC00074801F0ADFF064B1B68DA68044B1B681F
:1011FC0042F01002DA6000BF80BD00BF1C0300206B
:10120C00AC01002080B582B000AF284B1B681B6876
:10121C0003F01003102B44D100233B60234B1B68BD
:10122C001B683B60214B1B685B683B603B681F483D
:10123C0001F0B6FF1D4B9B6B1B685B689BB2C3F147
:10124C0064039AB21A4B1A80184801F0A9FF194B83
:10125C0001221A70184B00221A60184B1B68FB8075
:10126C00164B1B68FB800BE0FA88144B1B68D21AD8
:10127C00FB881349895C134AD154FB880133FB80EA
:10128C00FA880B4B1B8819460C4B1B680B449A4273
:10129C00EAD3074B1B881A46084B1B681344074AB2
:1012AC00136000BF0837BD4680BD00BFAC010020F5
:1012BC008003002058040020540400204C0400201B
:1012CC001C0300208403002080B584B000AF78603C
:1012DC007868FEF735FF0346FB81FA896423796849
:1012EC00034801F09BFE00BF1037BD4680BD00BF18
:1012FC00AC01002080B500AF074B1B68DA68064BC9
:10130C001B6842F01002DA6064220449024801F0C2
:10131C0017FF00BF80BD00BFF0010020C0040020FB
:10132C0080B582B000AF0023FB8000237B71364B6D
:10133C001B681B6803F01003102B61D100233B606A
:10134C00314B1B681B683B602F4B1B685B683B6019
:10135C003B682D4801F024FF00237B712A4B9B6BCB
:10136C001B685B689BB2C3F164039AB2274B1A806B
:10137C000023FB800EE0FB88254AD35C392B06D872
:10138C00FB88234AD35C2F2B01D901237B71FB886B
:10139C000133FB801D4B1B88FA889A42EBD3002348
:1013AC00FB8006E0FB881A4A0021D154FB880133EC
:1013BC00FB80164B1B88FA889A42F3D37B79012B5E
:1013CC0006D1144B1B780133DAB2124B1A7002E0BF
:1013DC00104B00221A700F4B1B78032B0BD90D4BA3
:1013EC0000221A700C4B01221A700C4B00221A703E
:1013FC000B4B01221A7064220549034801F0A0FE30
:10140C0000BF0837BD4680BDF00100202405002038
:10141C00C0040020D406002031050020380500202F
:10142C003C05002080B400AF00BFBD4680BC7047B7
:10143C0080B400AFFEE780B400AFFEE780B400AF2D
:10144C00FEE780B400AFFEE780B400AF00BFBD463E
:10145C0080BC704780B400AF00BFBD4680BC7047F5
:10146C0080B400AF00BFBD4680BC704780B500AFF4
:10147C0000F0F2FB244B1B8801339AB2224B1A80EA
:10148C00224B1B8801339AB2204B1A80204B1B68CD
:10149C0001331F4A13601F4B1B6801331D4A136035
:1014AC001D4B1B78012B04D11C4B1B6801331B4AB1
:1014BC0013601A4B1B6847F2305293420BD9174BEF
:1014CC0000221A60144B00221A7001224FF4805132
:1014DC00134801F092F9134B1B78012B04D1124BDA
:1014EC001B680133104A1360104B1B78012B05D17C
:1014FC000F4B1B6801330E4A136002E00C4B0022A9
:10150C001A6000BF80BD00BF180300203A05002000
:10151C00280500204406002011030020140300209D
:10152C00000C014032050020340500205804002036
:10153C005404002080B500AF024801F0E1FA00BF6E
:10154C0080BD00BFBC02002080B500AF024801F096
:10155C00D7FA00BF80BD00BF3402002080B500AFB9
:10156C00024801F0CDFA00BF80BD00BF7802002018
:10157C0080B500AF034801F06FFEFFF7F1FD00BF2F
:10158C0080BD00BF6801002080B500AF034801F0AA
:10159C0063FEFFF737FE00BF80BD00BFAC0100202B
:1015AC0080B500AF034801F057FEFFF7B9FE00BF4E
:1015BC0080BD00BFF001002080B485B000AF154B9A
:1015CC009B69144A43F001039361124B9B6903F02E
:1015DC000103BB60BB680F4BDB690E4A43F08053C1
:1015EC00D3610C4BDB6903F080537B607B680A4B47
:1015FC005B68FB60FB6823F0E063FB60FB6843F017
:10160C000073FB60044AFB68536000BF1437BD468F
:10161C0080BC7047001002400000014080B588B0CB
:10162C0000AF786007F1100300221A605A609A60CC
:10163C00DA607B681B68154A934223D1144B9B6973
:10164C00134A43F008039361114B9B6903F00803A1
:10165C00FB60FB68C0233B6112237B610323FB61AE
:10166C0007F1100319460B4800F02CFF084BDB69FF
:10167C00074A43F40013D361054BDB6903F40013F1
:10168C00BB60BB6800BF2037BD4680BD0054004026
:10169C0000100240000C014080B58CB000AF7860A7
:1016AC0007F1200300221A605A609A60DA607B68A6
:1016BC001B68984A934260D1974B9B69964A43F4B6
:1016CC0080439361944B9B6903F48043FB61FB69FA
:1016DC00914B9B69904A43F0040393618E4B9B6939
:1016EC0003F00403BB61BB694FF400733B6202233C
:1016FC007B620323FB6207F120031946874800F045
:10170C00E1FE4FF480633B6200237B620023BB62EB
:10171C0007F120031946814800F0D4FE804B814A22
:10172C001A607F4B00225A607D4B00229A607C4BE2
:10173C008022DA607A4B00221A61794B00225A61BE
:10174C00774B00229A61764B0022DA61744801F0E3
:10175C006DF80346002B01D0FEF7A8FE7B68704A9B
:10176C009A636F4A7B68536200220021252001F0A6
:10177C00D2FB252001F0EBFBC8E07B681B686A4AB2
:10178C0093425ED1644BDB69634A43F40033D3610B
:10179C00614BDB6903F400337B617B695E4B9B69B6
:1017AC005D4A43F0040393615B4B9B6903F00403B4
:1017BC003B613B6904233B6202237B620323FB6294
:1017CC0007F120031946554800F07CFE08233B62C4
:1017DC0000237B620023BB6207F1200319464F48AC
:1017EC0000F070FE514B524A1A60504B00225A6066
:1017FC004E4B00229A604D4B8022DA604B4B0022FC
:10180C001A614A4B00225A61484B00229A61474B9D
:10181C000022DA61454801F009F80346002B01D09B
:10182C00FEF744FE7B68414A9A63404A7B685362E8
:10183C0000220021262001F06EFB262001F087FB00
:10184C0064E07B681B683B4A93425FD1324BDB6997
:10185C00314A43F48023D3612F4BDB6903F480239B
:10186C00FB60FB682C4B9B692B4A43F0080393618C
:10187C00294B9B6903F00803BB60BB684FF4806382
:10188C003B6202237B620323FB6207F120031946B0
:10189C00294800F017FE4FF400633B6200237B6283
:1018AC000023BB6207F120031946234800F00AFE0F
:1018BC00224B234A1A60214B00225A601F4B0022F4
:1018CC009A601E4B8022DA601C4B00221A611B4B63
:1018DC0000225A61194B00229A61184B0022DA61DE
:1018EC00164800F0A3FF0346002B01D0FEF7DEFDE7
:1018FC007B68124A9A63114A7B685362002200216A
:10190C00272001F008FB272001F021FB00BF303716
:10191C00BD4680BD00380140001002400008014067
:10192C00340200205800024000440040780200209D
:10193C006C00024000480040000C0140BC0200203A
:10194C003000024080B584B000AF78607B68002B1B
:10195C0001D101232BE17B6893F83D30DBB2002BE6
:10196C0006D17B68002283F83C207868FFF756FE8E
:10197C007B68242283F83D207B681B681A687B688F
:10198C001B6822F001021A607B681B681A687B686E
:10199C001B6842F400421A607B681B681A687B68FB
:1019AC001B6822F400421A6000F046FDF8607B6868
:1019BC005B68814A934207D8FB68804A934294BF84
:1019CC0001230023DBB206E0FB687D4A934294BFFF
:1019DC0001230023DBB2002B01D00123E7E0FB68DD
:1019EC00784AA2FB03239B0CBB607B681B685B687B
:1019FC0023F03F017B681B68BA680A435A607B6816
:101A0C001B681B6A23F03F017B685B686A4A934240
:101A1C0002D8BB68013309E0BB684FF4967202FB35
:101A2C0003F3694AA2FB03239B0901337A6812680A
:101A3C000B4313627B681B68DB6923F44F4222F073
:101A4C00FF027B685B685C498B4219D8FB68591EA6
:101A5C007B685B685B00B1FBF3F3591C40F6FC73CD
:101A6C000B40002B0AD0FB68591E7B685B685B003F
:101A7C00B1FBF3F30133C3F30B0351E004234FE049
:101A8C007B689B68002B11D1FB68581E7B685968DA
:101A9C000B465B000B44B0FBF3F30133C3F30B03B6
:101AAC00002B0CBF01230023DBB212E0FB68581E95
:101ABC007B6859680B469B000B4499000B44B0FBA8
:101ACC00F3F30133C3F30B03002B0CBF01230023EF
:101ADC00DBB2002B01D0012322E07B689B68002B3A
:101AEC000ED1FB68581E7B6859680B465B000B4493
:101AFC00B0FBF3F30133C3F30B0343F400430FE0E8
:101B0C00FB68581E7B6859680B469B000B44990078
:101B1C000B44B0FBF3F30133C3F30B0343F4404327
:101B2C00796809681343CB617B681B681B6823F0D9
:101B3C00C0017B68DA697B681B6A1A437B681B6887
:101B4C000A431A607B681B689B6823F4034323F0E9
:101B5C00FF037A6811697A68D26811437A6812684F
:101B6C000B4393607B681B68DB6823F0FF017B6889
:101B7C005A697B689B691A437B681B680A43DA6065
:101B8C007B681B681A687B681B6842F001021A604C
:101B9C007B6800221A647B68202283F83D207B68D6
:101BAC0000221A637B68002283F83E20002318462B
:101BBC001037BD4680BD00BFA08601007F841E008B
:101BCC00FF083D0083DE1B43D34D621080B500AF90
:101BDC00084B1B68074A43F010031360032001F005
:101BEC008FF9002000F008F8FFF7E6FC00231846F8
:101BFC0080BD00BF0020024080B582B000AF78608D
:101C0C00124B1A68124B1B7819464FF47A73B3FBBC
:101C1C00F1F3B2FBF3F3184601F0A7F90346002BDE
:101C2C0001D001230EE07B680F2B0AD800227968C3
:101C3C004FF0FF3001F06FF9064A7B681360002308
:101C4C0000E0012318460837BD4680BD90000020F7
:101C5C008C0000208800002080B400AF054B1B785E
:101C6C001A46054B1B681344034A136000BFBD465C
:101C7C0080BC70478C000020D806002080B400AFD8
:101C8C00024B1B681846BD4680BC7047D806002026
:101C9C0080B586B000AF78607B68002B01D1012342
:101CAC0072E27B681B6803F00103002B00F0878055
:101CBC00924B5B6803F00C03042B0CD08F4B5B68CE
:101CCC0003F00C03082B12D18C4B5B6803F48033AC
:101CDC00B3F5803F0BD1894B1B6803F40033002B09
:101CEC006CD07B685B68002B68D101234CE27B686D
:101CFC005B68B3F5803F06D1804B1B687F4A43F489
:101D0C00803313602EE07B685B68002B0CD17B4B1F
:101D1C001B687A4A23F480331360784B1B68774A2C
:101D2C0023F4802313601DE07B685B68B3F5A02F60
:101D3C000CD1724B1B68714A43F4802313606F4BB8
:101D4C001B686E4A43F4803313600BE06B4B1B68CB
:101D5C006A4A23F480331360684B1B68674A23F488
:101D6C00802313607B685B68002B13D0FFF786FF22
:101D7C00386108E0FFF782FF02463B69D31A642BF7
:101D8C0001D9032300E25D4B1B6803F40033002BE5
:101D9C00F0D014E0FFF772FF386108E0FFF76EFF38
:101DAC0002463B69D31A642B01D90323ECE1534B54
:101DBC001B6803F40033002BF0D100E000BF7B68FC
:101DCC001B6803F00203002B63D04C4B5B6803F0E1
:101DDC000C03002B0BD0494B5B6803F00C03082B56
:101DEC001CD1464B5B6803F48033002B16D1434B5C
:101DFC001B6803F00203002B05D07B681B69012BC9
:101E0C0001D00123C0E13D4B1B6823F0F8027B6835
:101E1C005B69DB00394913430B603AE07B681B6953
:101E2C00002B20D0364B01221A60FFF727FF3861B8
:101E3C0008E0FFF723FF02463B69D31A022B01D9B6
:101E4C000323A1E12D4B1B6803F00203002BF0D000
:101E5C002A4B1B6823F0F8027B685B69DB0027497F
:101E6C0013430B6015E0264B00221A60FFF706FFA8
:101E7C00386108E0FFF702FF02463B69D31A022BD8
:101E8C0001D9032380E11D4B1B6803F00203002BD7
:101E9C00F0D17B681B6803F00803002B3AD07B68F9
:101EAC009B69002B19D0174B01221A60FFF7E6FE35
:101EBC00386108E0FFF7E2FE02463B69D31A022BB9
:101ECC0001D9032360E10D4B5B6A03F00203002B85
:101EDC00F0D0012000F0D8FA1CE00A4B00221A6066
:101EEC00FFF7CCFE38610FE0FFF7C8FE02463B69F6
:101EFC00D31A022B08D9032346E100BF001002407D
:101F0C000000424280044242924B5B6A03F002039F
:101F1C00002BE9D17B681B6803F00403002B00F055
:101F2C00A6800023FB758B4BDB6903F08053002BE1
:101F3C000DD1884BDB69874A43F08053D361854BC5
:101F4C00DB6903F08053BB60BB680123FB75824BDC
:101F5C001B6803F48073002B18D17F4B1B687E4ADF
:101F6C0043F480731360FFF789FE386108E0FFF7D4
:101F7C0085FE02463B69D31A642B01D9032303E186
:101F8C00754B1B6803F48073002BF0D07B68DB6807
:101F9C00012B06D16F4B1B6A6E4A43F0010313628F
:101FAC002DE07B68DB68002B0CD16A4B1B6A694AFD
:101FBC0023F001031362674B1B6A664A23F0040388
:101FCC0013621CE07B68DB68052B0CD1614B1B6A30
:101FDC00604A43F0040313625E4B1B6A5D4A43F094
:101FEC00010313620BE05B4B1B6A5A4A23F001039B
:101FFC001362584B1B6A574A23F0040313627B6825
:10200C00DB68002B15D0FFF739FE38610AE0FFF7CB
:10201C0035FE02463B69D31A41F28832934201D90C
:10202C000323B1E04B4B1B6A03F00203002BEED0F1
:10203C0014E0FFF723FE38610AE0FFF71FFE0246AB
:10204C003B69D31A41F28832934201D903239BE0B6
:10205C00404B1B6A03F00203002BEED1FB7D012BDE
:10206C0005D13C4BDB693B4A23F08053D3617B6841
:10207C00DB69002B00F08780364B5B6803F00C03A8
:10208C00082B61D07B68DB69022B46D1334B0022D5
:10209C001A60FFF7F3FD386108E0FFF7EFFD024629
:1020AC003B69D31A022B01D903236DE0294B1B6822
:1020BC0003F00073002BF0D17B681B6AB3F5803FF3
:1020CC0008D1244B5B6823F400327B689B68214960
:1020DC0013434B601F4B5B6823F474127B68196AC3
:1020EC007B685B6A0B431B4913434B601B4B012200
:1020FC001A60FFF7C3FD386108E0FFF7BFFD024629
:10210C003B69D31A022B01D903233DE0114B1B6809
:10211C0003F00073002BF0D035E0104B00221A6056
:10212C00FFF7ACFD386108E0FFF7A8FD02463B69FC
:10213C00D31A022B01D9032326E0064B1B6803F0AC
:10214C000073002BF0D11EE07B68DB69012B07D1FB
:10215C00012319E000100240007000406000424270
:10216C000B4B5B68FB60FB6803F480327B681B6A7B
:10217C009A4206D1FB6803F470127B685B6A9A4240
:10218C0001D0012300E0002318461837BD4680BD5E
:10219C000010024080B584B000AF786039607B6875
:1021AC00002B01D10123D0E06A4B1B6803F007031D
:1021BC003A689A4210D9674B1B6823F007026549AD
:1021CC003B6813430B60634B1B6803F007033A68CF
:1021DC009A4201D00123B8E07B681B6803F002032C
:1021EC00002B20D07B681B6803F00403002B05D068
:1021FC00594B5B68584A43F4E06353607B681B6837
:10220C0003F00803002B05D0534B5B68524A43F490
:10221C0060535360504B5B6823F0F0027B689B6803
:10222C004D4913434B607B681B6803F00103002B83
:10223C0040D07B685B68012B07D1474B1B6803F4CC
:10224C000033002B15D101237FE07B685B68022BE8
:10225C0007D1414B1B6803F00073002B09D10123FC
:10226C0073E03D4B1B6803F00203002B01D10123EB
:10227C006BE0394B5B6823F003027B685B68364983
:10228C0013434B60FFF7FAFCF8600AE0FFF7F6FC2B
:10229C000246FB68D31A41F28832934201D90323D8
:1022AC0053E02D4B5B6803F00C027B685B689B0072
:1022BC009A42EBD1274B1B6803F007033A689A420A
:1022CC0010D2244B1B6823F0070222493B681343AE
:1022DC000B60204B1B6803F007033A689A4201D04D
:1022EC00012332E07B681B6803F00403002B08D049
:1022FC00194B5B6823F4E0627B68DB681649134377
:10230C004B607B681B6803F00803002B09D0124B51
:10231C005B6823F460527B681B69DB000E49134336
:10232C004B6000F021F802460B4B5B681B0903F075
:10233C000F030A49CB5C22FA03F3094A1360094BD9
:10234C001B681846FFF758FC002318461037BD468B
:10235C0080BD00BF00200240001002405C49000814
:10236C00900000208800002090B48AB000AF294B68
:10237C003C1D0FCB84E80F0040F201233B8000236F
:10238C00FB610023BB6100237B6200237B61002384
:10239C003B62214B5B68FB61FB6903F00C03042B74
:1023AC0002D0082B03D02BE01C4B3B622BE0FB69CB
:1023BC009B0C03F00F0328333B4413F8243C7B6144
:1023CC00FB6903F48033002B12D0134B5B685B0C5E
:1023DC0003F0010328333B4413F8283CBB617B69B1
:1023EC000E4A03FB02F2BB69B2FBF3F37B6204E01F
:1023FC007B690B4A02FB03F37B627B6A3B6202E064
:10240C00064B3B6200BF3B6A18462837BD4690BC62
:10241C00704700BF4C4900080010024000127A00BF
:10242C0000093D0080B400AF024B1B681846BD4646
:10243C0080BC70479000002080B500AFFFF7F2FF22
:10244C000246054B5B681B0A03F007030349CB5C90
:10245C0022FA03F3184680BD001002406C490008B4
:10246C0080B500AFFFF7DEFF0246054B5B68DB0A69
:10247C0003F007030349CB5C22FA03F3184680BD33
:10248C00001002406C49000880B485B000AF786041
:10249C000A4B1B680A4AA2FB03235B0A7A6802FBFD
:1024AC0003F3FB6000BFFB685A1EFA60002BF9D1E6
:1024BC0000BF00BF1437BD4680BC704790000020A1
:1024CC00D34D621080B48BB000AF786039600023BC
:1024DC007B6200233B6269E101227B6A02FA03F30F
:1024EC00FB613B681B68FA691340BB61BA69FB6905
:1024FC009A4240F058813B685B689A4A93425ED09E
:10250C00984A934275D8984A934258D0964A934227
:10251C006FD8964A934252D0944A934269D8944ABF
:10252C0093424CD0924A934263D8924A934246D0FB
:10253C00904A93425DD8122B2AD8122B59D801A25B
:10254C0052F823F0CB250008A5250008B725000874
:10255C00F9250008FF250008FF250008FF250008C5
:10256C00FF250008FF250008FF250008FF250008AF
:10257C00FF250008FF250008FF250008FF2500089F
:10258C00FF250008FF250008AD250008C12500081F
:10259C00794A934213D02CE03B68DB683B6229E01C
:1025AC003B68DB6804333B6224E03B68DB68083340
:1025BC003B621FE03B68DB680C333B621AE03B6814
:1025CC009B68002B02D104233B6213E03B689B68A1
:1025DC00012B05D108233B627B68FA691A6109E07B
:1025EC0008233B627B68FA695A6103E000233B6273
:1025FC0000E000BFBB69FF2B01D87B6801E07B6862
:10260C0004337B61BB69FF2B02D87B6A9B0002E021
:10261C007B6A083B9B003B617B691A680F213B6915
:10262C0001FA03F3DB431A40396A3B6901FA03F3FD
:10263C001A437B691A603B685B6803F08053002B7C
:10264C0000F0B1804D4B9B694C4A43F00103936100
:10265C004A4B9B6903F00103BB60BB68484A7B6A29
:10266C009B08023352F82330FB607B6A03F00303B0
:10267C009B000F2202FA03F3DB43FA681340FB6062
:10268C007B68404A934213D07B683F4A93420DD0FB
:10269C007B683E4A934207D07B683D4A934201D106
:1026AC00032306E0042304E0022302E0012300E0FC
:1026BC0000237A6A02F0030292009340FA681343F3
:1026CC00FB602F497B6A9B080233FA6841F8232090
:1026DC003B685B6803F48033002B06D02D4B1A68E3
:1026EC002C49BB6913430B6006E02A4B1A68BB6983
:1026FC00DB43284913400B603B685B6803F40033F1
:10270C00002B06D0234B5A682249BB6913434B60FC
:10271C0006E0204B5A68BB69DB431E4913404B60F3
:10272C003B685B6803F48013002B06D0194B9A6846
:10273C001849BB6913438B6006E0164B9A68BB695A
:10274C00DB43144913408B603B685B6803F4001354
:10275C00002B21D00F4BDA680E49BB691343CB60B9
:10276C0021E000BF000032100000311000002210E8
:10277C000000211000001210000011100010024087
:10278C000000014000080140000C01400010014015
:10279C0000140140000401400B4BDA68BB69DB43B9
:1027AC0009491340CB607B6A01337B623B681A6832
:1027BC007B6A22FA03F3002B7FF48EAE00BF00BFBE
:1027CC002C37BD4680BC70470004014080B485B0F6
:1027DC0000AF78600B467B807B689A687B881340DF
:1027EC00002B02D00123FB7301E00023FB73FB7B66
:1027FC0018461437BD4680BC704780B483B000AF18
:10280C0078600B467B8013467B707B78002B03D063
:10281C007A887B681A6103E07B881A047B681A61EA
:10282C0000BF0C37BD4680BC7047000080B485B03B
:10283C0000AF78600023FB607B68002B01D1012383
:10284C0043E07B681B681A46224B1344224AA2FBC6
:10285C0003231B099A007B681A647B681F4ADA639E
:10286C007B68022283F821207B681B681B68FB6055
:10287C00FB6823F47F5323F03003FB607B685A68BA
:10288C007B689B681A437B68DB681A437B681B690F
:10289C001A437B685B691A437B689B691A437B68A4
:1028AC00DB691343FA681343FB607B681B68FA68A7
:1028BC001A607B6800229A637B68012283F82120CE
:1028CC007B68002283F82020002318461437BD466D
:1028DC0080BC7047F8FFFDBFCDCCCCCC00000240D3
:1028EC0080B586B000AFF860B9607A603B600023B9
:1028FC00FB75FB6893F82030012B01D102234AE0D1
:10290C00FB68012283F82020FB6893F82130012B0F
:10291C003AD1FB68022283F82120FB6800229A63DB
:10292C00FB681B681A68FB681B6822F001021A60BE
:10293C003B687A68B968F86800F0E8F9FB68DB6A0C
:10294C00002B08D0FB681B681A68FB681B6842F0F8
:10295C000E021A600FE0FB681B681A68FB681B68A4
:10296C0022F004021A60FB681B681A68FB681B687B
:10297C0042F00A021A60FB681B681A68FB681B6845
:10298C0042F001021A6005E0FB68002283F8202067
:10299C000223FB75FB7D18461837BD4680BD80B4FD
:1029AC0085B000AF78600023FB737B6893F821300F
:1029BC00022B08D07B6804229A637B68002283F880
:1029CC002020012320E07B681B681A687B681B6849
:1029DC0022F00E021A607B681B681A687B681B6801
:1029EC0022F001021A607B681A6C7B68DB6B012198
:1029FC0001FA02F25A607B68012283F821207B687D
:102A0C00002283F82020FB7B18461437BD4680BC7F
:102A1C007047000080B584B000AF78600023FB7372
:102A2C007B6893F82130022B05D07B6804229A63D3
:102A3C000123FB7351E07B681B681A687B681B6879
:102A4C0022F00E021A607B681B681A687B681B6890
:102A5C0022F001021A607B681B68224A934229D03B
:102A6C007B681B68204A934222D07B681B681F4AF4
:102A7C0093421AD07B681B681D4A934212D07B6824
:102A8C001B681C4A93420AD07B681B681A4A934203
:102A9C0002D14FF480130EE04FF080730BE04FF433
:102AAC00803308E04FF4805305E04FF4807302E06C
:102ABC00102300E00123114A53607B68012283F844
:102ACC0021207B68002283F820207B685B6B002B25
:102ADC0003D07B685B6B78689847FB7B1846103794
:102AEC00BD4680BD080002401C0002403000024080
:102AFC0044000240580002406C00024000000240BA
:102B0C0080B584B000AF78607B68DB6B1B68FB60C2
:102B1C007B681B681B68BB607B681B6C04229A403B
:102B2C00FB681340002B4FD0BB6803F00403002B51
:102B3C004AD07B681B681B6803F02003002B07D16D
:102B4C007B681B681A687B681B6822F004021A6099
:102B5C007B681B68664A934229D07B681B68654A70
:102B6C00934222D07B681B68634A93421AD07B68DD
:102B7C001B68624A934212D07B681B68604A93427E
:102B8C000AD07B681B685F4A934202D14FF48003E2
:102B9C000EE04FF080630BE04FF4802308E04FF41D
:102BAC00804305E04FF4806302E0402300E00423FF
:102BBC00554A53607B68DB6A002B00F094807B687D
:102BCC00DB6A786898478EE07B681B6C02229A401F
:102BDC00FB681340002B56D0BB6803F00203002B9C
:102BEC0051D07B681B681B6803F02003002B0BD1B2
:102BFC007B681B681A687B681B6822F00A021A60E3
:102C0C007B68012283F821207B681B68384A934239
:102C1C0029D07B681B68374A934222D07B681B689B
:102C2C00354A93421AD07B681B68344A934212D0BF
:102C3C007B681B68324A93420AD07B681B68314A16
:102C4C00934202D14FF400130EE04FF000730BE0EF
:102C5C004FF4003308E04FF4005305E04FF40073D9
:102C6C0002E0202300E00223274A53607B68002205
:102C7C0083F820207B689B6A002B34D07B689B6A8E
:102C8C00786898472FE07B681B6C08229A40FB6899
:102C9C001340002B28D0BB6803F00803002B23D073
:102CAC007B681B681A687B681B6822F00E021A602E
:102CBC007B681A6C7B68DB6B012101FA02F25A60AB
:102CCC007B6801229A637B68012283F821207B6850
:102CDC00002283F820207B681B6B002B04D07B68C0
:102CEC001B6B7868984700BF00BF1037BD4680BD8E
:102CFC00080002401C000240300002404400024028
:102D0C00580002406C0002400000024080B485B0C4
:102D1C0000AFF860B9607A603B60FB681A6CFB68C6
:102D2C00DB6B012101FA02F25A60FB681B683A68FE
:102D3C005A60FB685B68102B08D1FB681B687A68CB
:102D4C009A60FB681B68BA68DA6007E0FB681B686E
:102D5C00BA689A60FB681B687A68DA6000BF14373F
:102D6C00BD4680BC7047000080B485B000AF786071
:102D7C007B6803F00703FB600C4BDB68BB60BA6835
:102D8C004FF6FF031340BB60FB681A02BB6813438A
:102D9C0043F0BF6343F40033BB60044ABB68D360A9
:102DAC0000BF1437BD4680BC704700BF00ED00E08B
:102DBC0080B400AF044BDB681B0A03F00703184612
:102DCC00BD4680BC704700BF00ED00E080B483B00E
:102DDC0000AF0346FB7197F90730002B0BDBFB7937
:102DEC0003F01F02064997F907305B09012000FA2E
:102DFC0002F241F8232000BF0C37BD4680BC70475F
:102E0C0000E100E080B483B000AF03463960FB7191
:102E1C0097F90730002B0ADB3B68DAB20C4997F9BB
:102E2C0007301201D2B20B4483F800230AE03B684E
:102E3C00DAB20849FB7903F00F03043B1201D2B25A
:102E4C000B441A7600BF0C37BD4680BC704700BFE0
:102E5C0000E100E000ED00E080B489B000AFF86064
:102E6C00B9607A60FB6803F00703FB61FB69C3F18F
:102E7C000703042B28BF0423BB61FB690433062B17
:102E8C0002D9FB69033B00E000237B614FF0FF326A
:102E9C00BB6902FA03F3DA43BB681A407B699A40B8
:102EAC004FF0FF317B6901FA03F3D9437B680B4088
:102EBC00134318462437BD4680BC704780B582B09A
:102ECC0000AF78607B68013BB3F1807F01D30123B5
:102EDC000FE00A4A7B68013B53600F214FF0FF3033
:102EEC00FFF790FF054B00229A60044B07221A60F3
:102EFC00002318460837BD4680BD00BF10E000E037
:102F0C0080B582B000AF78607868FFF72DFF00BF06
:102F1C000837BD4680BD80B586B000AF0346B960AA
:102F2C007A60FB7300237B61FFF742FF78617A685C
:102F3C00B9687869FFF790FF024697F90F30114690
:102F4C001846FFF75FFF00BF1837BD4680BD80B540
:102F5C0082B000AF0346FB7197F907301846FFF7B4
:102F6C0035FF00BF0837BD4680BD80B582B000AFCD
:102F7C0078607868FFF7A2FF034618460837BD460D
:102F8C0080BD80B582B000AF78607B68002B01D12A
:102F9C0001233FE07B6893F83D30DBB2002B06D178
:102FAC007B68002283F83C207868FEF775FB7B6811
:102FBC00242283F83D207B681B68DA687B681B68D9
:102FCC0022F40052DA60786800F0E4FD7B681B683C
:102FDC001A697B681B6822F490421A617B681B6833
:102FEC005A697B681B6822F02A025A617B681B684D
:102FFC00DA687B681B6842F40052DA607B68002256
:10300C001A647B68202283F83D207B68202283F899
:10301C003E20002318460837BD4680BD80B58AB0D7
:10302C0002AFF860B9603B601346FB8000237B6104
:10303C00FB6893F83D30DBB2202B7CD1BB68002BB6
:10304C0002D0FB88002B01D1012375E0FB6893F8BB
:10305C003C30012B01D102236EE0FB68012283F886
:10306C003C20FB6800221A64FB68212283F83D2077
:10307C00FEF704FE7861FB68FA889A84FB68FA888C
:10308C00DA84FB689B68B3F5805F08D1FB681B6929
:10309C00002B04D10023FB61BB68BB6103E0BB6860
:1030AC00FB610023BB61FB68002283F83C202AE013
:1030BC003B6800937B6900228021F86800F055FB87
:1030CC000346002B01D0032336E0FB69002B0BD108
:1030DC00BB691B881A46FB681B68C2F308025A605E
:1030EC00BB690233BB6107E0FB691A78FB681B689C
:1030FC005A60FB690133FB61FB68DB8C9BB2013BC3
:10310C009AB2FB68DA84FB68DB8C9BB2002BCFD1C4
:10311C003B6800937B6900224021F86800F025FB96
:10312C000346002B01D0032306E0FB68202283F822
:10313C003D20002300E0022318462037BD4680BD09
:10314C0080B584B000AFF860B9601346FB80FB68B3
:10315C0093F83E30DBB2202B1DD1BB68002B02D084
:10316C00FB88002B01D1012316E0FB6893F83C305F
:10317C00012B01D102230FE0FB68012283F83C20D4
:10318C00FB6800221A63FB881A46B968F86800F0DD
:10319C0037FB034600E0022318461037BD4680BDBE
:1031AC0080B584B000AF78600023FB607B681B683F
:1031BC005B6903F08003002B14BF01230023DBB2F7
:1031CC00FB607B6893F83D30DBB2212B16D1FB689A
:1031DC00002B13D07B681B685A697B681B6822F034
:1031EC0080025A617B685B6B002B04D07B685B6B45
:1031FC001846FFF7D4FB786800F066FB7B681B6809
:10320C005B6903F04003002B14BF01230023DBB2E6
:10321C00FB607B6893F83E30DBB2222B16D1FB6847
:10322C00002B13D07B681B685A697B681B6822F0E3
:10323C0040025A617B689B6B002B04D07B689B6BB4
:10324C001846FFF7ACFB786800F053FB00231846D8
:10325C001037BD4680BD000080B58AB000AF7860E5
:10326C007B681B681B687B627B681B68DB683B6246
:10327C007B681B685B69FB610023BB6100237B617E
:10328C007B6A03F00F03BB61BB69002B0DD17B6A1A
:10329C0003F02003002B08D03B6A03F02003002B23
:1032AC0003D0786800F0CCFB7BE1BB69002B00F00D
:1032BC00B180FB6903F00103002B05D13B6A03F4D9
:1032CC009073002B00F0A6807B6A03F00103002BA7
:1032DC000AD03B6A03F48073002B05D07B681B6C0F
:1032EC0043F001027B681A647B6A03F00403002B31
:1032FC000AD0FB6903F00103002B05D07B681B6C23
:10330C0043F002027B681A647B6A03F00203002B11
:10331C000AD0FB6903F00103002B05D07B681B6C02
:10332C0043F004027B681A647B6A03F00803002BE9
:10333C000FD03B6A03F02003002B04D1FB6903F090
:10334C000103002B05D07B681B6C43F008027B68E3
:10335C001A647B681B6C002B00F01E817B6A03F0E7
:10336C002003002B07D03B6A03F02003002B02D074
:10337C00786800F065FB7B681B685B6903F04003B1
:10338C00002B14BF01230023DBB27B617B681B6C19
:10339C0003F00803002B02D17B69002B31D0786835
:1033AC0000F0A7FA7B681B685B6903F04003002BF5
:1033BC0023D07B681B685A697B681B6822F040022B
:1033CC005A617B689B6B002B13D07B689B6B764A96
:1033DC005A637B689B6B1846FFF71CFB0346002B5C
:1033EC0016D07B689B6B5B6B7A68926B1046984728
:1033FC000EE0786800F0F5F80AE0786800F0F1F873
:10340C0006E0786800F0EDF87B6800221A64C3E0EF
:10341C0000BFC1E07B681B6B012B40F0A1807B6A75
:10342C0003F01003002B00F09B803B6A03F01003A9
:10343C00002B00F095800023FB607B681B681B68E9
:10344C00FB607B681B685B68FB60FB687B681B68C8
:10345C005B6903F04003002B4ED07B689B6B1B68B1
:10346C005B683B823B8A002B00F098807B689B8DCD
:10347C003A8A9A4280F092807B683A8ADA857B6835
:10348C009B6B9B69202B2BD07B681B68DA687B6855
:10349C001B6822F48072DA607B681B685A697B684F
:1034AC001B6822F001025A617B681B685A697B68B1
:1034BC001B6822F040025A617B68202283F83E2070
:1034CC007B6800221A637B681B68DA687B681B6860
:1034DC0022F01002DA607B689B6B1846FFF75FFAEC
:1034EC007B689A8D7B68DB8D9BB2D31A9BB2194695
:1034FC00786800F07FF851E07B689A8D7B68DB8DF3
:10350C009BB2D31A7B827B68DB8D9BB2002B47D09E
:10351C007B8A002B44D07B681B68DA687B681B684D
:10352C0022F49072DA607B681B685A697B681B68AE
:10353C0022F001025A617B68202283F83E207B68CE
:10354C0000221A637B681B68DA687B681B6822F0B0
:10355C001002DA607B8A1946786800F04BF81FE09D
:10356C007B6A03F08003002B08D03B6A03F08003D6
:10357C00002B03D0786800F0FCF912E07B6A03F0B2
:10358C004003002B0DD03B6A03F04003002B08D006
:10359C00786800F03DFA04E000BF02E000BF00E0F4
:1035AC0000BF2837BD4680BD5739000880B483B0B2
:1035BC0000AF786000BF0C37BD4680BC704780B44C
:1035CC0083B000AF786000BF0C37BD4680BC70473D
:1035DC0080B483B000AF786000BF0C37BD4680BCB0
:1035EC00704780B483B000AF786000BF0C37BD4625
:1035FC0080BC704780B483B000AF78600B467B8092
:10360C0000BF0C37BD4680BC704780B584B000AF9E
:10361C0078607B685B6AFB607B681B681B6803F0E7
:10362C002003002B2AD1FB680022DA85FB681B687B
:10363C00DA68FB681B6822F48072DA60FB681B682E
:10364C005A69FB681B6822F001025A61FB681B680F
:10365C005A69FB681B6822F040025A61FB68202201
:10366C0083F83E20FB681B6B012B07D1FB681B68A2
:10367C00DA68FB681B6822F01002DA60FB681B6BCF
:10368C00012B06D1FB689B8D1946F868FFF7B2FF3A
:10369C0002E0F868FFF793FF00BF1037BD4680BD0E
:1036AC0080B584B000AF78607B685B6AFB60FB68B8
:1036BC001B6B012B08D1FB689B8D5B089BB21946D9
:1036CC00F868FFF797FF02E0F868FFF781FF00BF8B
:1036DC001037BD4680BD80B584B000AF7860002344
:1036EC00FB607B685B6ABB60BB681B685B6903F053
:1036FC008003002B14BF01230023DBB2FB60BB68EB
:10370C0093F83D30DBB2212B08D1FB68002B05D0A0
:10371C00BB680022DA84B86800F0D6F8BB681B6876
:10372C005B6903F04003002B14BF01230023DBB2C1
:10373C00FB60BB6893F83E30DBB2222B08D1FB68F0
:10374C00002B05D0BB680022DA85B86800F0D1F8F0
:10375C00BB681B6C43F01002BB681A64B868FFF7B7
:10376C0040FF00BF1037BD4680BD80B584B000AFB0
:10377C00F860B9603B601346FB712CE0BB69B3F198
:10378C00FF3F28D0BB69002B07D0FEF777FA024623
:10379C003B68D31ABA699A421DD2FB681B68DA6877
:1037AC00FB681B6822F4D072DA60FB681B685A69EC
:1037BC00FB681B6822F001025A61FB68202283F827
:1037CC003D20FB68202283F83E20FB68002283F812
:1037DC003C2003230FE0FB681B681A68BB6813408E
:1037EC00BA689A420CBF01230023DBB21A46FB795C
:1037FC009A42C3D0002318461037BD4680BD000046
:10380C0080B586B000AFF860B9601346FB80BA682B
:10381C00FB689A62FB68FA889A85FB6800221A6436
:10382C00FB68222283F83E20FB689B6B234A9A623A
:10383C00FB689B6B224ADA62FB689B6B214A1A631A
:10384C00FB689B6B00225A6307F108037B61FB68E2
:10385C00986BFB681B68043319467B691A68FB88F4
:10386C00FFF73EF800233B61FB681B681B683B615C
:10387C00FB681B685B683B613B69FB68002283F853
:10388C003C20FB681B68DA68FB681B6842F480729A
:10389C00DA60FB681B685A69FB681B6842F001021E
:1038AC005A61FB681B685A69FB681B6842F040024E
:1038BC005A61002318461837BD4680BD17360008DC
:1038CC00AD360008E336000880B483B000AF7860F2
:1038DC007B681B68DA687B681B6822F0C002DA60C0
:1038EC007B68202283F83D2000BF0C37BD4680BC8E
:1038FC00704780B483B000AF78607B681B68DA686F
:10390C007B681B6822F49072DA607B681B685A69CA
:10391C007B681B6822F001025A617B681B6B012BD0
:10392C0007D17B681B68DA687B681B6822F0100281
:10393C00DA607B68202283F83E207B6800221A63C1
:10394C0000BF0C37BD4680BC704780B584B000AF5B
:10395C0078607B685B6AFB60FB680022DA85FB6839
:10396C000022DA84F868FFF73CFE00BF1037BD4632
:10397C0080BD80B485B000AF78607B6893F83D3033
:10398C00DBB2212B3ED17B689B68B3F5805F14D1F1
:10399C007B681B69002B10D17B681B6AFB60FB6882
:1039AC001B881A467B681B68C2F308025A607B6846
:1039BC001B6A9A1C7B681A6208E07B681B6A591C9C
:1039CC007A6811621A787B681B685A607B68DB8C9A
:1039DC009BB2013B9BB27A681946D184002B0FD164
:1039EC007B681B68DA687B681B6822F08002DA60EF
:1039FC007B681B68DA687B681B6842F04002DA60FF
:103A0C00002300E0022318461437BD4680BC7047E3
:103A1C0080B582B000AF78607B681B68DA687B6821
:103A2C001B6822F04002DA607B68202283F83D207C
:103A3C007868FFF7BBFD002318460837BD4680BDEC
:103A4C0080B586B000AF78607B6893F83E30DBB20F
:103A5C00222B40F099807B689B68B3F5805F17D16F
:103A6C007B681B69002B13D100237B617B689B6AED
:103A7C003B617B681B685B689BB2C3F308039AB21B
:103A8C003B691A807B689B6A9A1C7B689A6226E069
:103A9C007B689B6A7B6100233B617B689B68B3F509
:103AAC00805F07D07B689B68002B0AD17B681B6901
:103ABC00002B06D17B681B685B68DAB27B691A70D5
:103ACC0008E07B681B685B68DBB203F07F03DAB24B
:103ADC007B691A707B689B6A5A1C7B689A627B684C
:103AEC00DB8D9BB2013B9BB27A681946D185002BCA
:103AFC0048D17B681B68DA687B681B6822F020025F
:103B0C00DA607B681B68DA687B681B6822F4807259
:103B1C00DA607B681B685A697B681B6822F00102BB
:103B2C005A617B68202283F83E207B681B6B012B3B
:103B3C0023D17B6800221A637B681B68DA687B6878
:103B4C001B6822F01002DA607B681B681B6803F0AC
:103B5C001003102B0AD10023FB607B681B681B68C9
:103B6C00FB607B681B685B68FB60FB687B689B8DFC
:103B7C0019467868FFF73EFD02E07868FFF71FFDF5
:103B8C00002302E0002300E0022318461837BD464C
:103B9C0080BD000080B584B000AF78607B681B6886
:103BAC001B6923F440517B68DA687B681B680A4305
:103BBC001A617B689A687B681B691A437B685B692E
:103BCC001343BB607B681B68DB6823F4B05323F0A2
:103BDC000C037A681268B9680B43D3607B681B6866
:103BEC005B6923F440717B689A697B681B680A43A4
:103BFC005A617B681B682C4A934203D1FEF730FC58
:103C0C00F86002E0FEF718FCF860FA6813469B00B7
:103C1C0013449A001A447B685B689B00B2FBF3F375
:103C2C00224AA2FB03235B091901FA6813469B0085
:103C3C0013449A001A447B685B689B00B2FBF3F256
:103C4C001A4BA3FB02035B09642000FB03F3D31A9A
:103C5C001B013233154AA2FB03235B0903F0F0036B
:103C6C001944FA6813469B0013449A001A447B6863
:103C7C005B689B00B2FBF3F20C4BA3FB02035B09EA
:103C8C00642000FB03F3D31A1B013233074AA2FB57
:103C9C0003235B0903F00F027B681B680A449A60DC
:103CAC0000BF1037BD4680BD003801401F85EB5169
:103CBC0080B400AF00BFBD4680BC70470C480D49B6
:103CCC000D4A002302E0D458C4500433C4188C426B
:103CDC00F9D30A4A0A4C002301E013600432A242D1
:103CEC00FBD3FFF7E5FF00F00FF8FCF731FA704754
:103CFC0000000020F8000020B0490008F800002067
:103D0C00F0060020FEE7000070B500260C4D0D4CAF
:103D1C00641BA410A64209D100F0C0FC00260A4D79
:103D2C000A4C641BA410A64205D170BD55F8043B87
:103D3C0098470136EEE755F8043B98470136F2E711
:103D4C00A8490008A8490008A8490008AC4900087F
:103D5C000A44914200F1FF3300D1704710B511F8BD
:103D6C00014B914203F8014FF9D110BD03460244B7
:103D7C00934200D1704703F8011BF9E70EB46FF0C2
:103D8C00004100B59CB01DAB0290069007910491C8
:103D9C000848094953F8042B0591006802A90193BE
:103DAC0000F07EF80022029B1A701CB05DF804EB48
:103DBC0003B07047940000200802FFFF0A7870B52A
:103DCC006AB970BD9A4209D10C46054614F8013FF8
:103DDC00002BF6D015F8016F9E42F7D00130037816
:103DEC00002BEFD11846ECE72DE9F0478E688246A0
:103DFC009E420C4690461F4638D88A8912F4906F22
:103E0C0032D0256809690133A5EB010965694B447A
:103E1C0005EB450505EBD5756D109D4238BF1D466C
:103E2C00530531D5294600F061FB064650B90C23E9
:103E3C004FF0FF30CAF80030A38943F04003A38150
:103E4C00BDE8F0874A462169FFF782FFA38923F476
:103E5C00906343F08003A38126614E4426603E4666
:103E6C006561A5EB0905A560BE4200D93E46324608
:103E7C004146206800F0B8FAA36800209B1BA360A1
:103E8C00236833442360DBE72A4600F0A3FB064695
:103E9C000028E1D15046216900F0C0FAC7E70000C4
:103EAC002DE9F04F98468B8907461B060D461446A4
:103EBC009DB00ED50B6963B9402100F017FB28604B
:103ECC00286120B90C233B604FF0FF30D1E0402338
:103EDC006B610023099320238DF8293030234FF098
:103EEC000109CDF80C80DFF8A4818DF82A30234627
:103EFC009A4613F8012B0AB1252AF9D1BAEB040B17
:103F0C000BD05B46224629463846FFF76DFF013041
:103F1C0000F0AA80099A5A4409929AF80030002BB2
:103F2C0000F0A28000234FF0FF32CDE905230AF107
:103F3C00010A049307938DF853301A9354460522C3
:103F4C0014F8011B514800F041FA049AD8B9D00674
:103F5C0044BF20238DF85330110744BF2B238DF819
:103F6C0053309AF800302A2B15D0544600204FF0CD
:103F7C000A0C079A214611F8013B303B092B4ED90C
:103F8C00B0B1079214E0A0EB080309FA03F3134352
:103F9C00A2460493D2E7039B191D1B680391002BC7
:103FAC00BBBF5B4242F0020207930793B8BF049277
:103FBC0023782E2B0CD163782A2B35D1039B02341A
:103FCC001A1D1B680392002BB8BF4FF0FF330593EB
:103FDC00DFF8BCA003225046217800F0F7F940B17D
:103FEC004023A0EB0A0003FA00F0049B01340343C6
:103FFC00049314F8011B062226488DF8281000F0B3
:10400C00E5F9002838D0244B1BBB039B073323F066
:10401C00070308330393099B3344099367E70C4662
:10402C0001200CFB0232A5E700234FF00A0C1946C5
:10403C0001340593204610F8012B303A092A03D994
:10404C00002BC5D00591C3E7044601230CFB0121CD
:10405C00F0E703AB00932A463846104B04A9AFF3A4
:10406C000080421C0646D6D1AB895B063FF52CAFCF
:10407C0009981DB0BDE8F08F03AB00932A46384673
:10408C00064B04A900F07CF8EBE700BF744900086C
:10409C007A4900087E49000800000000F53D000840
:1040AC002DE9F047164699468A680B6907469342F4
:1040BC00B8BF1346336091F843200C46DDF82080DE
:1040CC000AB1013333602368990642BF3368023367
:1040DC003360256815F0060506D104F1190AE3686A
:1040EC0032689B1AAB4228DC94F84320131E2268DA
:1040FC0018BF012392062DD44946384604F14302D9
:10410C00C047013020D02368E56803F00603042B78
:10411C0018BF002532684FF00006A36808BFAD1A1F
:10412C00226908BF25EAE5759342C4BF9B1AED18B6
:10413C001A34B5421AD1002008E0012352464946F0
:10414C003846C047013003D14FF0FF30BDE8F0874F
:10415C000135C4E73020E11881F843005A1C94F86B
:10416C0045102244023382F84310C5E7012322464E
:10417C0049463846C0470130E6D00136D9E7000041
:10418C002DE9FF470F7E9146782F80460C469A46C4
:10419C000C9D01F1430207D8622F0AD8002F00F0C2
:1041AC00D980582F00F0A48004F1420584F84270A5
:1041BC003AE0A7F16303152BF6D801A151F823F0CF
:1041CC002542000839420008B5410008B5410008F5
:1041DC00B5410008B541000839420008B541000856
:1041EC00B5410008B5410008B54100084743000837
:1041FC006942000829430008B5410008B541000890
:10420C0069430008B541000869420008B54100083F
:10421C00B5410008314300082B681A1D1B682A6041
:10422C0004F1420584F842300123A4E02068296897
:10423C00060601F104030AD50E682B60002E03DA82
:10424C002D23764284F843300A235E4819E00E6829
:10425C0010F0400F2B6018BF36B2EFE72B682068C8
:10426C00191D2960010601D51E6802E04606FBD522
:10427C001E886F2F0CBF08230A235248002184F894
:10428C0043106568002DA8BF2168A560A4BF21F06C
:10429C00040121600EB9002D4DD01546B6FBF3F18B
:1042AC0003FB1167C75D05F8017D3746BB420E461F
:1042BC00F4D9082B0BD12368DE0708D52369616874
:1042CC009942DEBF302305F8013C05F1FF35521B46
:1042DC0022614B4621464046CDF800A003AAFFF7C9
:1042EC00DFFE01304CD14FF0FF3004B0BDE8F08759
:1042FC00344881F845702968236851F8046B2960AB
:10430C001D0614D5DF0744BF43F0200323601EB9FC
:10431C00236823F0200323601023AFE7236843F0C6
:10432C00200323607823284884F84530E3E75906B6
:10433C0048BFB6B2E6E71546BBE72B682668181DE2
:10434C006169286035061B6801D5196002E07006AA
:10435C00FBD51980002315462361BAE72B68002191
:10436C001A1D2A601D686268284600F02FF808B1F3
:10437C00401B606063682361002384F84330A8E726
:10438C002A46494640462369D0470130ABD02368C2
:10439C009B0713D4E068039B9842B8BF1846A4E768
:1043AC000123324649464046D04701309BD0013567
:1043BC00E36803995B1AAB42F2DCEBE7002504F1EE
:1043CC001906F5E78549000896490008034610B51B
:1043DC00C9B202449342184601D1002003E004788C
:1043EC0001338C42F6D110BD884210B501EB0204AA
:1043FC0002D98442234607D8431EA14208D011F8A3
:10440C00012B03F8012FF8E7014602448A4200D140
:10441C0010BD13F8014D02F8014DF7E738B505460C
:10442C00002940D051F8043C0C1F002BB8BFE418F5
:10443C0000F010F91C4A136833B963601460284605
:10444C00BDE8384000F00CB9A34208D92068211807
:10445C008B4201BF19685B6809182160EDE71A46A9
:10446C005B680BB1A342FAD911685018A0420BD16A
:10447C0020680144501883421160E0D118685B68D1
:10448C00014411605360DAE702D90C232B60D6E7A4
:10449C00206821188B4201BF19685B6809182160DC
:1044AC0063605460CBE738BDDC06002070B50E4E5F
:1044BC000C463168054611B900F0BCF83060214655
:1044CC00284600F0B7F8431C0AD0C41C24F003049F
:1044DC00A04207D0211A284600F0ACF8013001D1D7
:1044EC004FF0FF34204670BDE00600202DE9F0416E
:1044FC00CD1C25F0030508350C2D38BF0C25002DDF
:10450C00074601DBA94205D90C2300263B60304647
:10451C00BDE8F0812E4E00F09DF833681C4634BB8C
:10452C0029463846FFF7C2FF431C04464DD1346878
:10453C002646002E40D123683146384604EB03084A
:10454C0000F078F880453AD1216803356D1A25F0D2
:10455C00030508350C2D38BF0C2538462946FFF7C6
:10456C00A5FF01302BD023682B4423600EE022687A
:10457C00521B1ED40B2A16D96119A342256018BFF1
:10458C005960636808BF316062514B60384604F172
:10459C000B0600F065F826F00706231DF21AB6D0BC
:1045AC009B1BA350B3E76268A3420CBF32605A60F6
:1045BC00ECE723466468B2E734467668B9E70C2327
:1045CC0038463B6000F04CF8A1E72560DEE700BF01
:1045DC00DC0600202DE9F041804614460E4621B938
:1045EC001146BDE8F041FFF781BF2AB9FFF716FF6E
:1045FC0025462846BDE8F08100F038F8844207468D
:10460C0002D8B4EB500F12D821464046FFF76EFF8C
:10461C0005460028EDD0BC422246314628BF3A461A
:10462C00FFF796FB31464046FFF7F8FEE1E73546CB
:10463C00DFE7000038B50023054D044608462B6023
:10464C0000F01EF8431C02D12B6803B1236038BD67
:10465C00E4060020014800F011B800BFE806002075
:10466C00014800F00CB800BFE806002051F8043CEB
:10467C00181F002BBCBF0B58C018704770477047F1
:10468C00044A05491368002B08BF0B4618441060F8
:10469C0018467047EC060020F0060020F8B500BF65
:1046AC00F8BC08BC9E467047F8B500BFF8BC08BC07
:0446BC009E4670475F
:1046C00041540D0A00000000415445300D0A00001D
:1046D00041542B4350494E3F0D0A000041542B4397
:1046E00053510D0A0000000041542B435245473FEF
:1046F0000D0A000041542B43474154543F0D0A001A
:104700000000000041542B51494143543D310D0AF2
:104710000000000041542B51494143543F0D0A0011
:104720000000000041542B514944454143543D3160
:104730000D0A000041542B5149434C4F53453D3025
:104740002C323030300D0A000000000041542B5153
:10475000494F50454E3D312C302C22544350222C91
:10476000223133392E3139382E3136322E39342236
:104770002C3939390D0A000041542B514953454E0B
:104780004445583D302C22333133323333333433C4
:10479000353336333733383339220D0A0000000001
:1047A00041542B514952443D302C313530300D0AA3
:1047B0000000000041542B514750534346473D22CF
:1047C0006F7574706F7274222C22756172746465D7
:1047D000627567220D0A000041542B514750533D2A
:1047E000310D0A000000000041542B514750534C3A
:1047F0004F433D300D0A00004F4B000052454144ED
:104800005900000043535100302C310031000000AA
:104810004F0000000D0000002B51495244000000E1
:10482000514750534C4F43004552524F52000000E5
:1048300069643A25780D0A000000000030303030FD
:1048400030302E3030300000303030302E303030CC
:10485000304E000030303030302E303030304500B7
:10486000323531372E323833314E00003131372E68
:10487000323432333134450041542B514953454E83
:104880004445583D302C220000000000220D0A0053
:104890000000000045433230B7C7D4A4C6DAB4EDF7
:1048A000CEF300002530326400000000D5FDD4DADC
:1048B000C1ACBDD300000000B5E7BBB0BFA8D3D0EA
:1048C000CECACCE200000000C1ACBDD3B3C9B9A6CA
:1048D00000000000312C3100312C3500302C350027
:1048E00072656376000000002C300000414C41529C
:1048F0004D0000004E4F4E4541000000B3F5CABCCC
:10490000BBAFCDEAB3C90000C0D7B4EF31B1A8BE88
:10491000AF000000C0D7B4EF32B1A8BEAF000000B6
:10492000C0D7B4EF33B1A8BEAF000000C0D7B4EF1A
:1049300034B1A8BEAF000000D2D1B1A8BEAF000014
:10494000C7E5B3FDC6C1C4BB0000000002030405F7
:10495000060708090A0B0C0D0E0F101000000000CE
:10496000000000000102030406070809000000001F
:1049700001020304232D302B2000686C4C00656677
:1049800067454647003031323334353637383941A0
:1049900042434445460030313233343536373839B6
:0849A0006162636465660000BA
:0449A80031010008D1
:0449AC000D010008F1
:1049B00020030000C0460008C8460008D046000892
:1049C000DC460008E8460008F446000804470008F2
:1049D0001447000824470008344700084C470008E3
:1049E00078470008A0470008B4470008D8470008E7
:1049F000E8470008F8470008F8470008FC470008A7
:104A000004480008084800080C480008104800083E
:104A1000F8470008F8470008144800081448000840
:104A2000F84700081848000814480008144800080F
:104A3000204800082848000810000000010000007D
:104A40000024F40098000020000000000000000096
:104A50000000000000000000000000000000000056
:104A60000000000000000000000000000000000046
:104A70000000000000000000000000000000000036
:104A80000000000000000000000000000000000026
:104A90000000000000000000000000000000000016
:084AA00000000000000000000E
:0400000508003CC9EA
:00000001FF
