:020000040800F2
:100000000050002005510008B9280008C528000844
:10001000CB280008D1280008D728000800000000DD
:10002000000000000000000000000000DD280008C3
:10003000E928000800000000F52800080129000850
:100040004D5100084D5100084D5100084D51000818
:100050004D5100084D5100084D5100084D51000808
:100060004D5100084D5100084D5100084D510008F8
:100070004D510008C92900084D510008DD2900082C
:10008000F12900084D5100084D5100084D5100085C
:100090004D5100084D5100084D5100084D510008C8
:1000A0004D5100084D5100084D5100084D510008B8
:1000B0004D5100084D5100084D5100084D510008A8
:1000C0004D5100084D5100084D5100084D51000898
:1000D0004D510008052A00081D2A0008352A00088D
:1000E0004D5100084D5100084D510008000000001E
:1000F0000000000000000000000000000000000000
:0C01000000000000000000005FF808F1A3
:10010C00044B05481B1A062B02D9044B03B11847A4
:10011C00704700BFFB000020F8000020000000002A
:10012C0005490648091A891001EBD171491002D012
:10013C00034B03B118477047F8000020F80000206B
:10014C000000000010B5064C237843B9FFF7D8FF28
:10015C00044B13B10448AFF300800123237010BD8E
:10016C00F8000020000000005051000808B5084BB2
:10017C001BB108490848AFF300800848036813B95D
:10018C00BDE80840CCE7064B002BF9D09847F7E7C1
:10019C0000000000FC00002050510008F800002076
:1001AC000000000070B50F4E0F4D761BB61018BF37
:1001BC00002405D0013455F8043B9847A642F9D1E8
:1001CC000A4E0B4D04F0BEFF761BB61018BF002470
:1001DC0006D0013455F8043B9847A642F9D170BDBE
:1001EC0070BD00BF605400086054000864540008DF
:1001FC0060540008844641EA000313F0030349D11C
:10020C00403A23D30B6803604B6843608B68836070
:10021C00CB68C3600B6903614B6943618B69836174
:10022C00CB69C3610B6A03624B6A43628B6A83625C
:10023C00CB6AC3620B6B03634B6B43638B6B836344
:10024C00CB6BC36340304031403ADBD230320BD3FE
:10025C000B6803604B6843608B688360CB68C3603A
:10026C0010301031103AF3D20C3205D351F8043B54
:10027C0040F8043B043AF9D2043208D0D2071CBF30
:10028C0011F8013B00F8013B01D30B880380604659
:10029C00704700BF082A13D38B07B1D010F00303AB
:1002AC00AED0C3F10403D21ADB071CBF11F8013B1B
:1002BC0000F8013BA4D331F8023B20F8023B9FE746
:1002CC00043AD9D3013A11F8013B00F8013BF9D2B9
:1002DC000B7803704B7843708B7883706046704753
:1002EC0070B4860746D0541E002A41D0CAB20346C9
:1002FC0002E014F1FF343BD303F8012B9D07F8D136
:10030C00032C2ED9CDB245EA05250F2C45EA05451F
:10031C0019D9264603F11002103E0F2E42F8105C3C
:10032C0042F80C5C42F8085C42F8045C02F11002E2
:10033C00F2D8A4F1100222F00F0204F00F041032D4
:10034C00032C13440DD91E462246043A032A46F8C0
:10035C00045BFAD8221F22F003020432134404F087
:10036C0003042CB1C9B21C4403F8011B9C42FBD101
:10037C0070BC704714460346C2E700BF0CB40B4672
:10038C00F0B56FF000454FF402774FF6FF769DB055
:10039C0022AC54F8042B0293069302A92346019431
:1003AC00ADF8147004950795ADF8166000F016FCC6
:1003BC000022029B1A701DB0BDE8F04002B07047DD
:1003CC000EB40146F0B56FF000454FF402774FF6CE
:1003DC00FF769CB021AC54F8042B0B4B0291069188
:1003EC00186802A923460194ADF81470049507957A
:1003FC00ADF8166000F0F2FB0022029B1A701CB0E4
:10040C00BDE8F04003B070470000002020F003016D
:10041C0010F00300C0F1000051F8043B00F1040C93
:10042C004FEACC0C6FF000021CBF22FA0CF2134303
:10043C004FF0010C4CEA0C2C4CEA0C4CA3EB0C02CC
:10044C0022EA030212EACC1204BF51F8043B043036
:10045C00F4D0C2F1000102EA0102B2FA82F2C2F156
:10046C001F0200EBD20070472DE9F0414FF0010E56
:10047C00002574464FF0FF362B198B4200EB060714
:10048C000DD23F5D10F803C0BC452DD21D46012492
:10049C00A3EB060E2B198B4200EB0607F1D34FF0A2
:1004AC000108002544464FF0FF37C2F800E02B1935
:1004BC00994200EB070E0ED91EF804E010F803C0A9
:1004CC00F44518D91D460124A3EB07082B199942B2
:1004DC0000EB070EF0D80137701C874224BF38465A
:1004EC00C2F80080BDE8F0810CD04FF0010E2E4612
:1004FC0074467544C0E70BD04FF001082F464446B4
:10050C004544D4E7744512BF01341D460124B3E7BA
:10051C00444512BF01341D460124C8E72DE9F04FB4
:10052C00ADF2144D164605468B461046194603AAE5
:10053C001C46FFF799FF814603AB0DF20C4243F8C2
:10054C00044F9342FBD14CB1631E721E04A812F8E7
:10055C00011F40F8213013F1FF33F8D203994A46BA
:10056C003144304600F02AFA00286FD109F1FF33EC
:10057C000093F3188246019323468046544658460E
:10058C009A4608EB0A073A1A0021284400F0D0F9E1
:10059C00002856D1002F54D0EB1913F8012C04ABC2
:1005AC0053F822304BB124B1039A934201D2AAEBF7
:1005BC000203984400243846E3E74C45234638BFF1
:1005CC004B460AF1FF3E734513D208EB0302A85CBD
:1005DC0016F803C02A44844506EB030106D02CE030
:1005EC0011F801CF12F8010F844526D10133734560
:1005FC00F6D34C45009980F08980009B08EB0302F0
:10060C00019BA85C1B782A4498427FD1019804F185
:10061C00FF3B06E010F801CD12F801EDF44503D1D3
:10062C0019464B1E9B45F5D101348C4270D8039C66
:10063C003846A044AAEB0404A3E7C9F10102904494
:10064C00B7E700200DF2144DBDE8F08FA4EB0903C1
:10065C004B4538BF4B4609F1FF380133039306EB8A
:10066C00080358464FF0000ACB4699460AEB04079C
:10067C003A1A0021284400F05BF90028E1D1002F40
:10068C00DFD0EB1913F8012C04AB53F82230A3BBC9
:10069C00601E834515D20AEB0B0215F802E016F822
:1006AC000B302A449E4506EB0B015B4606D027E037
:1006BC0011F801CF12F801EFF44521D10133834237
:1006CC00F6D3B8F1FF3F11D00AEB0802AB5C99F8F6
:1006DC0000102A4499420FD14B4605E013F8010D46
:1006EC0012F8011D884207D1B342F7D105EB0A007D
:1006FC000DF2144DBDE8F08F039B9A443846B5E7D4
:10070C00CBF1010292449A443846AFE749468BE755
:10071C0005EB080096E700BF0278002A00F0018183
:10072C002DE9F04F91F8008085B04446B8F1000FE8
:10073C0016D0864601F1010C012704E0634613F83C
:10074C00014B64B19C46A24214BF002707F001077D
:10075C001EF8012F002AF1D19CF80030FBB917B11B
:10076C0005B0BDE8F08F0E46054641460130ACEBB6
:10077C00060400F03DFD074688B1012CF0D0281985
:10078C0087428CBF0121C11B1F2C8B460BD92346E2
:10079C0032463846FFF7C2FE05B0BDE8F08F0020A8
:1007AC0005B0BDE8F08F03AA21463046FFF75CFE8A
:1007BC000399804602463144304600F0FFF8002889
:1007CC0057D181460546B246584608F1FF3300938F
:1007DC00F31801936619321A0021384400F0A8F876
:1007EC000028DCD1002EDAD0C845434638BF4B4632
:1007FC009C4212D95A19B95C1AF803003A4488423F
:10080C000AEB030E06D02CE01EF8010F12F8011FA4
:10081C00884226D101339C42F6D1C845009940F25A
:10082C008380009BEA18019BB85C1B783A44984281
:10083C007AD1019809F1FF3B06E010F801CD12F8CE
:10084C0001EDF44503D119464B1E5B45F5D109F179
:10085C000109894557D8039B30461D44A4EB030975
:10086C00B8E7C8F1010215441D444FF000093046A9
:10087C00B0E7A4EB0803434538BF434608F1FF3902
:10088C000133039306EB090358460025BB469A46F1
:10089C0067193A1A0021584400F04AF800287FF4EE
:1008AC007EAF002F3FF47BAF444515D908EB050212
:1008BC001BF8020016F808305A44984206EB08015F
:1008CC00434606D023E011F801EF12F8010F8645DC
:1008DC001DD101339C42F6D1B9F1FF3F12D005EB8B
:1008EC0009021BF802109AF800305A44994214D1AC
:1008FC00534605E013F8010D12F8011D88420CD186
:10090C00B342F7D15F46781905B0BDE8F08FC8F156
:10091C00010215441D443846BAE7039B38461D4472
:10092C00B6E70B7813B97047414690E70020704743
:10093C00830770B4CDB23DD0541E0AB30378AB42DA
:10094C001FD0431C05E014F1FF3419D30278AA42DE
:10095C0017D013F0030F184603F10103F3D1032C46
:10096C0011D84CB30378AB420BD00444431C02E0C7
:10097C000278AA4205D09C42184603F10103F7D134
:10098C00002070BC7047090289B2294341EA014139
:10099C00036806464B40A3F1013222EA030313F02D
:1009AC00803F00F1040003D1043C032CF0D8D8E7BD
:1009BC003046D7E71446D2E72046E2E7032A70B464
:1009CC0022D940EA01039B0711D003780C78A3428B
:1009DC001DD10A44013105E010F8013F11F8014B1B
:1009EC00A34214D19142F7D1002070BC70470D681E
:1009FC0006680C46AE42034601F1040100F1040006
:100A0C0008D1043A032AF2D8002ADED1ECE7181BED
:100A1C0070BC704721461846D7E700BF2DE9F04758
:100A2C008E680C469E421D46174628D880468889FB
:100A3C0010F4906F32D04E692368096906EB4606B4
:100A4C00A3EB010906EBD6766B1C76104B44B34234
:100A5C00324684BF1E463246430522D511464046D7
:100A6C0000F0E6FC824680B34A462169FFF7C2FBE0
:100A7C00A38923F4906343F08003A38116E01E4600
:100A8C0008682A46394600F027FCA2682368961BA2
:100A9C002B44A66023600020BDE8F087086835462B
:100AAC00EFE7404600F022FD824650B1A6EB090369
:100ABC000AEB09006661C4F810A02060A3602E4602
:100ACC00DFE72169404600F06BFC0C23C8F80030CE
:100ADC00A3894FF0FF3043F04003A381BDE8F087BA
:100AEC002DE9F04F936883B09046002B70D082466E
:100AFC000C4617688D68086842E0A38913F4906F60
:100B0C002ED06569216905EB4505A0EB010B05EBC2
:100B1C00D5750BF101006D103044A8422A4684BFF4
:100B2C0005462A465B0538D51146504600F080FC38
:100B3C0000283CD05A4621690190FFF75BFBA28943
:100B4C00019B22F4906242F08002A281A5EB0B0281
:100B5C0003EB0B006561B346354623612060A26050
:100B6C005A46494600F0B8FBD8F80830A26820680D
:100B7C00551B58449E1BA5602060C8F808603EB306
:100B8C007E683B460837002EFAD0AE42D3F8009070
:100B9C00AB46B2D23546B346E2E7504600F0A6FC6F
:100BAC0003460028D2D12169504600F0F9FB0C23F2
:100BBC0000224FF0FF30CAF80030A38943F0400305
:100BCC00A381C8F80820C8F8042003B0BDE8F08F52
:100BDC000020C8F8040003B0BDE8F08F2DE9F04FF9
:100BEC000F4689899DB00C0691460393804603D528
:100BFC003B69002B00F0FC803023002020218DF875
:100C0C002A3099F800300125814C09908DF8291073
:100C1C00002B00F09180252BCA4603D119E0252B1F
:100C2C0000F093801AF8013F002BF8D1BAEB090BB6
:100C3C0000F082804A465B4639464046FFF7EEFE9E
:100C4C00013079D0099B9AF800205B440993002A63
:100C5C0072D000234FF0FF320AF1010A049307937C
:100C6C0006938DF853301A93059205E0049B001BF4
:100C7C0005FA00F0184304909AF80010052220465B
:100C8C00FFF756FED1460AF1010A0028EED1049B6B
:100C9C00D80644BF20228DF85320190748BF2B22B9
:100CAC0099F8001048BF8DF853202A2971D0A1F172
:100CBC003002092A0BD8079B19F8011F03EB830399
:100CCC0002EB4303A1F13002092AF5D907932E292F
:100CDC0046D0DFF84CA103225046FFF729FE48B15D
:100CEC004022049BA0EB0A0002FA00F0034309F136
:100CFC000109049399F800300622194645488DF8ED
:100D0C00283009F10109FFF713FE00284DD0424BA2
:100D1C00FBB103AB00933A46404B04A94046AFF3FA
:100D2C0000800646721C07D0099B3344099399F83E
:100D3C000030002B7FF46FAFBB895B064CBF4FF0CC
:100D4C00FF3009981DB0BDE8F08FBAEB090B80D0CD
:100D5C0070E7039B073323F0070308330393E3E7A0
:100D6C0099F8011009F101002A2928D00023A1F1DA
:100D7C003002092A05938146ABD819F8011F03EB01
:100D8C00830302EB4303A1F13002092AF5D9059341
:100D9C009FE7039A116804320029039222DB079122
:100DAC0099F8011009F1010991E703AB00933A4658
:100DBC001A4B04A9404600F0CDF80646B2E7039B57
:100DCC0009F102001A680433002A0393B8BF4FF0EC
:100DDC00FF330592AEBF99F8021099F802100593F3
:100DEC00814676E7494243F0020307910493D7E723
:100DFC00402100F01DFB3860386110B140237B614D
:100E0C00FAE60C234FF0FF30C8F800309AE700BF29
:100E1C00245400083054000800000000290A00087F
:100E2C002C5400082DE9F0470C460969A568914639
:100E3C008D42B8BF0D46156094F8431006461F4608
:100E4C00DDF8208011B16A1CC9F8002023689906CE
:100E5C005DD5D9F800200232C9F80020236813F0C0
:100E6C00060F19461DD1E1688A1A002AD8BF194607
:100E7C0017DD002504F1190A05E0E368D9F8002014
:100E8C009B1AAB420CDD0123524639463046C04713
:100E9C00013005F10105F0D14FF0FF30BDE8F087CE
:100EAC00216894F84330003318BF01238A060AD511
:100EBC003021E21882F8431094F845105A1C224451
:100ECC0082F84310023304F1430239463046C047DE
:100EDC000130E1D0236803F00603042B29D0A3686A
:100EEC0022699342C8BF4FF0000930DD9B1A994428
:100EFC0000251A3401E04D4529D0012322463946FC
:100F0C003046C047013005F10105F4D1C4E713F0B8
:100F1C00060F08D1E168D9F800208A1A002AD8BF38
:100F2C001946A6DCBDE794F84330003318BF012303
:100F3C00C9E7D9F80010E068A3682269A0EB0109A1
:100F4C00934229EAE979D1DCB9F1000FD0D1002024
:100F5C00BDE8F0872DE9F0430C46097E85B06E297B
:100F6C0006461746984604F1430C0C9855D00FD8FA
:100F7C00632900F0198100F2D48000295CD0582933
:100F8C0040F0E68084F845102268DFF85CE213E05C
:100F9C00732900F0FB8000F289806F2900F0E28059
:100FAC00702940F0D580226842F02002226078231C
:100FBC00DFF838E284F845300368150603F10401C4
:100FCC0000F1FD8055064BBF1B881B68016001605A
:100FDC00D00744BF42F020022260002B40F09380E7
:100FEC001021226822F020022260002284F8432083
:100FFC0060680028A060C0F28B80226822F0040296
:10100C002260002B66D1002840F0848065460829B8
:10101C006ED0ACEB0503236111E023681A0600F1D6
:10102C00D18013F0400F0368626903F10401016081
:10103C001B6814BF1A801A60002365462361CDF823
:10104C0000803B4603AA21463046FFF7EBFE0130F9
:10105C0021D02A46236939463046C04701301AD080
:10106C002368E06813F0020F039B19D0C21A002A00
:10107C0016DD002504F1190904E0E068039BC21A8F
:10108C00AA420DDD01234A4639463046C04701309D
:10109C0005F10105F1D14FF0FF3005B0BDE8F0834B
:1010AC009842B8BF184605B0BDE8F083752959D0F1
:1010BC0078294DD122687AE72D2061685B4200299E
:1010CC0084F84300A16020DB0A2122F00402DFF83F
:1010DC0018E122606546B3FBF1F201FB12331EF8F6
:1010EC000300134605F8010D002AF4D1082990D10C
:1010FC002368D9078DD5626823699A4289DC30232D
:10110C00013D2B7085E710216FE70A21DFF8D8E04D
:10111C00002BDFD19EF8003004F1420584F84230F8
:10112C0075E7642901D0692912D122680368150674
:10113C0003F1040152D455064BBFB3F900301B68C0
:10114C0001600160002BB7DB0A21DFF89CE04FE760
:10115C00012384F84210236104F14205002384F832
:10116C0043306CE723681A0633D413F0400F03683E
:10117C0003F1040215BF1B881B68026002606F2913
:10118C0014BF0A210821DFF860E02EE703686268CB
:10119C00191D01601D6800212846FFF7C9FB00B32B
:1011AC00401B60602061D9E70122036804F142050D
:1011BC00191D1B68016084F842302261CEE7016082
:1011CC001B6805E703686269191D01601B681A60DA
:1011DC0032E703681A1D02601B68D0E701601B68C8
:1011EC00B0E76068DEE700BF385400084C540008D4
:1011FC00C9B2002941D08207F0B467D00378002B24
:10120C0068D0994237D0431C04E013F8010B90B31B
:10121C0081422FD09A071C46F7D1256841EA012359
:10122C0043EA034383EA0506A6F10130A5F1013236
:10123C0020EA060022EA0502024312F0803F11D197
:10124C00204650F8046F83EA0607A7F10135A6F192
:10125C00013225EA070522EA06022A4312F0803FF2
:10126C00EFD00446207818B905E014F8010F10B13E
:10127C008142FAD12046F0BC7047830724D0037812
:10128C00002BF9D0431C03E002780133002AF3D081
:10129C0099071846F8D11968A1F1013222EA010226
:1012AC0012F0803F08D153F8041FA1F1013222EA59
:1012BC00010212F0803FF6D01A78184642B110F8AD
:1012CC00013F002BFBD170470346E4E70446A4E73B
:1012DC00184670471846CEE78842F0B50DD98B18E2
:1012EC0098420AD28418002A51D0224613F8014D94
:1012FC00994202F8014DF9D1F0BD0F2A48D941EAC3
:10130C0000039B0746D1154600F1100401F11003B0
:10131C0053F8106C103D44F8106C53F80C6C0F2DF6
:10132C0044F80C6C53F8086C04F1100444F8186C75
:10133C0053F8046C03F1100344F8146CE8D8A2F1D0
:10134C00100323F00F0302F00F0E1033BEF1030F46
:10135C001944034421D90E4674461D1F56F8047BCC
:10136C00043C032C45F8047FF8D8AEF1040424F0B7
:10137C00030404342144234402F0030262B1013B10
:10138C000A4411F8014B8A4203F8014FF9D1F0BD20
:10139C000346F3E70346F2E7F0BD7246EEE700BF03
:1013AC0091B151F8043C0439002BB8BFC9181F4B3C
:1013BC001A68FAB18A4230B40AD908680C18A242E9
:1013CC0026D04A60196030BC70478B4203D81A464D
:1013DC005368002BF9D1146815198D420DD006D81D
:1013EC0008680C189C4219D04B605160EBE70C2339
:1013FC000360E8E74A601960704709680C441119EA
:10140C0099421460DFD10ACB0C4414605360DAE7C4
:10141C0014685268204481E80500D3E71C685B68B7
:10142C00204481E809005160CDE700BF1401002081
:10143C0070B5CC1C24F0030408340C2C38BF0C24DD
:10144C00002C06463BDBA14239D8274D296851B107
:10145C000B681B1B04D436E013681B1B1AD51146F2
:10146C004A68002AF8D16968002937D021463046ED
:10147C0000F064F8431C22D0C51C25F00305A842DB
:10148C0005D0291A304600F059F8013017D02A46F9
:10149C002C6004E00B2B0DD913601A44146002F17C
:1014AC000B0020F00700131DC31A02D05942D15073
:1014BC0070BD70BD8A420ED053684B60EFE70C23B1
:1014CC000020336070BD0B2B03D80A464B682B6091
:1014DC00E5E70A46E0E70B460A46F8E7304600F037
:1014EC002DF86860C2E700BF14010020F8B514465F
:1014FC00F9B1C2B106460D4600F032F8844201D86B
:10150C002846F8BD21463046FFF792FF074670B1DA
:10151C0022462946FEF76EFE29463D463046FFF729
:10152C003FFF2846F8BDFFF73BFF2546E8E7054699
:10153C00E6E71146BDE8F840FFF77ABF38B500235F
:10154C00064C05460846236000F014F8431C00D0F6
:10155C0038BD2368002BFBD02B6038BDF808002069
:10156C0051F8040C0028A0F10400BCBF0B58C018A3
:10157C00704700BF044A05491368002B08BF0B468F
:10158C0018441060184670471C0100200009002008
:10159C0080B500AF01F052FD00F00FF800F02CF90F
:1015AC0000F0FCF800F07CF800F0A4F800F0CCF8A7
:1015BC0000F048F800F0D2FEFCE780B590B000AF28
:1015CC0007F11803282200211846FEF789FE3B1D5F
:1015DC0000221A605A609A60DA601A610123BB61BA
:1015EC004FF48033FB6100233B620123BB62022377
:1015FC007B634FF48033BB634FF4E013FB6307F161
:10160C001803184601F07CFD0346002B01D000F0B6
:10161C006DF90F237B600223BB600023FB604FF44A
:10162C0080633B6100237B613B1D0221184601F066
:10163C00E7FF0346002B01D000F058F900BF4037FC
:10164C00BD4680BD80B500AF124B134A1A60114BDA
:10165C00124A5A600F4B00229A600E4B0022DA603D
:10166C000C4B4FF480421A610A4B00225A61094B11
:10167C0000229A61074B0022DA61064B00221A62A3
:10168C00044801F0A3FB0346002B01D000F02EF917
:10169C0000BF80BD4002002000540040A086010025
:1016AC0080B500AF114B124A1A60104B4FF4E13267
:1016BC005A600E4B00229A600C4B0022DA600B4BE6
:1016CC0000221A61094B0C225A61084B00229A61C4
:1016DC00064B0022DA61054802F073FE0346002B2C
:1016EC0001D000F003F900BF80BD00BFD80200207C
:1016FC000038014080B500AF114B124A1A60104BF4
:10170C004FF4E1325A600E4B00229A600C4B0022CF
:10171C00DA600B4B00221A61094B0C225A61084B00
:10172C0000229A61064B0022DA61054802F049FE5C
:10173C000346002B01D000F0D9F800BF80BD00BFDC
:10174C001C0300200044004080B500AF114B124A2E
:10175C001A60104B4FF4E1325A600E4B00229A6023
:10176C000C4B0022DA600B4B00221A61094B0C2245
:10177C005A61084B00229A61064B0022DA61054837
:10178C0002F01FFE0346002B01D000F0AFF800BFA3
:10179C0080BD00BFFC0100200048004080B582B035
:1017AC0000AF144A134B5B6943F001035361114BB7
:1017BC005B6903F001037B607B68002200210D2034
:1017CC0002F0C9FD0D2002F0E2FD002200210F20E5
:1017DC0002F0C1FD0F2002F0DAFD002200211020E2
:1017EC0002F0B9FD102002F0D2FD00BF0837BD4653
:1017FC0080BD00BF0010024080B588B000AF07F17B
:10180C00100300221A605A609A60DA60344A344B32
:10181C009B6943F010039361314B9B6903F01003F8
:10182C00FB60FB682E4A2E4B9B6943F020039361AF
:10183C002B4B9B6903F02003BB60BB68284A284BE9
:10184C009B6943F004039361254B9B6903F00403EC
:10185C007B607B68224A224B9B6943F008039361AF
:10186C001F4B9B6903F008033B603B68002202217D
:10187C001C4802F0D2F9012241F202011A4802F08E
:10188C00CCF94FF400533B6100237B610123BB6116
:10189C0007F110031946134802F04EF802233B617E
:1018AC0001237B610023BB610223FB6107F1100361
:1018BC0019460C4802F040F841F202033B61012347
:1018CC007B610023BB610223FB6107F11003194606
:1018DC00054802F031F800BF2037BD4680BD00BF7F
:1018EC000010024000100140000C014080B400AF19
:1018FC0000BFBD4680BC704780B485B000AF786037
:10190C000023FB6002E0FB680133FB60FA687B6834
:10191C009A42F8D300BF1437BD4680BC704780B5DF
:10192C0082B000AF786006E07B68013B7B6040F2E0
:10193C00E630FFF7E1FF7B68002BF5D100BF0837DD
:10194C00BD4680BD80B483B000AF00237B6007E050
:10195C00094A7B68134400221A707B6801337B6050
:10196C007B68C72BF4DD054B00221A6000BF0C37D7
:10197C00BD4680BC704700BF4405002030010020EC
:10198C0080B487B000AFF860B9601346FB710023D8
:10199C00FB750EE0FB685A1CFA601A78BB68591C80
:1019AC00B9601B789A4201D0002307E0FB7D01331C
:1019BC00FB75FA7DFB799A42ECD3012318461C3750
:1019CC00BD4680BC704780B586B000AFF8607A60C9
:1019DC001A460B46FB721346BB720023FB750023A1
:1019EC00FB750FE0FB7DFA681344BA7A79681846E8
:1019FC00FFF7C6FF0346012B01D101230AE0FB7D53
:101A0C000133FB75FA7DF97ABB7ACB1A01339A4212
:101A1C00E8DB002318461837BD4680BD80B487B07C
:101A2C0000AFF8600B467A60FB720023FB75002355
:101A3C00BB7500237B7500237B752CE0FB681B7842
:101A4C001B09FB75FB681B7803F00F03BB75FB6868
:101A5C000133FB60FB7D092B03D9FB7D3733FB7511
:101A6C0002E0FB7D3033FB75BB7D092B03D9BB7DBD
:101A7C003733BB7502E0BB7D3033BB757B685A1CBA
:101A8C007A60FA7D1A707B685A1C7A60BA7D1A707B
:101A9C007B7D01337B757A7DFB7A9A42CED300BF76
:101AAC001C37BD4680BC704780B582B000AF034682
:101ABC00FB7101220221144802F0AFF8012202212D
:101ACC00124802F0AAF8FB79002B0ED0002202215A
:101ADC000E4802F0A2F84FF4FA70FFF720FF002234
:101AEC000221094802F099F809E001220221064876
:101AFC0002F093F801220221044802F08EF800BF94
:101B0C000837BD4680BD00BF000C014000100140ED
:101B1C0080B500AF154B1B68154A1360154B1B683D
:101B2C00134A5360144B1B68114A9360104B1B688B
:101B3C005A080F4B5B689B081A440D4B9B68DB08DB
:101B4C0013440E4A13600D4B41F2B1521A600B4B09
:101B5C001B681A460A490B48FEF732FC094800F08C
:101B6C0069FD064B1B68184680BD00BFE8F7FF1FD8
:101B7C0078080020ECF7FF1FF0F7FF1F640400202B
:101B8C00D8520008CC040020B0B582B000AF0023BE
:101B9C00BB800023FB718C4B1B68002B00F0D780A3
:101BAC008A4B8B4A1A608A4B002242F046021A700A
:101BBC0000225A7000229A700022DA70FFF7A8FFF8
:101BCC000246834B5A60834B1B685A1C81490A603E
:101BDC007F4A9360804B1B781A467D4BDA607E4BB4
:101BEC005B781A467A4B1A617B4B9B781A46784B7A
:101BFC005A61794BDB781A46754B9A61774B1A7898
:101C0C00734B1A77754B5A78714B5A77734B9A788A
:101C1C006F4B9A77714BDA786D4BDA776C4B1B7F85
:101C2C00012B02D1FB790133FB71694B5B7F012BDB
:101C3C0002D1FB790133FB71654B9B7F012B02D1E8
:101C4C00FB790133FB71624BDB7F012B02D1FB79FA
:101C5C000133FB715E4AFB7982F82030604B1A78B5
:101C6C005B4B83F821205F4B1A78594B83F8222069
:101C7C005D4B1B78002B18D1544B1B6823330A2265
:101C8C005A491846FEF7B6FA504B1B682D330A22F8
:101C9C0057491846FEF7AEFA4C4B1B6837330B22EC
:101CAC0054491846FEF7A6FA02E04F4B00221A7070
:101CBC00464B1B682D3350491A460B4603CB10601C
:101CCC00516019889B7811819372404B1B68373394
:101CDC004A4A1C46134607CB20606160A2603C4B0D
:101CEC00002283F84220002283F843204FF0FF3279
:101CFC0083F844204FF0FF3283F845200023BB804B
:101D0C00BB883F4A13443F4A1C4615460FCD206002
:101D1C006160A260E360BB880F33BB80BB88384A2C
:101D2C0013441A4646212A48FFF778FEBB888C33A9
:101D3C00BB80BB88324A1344334A106818604FF496
:101D4C0048739E222E49314802F088FB37E0304B15
:101D5C00002242F008021A7000225A7000229A7077
:101D6C000022DA70FFF7D4FE0246294B5A6000239A
:101D7C00BB80BB88224A1344224A1C4615460FCD11
:101D8C0020606160A260E360BB880F33BB80BB88BE
:101D9C001B4A13441A4608211D48FFF73FFEBB8817
:101DAC001033BB80BB88164A1344174A106818605E
:101DBC004FF4487322221249144802F04FFB00BF23
:101DCC000837BD46B0BD00BF540100208808002074
:101DDC00380600206C010020840800205C010020E3
:101DEC00600100204801002020010020E45200087E
:101DFC00F0520008FC520008085300081453000865
:101E0C006403002020530008345300081C030020F6
:101E1C000C06002080B582B000AF0023FB80794B0C
:101E2C001B78012B1DD1784B1B68322B19D9754BA4
:101E3C0000221A70744B00221A60744B1B68744A8F
:101E4C001360734B1B68734A0021D1546F4B0022F3
:101E5C001A60714B01221A7064227049704802F0AA
:101E6C008EFB704B1B78052B04D86F4B4FF44872CC
:101E7C001A6019E06D4B1B78002B03D16A4B4FF4A1
:101E8C0048721A606A4B1B78012B0DD1694B1B7879
:101E9C00012B09D1674B00221A70654B00221A7076
:101EAC00614B4FF448721A60634B1B881A465E4BA9
:101EBC001B689A4240F212825F4B00221A805F4BE1
:101ECC001B68322B17D9574B00221A705B4B002220
:101EDC001A605B4B00221A705A4B00221A605A4B44
:101EEC0000221A700120FFF7DFFD584B00221A70F8
:101EFC00574800F09FFB544B1B780A2B12D9494BC7
:101F0C001B780C2B0ED0474B00221A704E4B002224
:101F1C001A704A4B00221A604C4B00221A704C4823
:101F2C0000F088FB474B1B68032B0FD93D4B1B78EC
:101F3C000C2B0BD13B4B06221A70434B00221A7010
:101F4C00404B00221A603E4B00221A70354B1B7816
:101F5C000C2B00F2B581304B1B78002B40F08480A9
:101F6C00304B1B780B2B02D1FFF70EFE10E02D4BE4
:101F7C001B781A46374B53F82230184600F0E8FB12
:101F8C00284B1B781A46334B53F82230324A1360D5
:101F9C00244B1B780C2B04D12A4B1B680133294A88
:101FAC001360264B1B680133244A13601D4B1B78AE
:101FBC001A463B4629491846FEF702FA3B46184694
:101FCC0000F038FB174B1B780B2B03D1244800F087
:101FDC0031FB08E0134B1B781A461E4B53F822308A
:101FEC00184600F027FB0F4B1B78062B02D11D481F
:101FFC0000F020FB144B1B780133DAB2124B1A7031
:10200C006CE100BF38010020340100202C010020BD
:10201C003001002044050020390100206804002014
:10202C001C0300203A010020640000206A010020FB
:10203C0053010020690100202801002040010020EC
:10204C0048010020440100203C01002061010020D7
:10205C003C530008680000208C0800204C530008FA
:10206C0064030020545300089E4B00221A709E4BB0
:10207C0000221A609D4B1B781A463B469C49184619
:10208C00FEF79EF93B46184600F0D4FA994800F04A
:10209C00D1FA964B1B78022B0ED1974B1B6C194621
:1020AC009448FEF739FB0346002B05D0934800F00B
:1020BC00C1FA934B00221A708C4B1B780C2B0CD151
:1020CC008F4B01221A708F4B1B78002B02D08E4B3A
:1020DC0001221A708D4800F0ADFA844B1B781A4619
:1020EC00854B53F8223019468248FEF715FB034600
:1020FC00002B38D17D4B1B78022B06D184497D48AF
:10210C00FEF70AFB0346002B2DD1784B1B78022BD4
:10211C0006D180497748FEF7FFFA0346002B22D1FF
:10212C00724B1B78022B06D17B497248FEF7F4FAEE
:10213C000346002B17D16D4B1B780B2B06D177491F
:10214C006C48FEF7E9FA0346002B0CD1674B1B7861
:10215C000B2B40F0A88072496648FEF7DDFA034667
:10216C00002B00F0A080614B1B780C2B40F084807E
:10217C0005236C4A14216C48FFF725FC0346002B01
:10218C0008D000224FF48051684801F046FD684B9E
:10219C0001221A700523674A14216348FFF713FCC8
:1021AC000346002B05D001224FF480515F4801F00B
:1021BC0034FD0023FB800CE0FB884E4AD35C382BAB
:1021CC0004D8FB884B4AD35C302B08D8FB880133EE
:1021DC00FB80FA88584B1B689A42EDD300E000BF95
:1021EC00554B1B68122B47D9FB880933414AD35CEA
:1021FC00012B0BD1514B00221A70504B00225A70FC
:10220C004E4B00229A704D4B0022DA70FB880A3339
:10221C00384AD35C002B02D1494B00221A70FB8840
:10222C000A33344AD35C012B02D1454B01221A707C
:10223C00FB880B332F4AD35C012B02D1414B00227C
:10224C001A70FB880C332B4AD35C012B02D13D4B0B
:10225C0000225A70FB880D33264AD35C012B02D125
:10226C00384B00229A70FB880E33224AD35C012B28
:10227C0002D1344B0022DA70334B01221A701B4B03
:10228C001B780B2B05D1314B01221A70304B0022DD
:10229C001A60164B1B780133DAB2144B1A702D4BA3
:1022AC0000221A7009E0114B1B780B2B05D1274B20
:1022BC0000221A700D4B06221A70FFF743FB0DE03B
:1022CC00224B1B78002B03D0084B0B221A7002E018
:1022DC00064B06221A70204B00221A7000BF0837DA
:1022EC00BD4680BD39010020400100203A0100208C
:1022FC004C53000844050020A8000020605300083F
:10230C006101002052010020690100207053000877
:10231C007C5300088053000884530008885300083D
:10232C00905300089453000858050020000C0140FD
:10233C00210100209C530008300100205C0100208A
:10234C006001002084080020200100203B010020B7
:10235C00440100203C0100206201002080B582B0C5
:10236C0000AF7C4B1B78002B26D17A4B01221A70C4
:10237C000120FFF799FB00F021F900F071F900F052
:10238C00FDF9754800F056F9744B00221A70734B26
:10239C0000225A70714B00229A70704B0022DA7036
:1023AC006F4B00221A706E4B00225A706C4B00223D
:1023BC009A706B4B0022DA70FFF72CFD694B1B787F
:1023CC00012B10D14FF40051674801F00FFC03466C
:1023DC00002B08D1654B01221A70654B00221A7034
:1023EC005F4B01221A704FF400515F4801F0FEFB65
:1023FC0003461A465B4B1A705C4B1B78012B50D171
:10240C005C4B0A221A70594B00221A705A4B1B78DB
:10241C00012B10D1594B1B78002B0CD1574B01229F
:10242C001A70574B0B221A70564B1B689BB2013318
:10243C009AB2554B1A804E4B1B78012B03D1534843
:10244C0000F0F8F816E04A4B1B78022B03D15048E9
:10245C0000F0F0F80EE0464B1B78032B03D14D48EF
:10246C0000F0E8F806E0424B1B78042B02D14A48F6
:10247C0000F0E0F8494B1B78002B12D1474B01229E
:10248C001A70474B01221A70464B01221A703D4BB1
:10249C004FF448721A6000224FF48051424801F008
:1024AC00BCFB424B1B6842F2107293421DD90122B5
:1024BC004FF480513C4801F0B0FB3D4800F0BAF8B5
:1024CC00364B00221A702D4B00221A70374B00220B
:1024DC001A60234B00221A70214B00225A70204B99
:1024EC0000229A701E4B0022DA70324B1B8841F28C
:1024FC006F72934229D92F4B00221A8000237B60E4
:10250C000DE0164A7B6813441B780133D9B2134A89
:10251C007B6813440A461A707B6801337B607B68C6
:10252C00032BEEDD134B1B78013BDAB2114B1A7007
:10253C00104B1B78002B08D11F4800F07BF80122B0
:10254C004FF48051184801F068FB00BF0837BD46B6
:10255C0080BD00BF70010020A45300088408002037
:10256C005C01002068010020001001405101002096
:10257C005801002050010020610100206201002060
:10258C003A0100206400002028010020B05300080C
:10259C00BC530008C8530008D45300085201002053
:1025AC00530100206A010020000C0140540100205E
:1025BC00E05300085A010020E853000880B500AF32
:1025CC0064220749074801F0DAFF064B1B68054AED
:1025DC001268D26842F01002DA6000BF80BD00BF02
:1025EC0090080020D802002080B582B000AF0F4BBD
:1025FC001B681B6803F01003102B12D100237B60A7
:10260C000A4B1B681B687B60084B1B685B687B6014
:10261C007B68064801F0E3FF64220549034801F09A
:10262C00AEFF00BF0837BD4680BD00BFD8020020FA
:10263C009008002080B584B000AF78607868FDF712
:10264C00E5FE0346FB81FA8964237968034801F0AF
:10265C0005FF00BF1037BD4680BD00BFD80200206B
:10266C0080B500AF64220749074801F088FF064B8C
:10267C001B68054A1268D26842F01002DA6000BF8B
:10268C0080BD00BF680400201C03002080B582B010
:10269C0000AF284B1B681B6803F01003102B44D1B0
:1026AC0000233B60234B1B681B683B60214B1B6862
:1026BC005B683B603B681F4801F091FF1D4B9B6BB7
:1026CC001B685B689BB2C3F164039AB21A4B1A8005
:1026DC00184801F084FF194B01221A70184B002284
:1026EC001A60184B1B68FB80164B1B68FB800BE0B9
:1026FC00FB88F988134A12688A1A1349895C134AB1
:10270C00D154FB880133FB80FA880B4B1B8819468C
:10271C000C4B1B680B449A42EAD3074B1B881A4696
:10272C00084B1B681344074A136000BF0837BD46AB
:10273C0080BD00BF1C0300202A01002038010020AE
:10274C00340100202C0100206804002044050020E6
:10275C0080B584B000AF78607868FDF757FE03460B
:10276C00FB81FA8964237968034801F077FE00BF86
:10277C001037BD4680BD00BF1C03002080B500AFE4
:10278C00074B1B68064A1268D26842F01002DA60E6
:10279C0064220449024801F0F2FE00BF80BD00BF74
:1027AC00FC010020E004002080B582B000AF0023C3
:1027BC00FB8000237B71364B1B681B6803F01003F6
:1027CC00102B61D100233B60314B1B681B683B60B5
:1027DC002F4B1B685B683B603B682D4801F0FFFE8C
:1027EC0000237B712A4B9B6B1B685B689BB2C3F10C
:1027FC0064039AB2274B1A800023FB800EE0FB88FF
:10280C00254AD35C392B06D8FB88234AD35C2F2B63
:10281C0001D901237B71FB880133FB801D4B1B8885
:10282C00FA889A42EBD30023FB8006E0FB881A4A15
:10283C000021D154FB880133FB80164B1B88FA888E
:10284C009A42F3D37B79012B06D1144B1B780133BD
:10285C00DAB2124B1A7002E0104B00221A700F4BB6
:10286C001B78032B0BD90D4B00221A700C4B012239
:10287C001A700C4B00221A700B4B01221A70642236
:10288C000549034801F07BFE00BF0837BD4680BDFB
:10289C00FC01002060030020E004002071010020F6
:1028AC0051010020580100205C01002080B400AFD1
:1028BC0000BFBD4680BC704780B400AFFEE780B45B
:1028CC0000AFFEE780B400AFFEE780B400AFFEE7D8
:1028DC0080B400AF00BFBD4680BC704780B400AF71
:1028EC0000BFBD4680BC704780B400AF00BFBD4682
:1028FC0080BC704780B500AF00F0E6FB244B1B8812
:10290C0001339AB2224B1A80224B1B8801339AB2A4
:10291C00204B1A80204B1B6801331F4A13601F4B3E
:10292C001B6801331D4A13601D4B1B78012B04D10E
:10293C001C4B1B6801331B4A13601A4B1B6847F274
:10294C00305293420BD9174B00221A60144B0022C1
:10295C001A7001224FF48051134801F05EF9134BA9
:10296C001B78012B04D1124B1B680133104A1360E6
:10297C00104B1B78012B05D10F4B1B6801330E4AF2
:10298C00136002E00C4B00221A6000BF80BD00BF38
:10299C00280100205A0100204C0100206401002075
:1029AC002101002024010020000C014052010020D4
:1029BC0054010020380100203401002080B500AF04
:1029CC00024801F0B3FA00BF80BD00BFB80100207F
:1029DC0080B500AF024801F0A9FA00BF80BD00BF6E
:1029EC009402002080B500AF024801F09FFA00BFAE
:1029FC0080BD00BF7401002080B500AF034801F01A
:102A0C0049FEFFF7F1FD00BF80BD00BFD8020020DA
:102A1C0080B500AF034801F03DFEFFF737FE00BF65
:102A2C0080BD00BF1C03002080B500AF034801F03F
:102A3C0031FEFFF7B9FE00BF80BD00BFFC010020D6
:102A4C0080B485B000AF154A144B9B6943F0010369
:102A5C009361124B9B6903F00103BB60BB680F4A87
:102A6C000E4BDB6943F08053D3610C4BDB6903F0F5
:102A7C0080537B607B680A4B5B68FB60FB6823F0D0
:102A8C00E063FB60FB6843F00073FB60044AFB6887
:102A9C00536000BF1437BD4680BC70470010024025
:102AAC000000014080B588B000AF786007F11003DA
:102ABC0000221A605A609A60DA607B681B68154ABB
:102ACC00934223D1144A144B9B6943F0080393613E
:102ADC00114B9B6903F00803FB60FB68C0233B614F
:102AEC0012237B610323FB6107F1100319460B488A
:102AFC0000F022FF084A084BDB6943F40013D36152
:102B0C00054BDB6903F40013BB60BB6800BF2037C7
:102B1C00BD4680BD0054004000100240000C014036
:102B2C0080B58CB000AF786007F1200300221A60EA
:102B3C005A609A60DA607B681B68984A934260D14D
:102B4C00974A974B9B6943F480439361944B9B69E1
:102B5C0003F48043FB61FB69914A914B9B6943F001
:102B6C00040393618E4B9B6903F00403BB61BB6947
:102B7C004FF400733B6202237B620323FB6207F179
:102B8C0020031946874800F0D7FE4FF480633B6260
:102B9C0000237B620023BB6207F1200319468148A6
:102BAC0000F0CAFE804B814A1A607F4B00225A60AB
:102BBC007D4B00229A607C4B8022DA607A4B00229B
:102BCC001A61794B00225A61774B00229A61764B3D
:102BDC000022DA61744801F039F80346002B01D069
:102BEC00FEF784FE7B68704A9A636F4A7B68536277
:102BFC0000220021252001F0AEFB252001F0C7FBAF
:102C0C00C8E07B681B686A4A93425ED1644A644B95
:102C1C00DB6943F40033D361614BDB6903F40033AC
:102C2C007B617B695E4A5E4B9B6943F00403936155
:102C3C005B4B9B6903F004033B613B6904233B62E0
:102C4C0002237B620323FB6207F1200319465548DC
:102C5C0000F072FE08233B6200237B620023BB6200
:102C6C0007F1200319464F4800F066FE514B524ABB
:102C7C001A60504B00225A604E4B00229A604D4B0A
:102C8C008022DA604B4B00221A614A4B00225A61B7
:102C9C00484B00229A61474B0022DA61454800F00C
:102CAC00D5FF0346002B01D0FEF720FE7B68414A7E
:102CBC009A63404A7B68536200220021262001F06F
:102CCC004AFB262001F063FB64E07B681B683B4AEF
:102CDC0093425FD1324A324BDB6943F48023D36198
:102CEC002F4BDB6903F48023FB60FB682C4A2C4BD5
:102CFC009B6943F008039361294B9B6903F008031C
:102D0C00BB60BB684FF480633B6202237B6203238E
:102D1C00FB6207F120031946294800F00DFE4FF421
:102D2C0000633B6200237B620023BB6207F120033C
:102D3C001946234800F000FE224B234A1A60214B0F
:102D4C0000225A601F4B00229A601E4B8022DA60D0
:102D5C001C4B00221A611B4B00225A61194B00229A
:102D6C009A61184B0022DA61164800F06FFF034697
:102D7C00002B01D0FEF7BAFD7B68124A9A63114A08
:102D8C007B68536200220021272001F0E4FA2720FF
:102D9C0001F0FDFA00BF3037BD4680BD0038014060
:102DAC00001002400008014094020020580002402C
:102DBC0000440040740100206C00024000480040B8
:102DCC00000C0140B80100203000024090B585B0E5
:102DDC0000AF78607B68002B01D101231FE17B6879
:102DEC0093F83D30DBB2002B06D17B68002283F8D0
:102DFC003C207868FFF756FE7B68242283F83D2040
:102E0C007B681B687A681268126822F001021A60EB
:102E1C007B681B687A681268126842F400421A6078
:102E2C007B681B687A681268126822F400421A6088
:102E3C0000F03CFDF8607B685B687B4A934207D8E6
:102E4C00FB687A4A934294BF01230023DBB206E06D
:102E5C00FB68774A934294BF01230023DBB2002B1B
:102E6C0001D00123DBE0FB68724AA2FB03239B0C1D
:102E7C00BB607B681B687A681268526822F03F015D
:102E8C00BA680A435A607B681A687B681B681B6ABD
:102E9C0023F03F017B685B686348834202D8BB68C0
:102EAC00013309E0BB684FF4967000FB03F36248F2
:102EBC00A0FB03039B0901330B4313627B68186867
:102ECC007B681B68DB6923F44F4222F0FF027B68AE
:102EDC005B6855498B420DD8FB68591E7B685B6853
:102EEC005B00B1FBF3F30133C3F30B03042B38BFCB
:102EFC0004234FE07B689B68002B11D1FB685C1EA0
:102F0C007B6859680B465B000B44B4FBF3F301334D
:102F1C00C3F30B03002B0CBF01230023DBB212E025
:102F2C00FB685C1E7B6859680B469B000B44990040
:102F3C000B44B4FBF3F30133C3F30B03002B0CBFB3
:102F4C0001230023DBB2002B01D0012322E07B689C
:102F5C009B68002B0ED1FB685C1E7B6859680B4686
:102F6C005B000B44B4FBF3F30133C3F30B0343F4E7
:102F7C0000430FE0FB685C1E7B6859680B469B00A6
:102F8C000B4499000B44B4FBF3F30133C3F30B0371
:102F9C0043F440431343C3617B681B687A6812682F
:102FAC00126822F0C0017A68D0697A68126A02430A
:102FBC000A431A607B681A687B681B689B6823F459
:102FCC00034323F0FF03796808697968C9680143F2
:102FDC000B4393607B681B687A681268D26822F096
:102FEC00FF017A6850697A68926902430A43DA6091
:102FFC007B681B687A681268126842F001021A60DA
:10300C007B6800221A647B68202283F83D207B6851
:10301C0000221A637B68002283F83E2000231846A6
:10302C001437BD4690BD00BFA08601007F841E00F2
:10303C00FF083D0083DE1B43D34D621080B500AF0B
:10304C00084A084B1B6843F010031360032001F07F
:10305C0077F9002000F008F8FFF7F2FC002318467F
:10306C0080BD00BF0020024080B582B000AF786008
:10307C00124B1A68124B1B7819464FF47A73B3FB38
:10308C00F1F3B2FBF3F3184601F08FF90346002B72
:10309C0001D001230EE07B680F2B0AD8002279683F
:1030AC004FF0FF3001F057F9064A7B68136000239C
:1030BC0000E0012318460837BD4680BDF40000200F
:1030CC00F0000020EC00002080B400AF054B1B7812
:1030DC001A46054B1B681344034A136000BFBD46D8
:1030EC0080BC7047F0000020F408002080B400AFD2
:1030FC00024B1B681846BD4680BC7047F408002084
:10310C0080B586B000AF78607B68002B01D10123BD
:10311C006CE27B681B6803F00103002B00F08780D6
:10312C00924B5B6803F00C03042B0CD08F4B5B6849
:10313C0003F00C03082B12D18C4B5B6803F4803327
:10314C00B3F5803F0BD1894B1B6803F40033002B84
:10315C006CD07B685B68002B68D1012346E27B68EE
:10316C005B68B3F5803F06D1804A804B1B6843F403
:10317C00803313602EE07B685B68002B0CD17B4A9C
:10318C007A4B1B6823F480331360784A774B1B68A7
:10319C0023F4802313601DE07B685B68B3F5A02FDC
:1031AC000CD1724A714B1B6843F4802313606F4A35
:1031BC006E4B1B6843F4803313600BE06B4A6B4B14
:1031CC001B6823F480331360684A684B1B6823F434
:1031DC00802313607B685B68002B13D0FFF786FF9E
:1031EC00386108E0FFF782FF02463B69D31A642B73
:1031FC0001D90323FAE15D4B1B6803F40033002B68
:10320C00F0D014E0FFF772FF386108E0FFF76EFFB3
:10321C0002463B69D31A642B01D90323E6E1534BD5
:10322C001B6803F40033002BF0D100E000BF7B6877
:10323C001B6803F00203002B63D04C4B5B6803F05C
:10324C000C03002B0BD0494B5B6803F00C03082BD1
:10325C001CD1464B5B6803F48033002B16D1434BD7
:10326C001B6803F00203002B05D07B681B69012B44
:10327C0001D00123BAE13D493C4B1B6823F0F80215
:10328C007B685B69DB0013430B603AE07B681B696E
:10329C00002B20D0364B01221A60FFF727FF386134
:1032AC0008E0FFF723FF02463B69D31A022B01D932
:1032BC0003239BE12D4B1B6803F00203002BF0D082
:1032CC002A492A4B1B6823F0F8027B685B69DB00F8
:1032DC0013430B6015E0264B00221A60FFF706FF24
:1032EC00386108E0FFF702FF02463B69D31A022B54
:1032FC0001D903237AE11D4B1B6803F00203002B59
:10330C00F0D17B681B6803F00803002B3AD07B6874
:10331C009B69002B19D0174B01221A60FFF7E6FEB0
:10332C00386108E0FFF7E2FE02463B69D31A022B34
:10333C0001D903235AE10D4B5B6A03F00203002B06
:10334C00F0D0012000F0DAFA1CE00A4B00221A60DF
:10335C00FFF7CCFE38610FE0FFF7C8FE02463B6971
:10336C00D31A022B08D9032340E100BF00100240FE
:10337C0000004242800442429E4B5B6A03F002030F
:10338C00002BE9D17B681B6803F00403002B00F0D1
:10339C00A6800023FB75974BDB6903F08053002B51
:1033AC000DD1944A934BDB6943F08053D361914B1D
:1033BC00DB6903F08053BB60BB680123FB758E4B4C
:1033CC001B6803F48073002B18D18B4A8A4B1B6843
:1033DC0043F480731360FFF789FE386108E0FFF750
:1033EC0085FE02463B69D31A642B01D90323FDE009
:1033FC00814B1B6803F48073002BF0D07B68DB6877
:10340C00012B06D17B4A7B4B1B6A43F001031362F1
:10341C002DE07B68DB68002B0CD1764A754B1B6A60
:10342C0023F001031362734A724B1B6A23F00403EB
:10343C0013621CE07B68DB68052B0CD16D4A6D4B6D
:10344C001B6A43F0040313626A4A6A4B1B6A43F01B
:10345C00010313620BE0674A664B1B6A23F00103FE
:10346C001362644A634B1B6A23F0040313627B6888
:10347C00DB68002B15D0FFF739FE38610AE0FFF747
:10348C0035FE02463B69D31A41F28832934201D988
:10349C000323ABE0574B1B6A03F00203002BEED067
:1034AC0014E0FFF723FE38610AE0FFF71FFE024627
:1034BC003B69D31A41F28832934201D9032395E038
:1034CC004C4B1B6A03F00203002BEED1FB7D012B4E
:1034DC0005D1484A474BDB6923F08053D3617B68A5
:1034EC00DB69002B00F08180424B5B6803F00C031E
:1034FC00082B61D07B68DB69022B46D13F4B002245
:10350C001A60FFF7F3FD386108E0FFF7EFFD0246A4
:10351C003B69D31A022B01D9032367E0354B1B6897
:10352C0003F00073002BF0D17B681B6AB3F5803F6E
:10353C0008D130492F4B5B6823F400327B689B68C1
:10354C0013434B602B482B4B5B6823F474127B6842
:10355C00196A7B685B6A0B4313434360274B012258
:10356C001A60FFF7C3FD386108E0FFF7BFFD0246A4
:10357C003B69D31A022B01D9032337E01D4B1B687F
:10358C0003F00073002BF0D02FE01C4B00221A60CC
:10359C00FFF7ACFD386108E0FFF7A8FD02463B6978
:1035AC00D31A022B01D9032320E0124B1B6803F022
:1035BC000073002BF0D118E07B68DB69012B01D183
:1035CC00012313E00B4B5B68FB60FB6803F4803258
:1035DC007B681B6A9A4206D1FB6803F470127B6805
:1035EC005B6A9A4201D0012300E000231846183789
:1035FC00BD4680BD00100240007000406000424299
:10360C0080B584B000AF786039607B68002B01D145
:10361C000123D0E06A4B1B6803F007023B689A4217
:10362C0010D26749664B1B6823F007023B681343B3
:10363C000B60634B1B6803F007023B689A4201D096
:10364C000123B8E07B681B6803F00203002B20D039
:10365C007B681B6803F00403002B05D0594A594BB7
:10366C005B6843F4E06353607B681B6803F00803FA
:10367C00002B05D0534A534B5B6843F460535360A3
:10368C005049504B5B6823F0F0027B689B681343F6
:10369C004B607B681B6803F00103002B40D07B68F8
:1036AC005B68012B07D1474B1B6803F40033002BDD
:1036BC0015D101237FE07B685B68022B07D1414B5E
:1036CC001B6803F00073002B09D1012373E03D4B01
:1036DC001B6803F00203002B01D101236BE0394975
:1036EC00384B5B6823F003027B685B6813434B60C9
:1036FC00FFF7FCFCF8600AE0FFF7F8FC0246FB68F9
:10370C00D31A41F28832934201D9032353E02D4B53
:10371C005B6803F00C027B685B689B009A42EBD100
:10372C00274B1B6803F007023B689A4210D92449C7
:10373C00234B1B6823F007023B6813430B60204BA1
:10374C001B6803F007023B689A4201D0012332E068
:10375C007B681B6803F00403002B08D01949194B34
:10376C005B6823F4E0627B68DB6813434B607B6827
:10377C001B6803F00803002B09D01249114B5B683E
:10378C0023F460527B681B69DB0013434B6000F031
:10379C0021F801460B4B5B681B0903F00F030A4A27
:1037AC00D35C21FA03F3094A1360094B1B681846D2
:1037BC00FFF75AFC002318461037BD4680BD00BFEA
:1037CC00002002400010024008540008F4000020C1
:1037DC00EC00002090B48AB000AF2A4B3C1D0FCBFC
:1037EC0084E80F00284B1B883B800023FB610023DF
:1037FC00BB6100237B6200237B6100233B62234B74
:10380C005B68FB61FB6903F00C03042B02D0082BF3
:10381C0003D02DE01E4B3B622DE0FB699B0C03F0AB
:10382C000F0307F12802134413F8243C7B61FB6956
:10383C0003F48033002B13D0144B5B685B0C03F048
:10384C00010307F12802134413F8283CBB617B6980
:10385C000F4A02FB03F2BB69B2FBF3F37B6204E099
:10386C007B690C4A02FB03F37B627B6A3B6202E0DE
:10387C00074B3B6200BF3B6A18462837BD4690BCDD
:10388C00704700BFF45300080454000800100240B5
:10389C0000127A0000093D0080B400AF024B1B6897
:1038AC001846BD4680BC7047F400002080B500AFC0
:1038BC00FFF7F2FF0146054B5B681B0A03F0070399
:1038CC00034AD35C21FA03F3184680BD0010024072
:1038DC001854000880B500AFFFF7DEFF0146054B1A
:1038EC005B68DB0A03F00703034AD35C21FA03F39A
:1038FC00184680BD001002401854000880B485B0F2
:10390C0000AF78600A4B1B680A4AA2FB03235B0AD0
:10391C007A6802FB03F3FB6000BFFB685A1EFA6077
:10392C00002BF9D100BF1437BD4680BC704700BFD7
:10393C00F4000020D34D621080B48BB000AF7860DF
:10394C00396000237B6200233B6227E101227B6A02
:10395C0002FA03F3FB613B681A68FB691340BB6115
:10396C00BA69FB699A4240F016813B685B68122B7E
:10397C0034D0122B0DD8022B2BD0022B04D8002BB9
:10398C0031D0012B1CD048E0032B43D0112B1BD082
:10399C0043E0894A934226D0874A934206D8874A05
:1039AC00934220D0864A93421DD036E0854A9342FA
:1039BC0019D0854A934216D0844A934213D02CE0F6
:1039CC003B68DB683B6228E03B68DB6804333B62A6
:1039DC0023E03B68DB6808333B621EE03B68DB6836
:1039EC000C333B6219E03B689B68002B02D104232B
:1039FC003B6212E03B689B68012B05D108233B62BC
:103A0C007B68FA691A6108E008233B627B68FA69F3
:103A1C005A6102E000233B6200BFBB69FF2B01D857
:103A2C007B6801E07B6804337B61BB69FF2B02D8A8
:103A3C007B6A9B0002E07B6A083B9B003B617B69D5
:103A4C001A680F213B6901FA03F3DB431A40396A08
:103A5C003B6901FA03F31A437B691A603B685B68A4
:103A6C0003F08053002B00F09680594A584B9B6909
:103A7C0043F001039361564B9B6903F00103BB6058
:103A8C00BB68544A7B6A9B08023352F82330FB60B4
:103A9C007B6A03F003039B000F2202FA03F3DB4360
:103AAC00FA681340FB607B684B4A934213D07B68E7
:103ABC004A4A93420DD07B68494A934207D07B68AF
:103ACC00484A934201D1032306E0042304E0022375
:103ADC0002E0012300E000237A6A02F00302920064
:103AEC009340FA681343FB603A497B6A9B080233A4
:103AFC00FA6841F823203B685B6803F48033002BA1
:103B0C0006D03949384B1A68BB6913430B6006E081
:103B1C003549354B1A68BB69DB4313400B603B6876
:103B2C005B6803F40033002B06D02F492E4B5A68E8
:103B3C00BB6913434B6006E02B492B4B5A68BB699E
:103B4C00DB4313404B603B685B6803F48013002B32
:103B5C0006D02549244B9A68BB6913438B6006E059
:103B6C002149214B9A68BB69DB4313408B603B684E
:103B7C005B6803F40013002B06D01B491A4BDA6860
:103B8C00BB691343CB6006E01749174BDA68BB6976
:103B9C00DB431340CB607B6A01337B623B681A6862
:103BAC007B6A22FA03F3002B7FF4D0AE00BF2C37D4
:103BBC00BD4680BC704700BF0000211000001110F2
:103BCC000000121000003110000032100000221012
:103BDC00001002400000014000080140000C0140B0
:103BEC0000100140001401400004014080B485B075
:103BFC0000AF78600B467B807B689A687B881340AB
:103C0C00002B02D00123FB7301E00023FB73FB7B31
:103C1C0018461437BD4680BC704780B483B000AFE3
:103C2C0078600B467B8013467B707B78002B03D02F
:103C3C007A887B681A6103E07B881A047B681A61B6
:103C4C0000BF0C37BD4680BC7047000080B485B007
:103C5C0000AF78600023FB607B68002B01D101234F
:103C6C0043E07B681B681A46224B1344224AA2FB92
:103C7C0003231B099A007B681A647B681F4ADA636A
:103C8C007B68022283F821207B681B681B68FB6021
:103C9C00FB6823F47F5323F03003FB607B685A6886
:103CAC007B689B681A437B68DB681A437B681B69DB
:103CBC001A437B685B691A437B689B691A437B6870
:103CCC00DB691343FA681343FB607B681B68FA6873
:103CDC001A607B6800229A637B68012283F821209A
:103CEC007B68002283F82020002318461437BD4639
:103CFC0080BC7047F8FFFDBFCDCCCCCC000002409F
:103D0C0080B586B000AFF860B9607A603B60002384
:103D1C00FB75FB6893F82030012B01D102234AE09C
:103D2C00FB68012283F82020FB6893F82130012BDB
:103D3C003AD1FB68022283F82120FB6800229A63A7
:103D4C00FB681B68FA681268126822F001021A609C
:103D5C003B687A68B968F86800F0FAF9FB68DB6AC6
:103D6C00002B08D0FB681B68FA681268126842F0D6
:103D7C000E021A600FE0FB681B68FA681268126882
:103D8C0022F004021A60FB681B68FA681268126859
:103D9C0042F00A021A60FB681B68FA681268126823
:103DAC0042F001021A6005E0FB68002283F8202033
:103DBC000223FB75FB7D18461837BD4680BD80B4C9
:103DCC0085B000AF78600023FB737B6893F82130DB
:103DDC00022B08D07B6804229A637B68002283F84C
:103DEC002020012320E07B681B687A681268126827
:103DFC0022F00E021A607B681B687A6812681268DF
:103E0C0022F001021A607B68DB6B7A68126C01216C
:103E1C0001FA02F25A607B68012283F821207B6848
:103E2C00002283F82020FB7B18461437BD4680BC4B
:103E3C007047000080B584B000AF78600023FB733E
:103E4C007B6893F82130022B05D07B6804229A639F
:103E5C000123FB7357E07B681B687A681268126851
:103E6C0022F00E021A607B681B687A68126812686E
:103E7C0022F001021A60264A7B681B681946254B02
:103E8C0099422ED07B681B681946234B994226D049
:103E9C007B681B681946214B99421DD07B681B68B7
:103EAC0019461F4B994214D07B681B6819461D4B51
:103EBC0099420BD07B681B6819461B4B994202D167
:103ECC004FF480130EE04FF080730BE04FF480330F
:103EDC0008E04FF4805305E04FF4807302E01023A8
:103EEC0000E0012353607B68012283F821207B686A
:103EFC00002283F820207B685B6B002B03D07B684F
:103F0C005B6B78689847FB7B18461037BD4680BDC5
:103F1C0000000240080002401C0002403000024039
:103F2C0044000240580002406C00024080B584B04E
:103F3C0000AF78607B68DB6B1B68FB607B681B6881
:103F4C001B68BB607B681B6C04229A40FB681340A7
:103F5C00002B55D0BB6803F00403002B50D07B68BA
:103F6C001B681B6803F02003002B07D17B681B68C0
:103F7C007A681268126822F004021A606D4A7B6833
:103F8C001B6819466C4B99422ED07B681B681946EE
:103F9C006A4B994226D07B681B681946684B99423C
:103FAC001DD07B681B681946664B994214D07B6800
:103FBC001B681946644B99420BD07B681B681946E9
:103FCC00624B994202D14FF480030EE04FF08063B4
:103FDC000BE04FF4802308E04FF4804305E04FF4EE
:103FEC00806302E0402300E0042353607B68DB6ABB
:103FFC00002B00F09A807B68DB6A7868984794E025
:10400C007B681B6C02229A40FB681340002B5CD02F
:10401C00BB6803F00203002B57D07B681B681B683E
:10402C0003F02003002B0BD17B681B687A681268A5
:10403C00126822F00A021A607B68012283F82120A0
:10404C003C4A7B681B6819463B4B99422ED07B68D7
:10405C001B681946394B994226D07B681B68194658
:10406C00374B99421DD07B681B681946354B9942DA
:10407C0014D07B681B681946334B99420BD07B6874
:10408C001B681946314B994202D14FF400130EE0D4
:10409C004FF000730BE04FF4003308E04FF4005383
:1040AC0005E04FF4007302E0202300E0022353608C
:1040BC007B68002283F820207B689B6A002B34D01D
:1040CC007B689B6A786898472FE07B681B6C08229A
:1040DC009A40FB681340002B28D0BB6803F0080300
:1040EC00002B23D07B681B687A681268126822F058
:1040FC000E021A607B68DB6B7A68126C012101FA84
:10410C0002F25A607B6801229A637B68012283F871
:10411C0021207B68002283F820207B681B6B002BFE
:10412C0004D07B681B6B7868984700BF00BF1037C2
:10413C00BD4680BD00000240080002401C00024049
:10414C003000024044000240580002406C00024023
:10415C0080B485B000AFF860B9607A603B60FB68F2
:10416C00DB6BFA68126C012101FA02F25A60FB68EF
:10417C001B683A685A60FB685B68102B08D1FB68B7
:10418C001B687A689A60FB681B68BA68DA6007E09B
:10419C00FB681B68BA689A60FB681B687A68DA600F
:1041AC0000BF1437BD4680BC7047000080B485B09A
:1041BC0000AF78607B6803F00703FB600C4BDB6897
:1041CC00BB60BA684FF6FF031340BB60FB681A0272
:1041DC00BB68134343F0BF6343F40033BB60044A32
:1041EC00BB68D36000BF1437BD4680BC704700BFAE
:1041FC0000ED00E080B400AF044BDB681B0A03F059
:10420C0007031846BD4680BC704700BF00ED00E0B8
:10421C0080B483B000AF0346FB7197F90730002BD5
:10422C000BDB084997F907305B09FA7902F01F029A
:10423C00012000FA02F241F8232000BF0C37BD46E2
:10424C0080BC704700E100E080B483B000AF03464F
:10425C003960FB7197F90730002B0ADB0D4997F990
:10426C0007303A68D2B21201D2B20B4483F8002361
:10427C000AE00949FB7903F00F03043B3A68D2B218
:10428C001201D2B20B441A7600BF0C37BD4680BC6B
:10429C00704700BF00E100E000ED00E080B489B0A1
:1042AC0000AFF860B9607A60FB6803F00703FB614C
:1042BC00FB69C3F10703042B28BF0423BB61FB6913
:1042CC000433062B02D9FB69033B00E000237B611E
:1042DC000122BB6902FA03F35A1EBB681A407B69C0
:1042EC009A4001217B6901FA03F3591E7B680B404C
:1042FC00134318462437BD4680BC704780B582B046
:10430C0000AF78607B68013BB3F1807F01D3012360
:10431C000FE00A4A7B68013B53600F214FF0FF30DE
:10432C00FFF792FF054B00229A60044B07221A609C
:10433C00002318460837BD4680BD00BF10E000E0E2
:10434C0080B582B000AF78607868FFF72FFF00BFB0
:10435C000837BD4680BD80B586B000AF0346B96056
:10436C007A60FB7300237B61FFF744FF78617A6806
:10437C00B9687869FFF792FF024697F90F3011463A
:10438C001846FFF761FF00BF1837BD4680BD80B5EA
:10439C0082B000AF0346FB7197F907301846FFF760
:1043AC0037FF00BF0837BD4680BD80B582B000AF77
:1043BC0078607868FFF7A2FF034618460837BD46B9
:1043CC0080BD80B582B000AF78607B68002B01D1D6
:1043DC0001233FE07B6893F83D30DBB2002B06D124
:1043EC007B68002283F83C207868FEF799FB7B6899
:1043FC00242283F83D207B681B687A681268D26897
:10440C0022F40052DA60786800F0E2FD7B681B68E9
:10441C007A681268126922F490421A617B681B68F0
:10442C007A681268526922F02A025A617B681B680A
:10443C007A681268D26842F40052DA607B68002213
:10444C001A647B68202283F83D207B68202283F845
:10445C003E20002318460837BD4680BD80B58AB083
:10446C0002AFF860B9603B601346FB8000237B61B0
:10447C00FB6893F83D30DBB2202B7BD1BB68002B63
:10448C0002D0FB88002B01D1012374E0FB6893F868
:10449C003C30012B01D102236DE0FB68012283F833
:1044AC003C20FB6800221A64FB68212283F83D2023
:1044BC00FEF71CFE7861FB68FA889A84FB68FA8820
:1044CC00DA84FB689B68B3F5805F08D1FB681B69D5
:1044DC00002B04D10023FB61BB68BB6103E0BB680C
:1044EC00FB610023BB61FB68002283F83C2029E0C0
:1044FC003B6800937B6900228021F86800F055FB33
:10450C000346002B01D0032335E0FB69002B0AD1B5
:10451C00FB681B68BA691288C2F308025A60BB694F
:10452C000233BB6107E0FB681B68FA6912785A60BA
:10453C00FB690133FB61FB68DB8C9BB2013B9AB2DC
:10454C00FB68DA84FB68DB8C9BB2002BD0D13B6818
:10455C0000937B6900224021F86800F026FB03469B
:10456C00002B01D0032306E0FB68202283F83D20BA
:10457C00002300E0022318462037BD4680BD80B5DD
:10458C0084B000AFF860B9601346FB80FB6893F809
:10459C003E30DBB2202B1DD1BB68002B02D0FB8838
:1045AC00002B01D1012316E0FB6893F83C30012B62
:1045BC0001D102230FE0FB68012283F83C20FB6849
:1045CC0000221A63FB881A46B968F86800F038FBB9
:1045DC00034600E0022318461037BD4680BD80B567
:1045EC0084B000AF78600023FB607B681B685B695C
:1045FC0003F08003002B14BF01230023DBB2FB600C
:10460C007B6893F83D30DBB2212B16D1FB68002B75
:10461C0013D07B681B687A681268526922F080029A
:10462C005A617B685B6B002B04D07B685B6B184614
:10463C00FFF7C5FB786800F067FB7B681B685B695C
:10464C0003F04003002B14BF01230023DBB2FB60FB
:10465C007B6893F83E30DBB2222B16D1FB68002B23
:10466C0013D07B681B687A681268526922F040028A
:10467C005A617B689B6B002B04D07B689B6B184644
:10468C00FFF79DFB786800F054FB002318461037A9
:10469C00BD4680BD80B58AB000AF78607B681B6872
:1046AC001B687B627B681B68DB683B627B681B68F2
:1046BC005B69FB610023BB6100237B617B6A03F0B8
:1046CC000F03BB61BB69002B0DD17B6A03F0200388
:1046DC00002B08D03B6A03F02003002B03D0786832
:1046EC0000F0CDFB7CE1BB69002B00F0B180FB69D5
:1046FC0003F00103002B05D13B6A03F49073002BEC
:10470C0000F0A6807B6A03F00103002B0AD03B6A01
:10471C0003F48073002B05D07B681B6C43F0010203
:10472C007B681A647B6A03F00403002B0AD0FB69D4
:10473C0003F00103002B05D07B681B6C43F00202D5
:10474C007B681A647B6A03F00203002B0AD0FB69B6
:10475C0003F00103002B05D07B681B6C43F00402B3
:10476C007B681A647B6A03F00803002B0FD03B6A4A
:10477C0003F02003002B04D1FB6903F00103002B91
:10478C0005D07B681B6C43F008027B681A647B685D
:10479C001B6C002B00F01F817B6A03F02003002BA5
:1047AC0007D03B6A03F02003002B02D0786800F09E
:1047BC0066FB7B681B685B6903F04003002B14BF2E
:1047CC0001230023DBB27B617B681B6C03F00803C5
:1047DC00002B02D17B69002B31D0786800F0A9FA4C
:1047EC007B681B685B6903F04003002B23D07B685C
:1047FC001B687A681268526922F040025A617B6821
:10480C009B6B002B13D07B689B6B774A5A637B683E
:10481C009B6B1846FFF70EFB0346002B16D07B68EC
:10482C009B6B5B6B7A68926B104698470EE07868CE
:10483C0000F0F7F80AE0786800F0F3F806E0786822
:10484C0000F0EFF87B6800221A64C4E000BFC2E0FD
:10485C007B681B6B012B40F0A1807B6A03F010037B
:10486C00002B00F09B803B6A03F01003002B00F040
:10487C0095800023FB607B681B681B68FB607B6872
:10488C001B685B68FB60FB687B681B685B6903F0FB
:10489C004003002B4ED07B689B6B1B685B687B8254
:1048AC007B8A002B00F099807B689B8D7A8A9A42D8
:1048BC0080F093807B687A8ADA857B689B6B9B6936
:1048CC00202B2BD07B681B687A681268D26822F484
:1048DC008072DA607B681B687A681268526922F011
:1048EC0001025A617B681B687A681268526922F06F
:1048FC0040025A617B68202283F83E207B680022AC
:10490C001A637B681B687A681268D26822F01002FE
:10491C00DA607B689B6B1846FFF751FA7B689A8DBF
:10492C007B68DB8D9BB2D31A9BB21946786800F07A
:10493C0081F852E07B689A8D7B68DB8D9BB2D31A31
:10494C003B827B68DB8D9BB2002B48D03B8A002BD3
:10495C0045D07B681B687A681268D26822F4907222
:10496C00DA607B681B687A681268526922F001026F
:10497C005A617B68202283F83E207B6800221A63F0
:10498C007B681B687A681268D26822F01002DA60C1
:10499C003B8A1946786800F04DF820E07B6A03F0FA
:1049AC008003002B08D03B6A03F08003002B03D05C
:1049BC00786800F0FEF913E07B6A03F04003002BEB
:1049CC000ED03B6A03F04003002B09D0786800F04E
:1049DC003EFA00BF04E000BF02E000BF00E000BFF1
:1049EC002837BD4680BD00BF974D000880B483B00A
:1049FC0000AF786000BF0C37BD4680BC704780B4F8
:104A0C0083B000AF786000BF0C37BD4680BC7047E8
:104A1C0080B483B000AF786000BF0C37BD4680BC5B
:104A2C00704780B483B000AF786000BF0C37BD46D0
:104A3C0080BC704780B483B000AF78600B467B803D
:104A4C0000BF0C37BD4680BC704780B584B000AF4A
:104A5C0078607B685B6AFB607B681B681B6803F093
:104A6C002003002B2AD1FB680022DA85FB681B6827
:104A7C00FA681268D26822F48072DA60FB681B68EC
:104A8C00FA681268526922F001025A61FB681B68CD
:104A9C00FA681268526922F040025A61FB682022BF
:104AAC0083F83E20FB681B6B012B07D1FB681B684E
:104ABC00FA681268D26822F01002DA60FB681B6B8D
:104ACC00012B06D1FB689B8D1946F868FFF7B2FFE6
:104ADC0002E0F868FFF793FF00BF1037BD4680BDBA
:104AEC0080B584B000AF78607B685B6AFB60FB6864
:104AFC001B6B012B08D1FB689B8D5B089BB2194685
:104B0C00F868FFF797FF02E0F868FFF781FF00BF36
:104B1C001037BD4680BD80B584B000AF78600023EF
:104B2C00FB607B685B6ABB60BB681B685B6903F0FE
:104B3C008003002B14BF01230023DBB2FB60BB6896
:104B4C0093F83D30DBB2212B08D1FB68002B05D04C
:104B5C00BB680022DA84B86800F0D6F8BB681B6822
:104B6C005B6903F04003002B14BF01230023DBB26D
:104B7C00FB60BB6893F83E30DBB2222B08D1FB689C
:104B8C00002B05D0BB680022DA85B86800F0D1F89C
:104B9C00BB681B6C43F01002BB681A64B868FFF763
:104BAC0040FF00BF1037BD4680BD80B584B000AF5C
:104BBC00F860B9603B601346FB712CE0BB69B3F144
:104BCC00FF3F28D0BB69002B07D0FEF78FFA0246B7
:104BDC003B68D21ABB699A421DD9FB681B68FA68FC
:104BEC001268D26822F4D072DA60FB681B68FA682B
:104BFC001268526922F001025A61FB68202283F884
:104C0C003D20FB68202283F83E20FB68002283F8BD
:104C1C003C2003230FE0FB681B681A68BB681A4032
:104C2C00BB689A420CBF01230023DBB21A46FB7906
:104C3C009A42C3D0002318461037BD4680BD0000F1
:104C4C0080B586B000AFF860B9601346FB80BA68D7
:104C5C00FB689A62FB68FA889A85FB6800221A64E2
:104C6C00FB68222283F83E20FB689B6B234A9A62E6
:104C7C00FB689B6B224ADA62FB689B6B214A1A63C6
:104C8C00FB689B6B00225A6307F108037B61FB688E
:104C9C00986BFB681B68043319467B691A68FB88A0
:104CAC00FFF72EF800233B61FB681B681B683B6118
:104CBC00FB681B685B683B613B69FB68002283F8FF
:104CCC003C20FB681B68FA681268D26842F4807258
:104CDC00DA60FB681B68FA681268526942F00102DC
:104CEC005A61FB681B68FA681268526942F040020C
:104CFC005A61002318461837BD4680BD574A000834
:104D0C00ED4A0008234B000880B483B000AF7860F4
:104D1C007B681B687A681268D26822F0C002DA607D
:104D2C007B68202283F83D2000BF0C37BD4680BC39
:104D3C00704780B483B000AF78607B681B687A687A
:104D4C001268D26822F49072DA607B681B687A6809
:104D5C001268526922F001025A617B681B6B012BAD
:104D6C0007D17B681B687A681268D26822F010023F
:104D7C00DA607B68202283F83E207B6800221A636D
:104D8C0000BF0C37BD4680BC704780B584B000AF07
:104D9C0078607B685B6AFB60FB680022DA85FB68E5
:104DAC000022DA84F868FFF73CFE00BF1037BD46DE
:104DBC0080BD80B485B000AF78607B6893F83D30DF
:104DCC00DBB2212B3DD17B689B68B3F5805F13D19F
:104DDC007B681B69002B0FD17B681B6AFB607B68AF
:104DEC001B68FA681288C2F308025A607B681B6A57
:104DFC009A1C7B681A6208E07B681A687B681B6ADD
:104E0C00581C796808621B7853607B68DB8C9BB2FA
:104E1C00013B9BB27A681946D184002B0FD17B6879
:104E2C001B687A681268D26822F08002DA607B68AC
:104E3C001B687A681268D26842F04002DA6000237C
:104E4C0000E0022318461437BD4680BC704780B57D
:104E5C0082B000AF78607B681B687A681268D26891
:104E6C0022F04002DA607B68202283F83D207868CB
:104E7C00FFF7BCFD002318460837BD4680BD80B542
:104E8C0086B000AF78607B6893F83E30DBB2222BA3
:104E9C0040F099807B689B68B3F5805F17D17B6885
:104EAC001B69002B13D100237B617B689B6A3B61E0
:104EBC007B681B685B689BB2C3F308039AB23B69BF
:104ECC001A807B689B6A9A1C7B689A6226E07B68D6
:104EDC009B6A7B6100233B617B689B68B3F5805FB9
:104EEC0007D07B689B68002B0AD17B681B69002B61
:104EFC0006D17B681B685B68DAB27B691A7008E0C4
:104F0C007B681B685B68DBB203F07F03DAB27B69FA
:104F1C001A707B689B6A5A1C7B689A627B68DB8D73
:104F2C009BB2013B9BB27A681946D185002B48D1C4
:104F3C007B681B687A681268D26822F02002DA60FB
:104F4C007B681B687A681268D26822F48072DA6017
:104F5C007B681B687A681268526922F001025A61F8
:104F6C007B68202283F83E207B681B6B012B23D1AE
:104F7C007B6800221A637B681B687A681268D268A7
:104F8C0022F01002DA607B681B681B6803F01003C8
:104F9C00102B0AD10023FB607B681B681B68FB602D
:104FAC007B681B685B68FB60FB687B689B8D1946A4
:104FBC007868FFF73FFD02E07868FFF720FD0023DB
:104FCC0002E0002300E0022318461837BD4680BDDE
:104FDC0090B585B000AF78607B681B687A68126802
:104FEC00126922F440517A68D2680A431A617B68CC
:104FFC009A687B681B691A437B685B691343BB60C7
:10500C007B681A687B681B68DB6823F4B05323F059
:10501C000C03B9680B43D3607B681B687A68126811
:10502C00526922F440717A6892690A435A617B682A
:10503C001B682C4A934203D1FEF74CFCF86002E04B
:10504C00FEF734FCF8607B681968FA6813469B001D
:10505C0013449A001A447B685B689B00B2FBF3F321
:10506C00214AA2FB03235B091801FA6813469B0033
:10507C0013449A001A447B685B689B00B2FBF3F202
:10508C00194BA3FB02435B09642404FB03F3D31AFF
:10509C001B013233144AA2FB03235B0903F0F00318
:1050AC001844FA6813469B0013449A001A447B6810
:1050BC005B689B00B2FBF3F20B4BA3FB02435B0957
:1050CC00642404FB03F3D31A1B013233064AA2FBFC
:1050DC0003235B0903F00F0303448B6000BF1437F9
:1050EC00BD4690BD003801401F85EB5180B400AF28
:1050FC0000BFBD4680BC70470C480D490D4A0023CB
:10510C0002E0D458C4500433C4188C42F9D30A4A70
:10511C000A4C002301E013600432A242FBD3FFF7D8
:10512C00E5FFFBF73FF8FCF733FA7047000000206F
:10513C00F800002068540008F8000020FC0800204B
:10514C00FEE70000F8B500BFF8BC08BC9E467047EF
:0C515C00F8B500BFF8BC08BC9E467047C8
:1051680041540D0A00000000415445300D0A00006A
:1051780041542B4350494E3F0D0A000041542B43E4
:1051880053510D0A0000000041542B435245473F3C
:105198000D0A000041542B43474154543F0D0A0067
:1051A8000000000041542B51494143543D310D0A40
:1051B8000000000041542B51494143543F0D0A005F
:1051C8000000000041542B514944454143543D31AE
:1051D8000D0A000041542B5149434C4F53453D3073
:1051E8002C323030300D0A000000000041542B51A1
:1051F800494F50454E3D312C302C22544350222CDF
:10520800223133392E3139382E3136322E39342283
:105218002C3939390D0A000041542B514953454E58
:105228004445583D302C2233313332333333343311
:10523800353336333733383339220D0A000000004E
:1052480041542B514952443D302C313530300D0AF0
:105258000000000041542B514750534346473D221C
:105268006F7574706F7274222C2275617274646524
:10527800627567220D0A000041542B514750533D77
:10528800310D0A000000000041542B514750534C87
:105298004F433D300D0A00004F4B0000524541443A
:1052A8005900000043535100302C310031000000F8
:1052B8004F0000000D0000002B514952440000002F
:1052C800514750534C4F43004552524F5200000033
:1052D80069643A25780D0A0000000000303030304B
:1052E80030302E3030300000303030302E3030301A
:1052F800304E000030303030302E30303030450005
:10530800323531372E323833314E00003131372EB5
:10531800323432333134450041542B514953454ED0
:105328004445583D302C220000000000220D0A00A0
:105338000000000045433230B7C7D4A4C6DAB4ED44
:10534800CEF300002530326400000000D5FDD4DA29
:10535800C1ACBDD300000000B5E7BBB0BFA8D3D037
:10536800CECACCE200000000C1ACBDD3B3C9B9A617
:1053780000000000312C3100312C3500302C350074
:1053880072656376000000002C300000414C4152E9
:105398004D0000004E4F4E4541000000B3F5CABC19
:1053A800BBAFCDEAB3C90000C0D7B4EF31B1A8BED6
:1053B800AF000000C0D7B4EF32B1A8BEAF00000004
:1053C800C0D7B4EF33B1A8BEAF000000C0D7B4EF68
:1053D80034B1A8BEAF000000D2D1B1A8BEAF000062
:1053E800C7E5B3FDC6C1C4BB000000000203040545
:1053F800060708090A0B0C0D0E0F10100102000019
:10540800000000000000000001020304060708096C
:10541800000000000102030443000000232D302B8C
:1054280020000000686C4C00656667454647000030
:1054380030313233343536373839414243444546C2
:105448000000000030313233343536373839616284
:085458006364656600000000BA
:0454600079010008C6
:0454640051010008EA
:105468000400002000000000000000000000000010
:105478000000000000000000000000000000000024
:105488000000000020540008000000000000000098
:105498000000000000000000000000000000000004
:1054A80000000000000000000000000000000000F4
:1054B80000000000000000000000000000000000E4
:1054C8000000000020030000685100087051000827
:1054D8007851000884510008905100089C51000838
:1054E800AC510008BC510008CC510008DC51000840
:1054F800F451000820520008485200085C52000885
:105508008052000890520008A0520008A0520008DB
:10551800A4520008AC520008B0520008B452000867
:10552800B8520008A0520008A0520008BC52000857
:10553800BC520008A0520008C0520008BC52000823
:10554800BC520008C8520008D052000810000000E1
:08555800010000000024F40032
:040000050800510599
:00000001FF
