:020000040800F2
:10000000D80B002065600008B55C0008B75C0008EC
:10001000B95C0008BB5C0008BD5C00080000000083
:10002000000000000000000000000000BF5C0008AD
:10003000C15C000800000000C35C0008C55C00084B
:100040009D600008A1600008A5600008A960000884
:10005000AD600008B1600008B5600008B960000834
:10006000BD600008C1600008C5600008C9600008E4
:10007000515E0008CD600008D1600008D56000081E
:100080005B5E0008D9600008DD600008E1600008E0
:10009000E5600008E9600008ED600008F160000814
:1000A000F5600008F9600008FD60000801610008C3
:1000B00005610008096100080D6100081161000870
:1000C00015610008196100081D6100082161000820
:1000D00025610008655E0008735E0008815E000807
:1000E000296100082D6100083161000835610008B0
:1000F000396100083D610008416100084561000860
:10010000496100084D61000851610008556100080F
:10011000596100085D6100086161000865610008BF
:10012000696100086D61000871610008756100086F
:10013000796100087D61000881610008856100081F
:10014000896100088D6100089161000895610008CF
:10015000996100089D610008A1610008A56100087F
:10016000A9610008AD610008B1610008B56100082F
:10017000B9610008BD610008C1610008000000000D
:10018000C5610008C96100082DE9F14FB0B0924681
:1001900004910DF142013A9A2B9199464A70002040
:1001A0000AE01AF8011B0498309A9047002804903E
:1001B00000F06B860D98401C0D909AF8000050B12D
:1001C0002528EED1002100220791089209910A9278
:1001D0000B910C9204E00D9800F059BE41F0010122
:1001E0001AF8010F2028F9D023280CD02B2804D08E
:1001F0002D2805D0302809D00BE041F00201EFE7AF
:1002000041F00401ECE741F00801E9E741F0100199
:10021000E6E72A280FD1D9F8002052F8040BC9F8D4
:10022000002000280F9003D540420F9041F00401B8
:100230000AF1010A14E00F92DFF8583C0AE00F9827
:10024000984205DA00EB800402EB4402303A0F9248
:100250000AF1010A9AF80020A2F130000A28EED330
:100260009AF800002E2803D04FF0FF320E9229E0BA
:100270001AF8010F2A2809D1D9F8000050F8042BE8
:10028000C9F800000E920AF1010A1BE02D280CBFEC
:100290000AF1010A002000220E92DFF8F84B0BE071
:1002A00040B90E9AA24205DA02EB820503EB450340
:1002B000303B0E930AF1010A9AF80030A3F13002A4
:1002C0000A2AEDD3ADF840100FF6CC309AF80010A2
:1002D00000F006FF08B11AF8010B8DF842009DF8F6
:1002E0004200682805D19AF8000068280CD16221E4
:1002F00006E06C2804BF9AF800006C2804D1712134
:100300008DF842100AF1010A12A806901AF801BBF2
:10031000BBF125012CD01C3900F0D781091F02291F
:1003200040F2D381133900F0E284093900F0CD8125
:10033000891E00F07785491E00F02485491E022998
:1003400040F2C381091F00F01D85491F00F0328172
:10035000491E00F0CC84491E00F0D880C91E0DD083
:10036000891E00F0C484C91E00F0C18400F065BD80
:1003700025238DF84830012100F06ABDD9F800002E
:1003800050F8044BC9F80000002C059440F0AB80F5
:100390002B994878002800F0A1804FF0FF340FF629
:1003A000003000F0ADFE201A40F06F8500F051BD26
:1003B00001236A4602A9304600F042FE002840F0C0
:1003C00064856D1EF4D13096079D12AF75B1309ED5
:1003D00017F8012B02A9304600F022FE002801D4B4
:1003E0006D1EF5D10028309640F04F850A9D3020D3
:1003F000002D8DF800000CDD309E01236A4602A915
:10040000304600F01DFE002840F03F856D1EF4D1FF
:100410003096059F089D75B1309E17F8012B02A9F3
:10042000304600F0FDFD002801D46D1EF5D10028F6
:10043000309640F02A850B9D3020002D8DF800006D
:100440000CDD309E01236A4602A9304600F0F8FD1B
:10045000002840F01A856D1EF4D130960598089951
:10046000099D471875B1309E17F8012B02A9304637
:1004700000F0D6FD002801D46D1EF5D1002830967D
:1004800040F003850C9D3020002D8DF800000CDD20
:10049000309E01236A4602A9304600F0D1FD0028B3
:1004A00040F0F3846D1EF4D130969DF84000410772
:1004B0007FF583AE2020002C8DF800007FF77DAE05
:1004C000309D01236A4602A9284600F0B9FD0028A4
:1004D00040F0DB84641EF4D130956EE60FF6C03038
:1004E000059000F0B6BC0E9D002D04D5204600F00E
:1004F00027FE044607E02A46204600F03DFE00287D
:1005000014BF041B2C46089400F0A3BCD9F80010BB
:1005100051F8040BC9F8001020F00004002121F06C
:10052000FF3512ABCDE902450593DDE902230699BB
:100530003C2413B90AB90E98A8B102F00F05303562
:10054000641EEEB23A2E08DA120942EA03721B095F
:100550000D5508BF002A02D105E02735F4E70598BC
:100560000D19A842E9D308190590C4F13C020E9870
:10057000089282420ADABDF84010821A4FF6EF70F4
:1005800001400A92ADF8401000F063BC002840F131
:1005900060849DF8400000F01400102840F0598459
:1005A0000F9B07990A985B1A1B1A9A1A002A40F3A4
:1005B00050849AE32B99487820B14FF0FF340FF61E
:1005C000B020EEE69DF84200622860D0682817D07F
:1005D0006A283FD06C2806D0712847D074282CD0C8
:1005E0007A281DD062E0D9F8001051F8040BC9F840
:1005F0000010002866D14FF0FF340FF68C20D0E6B3
:10060000D9F8001051F8040BC9F8001020B94FF0C8
:10061000FF340FF67420C4E60D99018000F019BC78
:10062000D9F8001051F8040BC9F80010002849D17E
:100630004FF0FF340FF65020B3E6D9F8001051F810
:10064000040BC9F8001000283CD14FF0FF340FF61E
:100650003820A6E6D9F8001051F8040BC9F80010AC
:1006600080B94FF0FF340FF620209AE6D9F8001039
:1006700051F8040BC9F8001020B94FF0FF340FF601
:1006800008208EE60D9AD317C0E90023E1E3D9F8DC
:10069000001051F8040BC9F8001020B94FF0FF34D6
:1006A0000FF6E4107DE60D990170D2E3D9F8001041
:1006B00051F8040BC9F8001020B94FF0FF340FF6C1
:1006C000C8106EE60D990160C3E3D9F80020D21D71
:1006D00022F00702C9F80020D2E900010832C9F867
:1006E0000020CDE90201C80F02D007982D210AE0B1
:1006F000BDF84000810702D507982B2103E0C00711
:1007000005D50798202112AA1154401C079012A861
:100710000799DDE9024543184BF020006128059355
:1007200021AE0BD00E98002802D506200E9005E0D1
:1007300001BF4BF02000672801210E91DDE9020185
:1007400048004015401C0A460DD109030BD0ABF1FF
:10075000610703201A2F089002D20FF648110DE00E
:100760000FF644110AE070B912030CD1ABF1610726
:1007700003201A2F08901CD30FF6341103221846B9
:1007800000F026FD65E3DDE902016A4600F074FD34
:10079000CDE902014BF02000612811D105983021EC
:1007A0000170821CBBF1610F05920CBF78215821AA
:1007B00002E00FF6F801E1E741700798801C07900E
:1007C000DDE9020120F0000231F0004308BF002AF9
:1007D00002D10025002445E14BF02008B8F1610F5B
:1007E00040F095800E98002847BF21210191401CC0
:1007F0000190019F7F1C2046294600220023DDE94D
:10080000024500F071FD00998DF8842038BF85F015
:100810000045091F002F00910DF1850034DD0646CB
:10082000204629460022002300F078FD2BD21C220E
:1008300000F08EFD04460D4600F028FEFF1F002F3D
:10084000804609DD00F03EFE02460B462046294662
:1008500000F008FF04460D46F01D0721B8F1000F17
:100860000CDD491E5EBF08F00F0200F8012D4FEAB3
:100870002818F3D502E0002200F8012D491EFAD510
:10088000C61D002FCCDC30460DF18501401A0199C0
:1008900005468842C8BF0D46002D0DF185062FD4B0
:1008A000854206DA0DF18500415D0829A8BF0F20B9
:1008B00000DA0020294621AA0A4400E06D1E12F841
:1008C0000139491E8342F9D00F2804D10DF185006A
:1008D000425C521C4254002904D50098001D21AEF0
:1008E0006D1C0090681E0BD431180A783032D3B2D8
:1008F0003A2BA4BF5A443A3A401E01F80129F4D5D4
:100900000E98002840F1AD80691E0E91A9E0009973
:10091000DFF8FC2647F29750414391FBF2F2009238
:1009200025F00045C2F10702002A04DD20462946D1
:1009300000F04AFB0BE052420020DFF8D81600F02E
:1009400043FB02460B462046294600F0FDFE0446C6
:10095000B8F1660F0E9806BF009F0A3706273F18AA
:10096000142FC8BF142730208DF884000D460DF1D8
:10097000850000E03046002F35DD0646204629463A
:1009800001F006F801460A4606F1080304200A268B
:10099000B2FBF6F606EB860EA2EB4E02303203F8FF
:1009A000012C0A22B6FBF2F202EB820EA6EB4E06F7
:1009B0003036401E03F8026DE9D1083F002F03F1E5
:1009C0000806D7DD084600F0F5FF02460B46204634
:1009D000294600F047FE0022DFF83C3600F0F8FF21
:1009E00004460D46CAE70DF18501401A0DF1850652
:1009F00004E00099491E401E0091761C3178302990
:100A0000F7D0B8F1660F02D10099491C04E0B8F1A3
:100A1000650F0CBF012100210E9D4D19A842B8BFE2
:100A2000451E002D1DD4854204DA705D3428C8BFF0
:100A3000392000DC30202946721E531800E06D1E5C
:100A400013F80149491E8442F9D0392802D1705C5B
:100A5000401C7054002904D50098401C16466D1C9B
:100A60000090009C01F08AF8406A0778DDF8388031
:100A700028B2002802DC01250FF238664BF0200076
:100A8000662808BF641C16D0672846D120B210F132
:100A9000040F48DB404546DA9DF84000641C01071E
:100AA00003D428B24045D8BF804620B2B8EB000836
:100AB00048BF4FF000080FFA84FBBBF1000F00F3B2
:100AC000B5800898411C0891302205990A54B8F164
:100AD000000F03DC9DF84000010704D50898411C75
:100AE000089105990F5418EB0B0FB8BFC8F100041B
:100AF00024B260420B90A0442AB29045B8BF45464C
:100B0000059B08982DB209952A463146184400F0F5
:100B10005FFBA8EB05000C90D2E0BBF1610F17D191
:100B20004FF0700B19E028B2404504DA9DF84010F0
:100B30000A0758BF8046B8F1010848BF4FF00008C7
:100B4000BBF1670F14BF4FF0450B4FF0650B04E08E
:100B5000BBF1410F08BF4FF0500B0898411C0891A2
:100B6000B8F1000F059916F8012B0A5403DC9DF823
:100B7000400001071AD50898411C0891B8F1000FF0
:100B800005990F5412DD6D1E28B280450598089B0B
:100B9000B8BF45462AB23146184400F019FB0899FF
:100BA0002DB269180891A8EB05000B9005980899DB
:100BB000084421B2002980F800B003D42B224270EF
:100BC000821C04E02D2242700C46821C64420021EB
:100BD0002CAB20460AE004460A2094FBF0F000EB20
:100BE0008005A4EB450403F8014B491C00B2002822
:100BF000F1DC012906DC4BF02000652804BF302021
:100C000002F8010B00292CAB08D1302002F8010BAF
:100C100006E0491E585C303002F8010B0029F8DC70
:100C2000059908980844121A099249E028B221B29D
:100C300088421CDA0598089B2AB23146184400F015
:100C4000C7FA08992DB269180891ABEB0500B8F105
:100C5000000F0B9003DC9DF84000020704D50598B7
:100C600047540999491C0991CDF8308028E005982E
:100C7000089B22B23146184400F0AAFA08982D1BAE
:100C80005844B8F1000F089003DC9DF840100A07A3
:100C900003D5411C089105990F5428B28045059849
:100CA000089BB8BF45462AB206EB0B01184400F07A
:100CB0008FFA08982DB228180890A8EB05000B9021
:100CC0009DF8400000F01400102840F0C280079A00
:100CD00008990B988A18099982180C988A18821812
:100CE0000F98824280F2B580821A0A92B1E09DF894
:100CF0004200622808D068280ED06A2814D06C28D8
:100D00001FD0712810D01CE0D9F8001051F8040B46
:100D1000C9F80010C0B21AE0D9F8001051F8040B5D
:100D2000C9F8001080B212E0D9F80020D21D22F0DC
:100D30000702C9F80020D2E900010832C9F80020F2
:100D400006E0D9F8001051F8040BC9F80010002192
:100D5000CDE902019DF8400001075AD5DDE90223E3
:100D6000002B08BF002A54D04BF02000782850D127
:100D7000079812A930220A54401C431C079301F81B
:100D800000B046E09DF84200622808D068280ED0E6
:100D90006A2814D06C281FD0712810D01CE0D9F814
:100DA000001051F8040BC9F8001040B21AE0D9F84D
:100DB000001051F8040BC9F8001000B212E0D9F885
:100DC0000020D21D22F00702C9F80020D2E900015C
:100DD0000832C9F8002006E0D9F8001051F8040BD9
:100DE000C9F80010C117CDE90201002902D5079802
:100DF0002D210AE0BDF84000810702D507982B217C
:100E000003E0C00705D50798202112AA1154401C01
:100E1000079012A807990144059102A8594600F0CD
:100E20004DF816E001200790D9F8000050F8041B97
:100E3000C9F800008DF848100BE025210122BBF114
:100E4000000F8DF84810079203D08DF849B00221A9
:100E500007910F9A07980A990C9C121A0898521A2F
:100E60000B99121A0998521A121A9DF84000141B75
:100E700041073FF5A9AA2020002C8DF800007FF73C
:100E8000A3AA309E2546FFF793BA4FF0FF3031B04A
:100E9000BDE8F08FCBCCCC0C686A6C747A4C000047
:100EA0007072696E74665F733A20626164202573A4
:100EB00020617267756D656E740000002DE9FC435A
:100EC00004466F29256908BF082605D041F0200097
:100ED000782814BF0A2610263C27D4E90023642969
:100EE00018BF69299046994605D1002B03D5D8F142
:100EF000000869EB4909B9F1000F08BFB8F1000F0C
:100F00000CD1206B50B9082E3AD194F83800010763
:100F100036D530203B2785F83B0031E08DF80010B6
:100F2000404649463246F31700F02CFE3032D0B22C
:100F30007F1E3A2801970EDAEA5540464946324666
:100F4000F31700F01FFE80465FEA010908BFB8F101
:100F5000000F05D108E09DF800001218513AEBE7A8
:100F6000E068E9198842DBD3082E09D194F83800EB
:100F7000010705D5E85D302802D07F1E3020E855F6
:100F8000C7F13C02A261E919E160206B824208DAF4
:100F9000821A22624FF6EF70218F01402187BDE84F
:100FA000F38300280ED594F8380000F014001028C0
:100FB00008D1636B6169206A5B1A1B1A9A1A002AAE
:100FC000C8BF2262BDE8F3832DE9D04306460F4631
:100FD00014464FF00008DFF8449012E0E00707D510
:100FE00042464B463046394600F0F2FC06460F4674
:100FF0004046494642464B4600F0EAFC64108046B3
:101000008946002CEAD130463946BDE8D08300003D
:10101000A08601000000F03F84D7974100002440E3
:1010200010B503460C461146A0689847A06020B151
:10103000E06A401CE062002010BD4FF0FF3010BDA0
:10104000F8B505460E4617461C4600205CB117F859
:10105000011BB068A847B06030B1F06A401CF06274
:101060000020641EF3D1F2BD4FF0FF30F2BD00004E
:101070007072696E74665F733A20256E20646973BE
:10108000616C6C6F776564007072696E74663A208B
:1010900062616420256E20617267756D656E7400F3
:1010A000000000006E616E004E414E00696E6600E9
:1010B000494E460030000EE00268436802440830A2
:1010C0005FEAC37C44BF4B445B1E52F804CB43F839
:1010D00004CB091FF9D150F8041B0029ECD170474B
:1010E000C9B202788A421AB11CBF10F8012FF9E781
:1010F00018BF002070470268531C036011707047CE
:1011000080B500B906A005490B681BB12222002159
:10111000984701E000F04EFE222002BDC0070020EB
:10112000636F6E73747261696E742068616E646C53
:1011300065723A20626164206D6573736167650052
:1011400000F10103810704D010F8011B820781B16F
:10115000FAD10268A2F10131914311F0803104BF4C
:1011600050F8042FF6E709BAB1FA81F100EBD1008B
:10117000401CC01A70472E00C9B2830706D0521E09
:1011800022D310F8013B9942F7D11FE0083A13D35C
:1011900002F1040241EA012141EA014150F8043B15
:1011A000121F21BF4B40A3F1013C2CEA030C1CF0A1
:1011B000803FF3D0C9B2001F083210F8013B521E25
:1011C00028BF91EA030FF8D818BF0120401E7047CE
:1011D00062B38B0708D0521E11F8013B00F8013BA7
:1011E00000F024808B07F6D1830740F0208000BFF9
:1011F000103A07D330B4B1E83810103AA0E83810EC
:10120000F9D230BC530724BFB1E80810A0E8081099
:1012100044BF51F8043B40F8043BD20724BF31F8E7
:10122000022B20F8022B44BF0B7803707047121F6B
:1012300017D35B0009D151F8043B20F8023B1B0C8B
:10124000121F20F8023BF6D20BE051F8043B00F8E5
:10125000013B1B0A20F8023B1B0C121F00F8013B4C
:10126000F3D238BF121D521E24BF11F8013B00F803
:10127000013BF8D87047000010B5144600F002F8A2
:10128000226010BDC1F30A5343B14A0012F5001F9A
:1012900028D2A3F2FE32A1EB0251704750EA410C72
:1012A00020D001F0004C31EA0C01B1FA81F204BF08
:1012B000B0FA80F3D2180B3AB2F120032CBF00FA37
:1012C00003F1914041EA0C013EBFC2F1200C20FA2B
:1012D0000CF319439040524240F2FD33D21A01EB15
:1012E000035170470022704741EA030C50EA4C0C4E
:1012F00052EA0C0C4FF4001C09D307D01CEB410F31
:101300009CBF1CEB430F8B4208BF824270471CEB13
:10131000430FFBD8994208BF9042704741EA030C43
:1013200050EA4C0C52EA0C0C4FF4001C09D307D0C5
:101330001CEB410F9CBF1CEB430F994208BF90422E
:1013400070471CEB410FFBD88B4208BF82427047AD
:10135000124254D440F2FF7C1CEA11530FD0634573
:1013600031D09B1863453CBF01EB0251704701F03F
:10137000004141EA0C510020AFF30080704750EA71
:10138000410320D001F0004C91EA0C011CD0B1FACD
:1013900081F30B3B9A420DD9D21A994051EA0C01C4
:1013A000C3F1200C20FA0CFC61449840531C40F21D
:1013B000FF7CD7E7914041EA0C01C2F1200C20FAF2
:1013C0000CF3194390407047B0FA80F31533202B8B
:1013D000E0D3202AEED3203A203B9A4209D9D21AF0
:1013E00000FA03F141EA0C010020531C40F2FF7C9B
:1013F000B8E700FA02F141EA0C01002070475242BE
:1014000040F2FF7C1CEA11530DD06345DBD0B2EBF8
:10141000030C3CBFA1EB025170470CF1010221EA21
:10142000035141F4801150EA410CCCD001F0004C42
:10143000352A27DC30B481EA0C01B2F1200309DA45
:10144000C2F12003044601FA03F5D0402843D140FD
:101450009C400CE0C3F12002450020FA03F418BFC1
:1014600044F0010421FA03F091400C43002174F18F
:10147000004550F1000051EB0C01244230BC7FF4D8
:101480007BAF70476146002076E70000C1F30A5346
:1014900040F21E42D31A0CDDCA0283F3070342EA6C
:1014A000505242F00042DA4002EBE17282EAE1700F
:1014B00070476FEAE17203F2E13008B182F0004058
:1014C0007047000010F0004160B148BF4042B0FAE0
:1014D00080F29040D21CC2F5846241EA025202EBD3
:1014E000D02140057047000070B491EA030F4FF01F
:1014F000004540F1BF806B40841A71EB030604D2B3
:101500006E40001BB141121973414FF4001C1CEBDB
:10151000410F34BF7CEB430683E00C0DA4EB135664
:10152000362E00F37C80012E45EAC32341DC43EADA
:10153000525312BFD20292025B08240545EAC12130
:1015400041EA5051D2EBC020994125D407D1B0FADD
:1015500080F610FA06F162D00020203608E0B1FAD9
:1015600081F6B140C6F1200220FA02F21143B040E8
:101570004FEAF474B4EB465434F001064FEA7404B5
:101580000AD8D6F50016760D04F00044F04061FA52
:1015900006F25040F1404840C00A40EA415021F074
:1015A000004128BF5FEA500550F1000044EBD12113
:1015B00035E0DB0A45EAC121C90AB6F120050EDD96
:1015C00042EA0242120CC5F1200603FA06F6EB408D
:1015D00042EA06056D42984161F100010DE062FAB0
:1015E00006F5F240554063FA06FC82EA0C02F3402D
:1015F0005A406D42904161EB030111F4801F05D107
:10160000641E620502D06D004041494121F4801101
:10161000430875F1004350F1000041EB045170BCE8
:1016200070471CEB410F15D223F0004352EA4306EA
:101630000BD04FEA4C0CBCEB410F04D80C0D661ECE
:10164000342EB7DDEBE7801A994150EA410608BF16
:101650000021E4E708BF1CEB430F28BF6FF0000137
:10166000DDE7000070B491EA030F4FF000457FF50D
:1016700043AF6B40841A71EB030603D2001BB141E8
:10168000121973414FF4001C1CEB410F34BF7CEB6B
:10169000430442E00C0DA4EB1356352E4FDC45EA13
:1016A000C323DB0A45EAC121C912B6F120050DDDCD
:1016B00063FA05F6EB4086EA0305124218BF45F0CF
:1016C0000105C01851F100010CD213E062FA06F5D1
:1016D000F2405540F3415A40B340F3405A4080181D
:1016E000594107D349085FEA30005FEA350528BF52
:1016F00045F0010501F58011420875F1004250F1F5
:10170000000041EB04514E0016F5001F70BC38BFBD
:1017100070470020090D090570471CEB410F10D2DE
:1017200052EA43060BD0BCEB410F05D80C0DAB437E
:10173000661E342EB6DD02E0AB438018594170BC02
:10174000704770BC70470000F0B540F2FF7581EA49
:10175000030C0CF0004C15EA11541DBF15EA135789
:10176000AC42AF42E5E0BC41C1F31301C3F3130344
:10177000801A994143F4801304D2641E0018494131
:1017800080185941C90241EA5051B1FBF3F603FBFD
:101790001611A2FB0675D7EBC020A94102D2761E16
:1017A00080185941C90241EA5051B1FBF3FE03FBD5
:1017B0001E11A2FB0E75D7EBC020A94103D2AEF1DA
:1017C000010E80185941890241EA9051760546EA96
:1017D0008E2EB1FBF3F603FB1611A2FB0675D7EBB9
:1017E0008020A94102D2761E80185941C90241EADF
:1017F00050514EEA060EB1FBF3F603FB1611A2FBA5
:101800000675D7EBC020A94102D2761E8018594137
:10181000C90241EA5051B1FBF3F703FB1711A2FBD8
:101820000735D3EBC020A94167F100070CBF004288
:1018300047F0010766F3D5274FEA1E31B80814F5C3
:10184000806412DDBD0775F1004250EB0E5051EB84
:10185000045111F5801F5CBF41EA0C01F0BD4CF052
:101860007F6141F0E0410020F0BDBD076D0840EA16
:101870000E5041F48011D4F10104B4F120060ADACB
:10188000C4F120060200E04001FA06F3E1401843EB
:10189000B24015430EE0342C13DCC6F1200445EAB7
:1018A00040056D0820FA06F2154321FA06F0A14022
:1018B0000D43002175F1004250F1000051EB0C0185
:1018C000F0BD00205FEA0C01F0BDCFB992185B417A
:1018D000B3FA83F704BFB2FA82F6BF190B3FB7F130
:1018E00020062FBF02FA06F3BB40C7F1200622FAFA
:1018F00006F638BF3343BA401CB1E419641E33E71F
:101900007F4231F00041B1FA81F404BFB0FA80F6B1
:10191000A4190B3CB4F120062FBF00FA06F1A14038
:10192000C4F1200620FA06F638BF3143A0403C1B24
:101930001AE7AC421ABF05EA1357AF4212E050EA69
:1019400041061CBF52EA4306BFE750EA4107304652
:1019500061461CBF41EA0551F0BD52EA430C08BF85
:10196000C143F0BD00204FF4001616EB410F98BFA5
:1019700016EB430F08BF16EB410F24BFC14305E030
:1019800016EB430F0CBF61464CEA0551F0BD000059
:10199000400D40F21E4C40EAC120BCEB115C40F00F
:1019A000004003D48CF30701C84070476FEAE17030
:1019B0007047000050B1B0FA80F18840C91CC1F5F1
:1019C0008461090501EBD02140057047014670474D
:1019D00030B540F2FF7C1CEA11541DBF1CEA1355C0
:1019E000644565453FE0641981EA030C6FF35F537A
:1019F0000CF0004C43F48013C90241F0004141EA6D
:101A0000505EC5021100A5FB020200284FF0000045
:101A1000EEFB01204FF00001E3FB052118BF42F06F
:101A20000102401800214941E3FB0E01A4F5806446
:101A30000D0302D292184041494154F1010470DD76
:101A4000450872F1004250F1000051EB0451A1F53C
:101A5000801102D441EA0C0130BD40F2FF7E4CEA15
:101A60000E51002030BD0CEA1355644518BF654582
:101A700081EA030C0CF0004C41D050EA410E1CBF2F
:101A800052EA430E02E06146002030BD24422C445D
:101A90001BD15FEA050EF6D0090302BF0146002004
:101AA000AEF1140EB1FA81F5AEEB050401FA05FEB4
:101AB0000C35C5F1200100FA05F5C8404EEA000ECC
:101AC0006FF35F5343F480139CE733F00043B3FAA2
:101AD00083F504BFB2FA82FE75440B3D641BB5F179
:101AE000200E2FBF02FA0EF3AB40C5F1200E22FAF2
:101AF0000EFE38BF43EA0E03AA40641C7CE750EA9E
:101B0000410E14BF52EA430E6FF000014FF400156E
:101B100015EB430F8EBF194615EB410F9DE7B4D867
:101B200030BDD4F10104B4F120050FDAC4F1200571
:101B3000520828BF42F0010210FA05FE01FA05F52D
:101B40007244E2BFE0402843E1400FE0352C9ADCCC
:101B5000C5F1200452EA400220FA05F218BF42F013
:101B6000010231FA05F0A1400A43002172F100425E
:101B700050F1000051EB0C0130BD000000487047EF
:101B80000C000020BBBBE1B1B2F5803F80F07E804D
:101B9000022A1ED98C46B1FBF2F102FB11C31B04D1
:101BA00043EA1043B3FBF2FC02FB1C3380B240EA71
:101BB0000343B3FBF2F002FB103240EA0C40002377
:101BC0007047022A05D98446B0FBF2F002FB10C22E
:101BD00070474AB105D100F0010249085FEA3000C0
:101BE000704700220023704700F0E8B80B000200A5
:101BF000002100207047904271EB030CF6D3B3F53F
:101C0000803F2FD2F0B5B3FA83F7B1FA81F4A7F190
:101C10000F0E3D1B5340CEF1200602FA0EF2F341A7
:101C20005340B5F10F0746D80F3C2C444140C4F156
:101C30002006A040F1414140B1FBF3F603FB161131
:101C4000A2FB0645001BA94102D2761E801859410D
:101C500080EA010221FA0EF362FA0EF200215A40E4
:101C60003046F0BD30B4B1FBF3FC03FB1C11A2FB0A
:101C70000C45001BA94103D2ACF1010C801859415D
:101C800030BC02460B46604600217047B2F1807FAF
:101C900065D3F0B5B2FA82F7B1FA81F4C7F10F0655
:101CA0003D1B22FA06F307F1110EF24120355A408E
:101CB000B5F10F07B8D94140C4F12006A040F14169
:101CC0004140B1FBF3FC03FB1C11A2FB0C45001BC4
:101CD000A94103D2BCF1010C801859410F2F12D336
:101CE0000F3FC90341EA5041B1FBF3F603FB161164
:101CF000A2FB0645D4EBC030A94102D2761E801863
:101D0000594146EACC3C07B34140C7F12006B840F0
:101D1000F1414140B1FBF3F603FB1611A2FB06456E
:101D2000001BA94102D2761E8018594180EA0102A7
:101D300021FA0EF3C7F1200462FA0EF20CFA07F052
:101D40005A402CFA04F13043F0BD80EA010221FA36
:101D50000EF3002162FA0EF260465A40F0BD8C4646
:101D6000B1FBF2F102FB11C31B0243EA1063B3FBA8
:101D7000F2FC02FB1C331B024CEA002043EA106316
:101D8000B3FBF2FC02FB1C331B024CEA002043EACB
:101D90001063B3FBF2FC02FB1C331B024CEA002075
:101DA00043EA1063B3FBF2FC02FB1C324CEA002056
:101DB00000237047012000F003B8000070470000C6
:101DC00080B5AFF30080024A11001820ABBEFBE7DC
:101DD0002600020010B50400002C01D1012033E0E0
:101DE000A0690028FFD194F83900002805D100200F
:101DF00084F83800200000F02DFD242084F83900FC
:101E00002068C06830F400502168C860200000F0ED
:101E100013FB2068006930F4904021680861206855
:101E2000406930F02A00216848612068C06850F499
:101E300000502168C8600020E063202084F8390049
:101E4000202084F83A00002010BD2DE9FC47050051
:101E50000C0016001F005FF0000A95F839002028DA
:101E600060D1002C03D0300080B2002801D10120C5
:101E700059E095F83800012801D1022053E00120F3
:101E800085F838000020E863212085F8390000F04B
:101E900057FE8146AE84EE84002085F83800E88C39
:101EA00000282FD0E88C401EE884A868B0F5805F39
:101EB00018D100974B4600228021280000F0C0F97D
:101EC000002801D003202EE0A046B8F80000C0058D
:101ED000C00D296848602869002801D1A41CDEE7EC
:101EE000641CDCE700974B4600228021280000F0AC
:101EF000A7F9002801D0032015E020782968486060
:101F0000641CCCE700974B4600224021280000F0DB
:101F100097F9002801D0032005E0202085F839003A
:101F2000002000E00220BDE8F68773B5040015002C
:101F300094F83A00202851D10198002803D02800B5
:101F400080B2002801D1012049E094F8380001282E
:101F500001D1022043E0012084F838000198A062FA
:101F6000A5850020E063222084F83A000FF22520A6
:101F7000616BC8630FF26120616B08640FF2692026
:101F8000616BC8640020616B086501AE2B009BB2D9
:101F900032682068011D606B00F049FE002000904F
:101FA0002068006800902068406800900098002039
:101FB00084F838002068C06850F480702168C860D8
:101FC0002068406950F0010021684861206840693C
:101FD00050F0400021684861002000E0022076BDFA
:101FE00070B50600002031684C69E40914F0010462
:101FF00096F83910212910D1002C0ED03068406994
:1020000030F0800031684861306B002802D0306BBE
:1020100000F053FE300000F04AF930684569AD0920
:1020200015F0010596F83A00222810D1002D0ED0A7
:102030003068406930F0400031684861706B0028BA
:1020400002D0706B00F039FE300000F03AF9002049
:1020500070BD2DE9F8430600306807683068D0F895
:102060000C803068D0F814900020002517F00F0481
:10207000002C08D1B80606D55FEA886003D5300089
:1020800000F083F983E0002C6FD05FEAC97002D4BE
:1020900018F4907F69D03800C00706D55FEAC850B1
:1020A00003D5F06B50F00100F063780706D5484681
:1020B000C00703D5F06B50F00200F063B80706D5F7
:1020C0004846C00703D5F06B50F00400F0633807B2
:1020D00009D55FEA886002D44846C00703D5F06B93
:1020E00050F00800F063F06B00283DD0B80605D52D
:1020F0005FEA886002D5300000F047F93068406937
:10210000800910F001000500F06B000701D4002DDC
:1021100025D0300000F0D5F83068406940061AD567
:102120003068406930F0400031684861706B0028C9
:102130000DD00FF2B110716B0865706B00F00BFEE3
:10214000002811D0706B716B096D88470CE030006E
:1021500000F09EFF08E0300000F09AFF04E030003D
:1021600000F096FF0020F06311E0380606D55FEA24
:10217000086003D5300000F0C1F808E0780606D505
:102180005FEA486003D5300000F0EFF8FFE7BDE8F4
:10219000F183000038B50400A56B20680068C00515
:1021A00016D40020E8852868C06830F4807029685B
:1021B000C86028684069400840002968486128686C
:1021C000406930F0400029684861202085F83A00D5
:1021D000280000F05EFF31BD38B50400A56B280073
:1021E00000F058FF31BD0000F8B506000020B76BC5
:1021F00039684C69E40914F0010497F83910212971
:1022000006D1002C04D00020F884380000F04FF8EC
:1022100038684569AD0915F0010597F83A0022289C
:1022200006D1002D04D00020F885380000F049F8D0
:10223000F86B50F01000F863380000F029FFF1BD92
:102240002DE9F04105000E0090461F00069C28680D
:1022500000683040B04201D1012000E0002041463A
:10226000C9B2884220D114F1010FF0D0002C04D063
:1022700000F066FCC01B8442E9D22868C06830F4D4
:10228000D0702968C8602868406940084000296803
:102290004861202085F83900202085F83A00002088
:1022A00085F83800032000E00020BDE8F0810168D7
:1022B000C96831F0C0010268D160202180F839106E
:1022C00070470168C96831F490710268D160016893
:1022D00049694908490002685161202180F83A1093
:1022E0007047000038B50400A56B0020E885002089
:1022F000E884280000F0CCFE31BD0000010091F818
:10230000390021282FD18868B0F5805F11D1086A83
:1023100002001088C005C00D0B68586008690028CD
:1023200003D1086A801C086209E0086A401C086240
:1023300005E0086A431C0B6200780B685860C88C83
:10234000401EC88480B200280BD10868C06830F0F5
:1023500080000B68D8600868C06850F040000B68C7
:10236000D860002000E00220704710B5040020680B
:10237000C06830F040002168C860202084F839002F
:10238000200000F088FE002010BD38B5040094F84D
:102390003A0022284ED1A068B0F5805F16D1A06A1D
:1023A00005002069002808D120684068C005C00DDC
:1023B0002880A06A801CA0621AE02068406800F0B3
:1023C000FF002880A06A401CA06211E0206900285C
:1023D00006D1A06A411CA16221684968017007E02A
:1023E000A06A411CA1622168496811F07F01017057
:1023F000E08D401EE08580B2002819D12068C068B9
:1024000030F020002168C8602068C06830F4807017
:102410002168C86020684069400840002168486120
:10242000202084F83A00200000F033FE002002E073
:10243000002000E0022032BD2DE9F04105002868AF
:10244000016931F44051E868014328680161AE68D0
:102450002869064368690643E86906432868C16835
:10246000C248014031432868C1602868416931F49D
:102470004071A869014328684161E869B0F5004FDF
:1024800040F0BA802868BA49884203D02868B94920
:10249000884258D100F0B4FE04001920A0FB0401CA
:1024A0006A680223A3FB0223FFF76CFB6421B0FBE5
:1024B000F1F71920A0FB04016A680223A3FB0223A1
:1024C000FFF760FB80461920A0FB04016A68022325
:1024D000A3FB0223FFF756FB6421B0FBF1F17FF071
:1024E000630000FB0181C80032306421B0FBF1F0D1
:1024F000400010F4F87010EB071007001920A0FB43
:1025000004016A680223A3FB0223FFF73BFB80461A
:102510001920A0FB04016A680223A3FB0223FFF732
:1025200031FB6421B0FBF1F17FF0630000FB01811E
:10253000C80032306421B0FBF1F010F00700C01980
:10254000296888600FE100F050FE04001920A0FB0C
:1025500004016A680223A3FB0223FFF713FB642133
:10256000B0FBF1F71920A0FB04016A680223A3FB6A
:102570000223FFF707FB80461920A0FB04016A68CD
:102580000223A3FB0223FFF7FDFA6421B0FBF1F164
:102590007FF0630000FB0181C80032306421B0FB92
:1025A000F1F0400010F4F87010EB0710070019204C
:1025B000A0FB04016A680223A3FB0223FFF7E2FAEF
:1025C00080461920A0FB04016A680223A3FB0223B2
:1025D000FFF7D8FA6421B0FBF1F17FF0630000FB54
:1025E0000181C80032306421B0FBF1F010F0070027
:1025F000C01929688860B6E028685D49884203D020
:1026000028685C49884257D100F0FAFD040019207F
:10261000A0FB04016A680423A3FB0223FFF7B2FABC
:102620006421B0FBF1F71920A0FB04016A680423C0
:10263000A3FB0223FFF7A6FA80461920A0FB0401A2
:102640006A680423A3FB0223FFF79CFA6421B0FB12
:10265000F1F17FF0630000FB018108013230642159
:10266000B0FBF1F010F0F00010EB0710070019209C
:10267000A0FB04016A680423A3FB0223FFF782FA8C
:1026800080461920A0FB04016A680423A3FB0223EF
:10269000FFF778FA6421B0FBF1F17FF0630000FBF3
:1026A0000181080132306421B0FBF1F010F00F001D
:1026B000C0192968886056E000F097FD04001920D1
:1026C000A0FB04016A680423A3FB0223FFF75AFA64
:1026D0006421B0FBF1F71920A0FB04016A68042310
:1026E000A3FB0223FFF74EFA80461920A0FB04014A
:1026F0006A680423A3FB0223FFF744FA6421B0FBBA
:10270000F1F17FF0630000FB0181080132306421A8
:10271000B0FBF1F010F0F00010EB071007001920EB
:10272000A0FB04016A680423A3FB0223FFF72AFA33
:1027300080461920A0FB04016A680423A3FB02233E
:10274000FFF720FA6421B0FBF1F17FF0630000FB9A
:102750000181080132306421B0FBF1F010F00F006C
:10276000C01929688860BDE8F0810000F369FFFFA7
:10277000001001400014014081B000200090DFF8FB
:102780008003006850F48040DFF874130860DFF8BD
:102790007003006810F480400090009800200090C2
:1027A000DFF86003006850F08050DFF858130860CD
:1027B000DFF85003006810F080500090009801B0DE
:1027C000704781B00168DFF84023914210D10021A9
:1027D0000091DFF82C13096851F00101DFF8202384
:1027E0001160DFF81C13096811F0010100910099D4
:1027F00001B0704710B586B004001422002101A872
:1028000000F018FD2068DFF80013884220D1002076
:102810000090DFF8F802006850F01000DFF8EC12CA
:102820000860DFF8E802006810F0100000900098DF
:102830004FF480400190022002900020039000207D
:1028400004900120059001A9DFF8C40200F0FCFC0F
:1028500006B010BD10B586B00400142200216846F1
:1028600000F0E8FC2068DFF8AC1288424AD1002072
:102870000590DFF89002006850F48010DFF88412B1
:102880000860DFF88002006810F480100590059859
:10289000002005909D48006850F004009B490860A6
:1028A0009A48006810F004000590059800200590F3
:1028B0009648006850F00800944908609348006802
:1028C00010F00800059005984FF480500090022009
:1028D0000190012002900320039008200490694693
:1028E0008D4800F0B1FC04200090022001900120EE
:1028F000029003200390082004906946874800F066
:10290000A3FCFBE020688649884233D10020059073
:102910007B48006850F010007949086078480068EA
:1029200010F0100005900598002005907748006889
:1029300050F00100754908607448006810F001000B
:10294000059005984FF4C06000900220019000208F
:10295000029003200390072004906946714800F01C
:1029600073FC00220021252000F02EFE252000F01F
:1029700040FEC3E020686C4988425DD1002005908C
:102980006048006850F400305E4908605D480068A7
:1029900010F4003005900598002005905B48006811
:1029A00050F00800594908605848006810F00800C5
:1029B0000590059860200090022001900020029070
:1029C00003200390072004906946544800F03CFC23
:1029D0005648574908605FF000605549486000203C
:1029E0005349886000205249C8604FF480605049C4
:1029F000086100204E49486100204D49886100204F
:102A00004B49C86100204A49086200204849486291
:102A1000474800F09BF8002801D001F045FA4448EF
:102A200060634348846300220021262000F0CCFD2F
:102A3000262000F0DEFD61E020683E4988425DD13D
:102A4000002005902F48006850F480202D49086030
:102A50002C48006810F4802005900598002005900F
:102A60002A48006850F00800284908602748006894
:102A700010F00800059005984FF440700090022077
:102A800001900020029003200390072004906946E3
:102A9000224800F0D9FB2848284908605FF0006010
:102AA0002649486000202549886000202349C860E5
:102AB0004FF48060214908610020204948610020CE
:102AC0001E49886100201D49C86100201B49086219
:102AD00000201A494862194800F038F8002801D04F
:102AE00001F0E2F915486063144884630022002174
:102AF000272000F069FD272000F07BFD06B010BD07
:102B00004438024040380240000001403038024062
:102B1000001002400050004000080240000C02403B
:102B20000010014000000240004400408860024064
:102B3000480500200048004028600240A805002009
:102B400001480068704700BFA807002070B5040066
:102B50000026FFF7F5FF0500002C01D1012065E0FC
:102B6000606A0028002084F83400022084F83500D0
:102B700020680068400840002168086020680068FC
:102B8000C0070BD5FFF7DCFF401B0628F6D320203B
:102B90006065032084F83500032047E02068016861
:102BA000DFF84404014060680143A0680143E06825
:102BB00001432069014360690143A0690143E06961
:102BC0000143206A0143606A042803D1E06A01439B
:102BD000206B01432068016020684669F608F60012
:102BE000606A0643606A042810D1A06A0643E06A5E
:102BF00000280BD0200000F0FDF9002806D040206E
:102C00006065012084F8350001200FE020684661EE
:102C1000200000F0CFF901003F22E06D82408A6081
:102C200000206065012084F83500002070BD2DE98A
:102C3000F84304000D0016001F005FF00008D4F8F0
:102C4000589094F83400012801D1022033E001208B
:102C500084F8340094F83500012825D1022084F846
:102C60003500002060653B0032002900200000F0A4
:102C70008AF93F21E06D8140C9F80810206800689A
:102C800050F0160021680860206C002805D02068EC
:102C9000006850F00800216808602068006850F063
:102CA00001002168086004E0002084F8340002205C
:102CB00080464046C0B2BDE8F28370B50400A56D01
:102CC000FFF73EFF060094F83500022806D080206A
:102CD0006065002084F8340001203BE02068006833
:102CE00030F01600216808602068406930F08000EC
:102CF00021684861206C002802D1A06C002805D012
:102D00002068006830F008002168086020680068CA
:102D1000400840002168086020680068C0070ED5A0
:102D2000FFF70EFF801B0628F6D3202060650020E9
:102D300084F83400032084F8350003200AE03F21A2
:102D4000E06D8140A960002084F83400012084F8FF
:102D50003500002070BD010091F83500022803D035
:102D600080204865012009E0052081F835000868C9
:102D70000068400840000A68106000207047F8B5FD
:102D8000040000200090DFF8640200684FF4165140
:102D9000B0FBF1F5A66D37680821E06D81400F4268
:102DA00011D02068006840070DD52068006830F019
:102DB0000400216808600821E06D8140B160606D09
:102DC00050F001006065E06D3900C140C8070BD5C7
:102DD00020684069000607D50121E06D8140B1609F
:102DE000606D50F0020060650421E06D81400F428B
:102DF0000BD020680068800707D50421E06D814072
:102E0000B160606D50F0040060651021E06D81409C
:102E10000F422DD020680068000729D51021E06DF1
:102E20008140B16020680068400311D520680068C7
:102E3000000306D4206C00281AD02000216C88479B
:102E400016E0A06C002813D02000A16C88470FE08A
:102E500020680068C00505D42068006830F00800CC
:102E600021680860206C002802D02000216C88476F
:102E70002021E06D81400F4260D020680068C006CC
:102E80005CD52021E06D8140B16094F835000528C3
:102E900028D12068006830F016002168086020689A
:102EA000406930F0800021684861206C002802D120
:102EB000A06C002805D02068006830F00800216868
:102EC00008603F21E06D8140B160002084F834004B
:102ED000012084F83500206D002802D02000216DEB
:102EE00088474FE020680068400311D520680068DB
:102EF000000306D4606C002820D02000616C884755
:102F00001CE0E06B002819D02000E16B884715E039
:102F100020680068C0050BD42068006830F01000FD
:102F200021680860002084F83400012084F835000E
:102F3000E06B002802D02000E16B8847606D00281C
:102F400020D0606DC00717D5052084F835002068B3
:102F5000006840084000216808600098401C00900C
:102F6000854203D320680068C007F6D4002084F8A7
:102F70003400012084F83500E06C002802D02000E5
:102F8000E16C8847F1BD30B40468246834F48024CF
:102F900005682C60046863608468402C04D1046870
:102FA000A2600468E16003E00468A1600468E26074
:102FB00030BC7047017801F0FF0110391822B1FBD5
:102FC000F2F10B4A525CC265042905D30268920AE9
:102FD0009202121D826503E00268920A92028265E3
:102FE000806D7047000000003F8010F0040000205A
:102FF0008C60000810B402000020936A91690029D7
:1030000016D1002B05D0022B03D008D3032B0DD0F3
:103010000DE0D16AC90101D50121080035E0D16A6E
:10302000B1F1C07F01D1012108002EE02DE02CE09C
:103030009169B1F5005F18D1002B05D0022B03D0A8
:1030400005D3032B09D00FE0012108001DE0D16A50
:10305000C90101D50121080017E0D16AB1F1C07F93
:1030600001D10121080010E00FE019000029022918
:1030700002D9C91E03D008E00121080005E0D16A89
:10308000C90101D501210800FFE7C0B210BC70479B
:10309000704770477047704770B504000D00002CF2
:1030A00001D101209DE05C48006810F00F00A842AB
:1030B00009D2594805705848006810F00F00A8421E
:1030C00001D001208DE02078800719D520784007B5
:1030D00005D55248006850F4E05050490860207807
:1030E000000705D54D48006850F460404B49086022
:1030F0004A48016831F0F001A06801434748016087
:103100002078C00736D56068012805D1444800689A
:10311000800313D4012064E06068022802D0606854
:10312000032805D13E480068800107D4012058E0FB
:103130003B480068800701D4012052E0374801680D
:10314000890889006068014334480160FFF7F8FC92
:1031500006003248006810F00C006168B0EB810F87
:1031600008D0FFF7EDFC801B41F289318842F0D393
:10317000032036E02848006810F00F00854209D28D
:10318000254805702448006810F00F00A84201D0BF
:10319000012026E02078400707D52048016831F457
:1031A000E051E06801431D4801602078000708D520
:1031B0001A48006830F46040216950EAC10017499C
:1031C000086000F073FE1749144A1268C2F3031234
:1031D000895CC840144908601448006800F0B0FEDB
:1031E000002070BD10480068704780B5FFF7FAFFF7
:1031F0000F490A4A1268C2F38222895CC84002BDA4
:1032000080B5FFF7EFFF0A49044A1268C2F3423261
:10321000895CC84002BD0000003C02400838024002
:103220000038024054600008040000200000002024
:103230009460000810B5044610460A460146204630
:1032400000F0A4FE204610BDF8B4002300240026A0
:103250000025102D80F006810122AA4013000A6883
:103260001A4014009C4240F0FB804A68012A08D0B2
:103270004A68022A05D04A68112A02D04A68122AEE
:1032800024D187685FF0030C2A00D2B252001CFAE6
:1032900002FC37EA0C07D1F80CC02A00D2B2520067
:1032A0001CFA02FC5CEA0707876042685FF0010CC9
:1032B0001CFA05FC32EA0C02D1F804C0CCF3001C65
:1032C0001CFA05FC5CEA020216004660C7685FF063
:1032D000030C2A00D2B252001CFA02FC37EA0C0797
:1032E000D1F808C02A00D2B252001CFA02FC5CEAF3
:1032F0000707C7604A68022A02D04A68122A1ED10C
:103300002A00D20800EB8202166A5FF00F0C15F05B
:103310000702D2B292001CFA02FC36EA0C06D1F87F
:1033200010C015F00702D2B292001CFA02FC5CEA4F
:10333000060637002A00D20800EB820217620668F0
:103340005FF0030C2A00D2B252001CFA02FC36EAEB
:103350000C0691F804C01CF0030C2A00D2B25200F3
:103360001CFA02FC5CEA060606604A68D20077D5C1
:1033700000220092DFF82021126852F48042DFF828
:1033800018713A60444A126812F480420092009A1E
:10339000424A2F00BF0852F827705FF00F0C15F05B
:1033A0000302D2B292001CFA02FC37EA0C073C4A34
:1033B000904201D1002623E03A4A904201D10126F1
:1033C0001EE0394A904201D1022619E0374A904264
:1033D00001D1032614E0364A904201D104260FE0C1
:1033E000344A904201D105260AE0334A904201D185
:1033F000062605E0314A904201D1072600E0082662
:10340000F6B215F00302D2B2920096403743234A37
:103410002E00B60842F82670294A1268A2434E6868
:10342000F60300D52243264E3260264E3668A64368
:103430004F68BF0300D52643224A1660224A12680D
:10344000A2434F68FF0200D522431F4E32601F4E39
:103450003668A6434F68BF0200D526431B4A166054
:103460006D1CF6E6F1BC7047020010690B009BB2C0
:10347000184201D0012000E00020C0B270471300C4
:10348000DBB2002B03D00B009BB2836103E00B0087
:103490009BB21B04836170474438024008380140E6
:1034A000000002400004024000080240000C0240FC
:1034B000001002400014024000180240001C0240AC
:1034C000003C0140043C0140083C01400C3C0140F0
:1034D00010F00703DFF834110A684FF6FF010A40C5
:1034E00052EA0322DFF828110A43DFF820110A60AC
:1034F0007047DFF818010068C0F302207047010030
:1035000049B200290AD4012210F01F018A40DFF8D5
:10351000041103005BB25B0941F82320704710B42B
:10352000020052B2002A05D40A013B4B040064B2E7
:103530001A5508E00A01394B040064B214F00F0474
:10354000234403F8042C10BC704770B4030013F03C
:103550000704D4F10700052801D3042001E0D4F1C9
:103560000700251D072D01D2002500E0E51E0126DC
:1035700016FA00F0401E0140A940012010FA05F59E
:103580006D1E2A401143080070BC704710B504003E
:10359000601EB0F1807F01D301200EE0601E204943
:1035A00008600F215FF0FF30FFF7B9FF00201D49D1
:1035B000086007201C490860002010BD10B50400F9
:1035C0002000FFF785FF10BD2DE9F04104000D003C
:1035D00016000027FFF78DFF804632002900404685
:1035E000FFF7B3FF0100200040B2FFF798FFBDE8EE
:1035F000F08110B50400200040B2FFF780FF10BD3D
:1036000010B504002000FFF7C1FF10BD0CED00E075
:103610000000FA0500E100E000E400E018ED00E041
:1036200014E000E018E000E010E000E018B585B01C
:1036300004002000C0B2002819D1142200216846DD
:10364000FFF7F8FD00224FF48041DFF80008FFF794
:1036500016FF4FF48040009001200190022002905C
:10366000002003906946DFF8E407FFF7EDFD200036
:10367000C0B2012801D100F0B6F906B010BDF0B516
:1036800089B0040000200021002240F2E9339C426E
:1036900009D20A252A2314FB03F633009BB2022722
:1036A00093FBF7F708E0D22523009BB25E003300BE
:1036B0009BB2022793FBF7F7082200216846FFF729
:1036C000B9FD1C22002102A8FFF7B4FDDFF8800736
:1036D000DFF880170860280080B2401EDFF87417FA
:1036E00048600020DFF86C178860300080B2401E10
:1036F000DFF86017C8600020DFF8581708618020E5
:10370000DFF850178861DFF84C0700F08FFC0028C5
:1037100001D000F0C9FB0020009000200190694614
:10372000DFF8300700F092FF002801D000F0BCFB6A
:1037300060200290380080B2401E03900020049068
:10374000002006900C2202A9DFF8080700F0FCFC1C
:10375000002801D000F0A8FBDFF8F806FFF74AF8D0
:103760000C21DFF8F00600F07DFC09B0F0BD00B5DB
:1037700085B0142200216846FFF75CFD4FF480708D
:1037800000901120019000200290002003906946D3
:10379000DFF8C406FFF758FD4FF4006000901120D9
:1037A000019000200290002003906946DFF8A806EF
:1037B000FFF74AFD4FF48070009011200190002027
:1037C0000290002003906946DFF89006FFF73CFD69
:1037D0004FF4007000901120019000200290002012
:1037E00003906946DFF87406FFF72EFD05B000BDB3
:1037F00080B500F0AFFF00F099F800F034FA00F067
:1038000012FA00F0EEF900F0EEF800F0A6F900F080
:10381000C6F900F079F9FFF7AAFF01224FF4004141
:10382000DFF83C06FFF72BFE01220821DFF8340603
:10383000FFF725FE01222021DFF82806FFF71FFEF3
:103840004FF4FA7000F0C6FF01F010F901F05BF8D8
:10385000DFF81416087001F01CFA01F05FFA01F0AD
:1038600070FA01F081FA0021002001F093FF00219D
:10387000012001F08FFF0021022001F08BFF0021C9
:10388000032001F087FF01F043FCDFF8E00500684A
:1038900040F2E9318842F6D3DFF8D405817900207F
:1038A00001F078FFDFF8C805C179012001F072FF4F
:1038B000DFF8BC05017A022001F06CFFDFF8B005EB
:1038C000417A032001F066FFDFF8A80500780028A0
:1038D00002D0012813D024E00120DFF898150870E9
:1038E00000224FF48061DFF87C05FFF7C8FD00225D
:1038F0004FF40061DFF88005FFF7C1FD11E0002003
:10390000DFF87015087000224FF48061DFF854056D
:10391000FFF7B5FD01224FF40061DFF85C05FFF70A
:10392000AEFD0020DFF844150860ACE780B592B02A
:103930003022002106A8FFF77DFC1422002101A8F7
:10394000FFF778FC00200090DFF83005006850F0A9
:103950008050DFF828150860DFF82005006810F0B7
:1039600080500090009800200090DFF81405006857
:1039700050F48040DFF808150860DFF8040500689F
:1039800010F4804000900098012006905FF4803091
:10399000079002200C905FF480000D9004200E90A0
:1039A000A8200F90022010900420119006A801F08A
:1039B00059FF002801D000F077FA0F200190022073
:1039C0000290002003904FF4A05004904FF48050D8
:1039D0000590052101A8FFF75FFB002801D000F04A
:1039E00063FA13B000BD00B595B01022002111A8F4
:1039F000FFF720FC082200216846FFF71BFC1C2271
:103A000000210AA8FFF716FC2022002102A8FFF7D8
:103A100011FCDFF83C04DFF83C140860A720DFF855
:103A2000341448600020DFF82C14886040F2F31052
:103A3000DFF82014C8600020DFF8181408610020A7
:103A4000DFF8101448610020DFF808148861DFF8FF
:103A5000040400F0CFFA002801D000F025FA4FF45A
:103A60008050119011A9DFF8EC0300F0EDFB002865
:103A700001D000F019FADFF8DC0300F0D7FA0028D3
:103A800001D000F011FA002000900020019069465A
:103A9000DFF8C00300F0DAFD002801D000F004FADE
:103AA00060200A9000200B9002200C9000200E90C5
:103AB00000200F90002010900C220AA9DFF8940338
:103AC00000F042FB002801D000F0EEF90020029047
:103AD0000020039000200490002005900020069014
:103AE0004FF4005007900020099002A9DFF864030A
:103AF00000F002FE002801D000F0D6F9DFF85403F0
:103B0000FEF778FE15B000BD80B5DFF87803DFF86A
:103B1000781308605FF4E130DFF86C134860002030
:103B2000DFF8641388600020DFF85C13C8600020B1
:103B3000DFF8541308610C20DFF84C1348610020B3
:103B4000D14988610020D049C861CF48FEF742F9C9
:103B5000002801D000F0A8F901BD80B5CB48CC49C0
:103B600008605FF4E130CA4948600020C8498860B5
:103B70000020C749C8600020C54908610C20C4491D
:103B800048610020C24988610020C149C861C0481D
:103B9000FEF720F9002801D000F086F901BD80B5BC
:103BA000BC48BD4908605FF4E130BB494860002073
:103BB000B94988600020B849C8600020B64908614A
:103BC0000C20B54948610020B34988610020B24902
:103BD000C861B148FEF7FEF8002801D000F064F992
:103BE00001BD80B5AD48AE4908605FF4E130AC4935
:103BF00048600020AA4988600020A949C8600020C8
:103C0000A74908610C20A64948610020A4498861A1
:103C10000020A349C861A248FEF7DCF8002801D0C3
:103C200000F042F901BD80B5002000909D48006879
:103C300050F400109B4908609A48006810F4001086
:103C400000900098002200210C20FFF7BDFC0C2002
:103C5000FFF7CFFC002200211020FFF7B5FC102059
:103C6000FFF7C7FC01BD80B586B01422002168466D
:103C7000FFF7E0FA002005908A48006850F08000C5
:103C8000884908608748006810F080000590059812
:103C9000002005908348006850F0100081490860BA
:103CA0008048006810F010000590059800200590ED
:103CB0007C48006850F002007A4908607948006842
:103CC00010F00200059005980020059075480068E6
:103CD00050F00800734908607248006810F008004E
:103CE00005900598002005906E48006850F004008B
:103CF0006C4908606B48006810F004000590059856
:103D0000002005906748006850F001006549086090
:103D10006448006810F001000590059800200590A7
:103D20006048006850F040005E4908605D480068E7
:103D300010F040000590059800224FF40F414348D1
:103D4000FFF79DFB00224AF628414648FFF797FB04
:103D500000224FF400614848FFF791FB00224FF426
:103D600040713E48FFF78BFB00224FF4C8513A48A0
:103D7000FFF785FB00224FF400413948FFF77FFB36
:103D80004FF40F400090012001900020029000208D
:103D9000039069462D48FFF757FA4AF628400090ED
:103DA00001200190002002900020039069462D48D8
:103DB000FFF74AFA44F21000009000200190002022
:103DC000029069462748FFF73FFA4FF400600090E1
:103DD00001200190002002900020039069462648AF
:103DE000FFF732FA4FF4407000900120019000205C
:103DF00002900020039069461848FFF725FA4FF417
:103E0000C8500090012001900020029000200390F3
:103E100069461148FFF718FA4FF4785000900020D7
:103E200001900020029069460D48FFF70DFA4FF40B
:103E3000004000900120019000200290002003909B
:103E400069460748FFF700FA07B000BD00100240BE
:103E50000000014008060020000002400008024067
:103E60000018024000040240C8070020A0070020FC
:103E700048070020C9070020000C024040380240DB
:103E80000070004000500040480600200010014033
:103E90008806002000440040C8060020004800407A
:103EA000080700203038024072B6FEE7F0B5002463
:103EB0000025002600271E48006810F00C0000288E
:103EC00004D0042804D0082804D02FE019482EE09C
:103ED00019482CE01948006810F03F00040017480A
:103EE000006840020CD515480068C0F388101249DC
:103EF000A1FB000122000023FDF744FE05000BE0BA
:103F00000E480068C0F388100A49A1FB0001220096
:103F10000023FDF737FE050008480068C0F30140A4
:103F2000401C40000600B5FBF6F000E00148F0BD83
:103F3000083802400024F40000127A0004380240DD
:103F400010B504004FF47A700D490978B0FBF1F018
:103F50000C490968B1FBF0F0FFF752FB002801D0D3
:103F600001200CE0102C09D2002221005FF0FF306C
:103F7000FFF72AFB04480460002000E0012010BD88
:103F800044000020040000200000002062F30F2203
:103F900062F31F42401810F0030308D0C91A1FD360
:103FA000DB0748BF00F8012D28BF20F8022D1300C1
:103FB00030B414461546103928BF20E93C00FAD821
:103FC000490728BF20E90C0048BF40F8042D8900AC
:103FD00028BF20F8022D48BF00F8012D30BC7047E3
:103FE000C91818BF00F8012DCB0728BF00F8012D14
:103FF0007047000010B50400002C01D1012014E02E
:1040000094F83D00002805D1002084F83C002000F1
:10401000FEF7D7FB022084F83D00211D206800F048
:1040200089F9012084F83D00002010BD10B504007E
:10403000002C01D1012014E094F83D00002805D1A6
:10404000002084F83C00200001F012FE022084F8D9
:104050003D00211D206800F06DF9012084F83D002D
:10406000002010BD38B504000D0001222900206891
:1040700000F0DAFA2068DFF8C810884204D020681F
:10408000DFF8C010884201D1012000E00020C0B25A
:10409000002805D02068406C50F400402168486436
:1040A0002068816811F00701062905D020680068A2
:1040B00050F0010022681060002032BD38B50400C5
:1040C0000D0000222900206800F0AEFA2068DFF819
:1040D0007010884204D02068DFF86810884201D14F
:1040E000012000E00020C0B2002811D02068006A42
:1040F00041F2111108420BD12068006A40F244419C
:10410000084205D12068406C30F4004021684864C2
:104110002068006A41F2111108420BD12068006A40
:1041200040F24441084205D1206800684008400040
:1041300021680860012084F83D00002032BD0000A5
:10414000000001400004014070B504000D0016009D
:1041500094F83C00012801D1022074E0012084F889
:104160003C00022084F83D003000002806D00428DE
:104170001BD0082831D00C2846D05DE029002068EB
:1041800000F03BF92068806950F0080021688861E0
:104190002068806930F004002168886120688169A6
:1041A000286901432068816146E02900206800F009
:1041B00057F92068806950F40060216888612068A0
:1041C000806930F48060216888612068806929698D
:1041D00050EA0120216888612EE02900206800F063
:1041E00077F92068C06950F008002168C86120682C
:1041F000C06930F004002168C8612068C16928697D
:1042000001432068C16117E02900206800F097F998
:104210002068C06950F400602168C8612068C069E6
:1042200030F480602168C8612068C069296950EA5B
:1042300001202168C861FFE7012084F83D000020CB
:1042400084F83C00002070BD70B504000D0094F8A7
:104250003C00012801D102206BE0012084F83C00E1
:10426000022084F83D002068866836F0770636F430
:104270007F4620688660286800284ED010284CD0E1
:1042800020284AD0302848D040283CD0502826D07A
:1042900060282ED0702807D0B0F5805F03D0B0F52D
:1042A000005F0FD03EE03DE0EB686A68A9682068D7
:1042B00000F0AFF92068806850F0770006002068B1
:1042C00086602FE0EB686A68A968206800F0A1F9B1
:1042D0002068806850F480402168886022E0EA68A5
:1042E0006968206800F068F95021206800F089F9B9
:1042F00018E0EA686968206800F070F960212068B9
:1043000000F07FF90EE0EA686968206800F054F96F
:104310004021206800F075F904E02968206800F069
:1043200070F9FFE7012084F83D00002084F83C008C
:10433000002070BD0368DFF85422904212D0B0F123
:10434000804F0FD0DFF8482290420BD0DFF8442294
:10435000904207D0DFF84022904203D0DFF83C22A1
:10436000904203D133F070034A681343DFF81C22F4
:1043700090422AD0B0F1804F27D0DFF8142290422B
:1043800023D0DFF8102290421FD0DFF80C22904299
:104390001BD0DFF80822904217D0DFF804229042A9
:1043A00013D0DFF8002290420FD0DFF8FC219042BA
:1043B0000BD0DFF8F821904207D0DFF8F4219042CB
:1043C00003D0DFF8F021904203D133F44073CA6880
:1043D000134333F080034A69134303608A68C2625F
:1043E0000A688262694A904202D06C4A904201D1C6
:1043F0000A69026301224261704730B4026A5208BE
:1044000052000262056A4368846934F07004A408AB
:10441000A4000A68144335F002058A6815435B4A14
:10442000904202D05D4A904205D135F00805CA6835
:10443000154335F00405554A904202D0574A904240
:1044400007D133F4807333F400734A6913438A69E4
:104450001343436084614A684263056230BC70471D
:1044600030B4026A32F010020262046A4268836960
:1044700033F4E04333F440730D6853EA052334F01A
:1044800020048D6854EA0514404DA84202D0434DE3
:10449000A84206D134F08004CD6854EA051434F003
:1044A00040043A4DA84202D03C4DA84209D132F412
:1044B000806232F400624D6952EA85028D6952EAE7
:1044C0008502426083614D688563046230BC704739
:1044D00030B4026A32F480720262056A4368C469C9
:1044E00034F07004A408A4000A68144335F400757D
:1044F0008A6855EA0225254A904202D0274A90420E
:1045000006D135F40065CA6855EA022535F48065A0
:104510001E4A904202D0214A904209D133F480537E
:1045200033F400534A6953EA02138A6953EA0213C7
:104530004360C4614A68C263056230BC704730B4EE
:10454000026A32F480520262036A4468C26932F439
:10455000E04232F440720D6852EA052233F400530F
:104560008D6853EA0533094DA84202D00B4DA8428D
:1045700004D134F480444D6954EA85144460C26126
:104580004D680564036230BC7047000000000140C4
:104590000004004000080040000C004000040140FE
:1045A0000040014000440140004801400018004024
:1045B000001C00400020004010B4046A036A5B083D
:1045C0005B000362836933F0F00353EA021334F0B3
:1045D0000A040C438361046210BC704710B4036A80
:1045E00033F0100303628369046A33F4704353EABF
:1045F000023334F0A00454EA01148361046210BC55
:104600007047826832F070020A4352F007028260FB
:10461000704710B4846834F47F440C43144354EA64
:104620000324846010BC704730B4012411F01F03D0
:1046300014FA03F3046A9C430462046A11F01F0530
:1046400012FA05F52C43046230BC704730B4020006
:1046500092F83C00012801D102203CE0012082F8C0
:104660003C00022082F83D001068436810688468AE
:1046700033F0700308680343106843601068174DF7
:10468000A8421BD01068B0F1804F17D01068144DAD
:10469000A84213D01068134DA8420FD01068124DD5
:1046A000A8420BD01068114DA84207D01068104DD9
:1046B000A84203D010680F4DA84205D134F0800401
:1046C0004868044310688460012082F83D0000209F
:1046D00082F83C00002030BC704700000000014020
:1046E0000004004000080040000C004000040140AD
:1046F00000400140001800400200002392F83C00F6
:10470000012801D1022024E0012082F83C001B0A8C
:104710001B02C868034333F440738868034333F4CF
:1047200080634868034333F400630868034333F449
:1047300080530869034333F400534869034333F457
:104740008043C869034310684364002082F83C003A
:104750000020704780B50E48006850F400700C4986
:1047600008600B48006850F48060094908600848F8
:10477000006850F48070064908600320FEF71EFFB1
:104780000020FFF7DDFBFDF7F7FF002002BD000072
:10479000003C0240704700210022192A01D2521C1D
:1047A000FBE7704738B5040000200025A54205D27C
:1047B0004FF47A70FFF7EFFF6D1CF7E731BD10B5CE
:1047C00004002000441E002803D00A20FFF7EAFF5F
:1047D000F7E710BD10B50400002C05D04FF47A7037
:1047E000FFF7E0FF641EF7E710BD70B5040000207E
:1047F000260000252800C0B2082823DA002208215C
:10480000DFF8B404FEF73BFE300606D50122202176
:10481000DFF8A404FEF733FE05E000222021DFF8D4
:104820009804FEF72CFE0520FFF7C9FF012208219E
:10483000DFF88404FEF723FE0520FFF7C0FF7600B3
:104840006D1CD7E770BD38B500200025002420007E
:10485000C0B2182823DA6D0000220821DFF85804BE
:10486000FEF70DFE0520FFF7AAFF1021DFF8480430
:10487000FEF7FAFD012804D16D1C0120FFF78AFF25
:1048800002E00020FFF786FF01220821DFF828045C
:10489000FEF7F5FD0520FFF792FF641CD7E728001F
:1048A00032BD38B50020002500242000C0B2082801
:1048B00023DA6D0000220821DFF8FC03FEF7DFFD9C
:1048C0000520FFF77CFF1021DFF8EC03FEF7CCFD9D
:1048D000012804D16D1C0120FFF75CFF02E00020DD
:1048E000FFF758FF01220821DFF8CC03FEF7C7FDD0
:1048F0000520FFF764FF641CD7E70520FFF75FFF83
:104900002800C0B232BD10B500240121052000F0FE
:1049100032F880B210BD38B5002400224FF40041B7
:10492000DFF89803FEF7ABFD01222021DFF88803B2
:10493000FEF7A5FD00252800C0B2412813DA0022A9
:104940000821DFF87403FEF79AFD0A20FFF737FF0E
:1049500001220821DFF86003FEF791FD0A20FFF72E
:104960002EFF6D1CE7E701224FF40041DFF84C03F6
:10497000FEF785FD31BD2DE9F04104000D00002258
:104980004FF40041DFF83403FEF779FD54F04000A6
:10499000C0B2FFF72AFF2800C0B2012804D020D3FC
:1049A00003280ED004D31CE0FFF77BFF060018E0BD
:1049B000FFF777FF07003F02FFF773FF384306005A
:1049C0000FE0FFF76EFF07003F04FFF76AFF804626
:1049D00058EA07085FEA0828FFF763FF50EA080073
:1049E000060001224FF40041DFF8D002FEF747FD38
:1049F0003000BDE8F08170B504000D001600002203
:104A00004FF40041AD48FEF73AFD2000C0B2FFF779
:104A1000ECFE2800C0B2012804D020D3032810D017
:104A200005D31CE03000C0B2FFF7DFFE17E0300016
:104A3000000AC0B2FFF7D9FE3000C0B2FFF7D5FEC2
:104A40000DE03000000CC0B2FFF7CFFE3000000ACE
:104A5000C0B2FFF7CAFE3000C0B2FFF7C6FE0122A7
:104A60004FF400419548FEF70AFD70BD80B5FFF791
:104A700052FF4FF4FA70FFF7A2FE4FF4F8620221E2
:104A80000120FFF7B8FF48F233008D4908608C48D9
:104A9000026802210920FFF7AEFF02210920FFF77B
:104AA0006AFF8849086048F25300854908608448D5
:104AB000026802210A20FFF79EFF02210A20FFF769
:104AC0005AFF8049086048F293007D4908607C489D
:104AD000026802210B20FFF78EFF02210B20FFF757
:104AE0004AFF7849086048F2B30075490860744885
:104AF000026802210C20FFF77EFF02210C20FFF745
:104B00003AFF7049086048F2D3006D4908606C486C
:104B1000026802210D20FFF76EFF02210D20FFF732
:104B20002AFF6849086048F2F30065490860644854
:104B3000026802210E20FFF75EFF02210E20FFF720
:104B40001AFF60490860182202211920FFF753FF5D
:104B50005D4A03212120FFF74EFF01BD2DE9F04101
:104B60000400002500224FF400415448FEF787FC62
:104B7000002610215048FEF777FC012807D10120BC
:104B8000FFF71DFE761C40F2E9308642F1D3002784
:104B90004220FFF72AFEFFF756FE8046FFF781FE10
:104BA000050015F00F0501224FF400414348FEF7C0
:104BB00066FC280080B244F82080BDE8F0812DE931
:104BC000F8430500A84601224FF400613A48FEF779
:104BD00056FC01224FF400513748FEF750FC0120EB
:104BE000FFF7E0FD00224FF400613348FEF747FC79
:104BF0000120FFF7D7FD5FF014094846C0B2002836
:104C000035D015F4002080464046C00C0600002236
:104C10004FF400512848FEF732FCF00706D5012278
:104C20004FF400412448FEF72AFC05E000224FF42F
:104C300000412148FEF723FC0120FFF7B3FD0122CC
:104C40004FF400511C48FEF71AFC4FF480411A48FB
:104C5000FEF70AFC04006D00002C01D057F001079C
:104C60007F000120FFF79EFDB9F10109C5E7012290
:104C70004FF400611048FEF702FC01224FF400518E
:104C80000D48FEF7FCFB0120FFF78CFD3800BDE866
:104C9000F28380B50D48FFF792FF0720FFF78FFFE3
:104CA0000B48FFF78CFF0B48FFF789FF0A48FFF717
:104CB00086FF01BD00000000000402400018024011
:104CC000980700209C0700208001100010000E00B3
:104CD000B401090002020A0003000D0030B4030011
:104CE00018785E2801D0002016E05B1C1878E528B3
:104CF00001D0002010E05B1C1C882000150080B251
:104D0000ADB2A84201D0002006E0581C401C038828
:104D10000B80401C431C012030BC704780B5FF2233
:104D2000DFF82817DFF82807FDF7FFF8DFF820077E
:104D30000068C06850F01000DFF814170968C860F8
:104D400001BD80B5FF22DFF80C17DFF80C07FDF777
:104D5000ECF8DFF804070068C06850F01000DFF8D6
:104D6000F8160968C86001BD80B5FF22DFF8EC16AF
:104D7000DFF8EC06FDF7D9F8DFF8E4060068C06854
:104D800050F01000DFF8D8160968C86001BD2DE9A1
:104D9000F84304000D0016005E20DFF8C816087006
:104DA000E520DFF8C0164870DFF8B80684702000F0
:104DB00080B2000ADFF8AC16C870DFF8A8060571EB
:104DC000280080B2000ADFF89C164871200080B2EB
:104DD0000B280ADB2700BFB2BF1FB046DFF888965A
:104DE0003A0041464846FCF7F3F9200080B2072814
:104DF0001FDBF120DFF86C16220092B2114401F89B
:104E0000040C1F20DFF85C16220092B2114401F856
:104E1000030CF020DFF84C16220092B2114401F886
:104E2000020C0F20DFF83C16220092B2114401F868
:104E3000010CBDE8F1832DE9FF4101A8DFF82C1634
:104E400091E81C0080E81C00DFF804060068006898
:104E5000C00643D500200090DFF8F4050068006824
:104E60000090DFF8EC050068406800900098DFF8DB
:104E7000E005FDF7B5F8DFF8D805406B006840683D
:104E8000D0F1FF00DFF8E81508700A2401ADDFF863
:104E9000D465220029003000FCF79AF9DFF8D0052C
:104EA0000678DFF8A875DFF8CC8532003900404677
:104EB000FCF78EF94FF47A73DFF8B40502780A3202
:104EC00092B2DFF8A015DFF89805FCF7BEFFFF22CD
:104ED000DFF87815DFF87805FDF727F8BDE8FF81E2
:104EE0002DE9FF4101A8DFF8901591E81C0080E84A
:104EF0001C00DFF85C0500680068C00643D5002090
:104F00000090DFF85405006800680090DFF848055D
:104F10000068406800900098DFF83C05FDF760F8F5
:104F2000DFF83405406B00684068D0F1FF00DFF81F
:104F30004C1508700A2401ADDFF82865220029000D
:104F40003000FCF745F9DFF834050678DFF8047522
:104F5000DFF82085320039004046FCF739F94FF47C
:104F60007A73DFF8180502780A3292B2DFF8F41487
:104F7000DFF8EC04FCF769FFFF22DFF8D814DFF854
:104F8000D804FCF7D2FFBDE8FF817CB5DFF8D00480
:104F900000680068C00640F1B18000200090DFF892
:104FA000C004006800680090DFF8B404006840683E
:104FB00000900098DFF8A804FDF712F8DFF8A004CD
:104FC000406B00684068D0F1FF00DFF8B41408704F
:104FD000DFF88804007870282DD1DFF8800440784D
:104FE000722828D1DFF874048078692823D1DFF88B
:104FF0006C04C0786E281ED1DFF860040079742834
:1050000019D1DFF8580440793A2814D14FF47A7353
:10501000DFF86C040078821F92B2DFF86814DFF8C2
:105020006804FCF712FFFF22DFF83014DFF83004C9
:10503000FCF77BFF62E0DFF84804027892B2DFF809
:105040004C14DFF81804FFF749FE012843D1DFF8BC
:105050003C040088B0F5805F0DD041F20101884228
:1050600019D0B0F5204F34D0B0F5304F32D0B0F574
:10507000404F30D02FE03820DFF814140870DFF8EC
:105080001424DFF808040188DFF80404007880B2F3
:10509000FFF77DFE1FE0DFF8E8030478241FDFF848
:1050A000E453DFF8F063220029003000FCF790F8A9
:1050B0000A20DFF8DC130870DFF8DC030268DFF891
:1050C000CC030188DFF8C803007880B2FFF75FFEE9
:1050D00001E000E0FFE74FF47A73DFF8B4030278F1
:1050E00092B2DFF88013DFF87803FCF7AEFEFF2200
:1050F000DFF86813DFF86803FCF717FF73BDDFF80C
:105100009C030068401CDFF894130860704700009F
:1051100080B52DED088B84B0DFF88403FFF71EFD0A
:105120004FF40051DFF87C03FEF79EF9DFF86413BB
:10513000C8734FF40071DFF86C03FEF795F9DFF8E0
:10514000541381F828004FF48061DFF85803FEF70C
:105150008BF9DFF8401381F829004FF40061DFF884
:105160004403FEF781F9DFF82C1381F82A004FF48D
:105170008051DFF83003FEF777F9DFF8181381F874
:105180002B00DFF81C034069DFF808138861DFF8A3
:1051900010030069DFF8FC12C861DFF80403C0687F
:1051A000DFF8F0120862DFF8F8028068B949486257
:1051B000BB484068B7494861B6488069000AADF805
:1051C0000800B448C069000AADF80A00B148006A96
:1051D000000AADF80C00AF48406A000AADF80E00B6
:1051E0009FED988B9FED97ABAD480068000AFCF7E8
:1051F000E1FB41EC1B0B53EC1B2BAB48AB49FCF721
:10520000E7FBAB4AAB4BFCF76FF941EC190B51ECE8
:10521000190BFCF7BDFB9F490861A0480068C9282D
:105220001AD300209D490860BDF80E000190BDF81A
:105230000C000090BDF80A30BDF808209E4989484E
:1052400000F018FD8748FBF77BFFC823020092B2ED
:1052500084498348FCF7F9FD8E48807A002869D09C
:1052600096480068C92865D3002094490860894899
:10527000006988498989884246D201208549887316
:105280008F48006883490969884240D28148016992
:105290008B480068091A8B4801607E4881897D48E7
:1052A0000069091A88480160864800680B2808D3FD
:1052B00000224FF480718548FEF7E1F8002075491F
:1052C00088738148006805280CD27E48006803284E
:1052D00008D300224FF480717C48FEF7D0F80020FC
:1052E0006C498873784800680A2810D275480068AD
:1052F00006280CD300224FF480717448FEF7BFF8E3
:1053000000206449887302E000206F49086061480A
:10531000006960498989884208D300224FF480716E
:105320006A48FEF7ACF800205A498873594800696A
:10533000634908605748807A002806D15548C07AEA
:10534000002802D00120534988735248807A0028EF
:105350000CD15048C07A002808D100224FF4807147
:105360005A48FEF78CF800204A498873494800796A
:10537000002805D001224FF480615448FEF77FF8E1
:1053800044480079002805D100224FF480614F483D
:10539000FEF775F83F484079002805D001224FF408
:1053A00000714A48FEF76BF83A484079002805D169
:1053B00000224FF400714548FEF761F83548407807
:1053C000012826D14248007800280CD10120FEF7A0
:1053D0002DF9FFF75EFC3F482E49C978491C90FB28
:1053E000F1F0FEF74CF901203949087000224FF422
:1053F00080613948FEF743F801224FF400613648D6
:10540000FEF73DF801224FF400413048FEF737F82F
:1054100013E02F480078012806D10C212F48FEF711
:105420004DFE0020FEF702F90020294908700122F4
:105430004FF480612848FEF722F804B0BDEC088BD9
:1054400001BD00BF00000000000000004802002075
:105450008806002048030020C806002048040020D9
:1054600008070020480000204E000020746000085B
:10547000CB0700205200002080600008CC070020ED
:10548000CD0700204E04002048060020C60700205B
:10549000CE0700204807002008000020B0070020A9
:1054A0007807002000180240B1B4D782F79AB23FC3
:1054B0000F6433E4D75A9FC03C600008A407002063
:1054C000BC070020B4070020B807002000100240ED
:1054D000D007002020A10700000402400806002099
:1054E00038B504000025A54204D20120FFF75AF97F
:1054F0006D1CF8E731BD10B504002000C0B20028D3
:1055000024D101224FF40061A048FDF7B8FF01202B
:10551000FFF7E6FF01224FF480719C48FDF7AFFFD3
:105520000120FFF7DDFF00224FF400619748FDF7EF
:10553000A6FF0A20FFF7D4FF00224FF480719348A2
:10554000FDF79DFF0A20FFF7CBFF23E001224FF478
:1055500000718F48FDF793FF0120FFF7C1FF012283
:105560004FF480718A48FDF78AFF0120FFF7B8FFEA
:1055700000224FF400718648FDF781FF0A20FFF7F3
:10558000AFFF00224FF480718148FDF778FF0A20B9
:10559000FFF7A6FF10BD10B504002000C0B2002820
:1055A00024D100224FF480717848FDF768FF012074
:1055B000FFF796FF00224FF400617448FDF75FFF8C
:1055C0000120FFF78DFF01224FF480716F48FDF736
:1055D00056FF0A20FFF784FF01224FF400616B4859
:1055E000FDF74DFF0A20FFF77BFF23E000224FF479
:1055F00080716748FDF743FF0120FFF771FF00222C
:105600004FF400716248FDF73AFF0120FFF768FF91
:1056100001224FF480715E48FDF731FF0A20FFF749
:105620005FFF01224FF400715948FDF728FF0A205F
:10563000FFF756FF10BDF8B504000D00002620004E
:10564000C0B200284FD180273800C0B2002828D02F
:105650003800C0B2284206D100224FF400614B4806
:10566000FDF70DFF05E001224FF400614748FDF70B
:1056700006FF0120FFF734FF01224FF480714348F9
:10568000FDF7FDFE0520FFF72BFF00224FF4807190
:105690003E48FDF7F4FE0120FFF722FFFFB27F082E
:1056A000D2E701224FF400613848FDF7E8FE0122FD
:1056B0004FF480713548FDF7E2FE0120FFF710FF3F
:1056C0004FF400613148FDF7CFFE012801D10120E0
:1056D000060000224FF480712C48FDF7D0FE142004
:1056E000FFF7FEFE4EE080273800C0B2002828D029
:1056F0003800C0B2284206D100224FF4007124487D
:10570000FDF7BDFE05E001224FF400712048FDF7D2
:10571000B6FE0120FFF7E4FE01224FF480711C4821
:10572000FDF7ADFE0520FFF7DBFE00224FF4807190
:105730001748FDF7A4FE0120FFF7D2FEFFB27F0855
:10574000D2E701224FF400711148FDF798FE0122C3
:105750004FF480710E48FDF792FE0120FFF7C0FE66
:105760004FF400710A48FDF77FFE012801D10120A6
:10577000060000224FF480710548FDF780FE1420DA
:10578000FFF7AEFE3000C0B2F2BD000000000240E4
:1057900000080240F8B504000D002E00F6B23609EC
:1057A0002F012000C0B2002813D10020FFF7A3FE74
:1057B0009A210020FFF73FFF3100C9B20020FFF718
:1057C0003AFF3900C9B20020FFF735FF0020FFF78C
:1057D000E2FE2000C0B2012813D10020FFF78BFEAB
:1057E00098210020FFF727FF3100C9B20020FFF702
:1057F00022FF3900C9B20020FFF71DFF0020FFF78C
:10580000CAFE2000C0B2022813D10120FFF773FEA8
:105810009A210120FFF70FFF3100C9B20120FFF7E5
:105820000AFF3900C9B20120FFF705FF0120FFF789
:10583000B2FE2000C0B2032813D10120FFF75BFEA7
:1058400098210120FFF7F7FE3100C9B20120FFF7D0
:10585000F2FE3900C9B20120FFF7EDFE0120FFF78B
:105860009AFEF1BDF8B50400002C01D10120EAE157
:105870002078C0076FD5DFF8D003006810F00C0067
:1058800004280BD0DFF8C003006810F00C000828D3
:105890000ED1DFF8B8030068400209D5DFF8B00385
:1058A0000068800357D56068002854D10120CAE100
:1058B0006068B0F5803F08D1DFF89403006850F4C9
:1058C0008030DFF88C13086024E06068B0F5A02F0A
:1058D00010D1DFF87C03006850F48020DFF87013EB
:1058E0000860DFF86C03006850F48030DFF8601364
:1058F00008600FE0DFF85803006830F48030DFF80C
:1059000050130860DFF84803006830F48020DFF8A7
:1059100040130860606800280ED0FDF711F90500FB
:10592000DFF82C030068800315D4FDF709F9401B4C
:105930006528F5D3032086E1FDF702F90500DFF8BD
:1059400010030068800306D5FDF7FAF8401B6528B0
:10595000F5D3032077E12078800754D5DFF8E802FB
:10596000006810F00C0F0BD0DFF8DC02006810F0BC
:105970000C00082818D1DFF8D4020068400213D4C4
:10598000DFF8CC020068800704D5E068012801D068
:10599000012058E1AE48006830F0F800216950EA73
:1059A000C100AB4908602EE0E06800281AD0012051
:1059B000A8490860FDF7C4F80500A54800688007FD
:1059C00006D4FDF7BDF8401B0328F6D303203AE1C7
:1059D0009F48006830F0F800216950EAC1009C49F6
:1059E000086010E000209B490860FDF7A9F8050059
:1059F00097480068800706D5FDF7A2F8401B0328EA
:105A0000F6D303201FE12078000724D56069002821
:105A100010D0012090490860FDF792F805008F48EA
:105A20000068800717D4FDF78BF8401B0328F6D3D6
:105A3000032008E1002088490860FDF781F805008F
:105A400086480068800706D5FDF77AF8401B0328D2
:105A5000F6D30320F7E02078400740F1808000274C
:105A60007F480068C0000FD4002000907C48006888
:105A700050F080507A4908607948006810F08050F2
:105A8000009000980120070076480068C00513D4F4
:105A90007448006850F4807072490860FDF750F84F
:105AA000050070480068C00506D4FDF749F8401BA2
:105AB0000328F6D30320C6E0A068012806D16A486F
:105AC000006850F00100684908601BE0A0680528E4
:105AD0000CD16548006850F00400634908606248D2
