:020000040800F2
:10000000503F002019040008A1630008A363000802
:10001000A7630008AB630008AF630008000000009E
:10002000000000000000000000000000B3630008B2
:10003000B563000800000000B7630008B96300085A
:1000400033040008330400083304000833040008B4
:1000500033040008330400083304000833040008A4
:100060003304000833040008330400083304000894
:100070003304000833040008330400083304000884
:100080003304000833040008330400083304000874
:100090008164000833040008E77600083304000890
:1000A0003304000833040008330400083304000854
:1000B00033CD0008A9B70008116400083304000814
:1000C0003304000833040008330400083304000834
:1000D00033040008C163000857CB0008330400084C
:1000E0003304000833040008330400083304000814
:1000F0003304000833040008330400083304000804
:1001000033040008330400084B640008330400087B
:1001100033040008330400083304000833040008E3
:1001200033040008330400083304000833040008D3
:1001300000F002F800F070F80AA090E8000C824489
:100140008344AAF10107DA4501D100F065F8AFF266
:10015000090EBAE80F0013F0010F18BFFB1A43F0A5
:100160000103184728390100483901000A444FF0BB
:10017000000C10F8013B13F0070408BF10F8014B06
:100180001D1108BF10F8015B641E05D010F8016B4B
:10019000641E01F8016BF9D113F0080F1EBF10F8AF
:1001A000014BAD1C0C1B09D16D1E58BF01F801CBD2
:1001B000FAD505E014F8016B01F8016B6D1EF9D555
:1001C0009142D6D37047000000230024002500266A
:1001D000103A28BF78C1FBD8520728BF30C148BFAA
:1001E0000B607047662912F0CE8373290FF0EF86FB
:1001F000002070471FB50FF02BFF040000200021E6
:1002000011F018FA401C60600020002111F0FCF988
:10021000E0601FBD10B510BD10F03CF81146FFF7AF
:10022000E9FF03F0C2FF10F05AF803B4FFF7F2FF42
:1002300003BC07F065FC00000CB5002001900090A5
:100240006C48006840F480306A49086000BF694823
:10025000006800F4003000900198401C0190009864
:1002600018B90198B0F5A06FF1D16248006800F4A8
:10027000003010B10120009001E0002000900098B3
:10028000012843D15C48006840F010005A490860DA
:100290000846006820F0030008600846006840F047
:1002A0000200086053484068524948600846406868
:1002B00048600846406840F48060486008464068EE
:1002C00020F47C1048600846406840F4E81048601C
:1002D0000846006840F08070086000BF454800682C
:1002E00000F000700028F9D04248406820F0030078
:1002F000404948600846406840F00200486000BF3E
:100300003C48406800F00C000828F9D10CBD10B53D
:10031000FFF792FF10BD10B53648006840F00100AD
:10032000344908600846406834490840314948600B
:1003300008460068324908402E49086008460068AF
:1003400020F4802008600846406820F4FE004860E1
:100350004FF41F008860FFF7DAFF4FF00060294973
:10036000086010BD10B5002100200022214B5B6801
:1003700003F00C0121B1042906D0082928D107E097
:10038000214B224C236027E01F4B204C236023E0AD
:10039000184B5B6803F47010164B5B6803F48032F3
:1003A000022303EB904022B9194B4343174C2360BF
:1003B0000DE0104B5B6803F4003323B1144B43434F
:1003C000124C236003E0104B4343104C236003E0C6
:1003D0000D4B0E4C236000BF00BF064B5B68C3F3A0
:1003E00003130C4CE15C094B1B68CB40074C2360AA
:1003F00010BD000000100240002002400000FFF885
:10040000FFFFF6FE08ED00E000127A000000002079
:1004100000093D00040000200948804709480047C2
:10042000FEE7FEE7FEE7FEE7FEE7FEE7FEE7FEE7A4
:10043000FEE7FEE704480549054A064B7047000001
:10044000170300083101000850330020503F0020FE
:10045000503700205037002031490143314A1160A4
:10046000704770B5002100230F22C47804B32D4CCF
:10047000246804F4E064C4F5E064210AC1F10403D3
:10048000CA40447804FA03F18478144021430901F6
:10049000254C0678A155047804F01F050124AC40D2
:1004A00005786D11AD0005F1E025C5F8004109E0C2
:1004B000047804F01F050124AC401C4D0678761129
:1004C00045F8264070BD1A4A0A400243154B1B1FCF
:1004D0001A60704739B1134A121D12680243114B5A
:1004E0001B1D1A6006E00F4A121D126882430D4B55
:1004F0001B1D1A607047042808D14FF0E0210969DC
:1005000041F004014FF0E022116107E04FF0E021DB
:10051000096921F004014FF0E022116170470000E9
:100520000000FA050CED00E000E400E080E100E0EE
:1005300080FFFF1F10B50446FA48844208D101210C
:10054000401501F09FFE0021601501F09BFE17E0B1
:10055000F548844208D10121001501F093FE0021E5
:10056000201501F08FFE0BE0F048844208D10121F4
:10057000C80301F087FE00214FF4004001F082FE25
:1005800010BD30B50246002000235068E84C2040E2
:100590000D790C6844EA0524204350609068E54CCE
:1005A0002040D1E902542C434D7944EA45042043CC
:1005B0009060D06A20F470000C7C641EE4B2234387
:1005C00040EA0350D06230BD0021016001714171E9
:1005D0008160C16001210174704721B1826842F0DD
:1005E0000102826003E0826822F0010282607047AB
:1005F00021B1826842F48072826003E0826822F452
:1006000080728260704710B50023CBB21AB1446883
:100610001C43446002E044689C43446010BD816810
:1006200041F0080181607047014600208A6802F0AD
:1006300008020AB1012000E000207047816841F003
:10064000040181607047014600208A6802F00402BC
:100650000AB1012000E00020704721B1826842F415
:10066000A002826003E0826822F4A00282607047E8
:10067000014600208A6802F480020AB1012000E0ED
:100680000020704710B50A4600210023416821F47C
:100690006041531E41EA4331416010BD21B14268BF
:1006A00042F40062426003E0426822F40062426069
:1006B0007047F0B504460D4600200021092D11DDDC
:1006C000E068A5F10A0606EB4607072606FA07F1D9
:1006D0008843A5F10A0606EB460603FA06F108432D
:1006E000E0600CE0206905EB4507072606FA07F1F4
:1006F000884305EB450603FA06F108432061072A03
:100700000FDA606B561E06EB86071F2606FA07F106
:100710008843561E06EB860605FA06F10843606319
:1007200022E00D2A0FDA206BD61F06EB86071F2664
:1007300006FA07F18843D61F06EB860605FA06F18E
:100740000843206310E0E06AA2F10D0606EB86077D
:100750001F2606FA07F18843A2F10D0606EB86066E
:1007600005FA06F10843E062F0BD21B1826842F467
:100770008012826003E0826822F4801282607047F7
:100780000146C86C80B2704766484C3000687047BC
:1007900021B1426842F48062426003E0426822F480
:1007A00080624260704721B1426842F480524260E8
:1007B00003E0426822F48052426070470A460021FA
:1007C000816821F4E04111438160704721B1826862
:1007D00042F40042826003E0826822F400428260B8
:1007E000704721B1826842F40212826003E082689D
:1007F00022F4021282607047014600208A6802F4E7
:1008000000120AB1012000E000207047F0B5044654
:100810001546002000220026092911DDE068A1F11B
:100820000A0707EB470C072707FA0CF29043A1F1E0
:100830000A0707EB470703FA07F21043E0600CE0F2
:10084000206901EB410C072707FA0CF2904301EBFA
:10085000410703FA07F210432061A06BC0F3015671
:10086000EF1C06F1010CA7EB0C0707EB870C1F2709
:1008700007FA0CF29043EF1C06F1010CA7EB0C07F2
:1008800007EB870701FA07F21043A063F0BD10B52C
:100890000A4600210023816B21F44011531E41EAD6
:1008A0000351816310BD08B5002300930090009BA5
:1008B0000B440093009B1A6008BD08B50246002057
:1008C0000090009201F12800009B184400900098CD
:1008D000006880B208BD0A4600214168164B1940E5
:1008E0001143416070474162826270470A460021AD
:1008F000416821F01F0111434160704740B109492F
:100900000831096841F40001064A0832116007E025
:1009100004490831096821F40001024A08321160D3
:10092000704700000024014000280140003C0140C5
:10093000FFFEF0FFFDF7F1FFFFFD3FFF0246002045
:1009400013680B400BB1012000E000207047CA4340
:100950000260704770B502460020002300240B128D
:100960005568CEB205EA060415681D4015B10CB1F4
:10097000012000E0002070BD00220A12D343036072
:100980007047000010B50446FE48844209D1012199
:10099000480601F084FC00214FF0007001F07FFC5C
:1009A00008E00121880601F07AFC00214FF0806008
:1009B00001F075FC10BD30B502460020002314681C
:1009C00024F002041460146844F00104146000E090
:1009D0005B1C546804F001041CB94FF6FF74A34279
:1009E000F6D1546804F001040CB900206CE08C7955
:1009F000012C04D1146844F08004146003E01468EE
:100A000024F080041460CC79012C04D1146844F0E3
:100A10004004146003E0146824F0400414600C7A6D
:100A2000012C04D1146844F02004146003E014681D
:100A300024F0200414604C7A012C04D1146844F092
:100A40001004146003E0146824F0100414608C7A1D
:100A5000012C04D1146844F00804146003E0146805
:100A600024F008041460CC7A012C04D1146844F0FA
:100A70000404146003E0146824F0040414608C7807
:100A8000A407CD7844EA05640D7944EA05444D791C
:100A900044EA05540D886D1E2C43D461146824F07B
:100AA00001041460002300E05B1C546804F001049E
:100AB0001CB14FF6FF74A342F6D1546804F0010450
:100AC0000CB1002000E0012030BD10B50021837A78
:100AD000012202FA03F1AC4A126842F00102AA4B69
:100AE0001A60A94A1C3212688A43A74B1C331A6049
:100AF000027BCAB9A44A0C3212688A43A24B0C3357
:100B00001A604288C38842EA03439F4A4032847A8B
:100B100042F834300288838842EA03439A4A4032DA
:100B2000847A02EBC4025360027B012A19D1964AEF
:100B30000C3212680A43944B0C331A6042880388C3
:100B400042EA0343904A4032847A42F83430C28801
:100B5000838842EA03438C4A4032847A02EBC4021F
:100B60005360C27A3AB9884A121D12688A43864B8A
:100B70001B1D1A6006E0844A121D12680A43824B4C
:100B80001B1D1A60028932B97F4A143212688A43E7
:100B90007D4B14331A600289012A06D17A4A143235
:100BA00012680A43784B14331A60427B012A06D13B
:100BB000754A1C3212680A43734B1C331A60724A1E
:100BC000126822F00102704B1A6010BD0021817181
:100BD000C171017241728172C1728170C170032151
:100BE0000171022141710121018070476649096844
:100BF00041F00101644A11601146096843F60E7222
:100C00009143614A11601146096841EA002111606F
:100C10001146096821F001011160704721B1026895
:100C200042F48032026003E0026822F48032026003
:100C30007047E1B1026842F0800202604FF4C27274
:100C4000125842F480734FF4C27213504FF4CA72B8
:100C5000125842F480734FF4CA7213504FF4D27298
:100C6000125842F480734FF4D27213501BE00268A2
:100C700022F0800202604FF4C272125822F4807394
:100C80004FF4C27213504FF4CA72125822F4807398
:100C90004FF4CA7213504FF4D272125822F4807378
:100CA0004FF4D2721350704710B50246002093687B
:100CB00003F08063B3F1806F00D110E0936803F01C
:100CC0000063B3F1006F01D1012008E0936803F0E5
:100CD0008053B3F1805F01D1022000E0042004289A
:100CE00079D002F5C07303EB00131B6803F0010415
:100CF00002F5C07303EB00131C600B7A7BB94B7ACF
:100D00000C8843EA445302F5C07404EB00142468D1
:100D1000234302F5C07404EB0014236010E00B7A47
:100D20004C6843EAC4034C7A234302F5C07404EBD5
:100D300000142468234302F5C07404EB00142360FC
:100D40008B7A03F00F038B7202F5C07303EB001371
:100D50005B6823F00F0402F5C07303EB00135C60C3
:100D600002F5C07303EB00135B688C7A234302F532
:100D7000C07404EB001463608B7B1C064B7B44EA5D
:100D8000034403E000640040006600400B7B44EA3B
:100D90000323CC7A234302F5C07404EB0014A36050
:100DA0008B7C1C064B7C44EA03440B7C44EA032303
:100DB000CC7B234302F5C07404EB0014E36002F51E
:100DC000C07303EB00131B6843F0010402F5C0730A
:100DD00003EB00131C6010BD10B50246002321B1C7
:100DE000012907D002290FD109E09068F94C00EAE7
:100DF00004030BE09068F84C00EA040306E09068F6
:100E0000F64C00EA040301E0002300BF00BFF44CED
:100E1000181BA34216D007DC83B16FF08060184422
:100E200070B1022818D111E0B0F5007F10D0ED4C60
:100E3000204448B1B0F5003F0ED10BE002230DE095
:100E400000230BE0002309E0002307E0012305E075
:100E5000012303E0012301E0002300BF00BFD8B25B
:100E600010BD21B1012907D002290FD109E0826804
:100E700042F0800282600AE0826842F400428260AE
:100E800005E0826842F40002826000E000BF00BF1B
:100E9000704710B500F5D87303EB01131B6803F01E
:100EA00004031372137A53B900F5D87303EB0113DB
:100EB0001B6840F2FF7404EA5353136009E000F525
:100EC000D87303EB01131B686FF0604404EAD3038B
:100ED000536000F5D87303EB01131B6803F00203A2
:100EE000537200F5D87303EB01135B6803F00F0333
:100EF000937200F5D87303EB01135B681B0AD3747C
:100F000000F5D87303EB01139B68D37200F5D87317
:100F100003EB01139B681C0A147300F5D87303EBF1
:100F200001139B681C0C547300F5D87303EB011379
:100F30009B681B0E937300F5D87303EB0113DB68FA
:100F4000D37300F5D87303EB0113DB681C0A147428
:100F500000F5D87303EB0113DB681C0C547400F527
:100F6000D87303EB0113DB681B0E937421B9C368BC
:100F700043F02003C36003E0036943F020030361EF
:100F800010BD21B9C26842F02002C26003E00269CC
:100F900042F02002026170470246002019B9D3686E
:100FA00003F0030006E0012903D1136903F00300F5
:100FB00000E00020704710B502460B4600204FF6B7
:100FC000FF71BBB9146824F0020444F001041460FA
:100FD00000E0491E546804F00304012C01D00029EC
:100FE000F7D1546804F00304012C01D0002032E052
:100FF000012030E0012B13D1146824F003041460A5
:1010000000E0491E546804F003040CB10029F8D133
:10101000546804F003040CB100201CE001201AE025
:10102000022B17D1146824F0010444F00204146068
:1010300000E0491E546804F00304022C01D000298A
:10104000F7D1546804F00304022C01D0002002E020
:10105000012000E0002010BD014600200A6822F0B7
:10106000010242F002020A604A6802F00302022A08
:1010700000D10120704701464FF6FF7200200B6837
:1010800023F002030B6000E0521E4B6803F00203E2
:10109000022B01D1002AF7D14B6803F00203022B87
:1010A00000D001207047014600208A6902F07000DC
:1010B0007047014600208A69100E704701460020E3
:1010C0008A69C2F3074070471AB143690B43436111
:1010D00002E043698B434361704710B5024600202C
:1010E00001F4700343B19369C1F3130423400BB1BE
:1010F00001202DE000202BE001F0807343B1536804
:10110000C1F3130423400BB1012021E000201FE0B4
:1011100001F0006343B19368C1F3130423400BB1A2
:10112000012015E0002013E001F0007343B1D36803
:10113000C1F3130423400BB1012009E0002007E0B4
:101140001369C1F3130423400BB1012000E0002018
:1011500010BD0022244B994202D10023836111E08B
:10116000C1F3130201F000730BB1C2600AE001F099
:1011700080630BB1026105E001F000630BB1826096
:1011800000E0426070470246002002EA01030BB112
:10119000012000E00020704770B504460D4600268F
:1011A00060692840002872D0B5F5807F69D01DDCC9
:1011B000082D42D006DC012D2DD0022D31D0042D7A
:1011C0007FD134E0102D3ED0202D42D0402D78D15B
:1011D00045E00000030000040003000800000310C5
:1011E000000100080001FFF77000F030B5F5004F76
:1011F00061D009DCB5F5007F4AD0B5F5806F4DD0E0
:10120000B5F5006F5DD150E0B5F5803F2DD0B5F557
:10121000003F56D12FE0A0685549FFF7B4FF0646BE
:1012200051E0E0680321FFF7AEFF06464BE0E068BF
:101230000821FFF7A8FF064645E0E0681021FFF708
:10124000A2FF06463FE020690321FFF79CFF064608
:1012500039E020690821FFF796FF064633E0206950
:101260001021FFF790FF06462DE060680821FFF788
:101270008AFF064627E060681021FFF784FF0646D4
:1012800021E0A0690121FFF77EFF06461BE01BE07D
:10129000A0690221FFF777FF064614E0A069042148
:1012A000FFF771FF06460EE00BE0A0697021FFF723
:1012B0006AFF064607E060680421FFF764FF064600
:1012C00001E0002600BF00E00026304670BDB1F509
:1012D000007F3AD00FDC202928D006DC01291CD061
:1012E00004291DD0082940D11DE0402921D0B1F5A5
:1012F000807F3AD126E0B1F5004F31D006DCB1F560
:10130000806F25D0B1F5006F2FD124E0B1F5803F7B
:1013100012D0B1F5003F28D111E0154A826025E0D6
:101320000822C26022E01022C2601FE0082202618F
:101330001CE01022026119E00822426016E010222F
:10134000426013E00422426010E0042242600DE09B
:10135000042242600AE0002282610422426005E029
:10136000002282610422426000E000BF00BF70479B
:101370000101010010B50121480700F090FF002194
:101380004FF0005000F08BFF10BD30B5002200235D
:101390005A4C226840F6FE748440A243D1E90045CD
:1013A0002C438D682C43CD6844EA050303FA00F40E
:1013B0002243524C226030BD0021016041608160B7
:1013C000C160704739B14D4A1268012383401A4306
:1013D0004A4B1A6006E0494A1268012383409A4347
:1013E000464B1A60704741B1444A12684FF480532B
:1013F00083401A43414B1A6007E0404A12684FF499
:10140000805383409A433D4B1A60704710B551B1E9
:101410003A4A121D126804090123A3401A43374BAC
:101420001B1D1A6009E0354A121D126804090123C8
:10143000A3409A43314B1B1D1A6010BD40B12F4988
:10144000091D096841F003012C4A121D116007E0D3
:101450002A49091D096821F00301284A121D11605B
:10146000704710B53AB1254B1B6801FA00F42343CD
:10147000224C236006E0214B1B6801FA00F4A343D1
:101480001E4C236010BD08B5002200921B4A00923A
:1014900000F10802009B1A440092009A116008BDF6
:1014A00008B500220092154A009200F11402009B38
:1014B0001A440092009A116008BD30B50024002340
:1014C000082802D142EA012401E042EA01440B4B20
:1014D00000F120052B441C6030BD08B501460020FA
:1014E0000090064800902C2000EB9100009A1044D8
:1014F00000900098006880B208BD000000740040B1
:10150000002044490860091D0860091D0860091D84
:10151000086041483F4914310860704700213D4947
:101520008279002A3AD00A46126803689A430B4629
:101530001A600A1D126803689A430B1D1A6002792B
:1015400011440A6803681A430A60324A0832126872
:1015500003689A432F4B08331A601A1D12680368F8
:101560009A432C4B0C331A604279102A0ED11A1F61
:10157000126803681A43274B08331A601A1D126851
:1015800003681A43234B0C331A600DE0214942795A
:1015900011440A6803681A430A6005E0027911449D
:1015A0000A6803689A430A6070470021016001716C
:1015B0000C21417100218171704716491031096871
:1015C0000143144A10321160704701460020114A4D
:1015D000143212680A400AB1012000E0002070476E
:1015E0000C49143108607047014600200022094B65
:1015F0001B6803EA0102074B14331B680B4013B14D
:101600000AB1012000E0002070470249143108604F
:101610007047000000040140FFFF0F00014600205A
:10162000FE4A106800F03800084310607047FB491C
:10163000096821F00801F94A11601146096801435F
:1016400011607047F549096821F01001F34A1160F3
:1016500011460968014311607047F148EF4948603D
:10166000F04848607047EE48EC494860ED484860F3
:101670007047EA48006940F08000E8490861704717
:10168000E648006940F08000E449086170470420A2
:10169000E249C96801F0010109B101200EE0DF490A
:1016A000C96801F0040109B1022007E0DB49C968FB
:1016B00001F0100109B1032000E00420704700B5DB
:1016C00002460423FFF7E3FF034603E0FFF7DFFFD3
:1016D0000346521E012B01D1002AF7D102B905237E
:1016E000184600BD30B5044604254FF43020FFF7FE
:1016F000E6FF0546042D17D1C848006940F00200F6
:10170000C649086108464461006940F0400008612C
:101710004FF43020FFF7D3FF0546C048006941F67B
:10172000FD710840BD490861284630BD10B504244C
:101730004FF43020FFF7C3FF0446042C16D1B748FE
:10174000006940F00400B54908610846006940F0AE
:10175000400008614FF43020FFF7B1FF0446AF4866
:10176000006941F6FB710840AC490861204610BD94
:1017700000B502460423FFF78AFF034603E0FFF7A4
:1017800086FF0346521E012B01D1002AF7D102B970
:101790000523184600BD10B504244FF43020FFF790
:1017A000E7FF0446042C16D19C48006940F0040071
:1017B0009A4908610846006940F0400008614FF40A
:1017C0003020FFF7D5FF04469448006941F6FB71CD
:1017D000084092490861204610BD00208F49C96920
:1017E00001F0020109B1012000E00020704730B58E
:1017F000A5250424FFF7F1FF00B100254FF43020A8
:10180000FFF75DFF0446042C3AD185488349886080
:10181000844888600846006940F020000861084656
:10182000006940F0400008614FF43020FFF747FFA7
:101830000446042C1BD17948006941F6DF71084049
:10184000764908610846006940F010000861764852
:101850000580E002FFF733FF0446052C10D06F48E7
:10186000006941F6EF7108406C49086108E0052CF9
:1018700006D06A48006941F6EF710840674908617F
:10188000204630BD78B506460C4604250020009061
:10189000E802FFF714FF0546042D24D15F480069D4
:1018A00040F001005D4908613480E802FFF707FF5E
:1018B0000546042D10D1B01C0090200C0099088022
:1018C000E802FFF7FCFE05465448006941F6FE7148
:1018D00008405249086106E05048006941F6FE712F
:1018E00008404E490861284678BD70B504460D464B
:1018F0000426F002FFF7E3FE0646042E11D1474806
:10190000006940F00100454908612580F002FFF7B9
:10191000D6FE06464148006941F6FE7108403F493F
:101920000861304670BD70B505460E460424E002DD
:10193000FFF7C5FE0446042C17D1394837498860A3
:10194000384888600846006940F0100008612E8021
:10195000E002FFF7B4FE0446052C06D02F480069CC
:1019600041F6EF7108402D490861204670BD2DE910
:10197000F04304464FF6FF763746B046B14604259D
:10198000E443E6B2C4F30727C4F307484FEA1469F7
:10199000E802FFF794FE0546042D49D120481F496F
:1019A0008860204888600846006940F0100008619F
:1019B000FF2E06D01C4808300680E802FFF77FFEA5
:1019C0000546042D08D1FF2F06D017480A3007809E
:1019D000E802FFF774FE0546042D0AD1B8F1FF0FA7
:1019E00007D011480C30A0F80080E802FFF767FE2E
:1019F0000546042D0AD1B9F1FF0F07D00A480E3071
:101A0000A0F80090E802FFF75AFE0546052D0FD01A
:101A10000248006941F6EF71084007E000200240EB
:101A200023016745AB89EFCD00F8FF1F66490861C8
:101A30002846BDE8F08330B5054604244FF4302035
:101A4000FFF73DFE0446042C41D160485E498860A2
:101A50005F4888600846006940F020000861084639
:101A6000006940F0400008614FF43020FFF727FE86
:101A70000446042C22D15448006941F6DF71084025
:101A8000514908610846006940F0100008611DB125
:101A900000205049088002E0A5204E4908804FF4FC
:101AA0003020FFF70CFE0446052C10D04648006994
:101AB00041F6EF7108404449086108E0052C06D062
:101AC0004148006941F6DF7108403F4908612046FE
:101AD00030BDF0B505460E46174604243B483A494A
:101AE00088603B488860E002FFF7E9FD0446042C6B
:101AF00019D13548006940F010003349086147F0BA
:101B0000F800304328433349891C0880E002FFF77E
:101B1000D6FD0446052C06D02B48006941F6EF712E
:101B20000840294908612046F0BD2748C06980085F
:101B300070472548006A704700202349096801F072
:101B4000200109B1012000E00020704729B11E4AA0
:101B5000126902431C4B1A6104E01B4A126982435A
:101B6000194B1A61704701460020012908D1164A15
:101B7000D26902F001020AB1012008E0002006E06B
:101B8000114AD2680A400AB1012000E000207047E3
:101B90000D49C860704704200B49C96801F0010174
:101BA00009B101200EE00849C96801F0040109B13A
:101BB000022007E00449C96801F0100109B10320BF
:101BC00000E0042070470000002002402301674528
:101BD000AB89EFCD00F8FF1F10B50446CC48844216
:101BE00008D10121042000F04DFB0021042000F069
:101BF00049FB46E0C748844208D10121082000F093
:101C000041FB0021082000F03DFB3AE0C24884423D
:101C100008D10121102000F035FB0021102000F038
:101C200031FB2EE0BD48844208D10121202000F084
:101C300029FB0021202000F025FB22E0B848844247
:101C400008D10121402000F01DFB0021402000F0C0
:101C500019FB16E0B348844208D10121802000F02E
:101C600011FB0021802000F00DFB0AE0AE48844209
:101C700007D10121801500F005FB0021A01500F01F
:101C800001FB10BD10B50121084600F0FBFA002150
:101C9000012000F0F7FA10BD2DE9F04102460025C1
:101CA0000026002000230024002791F803C00CF038
:101CB0000F0591F803C00CF0100CBCF1000F03D01D
:101CC00091F802C04CEA050591F800C0BCF1000F84
:101CD00031D0146800202BE04FF0010C0CFA00F317
:101CE000B1F800C00CEA03069E4220D183004FF0F9
:101CF0000F0C0CFA03F7BC4305FA03FC4CEA04048E
:101D000091F803C0BCF1280F06D14FF0010C0CFA7A
:101D100000FCC2F814C00AE091F803C0BCF1480FFF
:101D200005D14FF0010C0CFA00FCC2F810C0401CA9
:101D30000828D1D31460B1F800C0BCF1FF0F34DD26
:101D4000546800202EE000F1080C4FF0010808FA5A
:101D50000CF3B1F800C00CEA03069E4221D18300C7
:101D60004FF00F0C0CFA03F7BC4305FA03FC4CEAE6
:101D7000040491F803C0BCF1280F05D100F1080C50
:101D800008FA0CF8C2F8148091F803C0BCF1480FAF
:101D900007D100F1080C4FF0010808FA0CF8C2F85E
:101DA0001080401C0828CED35460BDE8F0814FF667
:101DB000FF710180022181700421C17070470246C9
:101DC000002093680B400BB1012000E00020704719
:101DD0000146886880B2704702460020D3680B40F5
:101DE0000BB1012000E0002070470146C86880B2B6
:101DF000704701617047416170470AB1016100E0BD
:101E000041617047C16070474FF480320A4382617C
:101E10008161826182698269704702460020434B7A
:101E200018684FF68073184040EA021008433F4B91
:101E3000186070473E49C8617047F0B50A460023F4
:101E400000240021002500F00046B6F1004F02D129
:101E5000364EF16901E0354E7168C0F3034583B237
:101E600000F44016B6F5401F08D121F070612F4EE6
:101E7000766826F070662D4F7E6012E000F48016C2
:101E8000B6F5801F06D1032606FA05F4A14341F0FA
:101E9000706106E0460D360103FA06F6B14341F0E3
:101EA000706122B1460D360103FA06F6314300F0A7
:101EB0000046B6F1004F02D11C4EF16101E01B4E0D
:101EC0007160F0BD30B500228B071C0F0F2303FAA1
:101ED00004F2164B08338C1053F824309343134C00
:101EE00008348D1044F8253023468C1053F82430E4
:101EF0008C07240F00FA04F423430C4C08348D1093
:101F000044F8253030BD0A49DC31086070470000D4
:101F100000080140000C0140001001400014014085
:101F200000180140001C0140002001400000014059
:101F3000000020420E49086070470D494860704714
:101F40000B49886070474AF6AA2009490860704723
:101F50004CF6CC4006490860704701460020044A10
:101F6000D2680A400AB1012000E00020704700005A
:101F700000300040DF48006840F00100DD490860A3
:101F800008464068DC490840DA494860084600686D
:101F9000DA490840D74908600846006820F48020E4
:101FA00008600846406820F4FE0048604FF41F00B7
:101FB00088607047CF49096821F48031CD4A1160AB
:101FC0001146096821F480211160B0F5803F03D0EB
:101FD000B0F5802F0ED106E0C649096841F4803182
:101FE000C44A116007E0C349096841F4A021C14A0D
:101FF000116000E000BF00BF704710B5014600222D
:10200000002300204A11012A02D1BA4C236806E0BD
:10201000022A02D1B74C236A01E0B64C636A01F090
:102020001F02012494401C400CB1012000E000205C
:1020300010BD38B5002000900024002500BF3120DD
:10204000FFF7DBFF05460098401C00900098B0F5B4
:10205000A06F01D0002DF2D03120FFF7CEFF08B1E4
:10206000012400E00024204638BD01460020A14A9A
:10207000106820F0F80040EAC10010607047A049E5
:1020800008607047024600209A4B586820F47C1084
:1020900042EA01031843974B586070479849086615
:1020A000704701460020934A506820F0030008431F
:1020B000506070478F48406800F00C007047014640
:1020C00000208C4A506820F0F000084350607047B0
:1020D00001460020874A506820F4E06008435060C1
:1020E000704701460020834A506820F4605040EA5F
:1020F000C1005060704729B17E4A527A02437D4B3D
:102100005A7204E07B4A527A82437A4B5A72704781
:102110007B49D8310860704701460020754A5068F5
:1021200020F440400843506070470021714A20323B
:102130001170704A82F82010012802D004280AD1B8
:1021400004E001216B4A2032117005E00521694A43
:102150002032117000E000BF00BF7047694908607D
:1021600070476449096A0143624A116270476549D0
:1021700044390860704730B5002100220024002354
:102180005C4D6D6805F00C0121B1042905D00829CA
:1021900023D105E05C4D056022E05B4D05601FE04A
:1021A000544D6D6805F47012524D6D6805F480341D
:1021B000022505EB92421CB9544D554305600BE0D6
:1021C0004C4D6D6805F400351DB1504D554305600B
:1021D00002E04D4D5543056002E04B4D056000BFE8
:1021E00000BF444D6D6805F0F0010909484D6B5C76
:1021F0000568DD4045603F4D6D6805F4E061090A02
:10220000434D6B5C4568DD4085603A4D6D6805F473
:102210006051C90A3E4D6B5C4568DD40C560354D77
:102220006D6805F44041890B3A4D6B5CC568B5FBA0
:10223000F3F5056130BD29B12E4A526902432D4B99
:102240005A6104E02B4A526982432A4B5A61704713
:1022500029B1284A92690243264B9A6104E0254A33
:1022600092698243234B9A61704729B1214AD2690E
:102270000243204BDA6104E01E4AD26982431D4BBF
:10228000DA61704729B11B4AD2680243194BDA6000
:1022900004E0184AD2688243164BDA60704729B1CD
:1022A000144A12690243134B1A6104E0114A12697D
:1022B0008243104B1A6170471249403908607047D9
:1022C0000F49C86470470B49C87170470948406A94
:1022D00040F0807007494862704701460020054A77
:1022E00092680A400AB1012000E0002070470149CD
:1022F00088727047001002400000FFF8FFFFF6FEF2
:10230000000042428004424200127A0000093D006F
:10231000140000202400002010B50446BE4884426A
:1023200008D101218014FFF7ADFF0021A014FFF7B1
:10233000A9FF16E0B948844208D101210014FFF733
:10234000AEFF00212014FFF7AAFF0AE0B448844240
:1023500007D10121C013FFF7A2FF0021E013FFF70F
:102360009EFF10BD10B50022028802F441520B8876
:102370004C8823438C882343CC8823430C892343F4
:102380004C8923438C892343CC8923431A430280FD
:10239000838B4FF2FF74234083830B8A038210BD2B
:1023A0002DE9F04F85B005460C464FF00009022795
:1023B0004FF000084FF0010B0026B246A88B4FF2F9
:1023C00040010840A88302202884B5F81C90A0682A
:1023D000022801D100BF38E0A08810B94FF0010BEE
:1023E00001E04FF0020B8D48854200D100E000BFB4
:1023F0006846FFF7C0FEDDF800A0E088B0F5007F7A
:102400000AD14FEA1A2000EB80004000A168B0FB1F
:10241000F1F0401D86B20BE04FEA4B10BAFBF0F032
:1024200000EB80004000A168B0FBF1F0401D86B2D7
:102430000A20B6FBF0F606F00108A6EB0800C0F390
:102440004F074FF6FF7000EA0828022F01DBFF2F2D
:1024500002DD02274FF00008E08840EA0800384318
:102460002884A088A18908436188084321880843FB
:1024700040F4006040EA0909A5F81C9005B0BDE8E9
:10248000F08F0021018041808180C18001814181E4
:102490008181C18107210182704700210180418033
:1024A0008180C1800221816000218181704721B13A
:1024B000028842F04002028004E002884FF6BF73B7
:1024C0001A400280704721B1828B42F4806282837D
:1024D00004E0828B4FF6FF331A408283704730B599
:1024E000002400230C110125A540ABB21AB1858848
:1024F0001D43858002E085889D43858030BD1AB1EB
:1025000083880B43838002E083888B4383807047FA
:10251000818170470146888970474FF6FF6291427A
:1025200004D0028842F48072028004E002884FF6F0
:10253000FF631A400280704721B1828842F0040292
:10254000828004E082884FF6FB731A4082807047D5
:1025500002884FF2FF731A40028002880A43028009
:102560007047018841F480510180704721B1028891
:1025700042F40052028004E002884DF6FF731A40D4
:102580000280704702460020012901D0108B00E034
:10259000908A70470146088A7047B1F5804F04D190
:1025A000028842F48042028004E002884BF6FF7306
:1025B0001A40028070470246002013890B400BB17D
:1025C000012000E000207047CA4302817047F0B547
:1025D0000246002000240023002501F00F070126F9
:1025E000BE40B4B20B1101269E40B3B2968806EAF3
:1025F00003051689264016B10DB1012000E0002028
:10260000F0BD10B5002201F00F040123A3409AB2DF
:10261000D343038110BD000000300140003800406A
:10262000003C004010B50446FE48844208D1012118
:10263000C014FFF727FE0021E014FFF723FEC4E0DB
:10264000B4F1804F08D101210846FFF728FE002190
:102650000120FFF724FEB8E0F348844208D10121AD
:102660000220FFF71CFE00210220FFF718FEACE05D
:10267000EE48844208D101210420FFF710FE00211A
:102680000420FFF70CFEA0E0E948844208D10121B4
:102690000820FFF704FE00210820FFF700FE94E069
:1026A000E448844208D101211020FFF7F8FD002101
:1026B0001020FFF7F4FD88E0DF48844208D10121B3
:1026C0002020FFF7ECFD00212020FFF7E8FD7CE053
:1026D000DA48844208D101214014FFF7D3FD0021DC
:1026E0006014FFF7CFFD70E0D548844209D1012185
:1026F000C804FFF7C7FD00214FF40020FFF7C2FD1B
:1027000063E0D048844209D101210805FFF7BAFDF2
:1027100000214FF48010FFF7B5FD56E0CA4884420F
:1027200009D101214805FFF7ADFD00214FF400104C
:10273000FFF7A8FD49E0C548844208D101214020A7
:10274000FFF7ADFD00214020FFF7A9FD3DE0C048A7
:10275000844208D101218020FFF7A1FD00218020C3
:10276000FFF79DFD31E0BB48844208D1012180156F
:10277000FFF795FD0021A015FFF791FD25E0B64874
:10278000844209D101210804FFF77CFD00214FF4A8
:102790008030FFF777FD18E0B048844209D101216D
:1027A0004804FFF76FFD00214FF40030FFF76AFD8A
:1027B0000BE0AB48844208D101218804FFF762FD99
:1027C00000214FF48020FFF75DFD10BD002202883C
:1027D000944B98420ED0994B98420BD0B0F1804F59
:1027E00008D0914B984205D0904B984202D0904B24
:1027F000984204D14FF68F731A404B881A438D4B81
:10280000984207D08C4B984204D04FF6FF431A40B1
:10281000CB881A4302808B8883850B880385814B84
:1028200098420BD0854B984208D08B4B984205D0EC
:102830008A4B984202D08A4B984201D10B7A038688
:1028400001238382704770B5002400220023058C89
:102850004FF6FE7635400584028C8388048B4FF654
:102860008F752C40B51E2C400D882C43751E2A40B8
:102870000D892A434D882A436A4DA8420BD06F4DDB
:10288000A84208D0744DA84205D0744DA84202D089
:10289000734DA84213D14FF6F7752A404D892A434C
:1028A0004FF6FB752A408D882A434FF6FF652B4073
:1028B0004FF6FF552B408D892B43CD892B438380C9
:1028C0000483CD888586028470BD70B50024002203
:1028D0000023058C4FF6EF7635400584028C838803
:1028E000048B48F6FF752C404FF6FF452C400D88B1
:1028F0004FF6FF7606EA05252C434FF6DF752A4092
:102900000D8906EA05152A434D8806EA05152A436E
:10291000444DA84202D0494DA8421DD14FF67F75C3
:102920002A404D894FF6FF7606EA05152A434FF6F1
:10293000BF752A408D8806EA05152A434FF6FF35F4
:102940002B404FF2FF752B408D8906EA85052B43FE
:10295000CD8906EA85052B4383800483CD880587CE
:10296000028470BD70B5002400220023058C4FF650
:10297000FF6635400584028C8388848B4FF68F7503
:102980002C404FF6FC752C400D882C434FF6FF551C
:102990002A400D894FF6FF7606EA05252A434D8821
:1029A00006EA05252A431F4DA84202D0234DA8421E
:1029B0001DD14FF2FF752A404D894FF6FF7606EA8A
:1029C00005252A434FF6FF352A408D8806EA05255E
:1029D0002A434EF6FF752B404DF6FF752B408D892F
:1029E00006EA05152B43CD8906EA05152B4383809E
:1029F0008483CD888587028470BD70B50022002352
:102A00000024058C4EF6FF7635400584038C8488BF
:102A1000828B48F6FF752A404FF6FF452A400D8805
:102A200020E00000002C01400004004000080040AD
:102A3000000C004000100040001400400034014031
:102A4000004C01400050014000540140001800407B
:102A5000001C0040002000400040014000440140B4
:102A6000004801404FF6FF7606EA05252A434DF659
:102A7000FF752B400D8906EA05352B434D8806EA84
:102A800005352B43FA4DA84202D0FA4DA84208D191
:102A90004BF6FF752C408D894FF6FF7606EA8515BB
:102AA0002C4384808283CD88A0F84050038470BD7D
:102AB000828B4FF2FF331A408283828B4FF6FF7373
:102AC00003EA01231A4382837047F0B50C4615468A
:102AD000002200210026078C4EF6FF7C07EA0C0737
:102AE0000784828B018C4FF6FF7707EA043640F6A5
:102AF000FF473A404FF6FF7707EA05273A434FF67C
:102B0000FF7707EA03373A43D94FB8420ED0D94F7F
:102B1000B8420BD0B0F1804F08D0D74FB84205D0A3
:102B2000D64FB84202D0D64FB84206D14DF6FF7705
:102B3000394046F48057394305E047F6FF5739409E
:102B400044F48057394382830184F0BD828B4FF671
:102B5000F3731A408283828B0A4382837047F0B5F5
:102B60000C461546002200210026078C4FF6FF6C0C
:102B700007EA0C070784828B018C4FF6FF7707EA80
:102B800004264FF60C773A404FF6FF7707EA031713
:102B90002F433A43B64FB8420ED0B64FB8420BD08F
:102BA000B0F1804F08D0B44FB84205D0B34FB8420F
:102BB00002D0B34FB84206D14FF6FF57394046F422
:102BC0008077394305E04FF2FF57394044F480776E
:102BD000394382830184F0BD028B4FF2FF331A40E8
:102BE0000283028B4FF6FF7303EA01231A43028329
:102BF0007047F0B50C461546002200210026078CD0
:102C00004FF6EF7C07EA0C070784028B018C4FF626
:102C1000FF7707EA041640F6FF473A404FF6FF7782
:102C200007EA03373A434FF6FF7707EA05273A43A7
:102C30008F4FB8420ED08F4FB8420BD0B0F1804FBB
:102C400008D08D4FB84205D08C4FB84202D08C4F7F
:102C5000B84206D14FF6DF77394046F010073943C6
:102C600005E04FF65F77394044F01007394302839F
:102C70000184F0BD028B4FF6F3731A400283028B7E
:102C80000A4302837047F0B50C4615460022002126
:102C9000068C4FF6FE773E400684028B018C4FF681
:102CA0000C7632407E1C06EA03162E433243704EE9
:102CB000B0420ED06F4EB0420BD0B0F1804F08D072
:102CC0006D4EB04205D06D4EB04202D06C4EB04257
:102CD00006D14FF6FD76314044F00106314305E060
:102CE0004FF6F576314044F001063143028301840A
:102CF000F0BD70B505460C465D4885420ED05D4876
:102D000085420BD0B5F1804F08D05B48854205D095
:102D10005A48854202D05A48854200D100E000BF9F
:102D2000208850B92389A28861882846FFF7ABFF25
:102D3000E1882846FFF79EFF25E0208804280AD175
:102D40002389A28861882846FFF753FFE188284637
:102D5000FFF742FF17E0208808280AD12389A288BC
:102D600061882846FFF7FBFEE1882846FFF7EEFE64
:102D700009E02389A28861882846FFF7A6FEE1883A
:102D80002846FFF795FE70BD2DE9F04105460C463B
:102D900000260127608808B9022600E00026A088E6
:102DA000012801D1022700E001272088A0B923894A
:102DB000A28861882846FFF766FFE1882846FFF76A
:102DC00059FF23893A4631462846FFF712FFE1882A
:102DD0002846FFF701FF13E02389A288618828466F
:102DE000FFF707FFE1882846FFF7F6FE23893A46FA
:102DF00031462846FFF747FFE1882846FFF73AFFAC
:102E0000BDE8F0810A884B881A438B881A43CB8827
:102E10001A430B891A434B891A438B891A43A0F82A
:102E2000442070474FF6FF71818000210180C180EE
:102E30004180017270470021018041808180C18002
:102E4000018141818181C1817047002101804180E0
:102E5000012181800021C180018170470021018012
:102E600041808180C1800181418181817047000062
:102E7000002C0140003401400004004000080040E4
:102E8000000C004021B1028842F00102028004E0FF
:102E900002884FF6FE731A400280704731B1B0F8D5
:102EA000442042F40042A0F8442005E0B0F8442059
:102EB000C2F30E02A0F8442070471AB183890B4375
:102EC000838102E083898B438381704781827047CD
:102ED00041EA0203A0F8483070471AB183890B43D6
:102EE000838102E083898B438381704701894FF698
:102EF000F8721140018170470A46002101894FF69E
:102F00008F73194011430181704730B504460D4657
:102F100029462046FFF7F0FF208940F00700208176
:102F200030BD2DE9F04104460D4616461F46602D82
:102F300006D13B46012231462046FFF75AFE05E006
:102F40003B46012231462046FFF79DFE294620469A
:102F5000FFF7D2FF208940F007002081BDE8F08113
:102F600030B50C4600210189C9B24FF6FF7505EA5C
:102F70000325154325432943018130BD2DE9F04147
:102F800005460E4617469846002443463A463146C3
:102F90002846FFF7E5FF2C894FF6F870044044F00F
:102FA00007044FF68F70044044F070042C81BDE894
:102FB000F081F0B504460D4616461F463B463246A4
:102FC00029462046FFF7CCFF208940F4804020812D
:102FD000F0BD0185828270470A46002101884FF6C4
:102FE0008F731940114301807047F0B50C461546A8
:102FF0001E460021002200230189028B038C4FF61C
:10300000F877394021434FF6FC473A4040F2011728
:103010003A434FF6DD773B404FF6FF7707EA061756
:103020002F433B43018102830384F0BD0A46002104
:10303000018B4FF68F7319401143018370470A4685
:103040000021018B48F6FF7319404FF6FF7303EA26
:1030500002231943018370470A460021818B4FF6F2
:103060008F7319401143818370470A460021818B79
:1030700048F6FF7319404FF6FF7303EA0223194322
:103080008183704721B1028842F08002028004E00F
:1030900002884FF67F731A400280704721B1828800
:1030A00042F00402828004E082884FF6FB731A40EB
:1030B0008280704721B1828842F00802828004E059
:1030C00082884FF6F7731A408280704721B1828858
:1030D00042F00102828004E082884FF6FE731A40BB
:1030E000828070470A460021018B4FF6F773194022
:1030F0001143018370470A460021018B4FF2FF7391
:1031000019404FF6FF7303EA022319430183704706
:103110000A460021818B4FF6F773194011438183D2
:1031200070470A460021818B4FF2FF7319404FF61A
:10313000FF7303EA02231943818370470A46002183
:10314000018B4FF6FB7319401143018370470A4608
:103150000021018B4FF6FF3319404FF6FF7303EA4E
:1031600002231943018370470A460021818B4FF6E1
:10317000FB7319401143818370470A460021818BFC
:103180004FF6FF3319404FF6FF7303EA022319434A
:10319000818370470A460021018B4FF67F731940E7
:1031A0001143018370470A460021018BC1F30E01D0
:1031B0004FF6FF7303EA02231943018370470A465F
:1031C0000021818B4FF67F73194011438183704733
:1031D0000A460021818BC1F30E014FF6FF7303EA0B
:1031E00002231943818370470A460021018C4FF660
:1031F000FD7319401143018470470A460021018C78
:103200004FF6F77319401143018470470A460021B5
:10321000018C4FF6DF7319404FF6FF7303EA021378
:103220001943018470470A460021018C4FF67F73D1
:1032300019404FF6FF7303EA0213194301847047E4
:103240000A460021018C4FF6FF5319404FF6FF73D9
:1032500003EA02231943018470470A460021018CC6
:103260004FF2FF7319404FF6FF7303EA022319432D
:10327000018470470A460021018C4DF6FF73194006
:103280004FF6FF7303EA023319430184704730B5E8
:10329000002301248C40A3B2048C9C430484048C3E
:1032A00002FA01F5ADB22C43048430BD30B50023E1
:1032B00004248C40A3B2048C9C430484048C02FA42
:1032C00001F5ADB22C43048430BD70B50346002037
:1032D00000241846183001258D40ACB21D8CA54342
:1032E0001D8409B1082909D100EB6100056825F0AA
:1032F000700505600568154305600EE00D1FC5F3F8
:103300004E052844056825F4E045056005684FF63C
:10331000FF7606EA02263543056070BD21B10288BA
:1033200042F00202028004E002884FF6FD731A4068
:103330000280704721B1028842F00402028004E05A
:1033400002884FF6FB731A400280704721B18288D1
:1033500042F08002828004E082884FF67F731A4038
:103360008280704702884FF6F7731A400280028805
:103370000A430280704782884FF68F731A4082801A
:1033800082880A438280704702894FF6F8731A4098
:10339000028102890A430281704702894FF67F73D6
:1033A0001A40028102890A43028170478184704772
:1033B0008185704781867047018770478187704794
:1033C000A0F84010704702884FF6FF431A40028071
:1033D00002880A43028070470146888E7047014682
:1033E000088F70470146888F70470146B1F840004A
:1033F00070470146888C70470146088D7047024629
:103400000020138A0B400BB1012000E00020704720
:10341000CA430282704730B50246002000230024D0
:10342000158A05EA0103958905EA010413B10CB177
:10343000012000E0002030BDCA4302827047000036
:1034400010B50446FB48844209D101218803FEF7E8
:1034500019FF00214FF48040FEF714FF32E0F648D8
:10346000844209D101214804FEF719FF00214FF4DD
:103470000030FEF714FF25E0F048844209D1012115
:103480008804FEF70CFF00214FF48020FEF707FFB1
:1034900018E0EB48844209D10121C804FEF7FFFE81
:1034A00000214FF40020FEF7FAFE0BE0E5488442CD
:1034B00008D101210805FEF7F2FE00214FF480102B
:1034C000FEF7EDFE10BD2DE9F04786B005460E462D
:1034D0000024A24600BFA1460027B08900B100BF6A
:1034E0002F462C8A4CF6FF700440F08804432C824F
:1034F000AC894EF6F3100440B088318908437189D5
:1035000008430443AC81AC8A4FF6FF400440B089C5
:103510000443AC8201A8FEF72EFEC648874202D1C2
:10352000DDF810A001E0DDF80CA0A88900F400404F
:1035300040B10AEBCA0000EB0A1031684900B0FB49
:10354000F1F807E00AEBCA0000EB0A1031688900C5
:10355000B0FBF1F86420B8FBF0F00401200964210D
:1035600001FB1089A88900F4004040B1322000EB33
:10357000C900B0FBF1F000F00700044308E032207E
:1035800000EB09106421B0FBF1F000F00F000443E0
:103590002C8106B0BDE8F0874FF416510160002180
:1035A0008180C18001810C2141810021818170478E
:1035B00010B502460020108A4FF2FF0318400B8816
:1035C0004C8823438C882343CC88234318431082A0
:1035D00010BD0021018041808180C180704721B1F0
:1035E000828942F40052828104E082894DF6FF73A1
:1035F0001A4082817047F0B503460024002600255A
:10360000002040F66A17B94200D100BF1846C1F346
:10361000421401F01F06012707FA06F5012C01D11B
:103620000C3004E0022C01D1103000E014301AB14B
:1036300007682F43076002E00768AF430760F0BDEB
:103640001AB1838A0B43838202E0838A8B4383828D
:103650007047028A4FF6F0731A400282028A0A43C8
:103660000282704782894FF2FF731A4082818289F9
:103670000A438281704721B1828942F0020282812D
:1036800004E082894FF6FD731A4082817047028AF6
:103690004FF6DF731A400282028A0A4302827047A1
:1036A00021B1028A42F48042028204E0028A4BF68F
:1036B000FF731A4002827047C1F30802828070478C
:1036C00001468888C0F308007047818941F00101F4
:1036D00081817047028BD2B20283028B42EA0122BF
:1036E00002837047028B02F47F420283028B0A43FB
:1036F0000283704721B1828A42F02002828204E074
:10370000828A4FF6DF731A408282704721B1828A23
:1037100042F01002828204E0828A4FF6EF731A4070
:103720008282704721B1828A42F00802828204E0DC
:10373000828A4FF6F7731A408282704721B18289DC
:1037400042F40042828103E08289C2F30E02828148
:10375000704721B1828A42F40062828204E0828A48
:103760004FF2FF731A4082827047828A4FF6FB73D2
:103770001A408282828A0A438282704721B1828AF9
:1037800042F00202828204E0828A4FF6FD731A4000
:103790008282704702460020B1F5007F00D100BF51
:1037A00013880B400BB1012000E00020704701F4AA
:1037B0000072B2F5007F00D100BFCA43028070479B
:1037C00070B50246002400230025002040F66A164A
:1037D000B14200D100BFC1F3421501F01F03012621
:1037E00006FA03F3012D02D19689334006E0022D3B
:1037F00002D1168A334001E0968A33400C1201262A
:1038000006FA04F41688344013B10CB1012000E02C
:10381000002070BD10B50022002340F66A14A142BA
:1038200000D100BF0A1201249440A3B2DC430480FB
:1038300010BD000000380140004400400048004036
:10384000004C00400050004030B50146B1F1807F8F
:1038500001D3012030BD21F07F40401E4FF0E02217
:10386000506150170F22002807DA13071D0E234B53
:1038700000F00F04241F1D5503E013071C0E204BFE
:103880001C5400BF00204FF0E0229061072010611F
:103890000020DFE770B504461A4800684FF47A71DB
:1038A000B0FBF1F52846FFF7CFFF08B100BFFEE7F8
:1038B0001548046000BF144800680028FBD170BDA3
:1038C00070B504460F4800681049B0FBF1F5284672
:1038D000FFF7BAFF08B100BFFEE70B48046000BF66
:1038E000094800680028FBD170BD0748006820B176
:1038F00005480068401E04490860704718ED00E064
:1039000000E400E0000000202800002040420F00FA
:1039100010B588B00446FE48FDF734F800208DF855
:103920001A0001208DF81C0000208DF81B008DF876
:103930001E0001208DF81F0000208DF81D008DF85D
:103940001600072C52D2DFE804F05104111E2B3868
:10395000450000208DF8170008208DF8180007207A
:103960008DF819006420ADF814003FE000208DF8B8
:10397000170007208DF8180006208DF819002D205B
:10398000ADF8140032E000208DF8170008208DF803
:10399000180007208DF819001420ADF8140025E058
:1039A00000208DF8170007208DF8180006208DF8EC
:1039B00019000920ADF8140018E000208DF8170058
:1039C00003208DF8180002208DF819000920ADF8A9
:1039D00014000BE000208DF8170003208DF818006C
:1039E0008DF819000420ADF8140000BF00BF05A930
:1039F000C748FCF7E0FFC748007800F00F00C54952
:103A0000087000208DF80E008DF80F0001208DF851
:103A100010000020ADF80400ADF80600ADF8080075
:103A2000ADF80A00ADF80C0001208DF8110001A8D6
:103A3000FDF74BF801220221B548FDF745FB0022B6
:103A40000121B348FDF740FB01224FF40241B04889
:103A5000FDF73AFB08B010BD1FB5AF48FFF7F0FC0B
:103A60004FF4E13000900C20ADF80A000020ADF8D2
:103A70000400ADF80600ADF80800ADF80C0069468A
:103A8000A548FFF720FD0121A348FFF7A8FD01226B
:103A900040F22551A048FFF7AEFD40219E48FFF7B8
:103AA00086FE9E48FFF7CCFC4FF4E13000900C20DE
:103AB000ADF80A000020ADF80400ADF80600ADF83E
:103AC0000800ADF80C0069469448FFF7FCFC0121A2
:103AD0009248FFF784FD012240F225518F48FFF7FD
:103AE0008AFD40218D48FFF762FE1FBD0EB58C4850
:103AF000FEF798FD0020ADF802004FF47A70ADF8A3
:103B000004004720ADF800000020ADF8060069462B
:103B10008348FEF75BFE01218148FFF779FC002115
:103B20007F48FFF7AFFA012211467D48FFF7C5F93C
:103B300001217B48FFF7A6F90EBD3EB50446794842
:103B4000FEF770FD0020ADF80200A4F11000082877
:103B50002CD2DFE800F004090E13181D222744F6CA
:103B60002060ADF8040026E042F21070ADF80400C9
:103B700021E041F28830ADF804001CE04FF47A6097
:103B8000ADF8040017E04FF4FA60ADF8040012E05D
:103B90004FF47A70ADF804000DE04FF4FA70ADF810
:103BA000040008E0C820ADF8040004E044F62060FA
:103BB000ADF8040000BF00BF40F2CF20ADF8000018
:103BC0000020ADF8060069465648FEF7FFFD0121CA
:103BD0005448FFF71DFC00215248FFF753FA012219
:103BE00011465048FFF769F900214E48FFF74AF99E
:103BF0003EBD08B5FDF784FC1E208DF800000120B5
:103C00008DF8030000208DF8010002208DF80200DD
:103C10006846FCF726FC32208DF8000001208DF864
:103C2000030000208DF8010002208DF80200684694
:103C3000FCF717FC25208DF8000001208DF803000B
:103C400000208DF8010002208DF802006846FCF784
:103C500008FC26208DF8000001208DF803000020CC
:103C60008DF8010002208DF802006846FCF7F9FB90
:103C700014208DF8000001208DF803008DF801005C
:103C800000208DF802006846FCF7EBFB16208DF84B
:103C9000000001208DF8030000208DF801000220B3
:103CA0008DF802006846FCF7DCFB08BDF8B5012181
:103CB0001D48FEF7C2F81D48FDF78EFF1C48FDF7B2
:103CC0008BFF1C48FDF788FF1B48FDF785FF1B484D
:103CD000FDF782FF01210820FEF7AFF80121042043
:103CE000FEF7ABF84020ADF8000018208DF8030077
:103CF00002208DF8020069460D48FDF7CDFF8020B7
:103D0000ADF8000004208DF803006946084817E06C
:103D1000006400407D000020003801400044004065
:103D2000000C004000080040000230000008014084
:103D3000000C014000100140001401400018014037
:103D4000FDF7AAFF0420ADF8000018208DF803004D
:103D50006946EF48FDF7A0FF0820ADF800000420F9
:103D60008DF803006946EA48FDF796FF01214FF4FC
:103D7000EB10FEF762F80220ADF8000018208DF875
:103D800003006946E348FDF787FF0120ADF8000016
:103D900048208DF803006946DE48FDF77DFF0720C7
:103DA000ADF8000014208DF8030002208DF8020009
:103DB0006946D948FDF770FF3E20ADF8000010209D
:103DC0008DF8030002208DF802006946D348FDF704
:103DD00063FF4020ADF8000010208DF803000220A2
:103DE0008DF802006946CD48FDF756FF2020ADF85A
:103DF000000010208DF8030002208DF802006946B3
:103E0000C748FDF749FF4FF4D040ADF8000010203F
:103E10008DF8030002208DF802006946C048FDF7C6
:103E20003BFF4FF40040ADF8000004208DF8030084
:103E30006946BB48FDF730FF4FF45060ADF8000015
:103E400010208DF8030002208DF802006946B14869
:103E5000FDF722FF4FF48050ADF8000004208DF8EC
:103E600003006946AB48FDF717FF4FF42040ADF85B
:103E7000000010208DF8030002208DF80200694632
:103E8000A448FDF709FF4020ADF8000010208DF890
:103E9000030002208DF8020069469F48FDF7FCFEF2
:103EA0008020ADF8000004208DF8030069469A4890
:103EB000FDF7F2FE4FF48070ADF8000010208DF891
:103EC000030002208DF8020069469348FDF7E4FEE6
:103ED0004FF44070ADF8000010208DF80300022070
:103EE0008DF8020069468A48FDF7D6FE4FF48060DF
:103EF000ADF8000004208DF8030069468448FDF702
:103F0000CBFE4FF4AA40ADF8000010208DF803005E
:103F100003208DF8020069468048FDF7BDFE4FF48E
:103F2000AA417E48FDF765FF4FF42A40ADF8000036
:103F300028208DF8030069467848FDF7ADFE4FF460
:103F400000717648FDF73BFFC4004FF400617348F1
:103F5000FDF735FF44EA80044FF400516F48FDF748
:103F60002EFF44EA40044FF400416C48FDF727FF60
:103F700004436C490C70084600786B490870084689
:103F800000780DF027FE064632460B4600204FF023
:103F900080410CF037FE04460DF0D8FD401E62490A
:103FA00008704FF48070ADF8000048208DF80300D1
:103FB00069465A48FDF770FE4FF40070ADF80000F6
:103FC00048208DF8030069465448FDF765FEF8BDAA
:103FD00010B5FDF7CFFF4FF48030FDF7EBFFFEF794
:103FE00028F80446012C24D10020FEF768F80020B0
:103FF000FEF777F8A002FEF76BF80220FDF70EFB44
:104000001020FDF71FFB4FF4E0112004FEF73AF8F3
:104010000120FEF743F800BF3920FDF7EEFF00282E
:10402000FAD00220FEF73DF800BFFEF743F808285B
:10403000FBD1012144F27D00FEF70AF901213B4842
:10404000FEF713F910BD10B5FFF7C2FFFFF72EFE04
:10405000FFF7CFFD1120FFF770FDFFF747FDFFF7DA
:10406000FBFC0520FFF754FC10BD00B585B04FF4F4
:104070000040FEF751F82E48FCF75CFA0020009053
:104080008DF804008DF805004FF4602002900020A8
:10409000039001208DF8100069462548FCF771FA5D
:1040A00001212348FCF799FA2148FCF7B8FA00BF30
:1040B0001F48FCF7B9FA0028FAD11D48FCF7BEFAF0
:1040C00000BF1B48FCF7BFFA0028FAD105B000BDBD
:1040D0001FB50020009001900290022003906946D5
:1040E0000020FDF752F969461020FDF74EF9012135
:1040F0000020FDF767F901211020FDF763F9002189
:104100000846FDF7C0F900210846FDF7C9F91FBDB3
:104110000008014000140140001001400018014057
:10412000000C01407D0000207C0000200C000002FB
:104130000024014070B505460C4645F25550FDF788
:10414000F9FE2846FDF7F9FE2046FDF7F9FEFDF7DA
:10415000FAFEFDF7FDFE70BD10B5FDF7F4FE10BDD3
:104160002DE9FC4707460C46154600200090804686
:10417000814601AA694638460AF047FB06468EB9D1
:104180000198C069801E0199897800FB01F90198A6
:104190008078009900FB01F84FEA590020604FEA4F
:1041A000580028603046BDE8FC87ACB0FFF74BFFF5
:1041B00000F0EAFB00F041FC4021FE48FDF719FE4B
:1041C00004F03AFC04F00FFB04F00DFB1122002177
:1041D000022005F0C4FE11220021022006F047F85B
:1041E00011220021022006F0C0F911220021022034
:1041F00006F045FB0220F0490870F0490870F049CC
:104200000870F04908700020EF490870EF49087005
:10421000EF4908701120EF49088022E300202B901D
:104220002A9029902890002441E0EA480178002053
:1042300000F0F2FDE848006821A941F82400E648B2
:1042400001682B980EF052F82B90E248017800207C
:1042500001F034F8E14800681CA941F82400DF4867
:1042600001682A980EF042F82A90DA480178002076
:1042700001F072FADA48006817A941F82400D8481A
:10428000016829980EF032F82990D2480178002070
:1042900001F0B7FCD348006812A941F82400D148C6
:1042A000016828980EF022F82890601CC4B2052CF2
:1042B000BBDBC9480668C9480768C948D0F8008010
:1042C000C848D0F80090C448D0F800A0C348D0F83F
:1042D00000B0C34800682790C248006826900024B8
:1042E00053E021A850F8241030460EF09BF902D27A
:1042F00021A850F8246021A850F8241050460EF050
:1043000091FA02D221A850F824A01CA850F8241039
:1043100038460EF087F902D21CA850F824701CA869
:1043200050F8241058460EF07DFA02D21CA850F81E
:1043300024B017A850F8241040460EF073F902D2AA
:1043400017A850F8248017A850F8241026980EF0CB
:1043500069FA03D217A850F82400279012A850F841
:10436000241048460EF05EF902D212A850F82490AC
:1043700012A850F8241026980EF054FA03D212A86E
:1043800050F824002690601CC4B2052CA9DB5146CD
:104390002B980EF083FA31460C900EF07FFA92497A
:1043A0000D900EF011F88C49086059462A980EF0CD
:1043B00075FA39460C900EF071FA8B490D900EF09B
:1043C00003F886490860279929980EF067FA414654
:1043D0000C900EF063FA84490D900DF0F5FF8049C2
:1043E0000860269928980EF059FA49460C900EF06C
:1043F00055FA7D490D900DF0E7FF7A4908607B483A
:104400000168754800680EF041F973490860774803
:104410004168724800680EF039F9704908607348C5
:1044200081686F4800680EF031F96D4908606F4887
:10443000C1686C4800680EF029F96A4908606C4848
:10444000007801281ED10020694908706248006880
:10445000684908606148006867490860604800680A
:10446000664908605F480068654908600020654942
:10447000086008724872012088720220C8720846DB
:1044800005F0CFF960480078012815D100205E4979
:1044900008705849086058490860584908605849E8
:1044A0000860584908600872487201208872032029
:1044B000C872084605F0B5F94E48016846480068DC
:1044C0000EF0ECF9444908604B4801684348006825
:1044D0000EF0E4F941490860484801684048006826
:1044E0000EF0DCF93E490860454801683D48006827
:1044F0000EF0D4F93B49086037480068434908602A
:1045000036480068424908603548006841490860FB
:104510003448006840490860032340A2002108464F
:1045200005F0EAF801222C4801680EA803F062FCAD
:1045300008230EAA00211E2005F0DEF838A2002173
:104540006E2004F0F2F9032336A20221002005F0C8
:10455000D3F80122214801680EA803F04BFC082380
:104560000EAA02211E2005F0C7F82DA202216E20FE
:1045700004F0DBF903232CA20421002005F0BCF891
:104580000122174801680EA803F034FC08230EAA84
:1045900004211E2005F0B0F821A204216E2004F0B1
:1045A000C4F9032321A20621002005F0A5F8012269
:1045B0000C483DE0001801408700002089000020E1
:1045C0008B0000208D0000203700002034000020E8
:1045D0007A000020760000204000002044000020E7
:1045E000480000204C0000200000404074080020DB
:1045F0008400002064000020680000206C0000207F
:1046000070000020180900208500002054000020C0
:10461000580000205C0000206000002023313A0098
:104620006D56000023323A0023333A0023343A0017
:1046300001680EA803F0DEFB08230EAA06211E2047
:1046400005F05AF8AFF2280206216E2004F06DF949
:104650008448007801282DD1834800680DF01AFEA7
:10466000CDE90C01814800680DF014FECDE90A0186
:104670007F4800680DF00EFECDE908017D48006816
:104680000DF008FECDE90601DDE90C01CDE90401DC
:10469000DDE90A01CDE90201DDE90801CDE900010A
:1046A00075A17E48DDE906230BF080F87B497CA0EC
:1046B0000BF070F87B480078012801D103F009FE67
:1046C0000020794908600872487201208872C87217
:1046D000084605F0A6F875480078754909788842BB
:1046E0007ED100240DE0221D724B53F82210724A35
:1046F00052F824000DF0CAFF6F4941F82400601CF5
:10470000C4B2202CEFDB0020684908706B480078A9
:1047100020F08000803069490870534800680DF02F
:10472000B9FDCDE90C01514800680DF0B3FDCDE9AC
:104730000A014F4800680DF0ADFDCDE908014D4874
:1047400000680DF0A7FDCDE90601DDE90C01CDE91A
:104750000401DDE90A01CDE90201DDE90801CDE945
:10476000000157A14D48DDE906230BF01FF84B4926
:104770004BA00BF00FF8002448E04D480078204192
:1047800000F001056DB3032101EB84014A4A52F8A0
:1047900021000DF07FFDCDE90C01022101EB840128
:1047A000454A52F821000DF075FDCDE90A010121BD
:1047B00001EB8401404A52F821000DF06BFDCDE978
:1047C0000801002101EB84013B4A52F821000DF061
:1047D00061FDCDE90601DDE90C01CDE9040101E04F
:1047E00019E011E0DDE90A01CDE90201DDE9080186
:1047F000CDE9000132A12948DDE906230AF0D6FF00
:10480000264927A00AF0C6FF601CC4B2082CB4DBFE
:1048100034A00AF0BFFF3448007810B300203249BA
:10482000087004213148FDF7E6FA002413E021481E
:1048300050F824002E49086004200090800200EB0C
:1048400084012B4B0222A22003F030F81420FFF742
:1048500021F8601CC4B2242CE9DB04212348FDF7B5
:10486000C8FADBE4340000204C000020480000209F
:104870004400002040000020252D31302E346609F0
:10488000252D31302E346609252D31302E34660920
:10489000252D31302E34660A000000001C11002046
:1048A000257300007A00002018090020370000203E
:1048B0007C00002074080020C00B0020380000207D
:1048C000252D31302E346609252D31302E346609E0
:1048D000252D31302E346609252D31302E346609D0
:1048E000000000000A000000360000200010014017
:1048F0003000002010B54FF48071FE48FDF75FFADC
:10490000012805D10020FC490870FC49086016E028
:10491000F948007898B9F9480068401CF7490860E0
:104920000846006814280AD9002008600120F249CE
:1049300008700320F24908700120F24908704FF412
:104940000071EC48FDF73BFA012805D10020EE4943
:104950000870EE49086016E0EB48007898B9EB481B
:104960000068401CE94908600846006814280AD914
:10497000002008600120E44908700420E049087024
:104980000120E349087010BD38B50421E148FDF766
:1049900032FA0420E04B022200210090A22002F013
:1049A000C6FFDD480068DD49884241D00846DA4943
:1049B000086004200B46022200210090A22002F091
:1049C00075FF1420FEF766FF0020D349086004201D
:1049D0000B46022201460090A22002F067FF14203D
:1049E000FEF758FF4FF08040CD49086004200B4689
:1049F000022208210090A22002F058FF1420FEF7A6
:104A000049FF002412E04FF07E50C54908600420A1
:104A10000090800200EB8401C14B0222A22002F030
:104A200045FF1420FEF736FF601CC4B2242CEADBDD
:104A30000421B848FDF7DDF938BD38B50421B54883
:104A4000FDF7D9F90020B449086004200B46022282
:104A500001460090A22002F06AFF1420FEF71AFF20
:104A60000020AF49086004200B4602220821009074
:104A7000A22002F05CFF1420FEF70CFF002416E0D9
:104A80000020A749086004200090800200EB840108
:104A9000A34B0222A22002F04AFFA1480068A149CC
:104AA00041F824001420FEF7F5FE601CC4B2242C4B
:104AB000E6DB04219748FDF79CF938BD2DE9FF5F3F
:104AC00081468A4698480078022807D052464946CF
:104AD000022005F044FA02209349087000244FF4A4
:104AE00000619248FDF787F900BF4FF400418F48FD
:104AF000FDF765F90028F8D1582005F0DEF905F03A
:104B0000A5F904464FF400618848FDF772F988481A
:104B1000046088480068844224DA86490968864A25
:104B20001268881A0DF066FD834901900968601AC1
:104B30000DF060FD009001990DF046FC83460DF0EC
:104B4000A9FB054600227D4B0DF094F800227C4B1A
:104B5000CDE902010CF0B6FD07460CF081FD794964
:104B600008601DE078490968724A1268881A0DF0D9
:104B700041FD704903900968601A0DF03BFD0290F9
:104B800003990DF021FC83460DF084FB07460022BB
:104B90006A4B0DF06FF805460CF062FD694908603C
:104BA0006A480168674800680DF070FD6549086053
:104BB000BDE8FF9F2DE9FF5F81468A465A4800788D
:104BC000012807D052464946012005F0C8F90120C6
:104BD0005549087000244FF400615448FDF70BF963
:104BE00000BF4FF400415148FDF7E9F80028F8D123
:104BF000582005F062F905F029F904464FF40061E8
:104C00004A48FDF7F6F84A48046051480068844273
:104C100024DA4F4909684F4A1268881A0DF0EAFCF5
:104C20004C4901900968601A0DF0E4FC009001996C
:104C30000DF0CAFB83460DF02DFB05460022464BC6
:104C40000DF018F80022454BCDE902010CF03AFDB9
:104C500007460CF005FD3B4908601DE04049096826
:104C60003B4A1268881A0DF0C5FC3949039009685F
:104C7000601A0DF0BFFC029003990DF0A5FB83466E
:104C80000DF008FB07460022334B0CF0F3FF0546FE
:104C90000CF0E6FC2B49086032480168294800689E
:104CA0000DF0F4FC27490860BDE8FF9F2DE9FF5F88
:104CB00081468A461C48007838B152464946002051
:104CC00005F04DF900201849087000244FF40061E8
:104CD0001648FDF790F800BF4FF400411348FDF768
:104CE0006EF80028F8D1582005F0E7F805F0AEF886
:104CF000044639E000180140D4000020D000002014
:104D0000C400002084000020DC000020D800002027
:104D100085000020001001402C00002040E201002E
:104D2000300000207408002086000020000C0140A4
:104D300090000020A4000020A80000200070A740E0
:104D40000070A7C040000020A000002094000020B8
:104D5000B0000020B400002000C0724000C072C04B
:104D6000AC000020980000204FF40061FE48FDF7E1
:104D700040F8FE480460FE480068844224DAFD4999
:104D80000968FD4A1268881A0DF034FCFA4901904E
:104D90000968601A0DF02EFC009001990DF014FBCB
:104DA00083460DF077FA05460022F44B0CF062FFC3
:104DB0000022F34BCDE902010CF084FC07460CF015
:104DC0004FFCF04908601DE0EF490968E94A1268A4
:104DD000881A0DF00FFCE74903900968601A0DF07E
:104DE00009FC029003990DF0EFFA83460DF052FA98
:104DF00007460022E14B0CF03DFF05460CF030FC6D
:104E0000E0490860E1480168DE4800680DF03EFCBA
:104E1000DC490860BDE8FF9F2DE9F04104460D46DE
:104E2000DB48007802283BD129462046FFF746FEA2
:104E3000D44800680DF02EFA06460022D54B0CF03F
:104E4000DDFE28D2CF4800680DF024FA0646002285
:104E5000D14B0DF00DF879D229462046FFF7AAFE76
:104E6000C84800680DF016FA06460022CB4B0CF03D
:104E7000C5FE11D2C34800680DF00CFA06460022A8
:104E8000C74B0CF0F5FF07D229462046FFF70EFF6F
:104E90000020BF49087059E00120BD49087055E065
:104EA000BB480078012833D129462046FFF782FE0F
:104EB000B44800680DF0EEF906460022B74B0CF03E
:104EC0009DFE0DD2AF4800680DF0E4F906460022C1
:104ED000B34B0CF0CDFF03D20020AD49087035E094
:104EE000A84800680DF0D6F906460022AD4B0CF03C
:104EF000BFFF09D3A34800680DF0CCF90646002295
:104F0000A94B0CF07BFE21D20220A14908701DE0C4
:104F10009F480078D0B929462046FFF7C7FE994838
:104F200000680DF0B7F906460022A04B0CF0A0FF78
:104F300009D3944800680DF0ADF9064600229C4B59
:104F40000CF05CFE02D2012091490870BDE8F081AE
:104F50002DE9FF5F81468A4696480078022807D0EF
:104F600052464946022005F082F902209149087014
:104F700000244FF480719048FCF73DFF00BF4FF4D0
:104F800080518D48FCF71BFF0028F8D1582005F010
:104F900018F905F0DFF804464FF480718648FCF7F5
:104FA00028FF7248046085480068844224DA8349F7
:104FB0000968834A1268881A0DF01CFB8049019029
:104FC0000968601A0DF016FB009001990DF0FCF9CC
:104FD00083460DF05FF9054600227A4B0CF04AFE3D
:104FE0000022794BCDE902010CF06CFB07460CF076
:104FF00037FB764908601DE0754909686F4A1268F9
:10500000881A0DF0F7FA6D4903900968601A0DF0DF
:10501000F1FA029003990DF0D7F983460DF03AF9B1
:1050200007460022674B0CF025FE05460CF018FBE6
:105030006649086067480168644800680DF026FB0F
:1050400062490860BDE8FF9F2DE9FF5F81468A46FF
:1050500058480078012807D052464946012005F0FB
:1050600006F901205349087000244FF4807152481A
:10507000FCF7C1FE00BF4FF480514F48FCF79FFE84
:105080000028F8D1582005F09CF805F063F8044694
:105090004FF480714848FCF7ACFE34480460344853
:1050A0000068844224DA324909684B4A1268881A37
:1050B0000DF0A0FA484901900968601A0DF09AFABB
:1050C000009001990DF080F983460DF0E3F8054654
:1050D0000022424B0CF0CEFD0022414BCDE90201F3
:1050E0000CF0F0FA07460CF0BBFA384908601DE0F6
:1050F0003C4909681E4A1268881A0DF07BFA1C495F
:1051000003900968601A0DF075FA029003990DF08A
:105110005BF983460DF0BEF8074600222F4B0CF0DA
:10512000A9FD05460CF09CFA284908602E48016844
:10513000264800680DF0AAFA24490860BDE8FF9FE0
:105140002DE9FF5F81468A461A48007838B15246F9
:105150004946002005F08BF800201649087000240D
:105160004FF48071144841E0000C01409000002091
:10517000B0000020BC000020C000002000003E4025
:1051800000003EC040000020B80000209C0000202D
:105190008700002000B0724000B072C000003D40A7
:1051A00000003DC000D0724000D072C000003F40FF
:1051B00000003FC08800002000140140A40000202F
:1051C000A80000200070A7400070A7C04400002085
:1051D000A000002094000020B400002000C0724015
:1051E00000C072C0AC00002098000020FCF703FE55
:1051F00000BF4FF48051FA48FCF7E1FD0028F8D1D8
:10520000582004F0DEFF04F0A5FF04464FF480713F
:10521000F348FCF7EEFDF3480460F348006884426D
:1052200024DAF2490968F24A1268881A0DF0E2F9A4
:10523000EF4901900968601A0DF0DCF900900199BE
:105240000DF0C2F883460DF025F805460022E94B23
:105250000CF010FD0022E84BCDE902010CF032FA0F
:1052600007460CF0FDF9E54908601DE0E4490968CE
:10527000DE4A1268881A0DF0BDF9DC49039009680E
:10528000601A0DF0B7F9029003990DF09DF883466E
:105290000DF000F807460022D64B0CF0EBFC05465B
:1052A0000CF0DEF9D5490860D6480168D34800689B
:1052B0000DF0ECF9D1490860BDE8FF9F2DE9F04100
:1052C00004460D46D048007802283BD129462046A6
:1052D000FFF73EFEC94800680CF0DCFF06460022DE
:1052E000CA4B0CF08BFC28D2C44800680CF0D2FFEB
:1052F00006460022C64B0CF0BBFD79D2294620465B
:10530000FFF7A2FEBD4800680CF0C4FF064600226D
:10531000C04B0CF073FC11D2B84800680CF0BAFF17
:1053200006460022BC4B0CF0A3FD07D229462046BE
:10533000FFF706FF0020B449087059E00120B24988
:10534000087055E0B0480078012833D1294620463E
:10535000FFF77AFEA94800680CF09CFF0646002281
:10536000AC4B0CF04BFC0DD2A44800680CF092FF43
:1053700006460022A84B0CF07BFD03D20020A24978
:10538000087035E09D4800680CF084FF0646002256
:10539000A24B0CF06DFD09D3984800680CF07AFF21
:1053A000064600229E4B0CF029FC21D20220964991
:1053B00008701DE094480078D0B929462046FFF7D0
:1053C000BFFE8E4800680CF065FF06460022954B34
:1053D0000CF04EFD09D3894800680CF05BFF0646CF
:1053E0000022914B0CF00AFC02D201208649087081
:1053F000BDE8F0812DE9FF5F81468A468B48007841
:10540000022807D052464946022005F0AEF8022095
:105410008649087000244FF400517148FCF7EBFCFA
:1054200000BF80218248FCF7CAFC0028F9D158202F
:1054300005F04DF805F016F804464FF400516848A1
:10544000FCF7D7FC674804607A480068844224DA95
:1054500078490968784A1268881A0DF0CBF87649BD
:1054600001900968601A0DF0C5F8009001990CF0E0
:10547000ABFF83460CF00EFF054600226F4B0CF08D
:10548000F9FB00226E4BCDE902010CF01BF9074637
:105490000CF0E6F86B4908601DE06B490968654A45
:1054A0001268881A0DF0A6F8624903900968601A1C
:1054B0000DF0A0F8029003990CF086FF83460CF0E3
:1054C000E9FE074600225D4B0CF0D4FB05460CF0CC
:1054D000C7F85C4908605D4801685A4800680DF0EB
:1054E000D5F858490860BDE8FF9F2DE9FF5F814668
:1054F0008A464E480078012807D052464946012086
:1055000005F033F801204949087000244FF4005198
:105510003348FCF770FC00BF80214548FCF74FFC86
:105520000028F9D1582004F0D2FF04F09BFF044674
:105530004FF400512A48FCF75CFC2A4804602A48D2
:105540000068844224DA28490968414A1268881AA6
:105550000DF050F83E4901900968601A0DF04AF8C4
:10556000009001990CF030FF83460CF093FE054645
:105570000022384B0CF07EFB0022374BCDE90201B4
:105580000CF0A0F807460CF06BF82E4908601DE0FF
:1055900032490968144A1268881A0DF02BF812492A
:1055A00003900968601A0DF025F8029003990CF039
:1055B0000BFF83460CF06EFE07460022254B0CF0D5
:1055C00059FB05460CF04CF81E4908602448016858
:1055D0001C4800680DF05AF81A490860BDE8FF9FA2
:1055E0000014014090000020B0000020BC0000200A
:1055F000C000002000003E4000003EC044000020EB
:10560000B80000209C0000208900002000B07240FB
:1056100000B072C000003D4000003DC000D07240AC
:1056200000D072C000003F4000003FC08A00002050
:1056300000100140A4000020A80000200070A74036
:105640000070A7C048000020A000002094000020A7
:10565000B400002000C0724000C072C0AC00002046
:10566000980000202DE9FF5F81468A46FE480078B9
:1056700038B152464946002004F077FF0020FA492D
:10568000087000244FF40051F848FCF7B4FB00BF49
:105690008021F748FCF793FB0028F9D1582004F04B
:1056A00016FF04F0DFFE04464FF40051EF48FCF70C
:1056B000A0FBF0480460F0480068844224DAEF4917
:1056C0000968EF4A1268881A0CF094FFEC490190BF
:1056D0000968601A0CF08EFF009001990CF074FEBE
:1056E00083460CF0D7FD05460022E64B0CF0C2FACB
:1056F0000022E54BCDE902010BF0E4FF07460BF079
:10570000AFFFE24908601DE0E1490968DB4A126821
:10571000881A0CF06FFFD94903900968601A0CF0E1
:1057200069FF029003990CF04FFE83460CF0B2FD26
:1057300007460022D34B0CF09DFA05460BF090FF74
:10574000D2490860D3480168D04800680CF09EFF39
:10575000CE490860BDE8FF9F2DE9F04104460D46A3
:10576000CD48007802283BD129462046FFF742FE6B
:10577000C64800680CF08EFD06460022C74B0CF0B0
:105780003DFA28D2C14800680CF084FD064600228C
:10579000C34B0CF06DFB79D229462046FFF7A5FEDE
:1057A000BA4800680CF076FD06460022BD4B0CF0AE
:1057B00025FA11D2B54800680CF06CFD06460022AF
:1057C000B94B0CF055FB07D229462046FFF74AFF9C
:1057D0000020B149087059E00120AF49087055E038
:1057E000AD480078012833D129462046FFF77DFED9
:1057F000A64800680CF04EFD06460022A94B0CF0AE
:10580000FDF90DD2A14800680CF044FD06460022C7
:10581000A54B0CF02DFB03D200209F49087035E00A
:105820009A4800680CF036FD064600229F4B0CF0AB
:105830001FFB09D3954800680CF02CFD064600229A
:105840009B4B0CF0DBF921D20220934908701DE03C
:1058500091480078D0B929462046FFF703FF8B48CE
:1058600000680CF017FD06460022924B0CF000FB7E
:1058700009D3864800680CF00DFD064600228E4BC9
:105880000CF0BCF902D2012083490870BDE8F08118
:105890002DE9FF5F81468A4688480078022807D0B4
:1058A00052464946022004F0EAFF0220834908706C
:1058B00000244FF480716E48FCF79DFA00BF4FF44E
:1058C00080617F48FCF77BFA0028F8D1582004F06B
:1058D00084FF04F04BFF04464FF480716448FCF7EA
:1058E00088FA6448046077480068844224DA75497D
:1058F0000968754A1268881A0CF07CFE724901909A
:105900000968601A0CF076FE009001990CF05CFDBD
:1059100083460CF0BFFC054600226C4B0CF0AAF944
:1059200000226B4BCDE902010BF0CCFE07460BF0D9
:1059300097FE684908601DE067490968614A126876
:10594000881A0CF057FE5F4903900968601A0CF042
:1059500051FE029003990CF037FD83460CF09AFC3F
:1059600007460022594B0CF085F905460BF078FEEE
:105970005849086059480168564800680CF086FE8E
:1059800054490860BDE8FF9F2DE9FF5F81468A46C4
:105990004A480078012807D052464946012004F0C1
:1059A0006EFF01204549087000244FF48071304893
:1059B000FCF721FA00BF4FF480614148FCF7FFF982
:1059C0000028F8D1582004F008FF04F0CFFE044668
:1059D0004FF480712648FCF70CFA264804602648EC
:1059E0000068844224DA244909683D4A1268881A0A
:1059F0000CF000FE3A4901900968601A0CF0FAFDBB
:105A0000009001990CF0E0FC83460CF043FC054645
:105A10000022344B0CF02EF90022334BCDE9020169
:105A20000BF050FE07460BF01BFE2A49086063E0AE
:105A30002E490968104A1268881A0CF0DBFD0E49DD
:105A400003900968601A0CF0D5FD029003990CF0E0
:105A5000BBFC83460CF01EFC07460022214B0CF0D9
:105A600009F9054644E000008A00002000140140C6
:105A70000010014090000020B0000020BC00002079
:105A8000C000002000003E4000003EC04800002052
:105A9000B80000209C0000208B00002000B0724065
:105AA00000B072C000003D4000003DC000D0724018
:105AB00000D072C000003F4000003FC08C000020BA
:105AC00000080140A4000020A80000200070A740AA
:105AD0000070A7C04C000020A0000020940000200F
