:020000040800F2
:10000000100C0020DD810008490800084B0800089A
:100010004F080008530800085708000800000000B7
:100020000000000000000000000000005B08000865
:100030005D080008000000005F080008F581000866
:10004000F7810008F7810008F7810008F7810008B0
:10005000F7810008F7810008F7810008F7810008A0
:10006000F7810008F7810008F7810008F781000890
:10007000F7810008F7810008F7810008F781000880
:10008000F7810008F7810008F7810008F781000870
:10009000F7810008F7810008F78100086B1000085D
:1000A000F7810008F7810008F7810008F781000850
:1000B000F781000845020008F7810008F781000871
:1000C000F7810008F7810008F7810008F781000830
:1000D000F7810008A7800008F7810008F781000871
:1000E000F7810008F7810008F7810008F781000810
:1000F000F7810008F7810008F7810008F781000800
:10010000F7810008F7810008F7810008F7810008EF
:10011000F7810008F7810008F7810008F7810008DF
:10012000F7810008F7810008F7810008F7810008CF
:10013000F7810008F7810008F7810008F7810008BF
:10014000F7810008F7810008F7810008F7810008AF
:10015000F7810008F7810008F7810008F78100089F
:10016000F7810008F7810008F7810008F78100088F
:10017000F7810008F7810008F7810008F78100087F
:10018000F7810008F781000800F002F800F04AF853
:100190000AA090E8000C82448344AAF10107DA45E2
:1001A00001D100F03FF8AFF2090EBAE80F0013F0EA
:1001B000010F18BFFB1A43F00103184748FC000069
:1001C00068FC0000103A24BF78C878C1FAD85207FA
:1001D00024BF30C830C144BF04680C6070470000C1
:1001E0000023002400250026103A28BF78C1FBD840
:1001F000520728BF30C148BF0B60704766290DF019
:10020000CE8678290AF0B284002070471FB50BF023
:10021000B1F80400002000210CF0D2FCE0601FBD0A
:1002200010B510BD0BF0AEF91146FFF7EFFF00F06F
:1002300037F80BF0CCF903B4FFF7F2FF03BC07F07B
:10024000C7FE000010B50121F7480AF014F8012894
:1002500021D1F6480078D8B1F5480068401CF4492F
:10026000086008460068B0F5FA7F14DDF14A51686D
:10027000D0680DF0E3FC0ED2EE49C8684FF07E5115
:100280000DF0E0FAEB49C8600020E949086002E09F
:100290000020E74908600121E34809F0FDFF10BD97
:1002A00092B04FF0000B00BFD94600244FF4A0607D
:1002B00007F0B4FFA82007F00FFF02F033FCDE4880
:1002C00007F0A8FC4FF08140DC4BDD4ADD4900908F
:1002D000D84800F0FBFE1420DB49088002F0C6FB82
:1002E000532140F2E73002F081F90020D74908801D
:1002F00003F045FB91E2012002F032FC8146B9F1A6
:10030000030F0BD10020C9490870601CC4B205203E
:1003100094FBF0F100FB1140C4B2BFE0B9F1040F4F
:100320004DD1052C4AD2DFE804F0031323334300F8
:10033000C04948680DF05AFA07460022C44B0CF039
:1003400087FCCDE900010CF051FCBA49486035E06A
:10035000B84908690DF04AFABE4ABF4BCDE9000121
:100360000CF076FC07460CF041FCB249086125E030
:10037000B04948690DF03AFAB84AB94BCDE90001E5
:100380000CF066FC07460CF031FCAA49486115E008
:10039000A84988690DF02AFA0022AD4BCDE9000189
:1003A0000CF056FC07460CF021FCA249886105E0E0
:1003B000A5480088401CA449088000BF6EE0B9F140
:1003C000020F4DD1052C4AD2DFE804F0031323338A
:1003D0004300984948680DF009FA074600229C4BF3
:1003E0000DF01AF9CDE900010CF000FC91494860CC
:1003F00035E0904908690DF0F9F90746954A964BA2
:100400000DF00AF9CDE900010CF0F0FB8949086113
:1004100025E0884948690DF0E9F907468F4A904B75
:100420000DF0FAF8CDE900010CF0E0FB81494861DC
:1004300015E0804988690DF0D9F907460022844B00
:100440000DF0EAF8CDE900010CF0D0FB79498861A4
:1004500005E07D480088401E7B49088000BF1DE004
:10046000B9F1010F1AD171480078401C6F4908702A
:10047000087800EBD0714910A0EB41016B4A117074
:100480001046007820B94FF4BE7002F019FB05E069
:100490006D4800880DF0BEFB6649C860634800786F
:1004A00000287DD0644807F08DFB07460CF09EFBCA
:1004B00082465146002002F09BFA07460DF096F95D
:1004C00005460E46284631460CF090FB0746394655
:1004D000584800F00FFE8346624958460DF0E2FB93
:1004E00080460DF02FFB87B2384602F0E9FA5EA095
:1004F00018210B462822CDE90010AA21142007F06C
:100500008AF950460DF072F907463A460B4657A154
:1005100002A80AF017FB02A818210B466422CDE9B5
:100520000010AA21502007F076F952A018210B469E
:100530002822CDE900104621142007F06CF92A4644
:1005400033464AA102A80AF0FDFA02A818210B4678
:100550006422CDE900104621502007F05CF946A046
:1005600018210B462822CDE900109621142007F00F
:1005700052F93C4958460DF095FB01900DF036F9C3
:1005800007463A460B4639A102A80AF0DBFA02A850
:1005900018210B466422CDE900109621502000E07E
:1005A00024E007F038F935A018210B462822CDE9C0
:1005B0000010BE21142007F02EF91E49C8680DF066
:1005C00015F907463A460B462DA102A80AF0BAFAD9
:1005D00002A818210B466422CDE90010BE2150204C
:1005E00007F019F9642007F0D9FD16E1052C72D245
:1005F000DFE804F0030E505B660022A018210B46D2
:100600006422CDE900101421084607F004F962E0E5
:100610001EA018210B466422CDE9001014210846C3
:1006200007F0F9F857E00000000400400200002045
:100630000400002034050020640500200000F04183
:100640000000A04100002042000000201E00002009
:100650000000E03F9A9999999999C93FFCA9F1D274
:100660004D62403F0000204154563A00252E34662A
:100670000000000050563A00564F3A0049563A00E2
:10068000256600004D4F44453A5356004D4F4445B2
:100690003A4B500061A018210B466422CDE90010AE
:1006A0001421084607F0B7F815E05EA018210B46A4
:1006B0006422CDE900101421084607F0ACF800BF11
:1006C0005AA018210B466422CDE9001014210846D7
:1006D00007F0A1F800BF00BF56A018210B46282242
:1006E000CDE900103221142007F095F852494868EE
:1006F0000DF07CF807463A460B46AFF27C0102A8A3
:100700000AF020FA02A818210B466422CDE9001055
:100710003221502007F07FF848A018210B462822EC
:10072000CDE900105A21142007F075F842490869F4
:100730000DF05CF807463A460B46AFF2BC0102A842
:100740000AF000FA02A818210B466422CDE9001035
:100750005A21502007F05FF839A018210B462822B3
:10076000CDE900106E21142007F055F83249486990
:100770000DF03CF807463A460B46AFF2FC0102A8E2
:100780000AF0E0F902A818210B466422CDE9001016
:100790006E21502007F03FF82AA018210B4628228E
:1007A000CDE900108221142007F035F8224988692C
:1007B0000DF01CF807463A460B46AFF23C1102A872
:1007C0000AF0C0F902A818210B466422CDE90010F6
:1007D0008221502007F01FF8AFF2601018210B465D
:1007E0002822CDE90010BE21142007F014F8124988
:1007F000C8680CF0FBFF07463A460B46AFF2801183
:1008000002A80AF09FF902A818210B466422CDE93C
:100810000010BE21502006F0FEFF6CE54D4F444510
:100820003A4B49004D4F44453A4B44004D4F4445E7
:100830003A49560053563A00340500204B503A00CE
:100840004B493A004B443A00704700BFFEE700BFF7
:10085000FEE700BFFEE700BFFEE770477047704746
:100860000CB50020019000907248006840F4803080
:100870007049086000BF6F48006800F400300090C5
:100880000198401C0190009818B90198B0F5A04F4C
:10089000F1D16848006800F4003010B101200090E8
:1008A00001E0002000900098012846D161484030C6
:1008B000006840F080505F49403108605E48006841
:1008C00040F440405C4908605A4808300068594983
:1008D000083108600846006840F400400860084697
:1008E000006840F4A05008605448091F0860081FC1
:1008F000006840F08070091F086000BF4D48006824
:1009000000F000700028F9D040F205704C490860F2
:1009100048480830006820F0030046490831086064
:100920000846006840F00200086000BF41480830F7
:10093000006800F00C000828F8D10CBD10B53D4847
:10094000006840F001003B49086000203949083147
:100950000860384800683B490840364908603A4812
:10096000091D0860081F006820F48020091F086026
:10097000002030490C310860FFF772FF4FF0006033
:100980003249086010BD70B5002000220223002407
:100990000221284D08352D6805F00C0020B10428EF
:1009A00006D0082834D107E0294D2A4E356033E0BF
:1009B000294D284E35602FE01E4D2D1D2D68C5F3A5
:1009C00080541C4D2D1D2D6805F03F0154B1224D62
:1009D000B5FBF1F5174E361D3668C6F3881605FBD4
:1009E00006F209E01A4DB5FBF1F5124E361D3668D8
:1009F000C6F3881605FB06F20E4D2D1D2D68C5F3B6
:100A000001456D1C6B00B2FBF3F5124E356003E03F
:100A10000F4D104E356000BF00BF064D08352D68E4
:100A2000C5F303150D4E705D0A4D2D68C540094E86
:100A3000356070BD00380240007000400854400727
:100A4000003C0240FFFFF6FE1030002408ED00E0FD
:100A50000024F4000800002000127A000C0000209E
:100A6000002001E0411C88B20A28FBDB704770B50A
:100A70000446FFF7F5FFFFF7F3FF00251BE004F046
:100A8000800020B10221F94807F03AFD03E002217D
:100A9000F64807F037FD0121F44807F031FDFFF774
:100AA000DFFF6006040E0121F04807F02BFDFFF781
:100AB000D7FF681CC5B2082DE1DB70BD10B5044638
:100AC0000421EA4807F01EFD2046FFF7D0FF04216D
:100AD000E64807F015FD10BD1CB50121042008F003
:100AE00015FA01208DF8040000208DF806008DF81D
:100AF000070001208DF8050000906946DB4807F0EB
:100B000083FC022000906946D84807F07DFC042051
:100B100000906946D54807F077FC082000906946A8
:100B2000D24807F071FC102000906946CF4807F0CA
:100B30006BFC00208DF804008DF806008DF807008E
:100B400002208DF80500202000906946C74807F074
:100B50005BFC4FF4007000906946C44807F054FCF9
:100B60000821C24807F0CCFC1021C04807F0C8FC9F
:100B70000421BE4807F0C4FC0121BC4807F0C2FCB8
:100B80000221BA4807F0BCFCF020FFF797FF1CBD1C
:100B900010B5002407E04FF40071B44807F096FC4C
:100BA00000B903E0641CB2488442F4D300BF10BD16
:100BB00010B50821AD4807F0A5FC052007F0A6FAFE
:100BC0000821AA4807F09CFC052007F09FFA10BDF9
:100BD0001CB54FF40070009000208DF804000C202C
:100BE0008DF8050000208DF80600684608F064FDC9
:100BF0001CBDF8B504460D4616469E4844708570E7
:100C000006700078012804D104209A4981F8250053
:100C100003E00820974981F82500FFF7D9FFFFF787
:100C2000C7FFFFF7B5FF04208DF8000001208DF805
:100C30000100002040EA4400C0B28DF802008E4856
:100C4000405D8DF803000421884807F05BFC5020CC
:100C5000FFF70DFF0320FFF70AFF9DF80000FFF7E5
:100C600006FF9DF80100FFF702FF9DF80200FFF765
:100C7000FEFE9DF80300FFF7FAFE04217B4807F013
:100C80003FFC322007F042FAF8BD10B50A2007F009
:100C90003DFA10BD70B50024FFF7E2FE002517E015
:100CA0000121724807F02CFCFFF7DAFE6006040E03
:100CB00001216E4807F026FC20216C4807F006FC55
:100CC000012801D1601CC4B2FFF7CAFE681CC5B27E
:100CD000082DE5DB204670BD70B504460D460421A5
:100CE000624807F00FFC44F05000FFF7C0FE002000
:100CF000FFF7BDFE2846FFF7BAFE04215B4807F068
:100D0000FFFB70BD70B504460421584807F0FAFB9C
:100D100044F01000FFF7ABFE0020FFF7A8FEFFF73E
:100D2000B4FFFFF7B7FF05460421504807F0E8FB82
:100D3000284670BD10B5FFF72BFF0020FFF7E2FF3C
:100D40000446201110BD10B50446072C00DD10BD6F
:100D5000082040EA0410C1B20120FFF7BDFF00BF28
:100D6000F5E710B5044624B901210846FFF7B4FFA2
:100D700013E0012C04D123210120FFF7ADFF0CE08B
:100D8000022C04D145210120FFF7A6FF05E0032C2A
:100D900003D167210120FFF79FFF10BD10B5044666
:100DA00034480078012803D12046FFF7DAFF02E03B
:100DB0002046FFF7C8FF10BD10B5002404212B48C2
:100DC00007F0A0FB0120FFF752FEFFF75EFFFFF7E1
:100DD00061FF0404FFF75EFF04EB0024FFF75AFFF6
:100DE00004440421214807F08BFB04F4000008B1FF
:100DF000A4F18074204610BD2DE9F0474FF00008A3
:100E0000002700210D460E460024894600BF07E05A
:100E1000FFF7D2FF451946EBE07604F10100C4B2BA
:100E20000A2CF5DB0A2200232846314609F059FE38
:100E300010F1C7073846BDE8F08710B50446FFF744
:100E4000A7FE2046FFF7AAFF052007F05FF9FC2068
:100E5000FFF734FE052007F059F90020FFF72EFEBA
:100E6000192007F053F9FFF7A7FF10BD0008024053
:100E7000005A62027805002092E000080EB50121B8
:100E8000880308F09DF80921022008F0A4F94FF426
:100E90000070019000208DF808000C208DF80900EA
:100EA00001208DF80A0001A808F006FC17208DF833
:100EB000000000208DF8010002208DF802000120C2
:100EC0008DF80300684607F0AEF900216F4A82F8FA
:100ED0002410002006E000226C49091D41F8202062
:100EE000411CC8B20828F6DB0EBD2DE9F0470446C8
:100EF0004FF0000A072C02DD0020BDE8F0876349AF
:100F0000091D51F824000CF001FE8146604889FB60
:100F1000007001465F4A0023384609F0E2FD0546AD
:100F20000CF04BFE82465046E7E72DE9F05F4FF0AC
:100F3000000BFFF761FF824655488AFB00600146BF
:100F4000544A0023304609F0CCFD04460CF035FE2F
:100F50008346514958460CF071FE05D24F49584618
:100F60000CF0A8FF83463EE04D4958460CF066FE63
:100F700011D258460CF03AFC80464A4A4A4B0CF0D3
:100F80003FF906460022494B0CF046FB04460BF0A5
:100F90002DFE834627E0464958460CF04FFE11D2FD
:100FA00058460CF023FC0646424A434B0CF028F905
:100FB00080460022414B0CF02FFB04460BF016FE3E
:100FC000834610E058460CF011FC80463C4A3D4BED
:100FD0000CF016F9064600223B4B0CF01DFB0446B4
:100FE0000BF004FE83465846BDE8F09F10B5274934
:100FF00091F82400FFF7D2FE052007F087F8FC20C7
:10100000FFF75CFD052007F081F80020FFF756FD93
:10101000192007F07BF81D4890F8240050B9FFF71D
:1010200084FF1A4991F82510491E184A121D42F8EA
:10103000210009E0FFF779FF144991F82410491EB7
:10104000124A121D42F82100104890F82400401C5A
:10105000C0B20E4981F8240091F82510884203DBC4
:1010600000200A4981F8240010BD10B54FF400702B
:1010700008F088FB48B14FF4007008F08EFBFFF7D2
:10108000B5FF4FF4007008F088FB10BD7805002014
:10109000A0252600FFFF3F0000007A440000D44254
:1010A00000401C46401361C3D32BF03F0000594061
:1010B0000060EA46894160E5D022F03F008061404F
:1010C000B4C876BE9F1AF03F0040604030B5039C24
:1010D00001604360C26084600025C561056285626D
:1010E000FE4D8561FE4D4561FE4D0561002580F890
:1010F0002C5030BD2DE9FC5F04460F464FF0000830
:101100000025A94660680CF001FD642190FBF1F018
:10111000C6B2002E01DD304600E00020082805DAC6
:10112000002E01DD304602E0002000E008200646E7
:101130003946E0680CF0BEFE05462946A06A0CF070
:1011400081FBA062E849A06A0CF078FE01D2A06A97
:1011500000E0E5488246E5490CF070FD08D2E2491E
:10116000A06A0CF06BFE01D2A06A02E0DE4800E04B
:10117000DE48A0622846E1690CF09CFE8146E561EC
:101180004946A0690CF08EFD0190A16A60690CF0DF
:1011900089FD8346294620690CF084FD594600905C
:1011A0000CF050FB824601990CF04CFB804600216C
:1011B00040460CF043FE1CD2002140460CF03EFE9F
:1011C00001D2404600E000208346C9490CF036FDBC
:1011D00008D2002140460CF031FE01D2404602E028
:1011E000002000E0C2488246C2490CF02BFB80463A
:1011F00001E0DFF804834046BDE8FC9F03B5D7B0AB
:101200001C22BE494CA809F064FD1C22BB491C31BC
:1012100045A809F05EFD0020439044904190429023
:10122000B648383090E80E00C068CDE93E233D91C5
:101230004090002039903A903B903C90C422AF49B6
:10124000483108A809F045FD4C9801460790579889
:101250000CF0F4FC05D24FF07E50439000205490E7
:10126000DBE04C980146079057980CF0E7FD1CD83E
:101270004D980146079057980CF0E0FC15D24C9819
:1012800005904D98049005990CF014FE07904D9828
:101290000146059057980CF002FE069007990CF055
:1012A0003FFB439000205490B7E04D9801460790D3
:1012B00057980CF0C3FD1CD84E98014607905798DC
:1012C0000CF0BCFC15D24D9805904E9804900599F1
:1012D0000CF0F0FD07904E980146059057980CF0E1
:1012E000DEFD069007990CF01BFB43900120549003
:1012F00093E04E980146079057980CF09FFD1CD83C
:101300004F980146079057980CF098FC15D24E98CC
:1013100005904F98049005990CF0CCFD07904F98DC
:101320000146059057980CF0BAFD069007990CF00D
:10133000F7FA4390022054906FE04F9801460790CF
:1013400057980CF07BFD1CD8509801460790579891
:101350000CF074FC15D24F980590509804900599A4
:101360000CF0A8FD079050980146059057980CF096
:1013700096FD069007990CF0D3FA43900320549001
:101380004BE050980146079057980CF057FD1CD839
:1013900051980146079057980CF050FC15D2509880
:1013A00005905198049005990CF084FD0790519890
:1013B0000146059057980CF072FD069007990CF0C5
:1013C000AFFA43900420549027E0519801460790CB
:1013D00057980CF033FD1CD8529801460790579847
:1013E0000CF02CFC15D25198059052980490059958
:1013F0000CF060FD079052980146059057980CF04C
:101400004EFD069007990CF08BFA439005205490FE
:1014100003E00020439005205490439803900CF083
:10142000E5F90022364BCDE904010CF01DF8CDE9B9
:1014300006010BF0DBFB4490459801460790589855
:101440000CF0FCFB05D24FF07E50419000205390F1
:10145000E4E04598079058990CF0F0FB1BD84698AB
:101460000146079058980CF0E9FB14D24598059076
:101470004698049005990CF01DFD0790469805903C
:1014800058990CF017FD069007990CF049FA419015
:1014900000205390C2E04698079058990CF0CEFB7C
:1014A00030D847980146079058980CF0C7FB29D2CE
:1014B000469805904798049005990CF0FBFC07901E
:1014C0004798059058990CF0F5FC069007990CF098
:1014D00027FA419001205390A0E000000000A042B4
:1014E0008FC2F53C33333340000048C3000048430B
:1014F0000000DC420000204200001842BCE200086C
:101500000000F03F4798079058990CF097FB1BD8C4
:1015100048980146079058980CF090FB14D24798D1
:1015200005904898049005990CF0C4FC07904898E1
:10153000059058990CF0BEFC069007990CF0F0F954
:1015400041900220539069E04898079058990CF018
:1015500075FB1BD849980146079058980CF06EFB14
:1015600014D2489805904998049005990CF0A2FC73
:1015700007904998059058990CF09CFC06900799A3
:101580000CF0CEF941900320539047E04998079022
:1015900058990CF053FB1BD84A980146079058986D
:1015A0000CF04CFB14D2499805904A980490059988
:1015B0000CF080FC07904A98059058990CF07AFC42
:1015C000069007990CF0ACF941900420539025E067
:1015D0004A98079058990CF031FB1BD84B9801465C
:1015E000079058980CF02AFB14D24A9805904B9813
:1015F000049005990CF05EFC07904B980590589963
:101600000CF058FC069007990CF08AF941900520DF
:10161000539003E00020419005205390419803909F
:101620000CF0E4F80022FE4BCDE904010BF01CFFA6
:10163000CDE906010BF0DAFA42905498C0EBC000F5
:1016400008A901EB8001539811F8200055904198AA
:1016500006904398059006990CF024FB39A9079051
:10166000559851F820000146069007980CF0EAF8CA
:1016700039AA559942F821005498C0EBC00008A936
:1016800001EB80015398401C11F8200055904298BE
:1016900006904398059006990CF004FB39A9079031
:1016A000559851F820000146069007980CF0CAF8AA
:1016B00039AA559942F821005498401CC0EBC0004B
:1016C00008A901EB8001539811F82000559041982A
:1016D00006904498059006990CF0E4FA39A9079011
:1016E000559851F820000146069007980CF0AAF88A
:1016F00039AA559942F821005498401CC0EBC0000B
:1017000008A901EB80015398401C11F82000559066
:10171000429806904498059006990CF0C3FA39A9AE
:101720000790559851F820000146069007980CF054
:1017300089F839AA559942F82100409805903C98BB
:10174000049005990CF0AEFA07903F9803903B98EF
:10175000029003990CF0A6FA05903E9801903A98F1
:10176000009001990CF09EFA03903D9801903998F1
:10177000009001990CF096FA029003990CF062F82F
:10178000049005990CF05EF8069007990CF05AF851
:101790005690569859B000BD03B5D7B01C22A14948
:1017A0004CA809F096FA1C229E491C3145A809F064
:1017B00090FA00204390449041904290994B3833E6
:1017C0000FCBCDE93F23CDE93D01002039903A9080
:1017D0003B903C90C4229349483108A809F079FA1B
:1017E0004C980146079057980CF028FA05D24FF014
:1017F0007E50439000205490DBE04C9801460790C7
:1018000057980CF01BFB1CD84D9801460790579831
:101810000CF014FA15D24C9805904D980490059947
:101820000CF048FB07904D980146059057980CF036
:1018300036FB069007990CF073F843900020539004
:10184000B7E04D980146079057980CF0F7FA1CD86E
:101850004E980146079057980CF0F0F915D24D9824
:1018600005904E98049005990CF024FB07904E9833
:101870000146059057980CF012FB069007990CF062
:101880004FF843900120539093E04E980146079003
:1018900057980CF0D3FA1CD84F98014607905798E8
:1018A0000CF0CCF915D24E9805904F9804900599FC
:1018B0000CF000FB07904F980146059057980CF0EC
:1018C000EEFA069007990CF02BF843900220539003
:1018D0006FE04F980146079057980CF0AFFA1CD86C
:1018E00050980146079057980CF0A8F915D24F98D8
:1018F00005905098049005990CF0DCFA07905098E8
:101900000146059057980CF0CAFA069007990CF01A
:1019100007F84390032053904BE0509801460790FE
:1019200057980CF08BFA1CD851980146079057989D
:101930000CF084F915D250980590519804900599AF
:101940000CF0B8FA079051980146059057980CF0A2
:10195000A6FA069007990BF0E3FF439004205390FA
:1019600027E051980146079057980CF067FA1CD869
:1019700052980146079057980CF060F915D251988B
:1019800005905298049005990CF094FA079052989B
:101990000146059057980CF082FA069007990BF0D3
:1019A000BFFF43900520539003E0002043900520A3
:1019B0005390439803900BF019FF0022184BCDE988
:1019C00004010BF051FDCDE906010BF00FF9449035
:1019D00045980146079058980CF030F905D24FF021
:1019E0007E50419000205490D4E04598079058993B
:1019F0000CF024F920D846980146079058980CF02E
:101A00001DF919D2459805904698049005990CF057
:101A100051FA07904698059058990CF04BFA03E05C
:101A20000000F03FB0E10008069007990BF078FF46
:101A3000419000205490ADE04698079058990CF0E2
:101A4000FDF81BD847980146079058980CF0F6F817
:101A500014D2469805904798049005990CF02AFAFC
:101A600007904798059058990CF024FA069007992A
:101A70000BF056FF4190012054908BE0479807905F
:101A800058990CF0DBF81BD84898014607905898F5
:101A90000CF0D4F814D24798059048980490059912
:101AA0000CF008FA07904898059058990CF002FA43
:101AB000069007990BF034FF41900220549069E0A2
:101AC0004898079058990CF0B9F81BD849980146E6
:101AD000079058980CF0B2F814D24898059049989D
:101AE000049005990CF0E6F90790499805905899EB
:101AF0000CF0E0F9069007990BF012FF41900320DB
:101B0000549047E04998079058990CF097F81BD8E3
:101B10004A980146079058980CF090F814D24998CA
:101B200005904A98049005990CF0C4F907904A98DA
:101B3000059058990CF0BEF9069007990BF0F0FE4D
:101B400041900420549025E04A98079058990CF051
:101B500075F81BD84B980146079058980CF06EF812
:101B600014D24A9805904B98049005990CF0A2F96C
:101B700007904B98059058990CF09CF9069007999E
:101B80000BF0CEFE41900520549003E000204190E0
:101B900005205490419803900BF028FE0022FE4B44
:101BA000CDE904010BF060FCCDE906010BF01EF855
:101BB00042905498C0EBC00008A901EB80015398F3
:101BC00011F8200055904198069043980590069989
:101BD0000CF068F839A90790559851F82000014693
:101BE000069007980BF02EFE39AA559942F821006D
:101BF0005498C0EBC00008A901EB80015398401C29
:101C000011F8200055904298069043980590069947
:101C10000CF048F839A90790559851F82000014672
:101C2000069007980BF00EFE39AA559942F821004C
:101C30005498401CC0EBC00008A901EB80015398E8
:101C400011F8200055904198069044980590069907
:101C50000CF028F839A90790559851F82000014652
:101C6000069007980BF0EEFD39AA559942F821002D
:101C70005498401CC0EBC00008A901EB80015398A8
:101C8000401C11F820005590429806904498059009
:101C900006990CF007F839A90790559851F82000DB
:101CA0000146069007980BF0CDFD39AA559942F8E8
:101CB0002100409805903C98049005990BF0F2FFA4
:101CC00007903F9803903B98029003990BF0EAFF2E
:101CD00005903E9801903A98009001990BF0E2FF30
:101CE00003903D9801903998009001990BF0DAFF2C
:101CF000029003990BF0A6FD049005990BF0A2FD4C
:101D0000069007990BF09EFD5690569859B000BD6D
:101D100003B5D7B01C22A1494CA808F0DAFF1C2259
:101D20009E491C3145A808F0D4FF00204390449000
:101D3000419042909948383090E80E00C068CDE953
:101D40003E233D914090002039903A903B903C904A
:101D5000C4229249483108A808F0BBFF4C980146BC
:101D6000079057980BF06AFF05D24FF07E504390D2
:101D700000205390DBE04C980146079057980CF0F8
:101D80005DF81CD84D980146079057980BF056FF08
:101D900015D24C9805904D98049005990CF08AF84E
:101DA00007904D980146059057980CF078F80690EA
:101DB00007990BF0B5FD439000205390B7E04D9884
:101DC0000146079057980CF039F81CD84E980146F8
:101DD000079057980BF032FF15D24D9805904E980A
:101DE000049005990CF066F807904E98014605900E
:101DF00057980CF054F8069007990BF091FD43901A
:101E00000120539093E04E980146079057980CF0AC
:101E100015F81CD84F980146079057980BF00EFF05
:101E200015D24E9805904F98049005990CF042F801
:101E300007904F980146059057980CF030F806909F
:101E400007990BF06DFD4390022053906FE04F987F
:101E50000146079057980BF0F1FF1CD850980146A7
:101E6000079057980BF0EAFE15D24F9805905098BE
:101E7000049005990CF01EF80790509801460590C3
:101E800057980CF00CF8069007990BF049FD439019
:101E9000032053904BE050980146079057980BF061
:101EA000CDFF1CD851980146079057980BF0C6FEFD
:101EB00015D2509805905198049005990BF0FAFFAF
:101EC000079051980146059057980BF0E8FF06904F
:101ED00007990BF025FD43900420539027E051987B
:101EE0000146079057980BF0A9FF1CD8529801465D
:101EF000079057980BF0A2FE15D251980590529872
:101F0000049005990BF0D6FF079052980146059072
:101F100057980BF0C4FF069007990BF001FD439012
:101F20000520539003E000204390052053904398F0
:101F300003900BF05BFC0022174BCDE904010BF082
:101F400093FACDE906010AF051FE44904598014606
:101F5000079058980BF072FE05D24FF07E504190DA
:101F600000205490D4E04598079058990BF066FEF5
:101F700020D846980146079058980BF05FFE19D27A
:101F8000459805904698049005990BF093FF0790AB
:101F900046980590589903E00000F03FA4E000083F
:101FA0000BF088FF069007990BF0BAFC41900020D7
:101FB0005490ADE04698079058990BF03FFE1BD81F
:101FC00047980146079058980BF038FE14D246986F
:101FD00005904798049005990BF06CFF079047987F
:101FE000059058990BF066FF069007990BF098FC46
:101FF0004190012054908BE04798079058990BF03E
:102000001DFE1BD848980146079058980BF016FE05
:1020100014D2479805904898049005990BF04AFF10
:1020200007904898059058990BF044FF069007993F
:102030000BF076FC41900220549069E0489807909C
:1020400058990BF0FBFD1BD849980146079058980A
:102050000BF0F4FD14D24898059049980490059926
:102060000BF028FF07904998059058990BF022FF34
:10207000069007990BF054FC41900320549047E0E0
:102080004998079058990BF0D9FD1BD84A980146FA
:10209000079058980BF0D2FD14D2499805904A98B1
:1020A000049005990BF006FF07904A9805905899FF
:1020B0000BF000FF069007990BF032FC41900420D2
:1020C000549025E04A98079058990BF0B7FD1BD81B
:1020D0004B980146079058980BF0B0FD14D24A98DF
:1020E00005904B98049005990BF0E4FE07904B98EF
:1020F000059058990BF0DEFE069007990BF010FC46
:1021000041900520549003E0002041900520549018
:10211000419803900BF06AFB0022F84BCDE90401D3
:102120000BF0A2F9CDE906010AF060FD4290549847
:10213000C0EBC00008A901EB8001539811F8200002
:102140005590419806904398059006990BF0AAFD8A
:1021500039A90790559851F8200001460690079834
:102160000BF070FB39AA559942F821005498C0EB46
:10217000C00008A901EB80015398401C11F8200011
:102180005590429806904398059006990BF08AFD69
:1021900039A90790559851F82000014606900798F4
:1021A0000BF050FB39AA559942F821005498401C75
:1021B000C0EBC00008A901EB8001539811F8200082
:1021C0005590419806904498059006990BF06AFD49
:1021D00039A90790559851F82000014606900798B4
:1021E0000BF030FB39AA559942F821005498401C55
:1021F000C0EBC00008A901EB80015398401C11F806
:1022000020005590429806904498059006990BF04E
:1022100049FD39A90790559851F8200001460690CC
:1022200007980BF00FFB39AA559942F82100409806
:1022300005903C98049005990BF034FD07903F9869
:1022400003903B98029003990BF02CFD05903E986B
:1022500001903A98009001990BF024FD03903D986D
:1022600001903998009001990BF01CFD02900399A0
:102270000BF0E8FA049005990BF0E4FA0690079940
:102280000BF0E0FA5690569859B000BD2DE9F74F83
:102290008CB00446934660680D990BF00BFE064621
:1022A000002130460BF0CAFD7ED294F82C000028A5
:1022B0007AD1E0690BF09AFA0746914A914B0AF0FD
:1022C00063FF33D8DFF840923046E1690BF0F2FD4E
:1022D00007900BF08BFA8D4A8D4BCDE908010AF07F
:1022E00073FD07460AF082FC82465146A0680BF057
:1022F000E1FD0546E6612946A06A0BF0A3FAA0625B
:102300002846216A0BF0D6FD0A90256228460A99D4
:10231000FFF7FEFC206128460A99FFF73DFA60614D
:1023200028460A99FEF76AFFA061E2E03046E169BB
:102330000BF0C0FD09900BF059FA21F0004107465F
:10234000724A734B0BF05AF870D23046E1690BF0C9
:10235000B1FD07900BF04AFA07466C4A6C4B0AF045
:1023600033FDCDE908010AF041FC82465146A068E0
:102370000BF0A0FD0546E6612946A06A0BF062FA63
:10238000A0622846216A0BF095FD0A902562A0699B
:102390000A990BF087FC0990A16A60690BF082FC36
:1023A00080462946206900E045E00BF07BFC414671
:1023B00008900BF047FA074609990BF043FA81465B
:1023C00048460BF013FA0022524BCDE908010AF0FF
:1023D00017FF07460AF00AFC8146002148460BF029
:1023E0002DFD01D2484600E00020074621680BF091
:1023F00025FC08D2002148460BF020FD01D24846BA
:1024000002E0002000E02068814628460A99FFF794
:102410007FFC206128460A99FFF7BEF960612846D3
:102420000A99FEF7EBFEA06163E0FFE758460BF068
:10243000A9FB81465DE094F82C0028B9012084F8BE
:102440002C000020A062E061334930460BF032FDE1
:1024500006463146A06A0BF0F5F9A0623046E16904
:102460000BF028FD0A90E6610A980BF0BFF90746C9
:1024700000222A4B0AF0C4FECDE90601A06A0BF047
:10248000B5F90746264A274B0AF0BAFECDE9020104
:1024900030460BF0ABF907461C4A234B0AF0B0FE5E
:1024A000CDE90001DDE902230AF0D2FBCDE9040108
:1024B000DDE906230AF0CCFBCDE908010AF096FB22
:1024C0008146002148460BF0B9FC01D2484600E0A5
:1024D0000020074621680BF0B1FB08D200214846D6
:1024E0000BF0ACFC01D2484602E0002000E020687E
:1024F000814648460FB0BDE8F08F00000000F03F75
:10250000FCA9F1D24D62503F00007A439A99999903
:102510009999B93F0000F43F000040400000D03FCF
:10252000B81E85EB51B88E3F99994140034619601A
:10253000186808B90120704700209880D8801A8157
:1025400000BFF8E7002104E0002203685A544A1C47
:1025500091B202898A42F7DC00228280C2807047F1
:102560000146C888401C0A8990FBF2F302FB130065
:102570008A88904201D1002070470120FCE7014683
:102580008888CA88904201D1002070470120FCE76A
:1025900030B504460D462046FFF7E2FF10B920464D
:1025A000FFF7D0FFE18820684554E088401C21896E
:1025B00090FBF1F201FB1200E08030BD10B5034644
:1025C0000C461846FFF7DBFF08B9012010BD9988BB
:1025D0001868405C20709888401C198990FBF1F2C3
:1025E00001FB120098800020F0E700007FB505464F
:1025F0000C460121022006F0D2FC0295ADF8044001
:102600000020ADF80600ADF80C0001A9234807F042
:102610007AF901221146214807F016FE01211F48D0
:1026200007F0FAF91D208DF8000001208DF8010057
:1026300003208DF8020001208DF80300684605F0A4
:10264000F2FD7FBD7FB505460C460121042006F052
:10265000A6FC0295ADF804400020ADF80600ADF8E8
:102660000C0001A90E4807F04EF9012211460C4852
:1026700007F0EAFD01210A4807F0CEF91E208DF887
:10268000000001208DF8010002208DF802000120D9
:102690008DF80300684605F0C6FD7FBD00040040CC
:1026A000000800402DE9F14FA4B02822E54919A8FF
:1026B00008F00FFB2C22E34928310EA808F009FB93
:1026C00000200D90E0480C90E0480B90E0480A9004
:1026D0004FF0000A002124980BF0E4F902D1002009
:1026E0000D909FE0002124980BF0A8FB66D24FF0DC
:1026F000000A2DE050460AF033FD06460F462498A6
:102700000BF074F832463B46CDE9020109F046FD74
:10271000CDE9060119A951F82A000BF067F8CDE9B7
:102720000401DDE906230AF06BFD04460D460D9811
:102730000BF05CF822462B46CDE908010AF088FA36
:1027400080460AF053FA0D900AF1010000F0FF0AEA
:10275000BAF10A0FCED30A9924980BF0ABFB029082
:102760000A9924980BF0A6FB01900B990BF09AFAAA
:10277000834602990BF096FA03900BF037F8CDE9F7
:10278000040109F0C9FB804689460C980BF02EF82D
:1027900042464B46CDE906010AF032FD06460F4699
:1027A0000D980BF023F832463B46CDE908010AF0BC
:1027B0004FFA04460AF01AFA0D9033E04FF0000A7F
:1027C0002DE050460AF0CCFC8046894624980BF058
:1027D0000DF8064642464B4609F0E0FC04460D461D
:1027E0000EA951F82A000BF001F822462B46CDE93C
:1027F00002010AF005FDCDE906010D980AF0F6FF89
:10280000CDE90401DDE906230AF022FACDE9080149
:102810000AF0ECF90D900AF1010000F0FF0ABAF19C
:102820000B0FCED30D9825B0BDE8F08F2DE9F04FFA
:10283000A3B0834628228349543119A808F049FAE5
:102840001C2280497C3112A808F043FA24227D49D9
:10285000983109A808F03DFA0020089082465846B1
:102860000AF0C4FF0446002213460AF0C7FD3CD814
:1028700058460AF0BBFF0446764A774B0AF084FCC0
:1028800033D200BF2DE050460AF06AFC80468946EC
:1028900058460AF0ABFF42464B46CDE9000109F02D
:1028A0007DFC04460D4619A951F82A000AF09EFF46
:1028B000064622462B460AF0A3FCCDE904010898FF
:1028C0000AF094FFCDE90201DDE904230AF0C0F922
:1028D000CDE906010AF08AF908900AF1010000F03A
:1028E000FF0ABAF10A0FCED37EE058460AF07EFF07
:1028F0000446584A584B0AF081FD3DD858460AF024
:1029000075FF0446554A564B0AF03EFC34D24FF050
:10291000000A2DE050460AF023FC04460D465846B6
:102920000AF064FF064622462B4609F037FCCDE943
:10293000020112A951F82A000AF058FFCDE900015E
:10294000DDE902230AF05CFC8046894608980AF01B
:102950004DFF42464B46CDE904010AF079F9CDE935
:1029600006010AF043F908900AF1010000F0FF0A9D
:10297000BAF1070FCED337E0002158460BF05EF9CD
:1029800032D24FF0000A2CE050460AF0E9FBCDE9C4
:10299000020158460AF02AFFCDE90001DDE90223D1
:1029A00009F0FCFBCDE9040109A951F82A000AF05D
:1029B0001DFF0646DDE904230AF022FC04460D460D
:1029C00008980AF013FF804622462B460AF040F989
:1029D000CDE906010AF00AF908900AF1010000F0B9
:1029E000FF0ABAF1090FCFD3089823B0BDE8F08FE2
:1029F0002DE9F04704460D4600261A4928460AF0FC
:102A00008FFF0746B04664B91748FFF74BFE804674
:102A1000394640460AF016FF8146FFF707FF064693
:102A20000CE01148FFF73EFE8046394640460AF06A
:102A300009FF8146FFF7FAFE064600BF00BF304699
:102A4000BDE8F087C8E300084CE3F23D062FF8B874
:102A5000ECEFFD42BE9F1A2FDDA43440C520B072BA
:102A600068714B4000007A440000C84100B587B04F
:102A70000121084606F04AFA0121480706F08FFABC
:102A80001020059003208DF8180002208DF81B00FF
:102A900005A9204805F0B8FC0020019002900390A1
:102AA0000220049001A9002007F01DFF0121002051
:102AB00007F036FF0021084607F080FF07B000BD91
:102AC0002DE9F041064630460AF04AFB04460D4621
:102AD0000022114B204629460AF076F904460D469D
:102AE00000220E4B204629460AF08AFB07464FF08B
:102AF00066320B4B0AF068F904460D46204629461B
:102B00000AF0EAFA87B23946002007F057FFBDE81D
:102B1000F08100000000024000408F400000B04003
:102B200066660A401CB50121112006F0EFF91C2051
:102B3000009000208DF8040003208DF8050001208E
:102B40008DF8070069462C4805F05EFC01200090D6
:102B500002208DF807006946284805F055FC1CBD89
:102B600010B5044614B101202549087024480078A6
:102B700058B32448006858B12248001F006838B193
:102B800020480838006818B11F48006801281CD187
:102B90000A2005F003FB0020194908701948006855
:102BA00008B9012010BD1748001F006808B90220AD
:102BB000F8E714480838006808B90320F2E712481B
:102BC0000068012815D10420ECE70E4800680128B0
:102BD0000FD10C48001F006801280AD109480838A5
:102BE0000068012805D10848006810B9012004498F
:102BF00008700020D6E700000010024000000240EC
:102C00001C000020100242420002404201B5BDF803
:102C100000000090BDF80000F849088008BD01B52B
:102C2000BDF800000090BDF80000F449891C088040
:102C300008BD08B5F148801C00880090BDF8000070
:102C400008BDEE4A10804FF0D842A2F880107047BD
:102C500010B504462046FFF7D9FF052005F056FAC7
:102C6000FFF7E7FF10BDE6480089E4490880704798
:102C7000E249891C0880704730B5014601F01F0405
:102C8000C1F34513CA0AE50205EB43151544A8B282
:102C900030BD00BF011EA0F10102D0B2FAD17047D1
:102CA00030B504460D46D648808849F24131884205
:102CB00005D0D348808845F21031884214D1D049DC
:102CC0004889FFF7A3FF2012FFF7A9FFE0B2FFF743
:102CD000A6FFCB498889FFF799FF2812FFF79FFFCE
:102CE000E8B2FFF79CFFABE0C548808846F60401D8
:102CF00088421DD1C2488079012804D1C04800888B
:102D0000401E001B84B2BE494889FFF77FFF201296
:102D1000FFF785FFE0B2FFF782FFB9498889FFF727
:102D200075FF2812FFF77BFFE8B2FFF778FF87E017
:102D3000B348808841F66311884247D1B048807912
:102D4000A8B9AF480088401E001B84B2AC4948892E
:102D5000FFF75CFF0020FFF762FF0020FFF75FFF37
:102D60002012FFF75CFFE0B2FFF759FF16E0A4491D
:102D70004889FFF74BFF2012FFF751FFE0B2FFF742
:102D80004EFF9F490988491EC1F30F20FFF747FFF7
:102D90009B490978491EC8B2FFF741FF98498889C5
:102DA000FFF734FF2812FFF73AFFE8B2FFF737FFCB
:102DB00093494988491EC1F30F20FFF730FF90491E
:102DC0008978491EC8B2FFF72AFF39E08C4880880D
:102DD00045F21051884220D189494889FFF716FFF2
:102DE0002012FFF71CFF86494989491C88B2FFF76A
:102DF0000DFFE0B2FFF713FF81498889FFF706FF57
:102E00002812FFF70CFF7E498989491C88B2FFF719
:102E1000FDFEE8B2FFF703FF12E079488079012850
:102E200004D177480088401E001B84B27449488949
:102E30002146FFF706FF724988892946FFF701FFFF
:102E400030BD2DE9F04105460E4600240027A0467E
:102E50006B480088A84203DD69484088B04202DC24
:102E60000020BDE8F08131462846FFF719FF64488D
:102E7000808849F24131884211D06148808846F605
:102E8000040188420BD05E48808845F210318842A8
:102E900005D05B48808841F66311884203D12E201B
:102EA000FFF7B4FE0DE05648808845F21051884285
:102EB00004D14FF43850FFF7A9FE02E02220FFF7BB
:102EC000A5FE4F48808849F22031884202D1022075
:102ED000FFF7DFFEFFF7ADFE04464948808841F664
:102EE0006311884201D12046BBE70220FFF7D1FEE3
:102EF000FFF79FFE04464248808849F241318842EC
:102F00000BD03F48808845F21031884205D03C48BC
:102F1000808845F2105188420AD10220FFF7B9FE9D
:102F2000FFF787FE8046E7B24FF6FF7000EA0727FB
:102F30003348808849F22531884216D0304880884D
:102F400044F23551884210D02D488088091F8842AC
:102F50000BD02B4880884BF20551884205D0284879
:102F600080884CF20551884201D1204679E72448F7
:102F7000808849F2413188420BD02148808845F24F
:102F80001031884205D01E48808845F21051884291
:102F900007D1E012C002B91240EA411040EAE8202D
:102FA0005FE72046FFF768FE5BE700B514488088BE
:102FB00049F24131884211D01148808846F6040117
:102FC00088420BD00E48808845F21031884205D0E7
:102FD0000B48808841F66311884203D12920FFF70E
:102FE00015FE14E00648808845F21051884209D148
:102FF0004FF42450FFF70AFE09E000007E00006C49
:10300000A005002040F273110720FFF71AFE00BD53
:1030100000B5FD48808849F24131884211D0FA4814
:10302000808846F6040188420BD0F748808845F234
:103030001031884205D0F448808841F663118842F7
:1030400003D12820FFF7E2FD0EE0EF48808845F22B
:103050001051884204D14FF42050FFF7D7FD03E010
:1030600000210720FFF7EDFD00BDF0B50546002467
:103070000027E548807901280BD1E348808846F68F
:103080000401884205D0E048808841F663118842F7
:1030900008D1DD488079F0B9DB48808841F66311BA
:1030A000884218D1082D15D2DFE805F00406080A79
:1030B0000C0E101206250DE007250BE0042509E093
:1030C000052507E0012505E0002503E0032501E0D3
:1030D000022500BF00BFCC48808849F241318842B8
:1030E00017D0C948808846F60401884211D0C648E6
:1030F000808845F2103188420BD0C348808845F261
:103100001051884205D0C048808841F6631188423A
:103110007ED1082D1CD2DFE805F00406090C0F1241
:10312000151800BF14E044F0800411E044F040049E
:103130000EE044F0C0040BE044F0200408E044F04A
:10314000600405E044F0A00402E044F0E00400BFA5
:1031500000BFAD48808845F21051884202D14FF43B
:10316000585700E03627A848808845F21031884239
:103170000DD0A548808845F21051884207D0A2485A
:10318000808841F66311884201D044F008049E48CB
:10319000808846F60401884201D144F002042146A9
:1031A0003846FFF74EFD9848808841F66311884203
:1031B0001DD004F0200068B19348008892494988E6
:1031C000884214DA9048068840888F49088008466B
:1031D00046800CE08C4800888B494988884206DD8F
:1031E000894806884088884908800846468086487D
:1031F000808845F21051884254D183494889FFF7AD
:1032000005FD0020FFF70BFD7F494989491C00E0BF
:1032100077E088B2FFF7FAFC0020FFF700FD7A495B
:103220004989891C88B2FFF7F1FC77490988491E52
:10323000C1F30F20FFF7F3FC73494989C91C88B219
:10324000FFF7E4FC70490978491EC8B2FFF7E7FCB4
:103250006D498889FFF7DAFC0020FFF7E0FC6A4936
:103260008989491C88B2FFF7D1FC0020FFF7D7FC01
:1032700065498989891C88B2FFF7C8FC6249498879
:10328000491EC1F30F20FFF7CAFC5F498989C91C99
:1032900088B2FFF7BBFC5C498978491EC8B2FFF7CA
:1032A000BEFC55E058494889FFF7B0FC0020FFF705
:1032B000B6FC0020FFF7B3FC53490988491EC1F34F
:1032C0000F20FFF7ACFC50490978491EC8B2FFF740
:1032D000A6FC4D498889FFF799FC0020FFF79FFC69
:1032E0000020FFF79CFC48494988491EC1F30F2084
:1032F000FFF795FC44498978491EC8B2FFF78FFC57
:1033000026E0082D1CD2DFE805F004070A0D0F1295
:10331000151844F0300413E044F0100410E044F0B9
:1033200020040DE000BF0BE044F0380408E044F056
:10333000280405E044F0180402E044F0080400BF4B
:1033400000BF032744F4805421463846FFF779FC38
:10335000F0BD30B504460D4629462046FFF7A0FCD7
:10336000FFF781FC294800882949088030BD70B5E5
:1033700004460D4616462448808849F24131884269
:1033800005D02148808845F21031884214D11E4969
:103390004889FFF73BFC2012FFF741FCE0B2FFF742
:1033A0003EFC19498889FFF731FC2812FFF737FCEA
:1033B000E8B2FFF734FC93E01348808845F21051DF
:1033C000884227D110494889FFF720FC2012FFF7D7
:1033D00026FC0D494989491C88B2FFF717FCE0B269
:1033E000FFF71DFC08498889FFF710FC2812FFF73A
:1033F00016FC05498989491C88B2FFF707FCE8B229
:10340000FFF70DFC6CE00000A00500201E0000206E
:103410008000006CFD48808841F66311884228D105
:10342000FA48807920B9F9480088401E001B84B210
:10343000F6494889FFF7EAFB2012FFF7F0FBE0B2FC
:10344000FFF7EDFB2012FFF7EAFBE0B2FFF7E7FB27
:10345000EE498889FFF7DAFB2812FFF7E0FBE8B2B4
:10346000FFF7DDFB2812FFF7DAFBE8B2FFF7D7FB27
:1034700036E0E648808846F6040188421DD1E348DC
:103480008079012804D1E1480088401E001B84B2E5
:10349000DE494889FFF7BAFB2012FFF7C0FBE0B214
:1034A000FFF7BDFBD9498889FFF7B0FB2812FFF76A
:1034B000B6FBE8B2FFF7B3FB12E0D44880790128ED
:1034C00004D1D2480088401E001B84B2CF494889ED
:1034D0002146FFF7B6FBCD4988892946FFF7B1FBA6
:1034E000CA480089CA4908804FF0D840A0F88060D7
:1034F00070BD2DE9F0470446BE20FFF787FB05208D
:10350000FFF78DFB204609F02BFE07464FF0663291
:10351000C04B09F075FE054609F0DEFD1FFA80F983
:103520004846FFF77CFB0120FFF779FBFF20FFF700
:1035300076FB0020FFF773FB0020FFF770FBBDE870
:10354000F08710B50446002C66D1B0498871F02090
:1035500008804FF4A07048800846808849F24131C5
:1035600088420BD0A948808846F60401884205D0DD
:10357000A648808845F2103188421AD12C20A349F0
:1035800008812A2048812B2088810846808846F6B9
:103590000401884205D09D48808845F21031884258
:1035A00006D14FF4A070994908804FF4F07048801C
:1035B000A1E09648808845F21051884210D14FF41E
:1035C0003050924908814FF4285048814FF42C50D4
:1035D00088814FF4F07008804FF4487048808AE08A
:1035E0008A48808841F6631188420DD12C20874992
:1035F00008812B2048812A2088814FF4F0700880B0
:103600004FF44870488076E02220804908812020CD
:103610004881212088816EE001207C4988714FF427
:10362000A0700880F02048800846808849F2413127
:10363000884205D07548808845F21031884207D10C
:103640002C20724908812A2048812B2088813FE064
:103650006E48808846F60401884207D12C206B49C9
:1036600008812B2048812A20888131E067488088A2
:1036700045F21051884210D14FF43050634908810F
:103680004FF4285048814FF42C5088814FF44870F3
:1036900008804FF4F07048801AE05C48808841F65A
:1036A000631188420DD12C20584908812A20488175
:1036B0002B2088814FF4487008804FF4F0704880C8
:1036C00006E022205149088121204881202088815C
:1036D0004E48808846F60401884205D04B488088D1
:1036E00045F21031884206D14FF4F0704749088006
:1036F0004FF4A07048800020FFF7B7FC10BD2DE903
:10370000F04F86B004460D469046994604EB0800FB
:10371000401E86B205EB0900401E87B23B488088F8
:1037200049F24131884215D03848808845F210313D
:1037300088420FD03548808846F60401884209D077
:1037400032488079012826D13048808841F66311BB
:10375000884220D12D494889FFF758FA2012FFF7F7
:103760005EFAE0B2FFF75BFA3012FFF758FAF0B2F8
:10377000FFF755FA25498889FFF748FA2812FFF71D
:103780004EFAE8B2FFF74BFA3812FFF748FAF8B2F0
:10379000FFF745FABEE01D48808841F66311884274
:1037A0003AD11A480088A0EB0800001B84B205EB50
:1037B0000900401E1FFA80F914494889FFF726FACC
:1037C0002012FFF72CFAE0B2FFF729FA04EB080108
:1037D000491EC1F30F20FFF722FA04EB0801491E2E
:1037E000C8B2FFF71CFA09498889FFF70FFA2812B7
:1037F000FFF715FAE8B2FFF712FA4FEA2920FFF7B0
:103800000EFA09F0FF00FFF70AFA83E0A005002096
:103810007E00006C66660440FE48808845F21051C8
:10382000884244D1FB494889FFF7F0F92012FFF79D
:10383000F6F9F8494989491C88B2FFF7E7F9E0B27F
:10384000FFF7EDF9F3494989891C88B2FFF7DEF9E2
:103850003012FFF7E4F9EF494989C91C88B2FFF734
:10386000D5F9F0B2FFF7DBF9EA498889FFF7CEF91D
:103870002812FFF7D4F9E7498989491C88B2FFF774
:10388000C5F9E8B2FFF7CBF9E2498989891C88B20A
:10389000FFF7BCF93812FFF7C2F9DE498989C91C64
:1038A00088B2FFF7B3F9F8B2FFF7B9F932E0D948B7
:1038B000807901280ED1AA46BB46D6480088801BD5
:1038C000401E80B20190D3480088001B401E80B289
:1038D000009003E0A246B346019500975020059062
:1038E0005120049052200390532002905146059895
:1038F000FFF7A7F959460498FFF7A3F90199039830
:10390000FFF79FF900990298FFF79BF92946204697
:10391000FFF7C6F906B0BDE8F08F70B50446002683
:10392000BC48058840884543BA48808846F604016B
:10393000884216D1B7488079012812D10020B549B4
:1039400088712A2048812B20888100210846FFF7B2
:10395000A7F90120AF4988712B2048812A2088814E
:1039600003E000210846FFF79BF9FFF77CF90026EA
:1039700002E0A9480480761CAE42FAD370BD00B5BF
:10398000A1B00020209001217A2005F0BFFA01218A
:10399000084605F0F3FA4FF400401E9001208DF820
:1039A0007C0000208DF87E0002208DF87D00012033
:1039B0008DF87F001EA9994804F026FD4CF2337063
:1039C0001E9002208DF87C0000208DF87E000320E0
:1039D0008DF87D0001208DF87F001EA9904804F02D
:1039E00013FD4FF680701E9002208DF87C000020A1
:1039F0008DF87E0003208DF87D0001208DF87F007A
:103A00001EA9884804F000FD4FF480501E9002204B
:103A10008DF87C0000208DF87E0003208DF87D005D
:103A200001208DF87F001EA97F4804F0EDFC4FF4C3
:103A300080501E9002208DF87C0000208DF87E00C2
:103A400003208DF87D0001208DF87F001EA97748A6
:103A500004F0DAFC0C220021714804F060FD0C2215
:103A600001216F4804F05BFD0C2204216C4804F036
:103A700056FD0C2205216A4804F051FD0C22082154
:103A8000674804F04CFD0C220921654804F047FD0D
:103A90000C220A21624804F042FD0C220E216048EB
:103AA00004F03DFD0C220F215D4804F038FD0C228E
:103AB00007215C4804F033FD0C220821594804F02A
:103AC0002EFD0C220921574804F029FD0C220A2161
:103AD000544804F024FD0C220B21524804F01FFD31
:103AE0000C2211464F4804F01AFD0C220D214D48BE
:103AF00004F015FD0C220E214A4804F010FD0C22A2
:103B00000F21484804F00BFD0C221146464804F0F2
:103B100006FD0C221146454804F001FD0F200890D7
:103B2000002009903C200A9000200B900C900D90F2
:103B30000E900920019000200290082003900020A0
:103B4000049005900690079006200F90002010909A
:103B50001190102012900020139015901490169040
:103B600017904FF480501890002019904FF4804027
:103B70001A9000201B9008A81C9001A81D900FA867
:103B800004F021FD0121062004F0A8FD322004F0FC
:103B900005FB01210020FFF754F8322004F0FEFA63
:103BA0000020FFF755F81B49888008468088FF28C9
:103BB0000ADB084680884FF6FF71884204D015481A
:103BC0008088B0F5134F7DD1D320FFF71FF8FFF7A2
:103BD00030F810498880FFF72CF80E498880FFF7ED
:103BE00028F80C498880084680884FF6FF7101EA62
:103BF000002008498880FFF71CF806498988084397
:103C0000044988800846808849F24131884259D069
:103C1000BF200DE0A00500208000006C00040240E1
:103C2000000C024000100240001402400018024044
:103C3000FEF7ECFFFEF7FDFFFE498880FEF7F9FF77
:103C4000FC498880FEF7F5FFFA498880FEF7F1FF0E
:103C5000F8498880084680884FF6FF7101EA002005
:103C6000F4498880FEF7E5FFF24989880843F14965
:103C700088800846808846F6040188427AD0D4209D
:103C8000FEF7C4FFFEF7D5FFEA498880FEF7D1FFB3
:103C9000E8498880FEF7CDFFE6498880084680889D
:103CA0004FF6FF7101EA0020E2498880FEF7C1FF6C
:103CB000E04989880843DF4988800846808845F2C2
:103CC000103100E056E0884254D04FF45A40FEF7DD
:103CD0009DFFFEF7AEFFD74988804FF45B40FEF7AB
:103CE00095FFFEF7A6FFD3498880084680884FF6E7
:103CF000FF7101EA0020CF4988804FF45C40FEF755
:103D000085FFFEF796FFCB4989880843C94988801B
:103D100008468088B0F5004F02D145F210508880E7
:103D2000C448808845F21051884223D0A120FEF774
:103D30006DFFFEF77EFFBF498880FEF77AFFBD4921
:103D40008880084680884FF6FF7101EA0020B94953
:103D50008880FEF76EFFB74989880843B549888097
:103D60000846808845F26171884203D141F66310AC
:103D7000B0498880AF48808849F24131884211D0EB
:103D8000AC48808845F2103188420BD0A948808821
:103D900045F21051884205D0A648808841F663114B
:103DA00088421DD1A448006820F00F004FF0204148
:103DB000C1F81C010846D0F81C0120F47060C1F85D
:103DC0001C010846D0F81C0140F00300C1F81C019A
:103DD0000846D0F81C0140F40070C1F81C0128E02E
:103DE0009448808846F60401884205D0914880882E
:103DF0004CF2055188421CD18F48006820F00F001A
:103E00004FF02041C1F81C010846D0F81C0120F4F5
:103E10007060C1F81C010846D0F81C0140F00A008F
:103E2000C1F81C010846D0F81C0140F44060C1F8FC
:103E30001C018048818881A006F078FE7D4880883A
:103E400049F2413188427CD1CF20FEF7DFFE0020CD
:103E5000FEF7E5FEC120FEF7E2FE3020FEF7DFFEB2
:103E6000ED20FEF7D3FE6420FEF7D9FE0320FEF717
:103E7000D6FE1220FEF7D3FE8120FEF7D0FEE8200A
:103E8000FEF7C4FE8520FEF7CAFE1020FEF7C7FE2F
:103E90007A20FEF7C4FECB20FEF7B8FE3920FEF7ED
:103EA000BEFE2C20FEF7BBFE0020FEF7B8FE34203D
:103EB000FEF7B5FE0220FEF7B2FEF720FEF7A6FEE3
:103EC0002020FEF7ACFEEA20FEF7A0FE0020FEF761
:103ED000A6FE0020FEF7A3FEC020FEF797FE1B20E3
:103EE000FEF79DFEC120FEF791FE0120FEF797FE32
:103EF000C520FEF78BFE3020FEF791FE3020FEF746
:103F00008EFEC720FEF782FEB720FEF788FE362021
:103F1000FEF77CFE4820FEF782FE3A20FEF776FE92
:103F20005520FEF77CFEB120FEF770FE0020FEF764
:103F300076FE1A20FEF773FEB620FEF767FE0A2013
:103F400000E0A6E0FEF76BFEA220FEF768FEF2207E
:103F5000FEF75CFE0020FEF762FE2620FEF756FE0E
:103F60000120FEF75CFEE020FEF750FE0F20FEF77A
:103F700056FE2A20FEF753FE2820FEF750FE0820AA
:103F8000FEF74DFE0E20FEF74AFE0820FEF747FE24
:103F90005420FEF744FEA920FEF741FE4320FEF721
:103FA0003EFE0A20FEF73BFE0F20FEF738FE002003
:103FB000FEF735FE0020FEF732FE0020FEF72FFE52
:103FC0000020FEF72CFEE120FEF720FE0020FEF789
:103FD00026FE1520FEF723FE1720FEF720FE072001
:103FE000FEF71DFE1120FEF71AFE0620FEF717FE53
:103FF0002B20FEF714FE5620FEF711FE3C20FEF7A4
:104000000EFE0520FEF70BFE1020FEF708FE0F2027
:10401000FEF705FE3F20FEF702FE3F20FEF7FFFD04
:104020000F20FEF7FCFD2B20FEF7F0FD0020FEF731
:10403000F6FD0BE0A00500201C0100A0204C43442D
:104040002049443A25780D0A000000000020FEF7C0
:10405000E6FD0120FEF7E3FD3F20FEF7E0FD2A200C
:10406000FEF7D4FD0020FEF7DAFD0020FEF7D7FDB5
:104070000020FEF7D4FDEF20FEF7D1FD1120FEF762
:10408000C5FD782004F08AF82920FEF7BFFD03F073
:104090001DB9FE48808846F6040188427ED1112071
:1040A000FEF7B4FD142004F079F8D020FEF7AEFD41
:1040B0000720FEF7B4FD4220FEF7B1FD1D20FEF7FC
:1040C000AEFDD120FEF7A2FD0020FEF7A8FD1A20CC
:1040D000FEF7A5FD0920FEF7A2FDD220FEF796FD12
:1040E0000120FEF79CFD2220FEF799FDC020FEF77F
:1040F0008DFD1020FEF793FD3B20FEF790FD002084
:10410000FEF78DFD0220FEF78AFD1120FEF787FDE8
:10411000C520FEF77BFD0320FEF781FDC820FEF7DA
:1041200075FD0020FEF77BFD2520FEF778FD2120A0
:10413000FEF775FD0520FEF772FD0020FEF76FFD0E
:104140000A20FEF76CFD6520FEF769FD2520FEF7CD
:1041500066FD7720FEF763FD5020FEF760FD0F201F
:10416000FEF75DFD0020FEF75AFDF820FEF74EFD3C
:104170000120FEF754FDFE20FEF748FD0020FEF76B
:104180004EFD0220FEF74BFD2020FEF73FFD3620BE
:10419000FEF73CFD0820FEF742FD00E02AE03A2051
:1041A000FEF734FD5520FEF73AFD2B20FEF72EFDDD
:1041B0000020FEF734FD0020FEF731FD0120FEF760
:1041C0002EFD3F20FEF72BFD2A20FEF71FFD0020CD
:1041D000FEF725FD0020FEF722FD0120FEF71FFD62
:1041E000DF20FEF71CFD782003F0D8FF2920FEF722
:1041F0000DFD4CE7A548808845F21031884240F01B
:104200007C87ED20FEF702FD0120FEF708FDFE2071
:10421000FEF705FDEE20FEF7F9FCDE20FEF7FFFCC1
:104220002120FEF7FCFCF120FEF7F0FC0120FEF758
:10423000F6FCDF20FEF7EAFC1020FEF7F0FCC420BD
:10424000FEF7E4FC8F20FEF7EAFCC620FEF7DEFC5A
:104250000020FEF7E4FCE220FEF7E1FCE220FEF79E
:10426000DEFCE220FEF7DBFCBF20FEF7CFFCAA203D
:10427000FEF7D5FCB020FEF7C9FC0D20FEF7CFFC01
:104280000020FEF7CCFC0D20FEF7C9FC0020FEF755
:10429000C6FC1120FEF7C3FC0020FEF7C0FC19206D
:1042A000FEF7BDFC0020FEF7BAFC2120FEF7B7FCAC
:1042B0000020FEF7B4FC2D20FEF7B1FC0020FEF735
:1042C000AEFC3D20FEF7ABFC0020FEF7A8FC5D2015
:1042D000FEF7A5FC0020FEF7A2FC5D20FEF79FFC88
:1042E0000020FEF79CFCB120FEF790FC8020FEF73A
:1042F00096FC0020FEF793FC8B20FEF790FC00203C
:10430000FEF78DFC9620FEF78AFC0020FEF787FC66
:10431000B220FEF77BFC0020FEF781FC0020FEF7B8
:104320007EFC0220FEF77BFC0020FEF778FC0320D9
:10433000FEF775FC0020FEF772FCB320FEF766FC6A
:104340000020FEF76CFC0020FEF769FC0020FEF761
:1043500066FC0020FEF763FC0020FEF760FC0020F6
:10436000FEF75DFC0020FEF75AFC0020FEF757FC2C
:104370000020FEF754FC0020FEF751FC0020FEF761
:104380004EFC0020FEF74BFC0020FEF748FC00200E
:10439000FEF745FC0020FEF742FC0020FEF73FFC44
:1043A0000020FEF73CFC0020FEF739FC0020FEF761
:1043B00036FC0020FEF733FC0020FEF730FC002026
:1043C000FEF72DFC0020FEF72AFC0020FEF727FC5C
:1043D000B420FEF71BFC8B20FEF721FC0020FEF72B
:1043E0001EFC9620FEF71BFC0020FEF718FCA12007
:1043F000FEF715FC0020FEF712FCB520FEF706FCC8
:104400000220FEF70CFC0020FEF709FC0320FEF75B
:1044100006FC0020FEF703FC0420FEF700FC002051
:10442000FEF7FDFBB620FEF7F1FB0020FEF7F7FBE1
:104430000020FEF7F4FBB720FEF7E8FB0020FEF7B4
:10444000EEFB0020FEF7EBFB3F20FEF7E8FB002031
:10445000FEF7E5FB5E20FEF7E2FB0020FEF7DFFB48
:104460006420FEF7DCFB0020FEF7D9FB8C20FEF772
:10447000D6FB0020FEF7D3FBAC20FEF7D0FB0020DC
:10448000FEF7CDFBDC20FEF7CAFB01E0A005002013
:104490000020FEF7C4FB7020FEF7C1FB0020FEF7F2
:1044A000BEFB9020FEF7BBFB0020FEF7B8FBEB2025
:1044B000FEF7B5FB0020FEF7B2FBDC20FEF7AFFBFA
:1044C0000020FEF7ACFBB820FEF7A0FB0020FEF7B3
:1044D000A6FB0020FEF7A3FB0020FEF7A0FB0020B8
:1044E000FEF79DFB0020FEF79AFB0020FEF797FBEE
:1044F0000020FEF794FB0020FEF791FBBA20FEF7A8
:1045000085FB2420FEF78BFB0020FEF788FB0020B4
:10451000FEF785FB0020FEF782FBC120FEF776FB4D
:104520002020FEF77CFB0020FEF779FB5420FEF7ED
:1045300076FB0020FEF773FBFF20FEF770FB0020E8
:10454000FEF76DFBC220FEF761FB0A20FEF767FB5A
:104550000020FEF764FB0420FEF761FB0020FEF75D
:104560005EFBC320FEF752FB3C20FEF758FB002009
:10457000FEF755FB3A20FEF752FB0020FEF74FFBFB
:104580003920FEF74CFB0020FEF749FB3720FEF7F1
:1045900046FB0020FEF743FB3C20FEF740FB0020DB
:1045A000FEF73DFB3620FEF73AFB0020FEF737FB17
:1045B0003220FEF734FB0020FEF731FB2F20FEF700
:1045C0002EFB0020FEF72BFB2C20FEF728FB002003
:1045D000FEF725FB2920FEF722FB0020FEF71FFB3C
:1045E0002620FEF71CFB0020FEF719FB2420FEF717
:1045F00016FB0020FEF713FB2420FEF710FB002023
:10460000FEF70DFB2320FEF70AFB0020FEF707FB59
:104610003C20FEF704FB0020FEF701FB3620FEF7EE
:10462000FEFA0020FEF7FBFA3220FEF7F8FA00202F
:10463000FEF7F5FA2F20FEF7F2FA0020FEF7EFFA68
:104640002C20FEF7ECFA0020FEF7E9FA2920FEF70D
:10465000E6FA0020FEF7E3FA2620FEF7E0FA002053
:10466000FEF7DDFA2420FEF7DAFA0020FEF7D7FA8B
:104670002420FEF7D4FA0020FEF7D1FA2320FEF71B
:10468000CEFA0020FEF7CBFAC420FEF7BFFA622074
:10469000FEF7C5FA0020FEF7C2FA0520FEF7BFFAC2
:1046A0000020FEF7BCFA8420FEF7B9FA0020FEF7DE
:1046B000B6FAF020FEF7B3FA0020FEF7B0FA1820A1
:1046C000FEF7ADFA0020FEF7AAFAA420FEF7A7FA3B
:1046D0000020FEF7A4FA1820FEF7A1FA0020FEF74A
:1046E0009EFA5020FEF79BFA0020FEF798FA0C2065
:1046F000FEF795FA0020FEF792FA1720FEF78FFAE0
:104700000020FEF78CFA9520FEF789FA0020FEF7CC
:1047100086FAF320FEF783FA0020FEF780FAE620FF
:10472000FEF77DFA0020FEF77AFAC520FEF76EFA52
:104730003220FEF774FA0020FEF771FA4420FEF7EB
:104740006EFA0020FEF76BFA6520FEF768FA00208B
:10475000FEF765FA7620FEF762FA0020FEF75FFAB0
:104760008820FEF75CFA0020FEF759FAC620FEF713
:104770004DFA2020FEF753FA0020FEF750FA1720DA
:10478000FEF74DFA0020FEF74AFA0120FEF747FA3D
:104790000020FEF744FAC720FEF738FA0020FEF7A3
:1047A0003EFA0020FEF73BFA0020FEF738FA002020
:1047B000FEF735FAC820FEF729FA0020FEF72FFA97
:1047C0000020FEF72CFA0020FEF729FA0020FEF761
:1047D00026FAC920FEF71AFA0020FEF720FA002078
:1047E000FEF71DFA0020FEF71AFA0020FEF717FA6E
:1047F0000020FEF714FA0020FEF711FA0020FEF761
:104800000EFA0020FEF70BFA0020FEF708FA00204F
:10481000FEF705FA0020FEF702FA0020FEF7FFF986
:104820000020FEF7FCF90020FEF7F9F90020FEF762
:10483000F6F90020FEF7F3F9E020FEF7E7F916207D
:10484000FEF7EDF90020FEF7EAF91C20FEF7E7F984
:104850000020FEF7E4F92120FEF7E1F90020FEF741
:10486000DEF93620FEF7DBF90020FEF7D8F9462006
:10487000FEF7D5F90020FEF7D2F95220FEF7CFF966
:104880000020FEF7CCF96420FEF7C9F90020FEF7FE
:10489000C6F97A20FEF7C3F90020FEF7C0F98B2095
:1048A000FEF7BDF90020FEF7BAF99920FEF7B7F937
:1048B0000020FEF7B4F9A820FEF7B1F90020FEF7BA
:1048C000AEF9B920FEF7ABF90020FEF7A8F9C42035
:1048D000FEF7A5F90020FEF7A2F9CA20FEF79FF91E
:1048E0000020FEF79CF9D220FEF799F90020FEF790
:1048F00096F9D920FEF793F90020FEF790F9E02011
:10490000FEF78DF90020FEF78AF9F320FEF787F90C
:104910000020FEF784F9E120FEF778F91620FEF773
:104920007EF90020FEF77BF91C20FEF778F90020C5
:10493000FEF775F92220FEF772F90020FEF76FF9F5
:104940003620FEF76CF90020FEF769F94520FEF7E6
:1049500066F90020FEF763F95220FEF760F90020A7
:10496000FEF75DF96420FEF75AF90020FEF757F9CB
:104970007A20FEF754F90020FEF751F98B20FEF75C
:104980004EF90020FEF74BF99920FEF748F9002078
:10499000FEF745F9A820FEF742F90020FEF73FF99F
:1049A000B920FEF73CF90020FEF739F9C420FEF7E4
:1049B00036F90020FEF733F9CA20FEF730F900205F
:1049C000FEF72DF9D220FEF72AF90020FEF727F98D
:1049D000D820FEF724F90020FEF721F9E020FEF7A9
:1049E0001EF90020FEF71BF9F320FEF718F900204E
:1049F000FEF715F9E220FEF709F90520FEF70FF999
:104A00000020FEF70CF90B20FEF709F90020FEF755
:104A100006F91B20FEF703F90020FEF700F9342009
:104A2000FEF7FDF80020FEF7FAF84420FEF7F7F84D
:104A30000020FEF7F4F84F20FEF7F1F80020FEF713
:104A4000EEF86120FEF7EBF80020FEF7E8F8792099
:104A5000FEF7E5F80020FEF7E2F88820FEF7DFF821
:104A60000020FEF7DCF89720FEF7D9F80020FEF7CB
:104A7000D6F8A620FEF7D3F80020FEF7D0F8B7202E
:104A8000FEF7CDF80020FEF7CAF8C220FEF7C7F8FF
:104A90000020FEF7C4F8C720FEF7C1F80020FEF79B
:104AA000BEF8D120FEF7BBF80020FEF7B8F8D620FC
:104AB000FEF7B5F80020FEF7B2F8DD20FEF7AFF8FC
:104AC0000020FEF7ACF8F320FEF7A9F80020FEF76F
:104AD000A6F8E320FEF79AF80520FEF7A0F80020DC
:104AE000FEF79DF80A20FEF79AF80020FEF797F8E7
:104AF0001C20FEF794F80020FEF791F83320FEF713
:104B00008EF80020FEF78BF84420FEF788F800208E
:104B1000FEF785F85020FEF782F80020FEF77FF8B8
:104B20006220FEF77CF80020FEF779F87820FEF787
:104B300076F80020FEF773F88820FEF770F8002062
:104B4000FEF76DF89720FEF76AF80020FEF767F889
:104B5000A620FEF764F80020FEF761F8B720FEF704
:104B60005EF80020FEF75BF8C220FEF758F8002040
:104B7000FEF755F8C720FEF752F80020FEF74FF871
:104B8000D120FEF74CF80020FEF749F8D520FEF7BB
:104B900046F80020FEF743F8DD20FEF740F800203D
:104BA000FEF73DF8F320FEF73AF80020FEF737F85D
:104BB000E420FEF72BF80120FEF731F80020FEF785
:104BC0002EF80120FEF72BF80020FEF728F802202F
:104BD000FEF725F80020FEF722F82A20FEF71FF83E
:104BE0000020FEF71CF83C20FEF719F80020FEF725
:104BF00016F84B20FEF713F80020FEF710F85D20A2
:104C0000FEF70DF80020FEF70AF87420FEF707F80B
:104C10000020FEF704F88420FEF701F80020FDF7DD
:104C2000FEFF9320FDF7FBFF0020FDF7F8FFA22019
:104C3000FDF7F5FF0020FDF7F2FFB320FDF7EFFFD2
:104C40000020FDF7ECFFBE20FDF7E9FF0020FDF797
:104C5000E6FFC420FDF7E3FF0020FDF7E0FFCD20D5
:104C6000FDF7DDFF0020FDF7DAFFD320FDF7D7FFCA
:104C70000020FDF7D4FFDD20FDF7D1FF0020FDF778
:104C8000CEFFF320FDF7CBFF0020FDF7C8FFE520A6
:104C9000FDF7BCFF0020FDF7C2FF0020FDF7BFFFBE
:104CA0000020FDF7BCFF0020FDF7B9FF0220FDF753
:104CB000B6FF0020FDF7B3FF2920FDF7B0FF00206D
:104CC000FDF7ADFF3C20FDF7AAFF0020FDF7A7FF91
:104CD0004B20FDF7A4FF0020FDF7A1FF5D20FDF7AD
:104CE0009EFF0020FDF79BFF7420FDF798FF00203A
:104CF000FDF795FF8420FDF792FF0020FDF78FFF61
:104D00009320FDF78CFF0020FDF789FFA220FDF71F
:104D100086FF0020FDF783FFB320FDF780FF002012
:104D2000FDF77DFFBE20FDF77AFF0020FDF777FF3E
:104D3000C420FDF774FF0020FDF771FFCD20FDF7C3
:104D40006EFF0020FDF76BFFD320FDF768FF00200A
:104D5000FDF765FFDC20FDF762FF0020FDF75FFF38
:104D6000F320FDF75CFF0020FDF759FFE620FDF77B
:104D70004DFF1120FDF753FF0020FDF750FF3420B9
:104D8000FDF74DFF0020FDF74AFF5620FDF747FFD6
:104D90000020FDF744FF7620FDF741FF0020FDF7DE
:104DA0003EFF7720FDF73BFF0020FDF738FF662030
:104DB000FDF735FF0020FDF732FF8820FDF72FFFBC
:104DC0000020FDF72CFF9920FDF729FF0020FDF7BB
:104DD00026FFBB20FDF723FF0020FDF720FF9920D1
:104DE000FDF71DFF0020FDF71AFF6620FDF717FFF6
:104DF0000020FDF714FF5520FDF711FF0020FDF7FF
:104E00000EFF5520FDF70BFF0020FDF708FF4520A2
:104E1000FDF705FF0020FDF702FF4320FDF7FFFE31
:104E20000020FDF7FCFE4420FDF7F9FE0020FDF711
:104E3000F6FEE720FDF7EAFE3220FDF7F0FE002047
:104E4000FDF7EDFE5520FDF7EAFE0020FDF7E7FE39
:104E50007620FDF7E4FE0020FDF7E1FE6620FDF779
:104E6000DEFE0020FDF7DBFE6720FDF7D8FE002008
:104E7000FDF7D5FE6720FDF7D2FE0020FDF7CFFE3F
:104E80008720FDF7CCFE0020FDF7C9FE9920FDF735
:104E9000C6FE0020FDF7C3FEBB20FDF7C0FE0020CC
:104EA000FDF7BDFE9920FDF7BAFE0020FDF7B7FE25
:104EB0007720FDF7B4FE0020FDF7B1FE4420FDF79A
:104EC000AEFE0020FDF7ABFE5620FDF7A8FE002049
:104ED000FDF7A5FE2320FDF7A2FE0020FDF79FFEB3
:104EE0003320FDF79CFE0020FDF799FE4520FDF7DD
:104EF00096FE0020FDF793FEE820FDF787FE0020D8
:104F0000FDF78DFE0020FDF78AFE9920FDF787FE54
:104F10000020FDF784FE8720FDF781FE0020FDF7CD
:104F20007EFE8820FDF77BFE0020FDF778FE7720CF
:104F3000FDF775FE0020FDF772FE6620FDF76FFE9F
:104F40000020FDF76CFE8820FDF769FE0020FDF7CC
:104F500066FEAA20FDF763FE0020FDF760FEBB2081
:104F6000FDF75DFE0020FDF75AFE9920FDF757FE84
:104F70000020FDF754FE6620FDF751FE0020FDF7EE
:104F80004EFE5520FDF74BFE0020FDF748FE552054
:104F9000FDF745FE0020FDF742FE4420FDF73FFEF1
:104FA0000020FDF73CFE4420FDF739FE0020FDF710
:104FB00036FE5520FDF733FE0020FDF730FEE920D8
:104FC000FDF724FEAA20FDF72AFE0020FDF727FEAC
:104FD0000020FDF724FE0020FDF721FE0020FDF754
:104FE00015FEAA20FDF71BFECF20FDF70FFE0020C7
:104FF000FDF715FE0020FDF712FE0020FDF70FFE65
:105000000020FDF70CFE0020FDF709FE0020FDF753
:1050100006FE0020FDF703FE0020FDF700FE002045
:10502000FDF7FDFD0020FDF7FAFD0020FDF7F7FD7F
:105030000020FDF7F4FD0020FDF7F1FD0020FDF755
:10504000EEFD0020FDF7EBFD0020FDF7E8FD002060
:10505000FDF7E5FDF020FDF7D9FD0020FDF7DFFDB0
:105060005020FDF7DCFD0020FDF7D9FD0020FDF705
:10507000D6FD0020FDF7D3FDF320FDF7C7FD00208E
:10508000FDF7CDFDF920FDF7C1FD0620FDF7C7FDB9
:105090001020FDF7C4FD2920FDF7C1FD0020FDF71C
:1050A000BEFD3A20FDF7B2FD5520FDF7B8FD1120F9
:1050B000FDF7ACFD642003F071F82920FDF7A6FD93
:1050C0003520FDF7A3FD0020FDF7A9FD5120FDF7D8
:1050D0009DFDFF20FDF7A3FD5320FDF797FD2C203C
:1050E000FDF79DFD5520FDF791FD8220FDF797FD11
:1050F0002C20FDF78BFD02F0E9B8FE48808845F2D0
:10510000105188427ED155214FF47040FDF799FD32
:10511000AA214FF20100FDF794FD52214FF2020047
:10512000FDF78FFD08214FF20300FDF78AFD0121F5
:105130004FF20400FDF785FD0D214FF43040FDF7DF
:1051400080FD0D214BF20100FDF77BFD0D214BF29F
:105150000200FDF776FD34214FF43640FDF771FD76
:1051600034214BF20160FDF76CFD34214BF20260FB
:10517000FDF767FD0D214FF43140FDF762FD0D2174
:105180004BF20110FDF75DFD0D214BF20210FDF712
:1051900058FD34214FF43740FDF753FD34214BF2D5
:1051A0000170FDF74EFD34214BF20270FDF749FD11
:1051B00000214FF43240FDF744FD00214BF2012065
:1051C000FDF73FFD00214BF20220FDF73AFD2421BF
:1051D0004FF43840FDF735FD24214BF60100FDF773
:1051E00030FD24214BF60200FDF72BFD01214FF489
:1051F0003F40FDF726FD0F214FF43340FDF721FD21
:105200000F2100E0FEE34BF20130FDF71AFD0F2104
:105210004BF20230FDF715FD34214FF43940FDF714
:1052200010FD34214BF60110FDF70BFD34214BF638
:105230000210FDF706FD08214FF43540FDF701FD92
:1052400008214BF20150FDF7FCFC08214BF2025003
:10525000FDF7F7FC03214FF44240FDF7F2FC242157
:105260004FF43A40FDF7EDFC24214BF60120FDF709
:10527000E8FC24214BF60220FDF7E3FC00214FF46B
:105280003C40FDF7DEFC78214BF60140FDF7D9FCF0
:1052900000214BF60240FDF7D4FC00214FF43D40C5
:1052A000FDF7CFFC78214BF60150FDF7CAFC002139
:1052B0004BF60250FDF7C5FC00214FF43E40FDF7D0
:1052C000C0FC64214BF60160FDF7BBFC00214FF4EC
:1052D0005140FDF7B6FC33214DF20110FDF7B1FC52
:1052E00000214DF20210FDF7ACFC34214DF2031009
:1052F000FDF7A7FC00214DF20410FDF7A2FC3A21B6
:105300004DF20510FDF79DFC00214DF20610FDF752
:1053100098FC4A214DF20710FDF793FC00214DF255
:105320000810FDF78EFC5C214DF20910FDF789FC99
:1053300000214DF20A10FDF784FC81214DF20B1083
:10534000FDF77FFC00214DF20C10FDF77AFCA62141
:105350004DF20D10FDF775FC00214DF20E10FDF71A
:1053600070FCE5214DF20F10FDF76BFC01214DF2B1
:105370001010FDF766FC13214DF21110FDF761FCD2
:1053800001214DF21210FDF75CFC54214DF2131077
:10539000FDF757FC01214DF21410FDF752FC82215C
:1053A0004DF21510FDF74DFC01214DF21610FDF7E1
:1053B00048FCCA214DF21710FDF743FC02214DF2C3
:1053C0001810FDF73EFC00214DF21910FDF739FCD5
:1053D00002214DF21A10FDF734FC01214DF21B1091
:1053E000FDF72FFC02214DF21C10FDF72AFC3421A1
:1053F0004DF21D10FDF725FC02214DF21E10FDF7A8
:1054000020FC67214DF21F10FDF71BFC02214DF21D
:105410002010FDF716FC84214DF22110FDF711FC40
:1054200002214DF22210FDF70CFCA4214DF22310B5
:10543000FDF707FC02214DF22410FDF702FCB72115
:105440004DF22510FDF7FDFB02214DF22610FDF770
:10545000F8FBCF214DF22710FDF7F3FB02214DF2AF
:105460002810FDF7EEFBDE214DF22910FDF7E9FBD8
:1054700002214DF22A10FDF7E4FBF2214DF22B1030
:10548000FDF7DFFB02214DF22C10FDF7DAFBFE21C8
:105490004DF22D10FDF7D5FB03214DF22E10FDF737
:1054A000D0FB10214DF22F10FDF7CBFB03214DF265
:1054B0003010FDF7C6FB33214DF23110FDF7C1FB73
:1054C00003214DF23210FDF7BCFB6D214DF233107C
:1054D000FDF7B7FB00214FF45240FDF7B2FB33213B
:1054E0004DF20120FDF7ADFB00214DF20220FDF74A
:1054F000A8FB01E0A005002034214DF20320FDF7B8
:10550000A0FB00214DF20420FDF79BFB3A214DF258
:105510000520FDF796FB00214DF20620FDF791FBDB
:105520004A214DF20720FDF78CFB00214DF20820A7
:10553000FDF787FB5C214DF20920FDF782FB00217E
:105540004DF20A20FDF77DFB81214DF20B20FDF786
:1055500078FB00214DF20C20FDF773FBA6214DF2E4
:105560000D20FDF76EFB00214DF20E20FDF769FBCB
:10557000E5214DF20F20FDF764FB01214DF21020D3
:10558000FDF75FFB13214DF21120FDF75AFB0121BE
:105590004DF21220FDF755FB54214DF21320FDF77B
:1055A00050FB01214DF21420FDF74BFB82214DF2FF
:1055B0001520FDF746FB01214DF21620FDF741FBBA
:1055C000CA214DF21720FDF73CFB02214DF21820B5
:1055D000FDF737FB00214DF21920FDF732FB0221C8
:1055E0004DF21A20FDF72DFB01214DF21B20FDF796
:1055F00028FB02214DF21C20FDF723FB34214DF244
:105600001D20FDF71EFB02214DF21E20FDF719FBA8
:1056100067214DF21F20FDF714FB02214DF22020DF
:10562000FDF70FFB84214DF22120FDF70AFB02213B
:105630004DF22220FDF705FBA4214DF22320FDF7BA
:1056400000FB02214DF22420FDF7FBFAB7214DF2B9
:105650002520FDF7F6FA02214DF22620FDF7F1FA9A
:10566000CF214DF22720FDF7ECFA02214DF2282040
:10567000FDF7E7FADE214DF22920FDF7E2FA0221DB
:105680004DF22A20FDF7DDFAF2214DF22B20FDF735
:10569000D8FA02214DF22C20FDF7D3FAFE214DF26B
:1056A0002D20FDF7CEFA03214DF22E20FDF7C9FA89
:1056B00010214DF22F20FDF7C4FA03214DF23020C6
:1056C000FDF7BFFA33214DF23120FDF7BAFA03217D
:1056D0004DF23220FDF7B5FA6D214DF23320FDF782
:1056E000B0FA00214FF45340FDF7ABFA33214DF2ED
:1056F0000130FDF7A6FA00214DF20230FDF7A1FAC4
:1057000034214DF20330FDF79CFA00214DF20430B4
:10571000FDF797FA3A214DF20530FDF792FA002194
:105720004DF20630FDF78DFA4A214DF20730FDF7B4
:1057300088FA00214DF20830FDF783FA5C214DF222
:105740000930FDF77EFA00214DF20A30FDF779FAB3
:1057500081214DF20B30FDF774FA00214DF20C302F
:10576000FDF76FFAA6214DF20D30FDF76AFA002120
:105770004DF20E30FDF765FAE5214DF20F30FDF7E1
:1057800060FA01214DF21030FDF75BFA13214DF262
:105790001130FDF756FA01214DF21230FDF751FAA2
:1057A00054214DF21330FDF74CFA01214DF2143023
:1057B000FDF747FA82214DF21530FDF742FA01213B
:1057C0004DF21630FDF73DFACA214DF21730FDF7C4
:1057D00038FA02214DF21830FDF733FA00214DF26C
:1057E0001930FDF72EFA02214DF21A30FDF729FA91
:1057F00001214DF21B30FDF724FA02214DF21C303D
:10580000FDF71FFA34214DF21D30FDF71AFA02217F
:105810004DF21E30FDF715FA67214DF21F30FDF7EE
:1058200010FA02214DF22030FDF70BFA84214DF2DF
:105830002130FDF706FA02214DF22230FDF701FA80
:10584000A4214DF22330FDF7FCF902214DF2243062
:10585000FDF7F7F9B7214DF22530FDF7F2F90221F6
:105860004DF22630FDF7EDF9CF214DF22730FDF74F
:10587000E8F902214DF22830FDF7E3F9DE214DF27F
:105880002930FDF7DEF902214DF22A30FDF7D9F972
:10589000F2214DF22B30FDF7D4F902214DF22C30DC
:1058A000FDF7CFF9FE214DF22D30FDF7CAF90321A6
:1058B0004DF22E30FDF7C5F910214DF22F30FDF7D6
:1058C000C0F903214DF23030FDF7BBF933214DF221
:1058D0003130FDF7B6F903214DF23230FDF7B1F961
:1058E0006D214DF23330FDF7ACF900214FF45440F7
:1058F000FDF7A7F933214DF20140FDF7A2F9002190
:105900004DF20240FDF79DF934214DF20340FDF7C1
:1059100098F900214DF20440FDF793F93A214DF238
:105920000540FDF78EF900214DF20640FDF789F99B
:105930004A214DF20740FDF784F900214DF208405D
:10594000FDF77FF95C214DF20940FDF77AF900215E
:105950004DF20A40FDF775F981214DF20B40FDF73C
:1059600070F900214DF20C40FDF76BF9A6214DF2C4
:105970000D40FDF766F900214DF20E40FDF761F98B
:10598000E5214DF20F40FDF75CF901214DF2104089
:10599000FDF757F913214DF21140FDF752F901219E
:1059A0004DF21240FDF74DF954214DF21340FDF731
:1059B00048F901214DF21440FDF743F982214DF2DF
:1059C0001540FDF73EF901214DF21640FDF739F97A
:1059D000CA214DF21740FDF734F902214DF218406B
:1059E000FDF72FF900214DF21940FDF72AF90221A8
:1059F0004DF21A40FDF725F901214DF21B40FDF74C
:105A000020F900E004E302214DF21C40FDF719F9F2
:105A100034214DF21D40FDF714F902214DF21E40D4
:105A2000FDF70FF967214DF21F40FDF70AF902213A
:105A30004DF22040FDF705F984214DF22140FDF79C
:105A400000F902214DF22240FDF7FBF8A4214DF2AE
:105A50002340FDF7F6F802214DF22440FDF7F1F85E
:105A6000B7214DF22540FDF7ECF802214DF226401A
:105A7000FDF7E7F8CF214DF22740FDF7E2F80221CC
:105A80004DF22840FDF7DDF8DE214DF22940FDF70B
:105A9000D8F802214DF22A40FDF7D3F8F2214DF259
:105AA0002B40FDF7CEF802214DF22C40FDF7C9F84E
:105AB000FE214DF22D40FDF7C4F803214DF22E409A
:105AC000FDF7BFF810214DF22F40FDF7BAF8032182
:105AD0004DF23040FDF7B5F833214DF23140FDF77E
